{
	"data": {
		"bytecode": {
			"linkReferences": {},
			"object": "60806040523480156200001157600080fd5b50620000226200003860201b60201c565b6200003262000bc960201b60201c565b62001e85565b6040518060400160405280600881526020017f417572656c69616e00000000000000000000000000000000000000000000000081525060006040516200007e9062001a3f565b9081526020016040518091039020600080815260200190815260200160002060008081526020019081526020016000209081620000bc919062001cd0565b506040518060400160405280600881526020017f41756775737475730000000000000000000000000000000000000000000000008152506000604051620001039062001a3f565b90815260200160405180910390206000808152602001908152602001600020600060018152602001908152602001600020908162000142919062001cd0565b506040518060400160405280600681526020017f4a756c69616e00000000000000000000000000000000000000000000000000008152506000604051620001899062001a3f565b908152602001604051809103902060008081526020019081526020016000206000600281526020019081526020016000209081620001c8919062001cd0565b506040518060400160405280600681526020017f56616c656e73000000000000000000000000000000000000000000000000000081525060006040516200020f9062001a3f565b9081526020016040518091039020600080815260200190815260200160002060006003815260200190815260200160002090816200024e919062001cd0565b506040518060400160405280600881526020017f5374696c6963686f0000000000000000000000000000000000000000000000008152506000604051620002959062001e07565b908152602001604051809103902060006002815260200190815260200160002060008081526020019081526020016000209081620002d4919062001cd0565b506040518060400160405280600681526020017f416574697573000000000000000000000000000000000000000000000000000081525060006040516200031b9062001e07565b908152602001604051809103902060006002815260200190815260200160002060006001815260200190815260200160002090816200035b919062001cd0565b506040518060400160405280600881526020017f4d616a6f7269616e0000000000000000000000000000000000000000000000008152506000604051620003a29062001e07565b90815260200160405180910390206000600281526020019081526020016000206000600281526020019081526020016000209081620003e2919062001cd0565b506040518060400160405280600f81526020017f56616c656e74696e69616e2049494900000000000000000000000000000000008152506000604051620004299062001e07565b9081526020016040518091039020600060028152602001908152602001600020600060038152602001908152602001600020908162000469919062001cd0565b506040518060400160405280600481526020017f526f6d65000000000000000000000000000000000000000000000000000000008152506000604051620004b09062001e07565b908152602001604051809103902060006003815260200190815260200160002060008081526020019081526020016000209081620004ef919062001cd0565b506040518060400160405280600581526020017f4d696c616e0000000000000000000000000000000000000000000000000000008152506000604051620005369062001e07565b9081526020016040518091039020600060038152602001908152602001600020600060018152602001908152602001600020908162000576919062001cd0565b506040518060400160405280600781526020017f526176656e6e61000000000000000000000000000000000000000000000000008152506000604051620005bd9062001e07565b90815260200160405180910390206000600381526020019081526020016000206000600281526020019081526020016000209081620005fd919062001cd0565b506040518060400160405280600681526020017f4e61706c657300000000000000000000000000000000000000000000000000008152506000604051620006449062001e07565b9081526020016040518091039020600060038152602001908152602001600020600060038152602001908152602001600020908162000684919062001cd0565b506040518060400160405280600b81526020017f41647269616e6f706f6c650000000000000000000000000000000000000000008152506000604051620006cb9062001e07565b9081526020016040518091039020600060048152602001908152602001600020600080815260200190815260200160002090816200070a919062001cd0565b506040518060400160405280600e81526020017f4c616b652054726173696d656e650000000000000000000000000000000000008152506000604051620007519062001e07565b9081526020016040518091039020600060048152602001908152602001600020600060018152602001908152602001600020908162000791919062001cd0565b506040518060400160405280600781526020017f43617272686165000000000000000000000000000000000000000000000000008152506000604051620007d89062001e07565b9081526020016040518091039020600060048152602001908152602001600020600060028152602001908152602001600020908162000818919062001cd0565b506040518060400160405280600a81526020017f4964697374617669736f0000000000000000000000000000000000000000000081525060006040516200085f9062001e07565b908152602001604051809103902060006004815260200190815260200160002060006003815260200190815260200160002090816200089f919062001cd0565b50600060405180606001604052806040518060600160405280603f815260200162005814603f91398152602001600081526020016040518060c001604052806085815260200162005677608591398152509050600060405180606001604052806040518060800160405280605d8152602001620056fc605d91398152602001600181526020016040518060c001604052806095815260200162005e226095913981525090506000604051806060016040528060405180608001604052806051815260200162005eb7605191398152602001600281526020016040518060a001604052806080815260200162005a2460809139815250905060006040518060600160405280604051806060016040528060328152602001620057e2603291398152602001600381526020016040518060e0016040528060b2815260200162005c3460b291398152509050836001604051620009f99062001e07565b90815260200160405180910390206000808152602001908152602001600020600082015181600001908162000a2f919062001cd0565b5060208201518160010155604082015181600201908162000a51919062001cd0565b5090505082600160405162000a669062001e07565b9081526020016040518091039020600060018152602001908152602001600020600082015181600001908162000a9d919062001cd0565b5060208201518160010155604082015181600201908162000abf919062001cd0565b5090505081600160405162000ad49062001e07565b9081526020016040518091039020600060028152602001908152602001600020600082015181600001908162000b0b919062001cd0565b5060208201518160010155604082015181600201908162000b2d919062001cd0565b5090505080600160405162000b429062001e07565b9081526020016040518091039020600060038152602001908152602001600020600082015181600001908162000b79919062001cd0565b5060208201518160010155604082015181600201908162000b9b919062001cd0565b509050506004600260405162000bb19062001e07565b90815260200160405180910390208190555050505050565b6040518060400160405280600681526020017f4d756e6475730000000000000000000000000000000000000000000000000000815250600060405162000c0f9062001e6e565b908152602001604051809103902060008081526020019081526020016000206000808152602001908152602001600020908162000c4d919062001cd0565b506040518060400160405280600681526020017f4265737361730000000000000000000000000000000000000000000000000000815250600060405162000c949062001e6e565b90815260200160405180910390206000808152602001908152602001600020600060018152602001908152602001600020908162000cd3919062001cd0565b506040518060400160405280600a81526020017f42656c6973617269757300000000000000000000000000000000000000000000815250600060405162000d1a9062001e6e565b90815260200160405180910390206000808152602001908152602001600020600060028152602001908152602001600020908162000d59919062001cd0565b506040518060400160405280600681526020017f5369747461730000000000000000000000000000000000000000000000000000815250600060405162000da09062001e6e565b90815260200160405180910390206000808152602001908152602001600020600060038152602001908152602001600020908162000ddf919062001cd0565b506040518060600160405280603981526020016200585360399139600060405162000e0a9062001e6e565b90815260200160405180910390206000600281526020019081526020016000206000808152602001908152602001600020908162000e49919062001cd0565b506040518060600160405280602a815260200162005c0a602a9139600060405162000e749062001e6e565b9081526020016040518091039020600060028152602001908152602001600020600060018152602001908152602001600020908162000eb4919062001cd0565b506040518060600160405280602c8152602001620059f8602c9139600060405162000edf9062001e6e565b9081526020016040518091039020600060028152602001908152602001600020600060028152602001908152602001600020908162000f1f919062001cd0565b506040518060400160405280602081526020017f5065727369616e2064657369726520746f20636f6e717565722045677970742e815250600060405162000f669062001e6e565b9081526020016040518091039020600060028152602001908152602001600020600060038152602001908152602001600020908162000fa6919062001cd0565b506040518060400160405280600781526020017f426173696c204900000000000000000000000000000000000000000000000000815250600060405162000fed9062001e6e565b9081526020016040518091039020600060038152602001908152602001600020600080815260200190815260200160002090816200102c919062001cd0565b506040518060400160405280601481526020017f4e696b6570686f726f732049492050686f6b61730000000000000000000000008152506000604051620010739062001e6e565b90815260200160405180910390206000600381526020019081526020016000206000600181526020019081526020016000209081620010b3919062001cd0565b506040518060400160405280601081526020017f4a6f686e204920547a696d69736b6573000000000000000000000000000000008152506000604051620010fa9062001e6e565b908152602001604051809103902060006003815260200190815260200160002060006002815260200190815260200160002090816200113a919062001cd0565b506040518060400160405280600a81526020017f526f6d616e6f73204949000000000000000000000000000000000000000000008152506000604051620011819062001e6e565b90815260200160405180910390206000600381526020019081526020016000206000600381526020019081526020016000209081620011c1919062001cd0565b506040518060400160405280600781526020017f5961726d6f756b000000000000000000000000000000000000000000000000008152506000604051620012089062001e6e565b90815260200160405180910390206000600481526020019081526020016000206000808152602001908152602001600020908162001247919062001cd0565b506040518060400160405280600681526020017f506c69736b61000000000000000000000000000000000000000000000000000081525060006040516200128e9062001e6e565b90815260200160405180910390206000600481526020019081526020016000206000600181526020019081526020016000209081620012ce919062001cd0565b506040518060400160405280600981526020017f43616c696e6963756d00000000000000000000000000000000000000000000008152506000604051620013159062001e6e565b9081526020016040518091039020600060048152602001908152602001600020600060028152602001908152602001600020908162001355919062001cd0565b506040518060400160405280600981526020017f4d616e7a696b657274000000000000000000000000000000000000000000000081525060006040516200139c9062001e6e565b90815260200160405180910390206000600481526020019081526020016000206000600381526020019081526020016000209081620013dc919062001cd0565b506040518060400160405280600881526020017f43617274686167650000000000000000000000000000000000000000000000008152506000604051620014239062001e6e565b90815260200160405180910390206000600581526020019081526020016000206000808152602001908152602001600020908162001462919062001cd0565b506040518060400160405280600781526020017f416e74696f6368000000000000000000000000000000000000000000000000008152506000604051620014a99062001e6e565b90815260200160405180910390206000600581526020019081526020016000206000600181526020019081526020016000209081620014e9919062001cd0565b506040518060400160405280600b81526020017f41647269616e6f706f6c650000000000000000000000000000000000000000008152506000604051620015309062001e6e565b9081526020016040518091039020600060058152602001908152602001600020600060028152602001908152602001600020908162001570919062001cd0565b506040518060400160405280600c81526020017f54686573616c6c6f6e696b6900000000000000000000000000000000000000008152506000604051620015b79062001e6e565b90815260200160405180910390206000600581526020019081526020016000206000600381526020019081526020016000209081620015f7919062001cd0565b50600060405180606001604052806040518060600160405280603d815260200162005aa4603d91398152602001600281526020016040518060c00160405280608381526020016200588c6083913981525090506000604051806060016040528060405180606001604052806037815260200162005d666037913981526020016000815260200160405180610120016040528060f0815260200162005b1a60f0913981525090506000604051806060016040528060405180606001604052806039815260200162005ae1603991398152602001600181526020016040518060c001604052806089815260200162005759608991398152509050600060405180606001604052806040518060600160405280602d815260200162005ce6602d913981526020016003815260200160405180610120016040528060e981526020016200590f60e9913981525090506000604051806060016040528060405180608001604052806053815260200162005d13605391398152602001600081526020016040518060c001604052806085815260200162005d9d608591398152509050846001604051620017a59062001e6e565b908152602001604051809103902060008081526020019081526020016000206000820151816000019081620017db919062001cd0565b50602082015181600101556040820151816002019081620017fd919062001cd0565b50905050836001604051620018129062001e6e565b9081526020016040518091039020600060018152602001908152602001600020600082015181600001908162001849919062001cd0565b506020820151816001015560408201518160020190816200186b919062001cd0565b50905050826001604051620018809062001e6e565b90815260200160405180910390206000600281526020019081526020016000206000820151816000019081620018b7919062001cd0565b50602082015181600101556040820151816002019081620018d9919062001cd0565b50905050816001604051620018ee9062001e6e565b9081526020016040518091039020600060038152602001908152602001600020600082015181600001908162001925919062001cd0565b5060208201518160010155604082015181600201908162001947919062001cd0565b509050508060016040516200195c9062001e6e565b9081526020016040518091039020600060048152602001908152602001600020600082015181600001908162001993919062001cd0565b50602082015181600101556040820151816002019081620019b5919062001cd0565b5090505060056002604051620019cb9062001e6e565b9081526020016040518091039020819055505050505050565b600081905092915050565b7f416e6369656e7420526f6d616e20456d70696500000000000000000000000000600082015250565b600062001a27601383620019e4565b915062001a3482620019ef565b601382019050919050565b600062001a4c8262001a18565b9150819050919050565b600081519050919050565b7f4e487b7100000000000000000000000000000000000000000000000000000000600052604160045260246000fd5b7f4e487b7100000000000000000000000000000000000000000000000000000000600052602260045260246000fd5b6000600282049050600182168062001ad857607f821691505b60208210810362001aee5762001aed62001a90565b5b50919050565b60008190508160005260206000209050919050565b60006020601f8301049050919050565b600082821b905092915050565b60006008830262001b587fffffffffffffffffffffffffffffffffffffffffffffffffffffffffffffffff8262001b19565b62001b64868362001b19565b95508019841693508086168417925050509392505050565b6000819050919050565b6000819050919050565b600062001bb162001bab62001ba58462001b7c565b62001b86565b62001b7c565b9050919050565b6000819050919050565b62001bcd8362001b90565b62001be562001bdc8262001bb8565b84845462001b26565b825550505050565b600090565b62001bfc62001bed565b62001c0981848462001bc2565b505050565b5b8181101562001c315762001c2560008262001bf2565b60018101905062001c0f565b5050565b601f82111562001c805762001c4a8162001af4565b62001c558462001b09565b8101602085101562001c65578190505b62001c7d62001c748562001b09565b83018262001c0e565b50505b505050565b600082821c905092915050565b600062001ca56000198460080262001c85565b1980831691505092915050565b600062001cc0838362001c92565b9150826002028217905092915050565b62001cdb8262001a56565b67ffffffffffffffff81111562001cf75762001cf662001a61565b5b62001d03825462001abf565b62001d1082828562001c35565b600060209050601f83116001811462001d48576000841562001d33578287015190505b62001d3f858262001cb2565b86555062001daf565b601f19841662001d588662001af4565b60005b8281101562001d825784890151825560018201915060208501945060208101905062001d5b565b8683101562001da2578489015162001d9e601f89168262001c92565b8355505b6001600288020188555050505b505050505050565b7f416e6369656e7420526f6d616e20456d70697265000000000000000000000000600082015250565b600062001def601483620019e4565b915062001dfc8262001db7565b601482019050919050565b600062001e148262001de0565b9150819050919050565b7f4d6564696576616c20526f6d616e20456d706972650000000000000000000000600082015250565b600062001e56601583620019e4565b915062001e638262001e1e565b601582019050919050565b600062001e7b8262001e47565b9150819050919050565b6137e28062001e956000396000f3fe608060405234801561001057600080fd5b50600436106100885760003560e01c8063961c37cc1161005b578063961c37cc14610115578063a9729b251461011f578063b6c563851461014f578063e6c1e3351461017f57610088565b806304f268ed1461008d578063077a3735146100975780630afb2de9146100b35780637ede6fdf146100e3575b600080fd5b6100956101af565b005b6100b160048036038101906100ac919061242f565b610f4d565b005b6100cd60048036038101906100c891906124d6565b611019565b6040516100da919061252e565b60405180910390f35b6100fd60048036038101906100f89190612549565b611047565b60405161010c93929190612624565b60405180910390f35b61011d6111a4565b005b610139600480360381019061013491906124d6565b611cd3565b60405161014691906127e9565b60405180910390f35b610169600480360381019061016491906124d6565b611cda565b604051610176919061296e565b60405180910390f35b61019960048036038101906101949190612990565b611f41565b6040516101a691906129ff565b60405180910390f35b6040518060400160405280600681526020017f4d756e647573000000000000000000000000000000000000000000000000000081525060006040516101f390612a78565b908152602001604051809103902060008081526020019081526020016000206000808152602001908152602001600020908161022f9190612c99565b506040518060400160405280600681526020017f4265737361730000000000000000000000000000000000000000000000000000815250600060405161027490612a78565b9081526020016040518091039020600080815260200190815260200160002060006001815260200190815260200160002090816102b19190612c99565b506040518060400160405280600a81526020017f42656c697361726975730000000000000000000000000000000000000000000081525060006040516102f690612a78565b9081526020016040518091039020600080815260200190815260200160002060006002815260200190815260200160002090816103339190612c99565b506040518060400160405280600681526020017f5369747461730000000000000000000000000000000000000000000000000000815250600060405161037890612a78565b9081526020016040518091039020600080815260200190815260200160002060006003815260200190815260200160002090816103b59190612c99565b506040518060600160405280603981526020016130f86039913960006040516103dd90612a78565b90815260200160405180910390206000600281526020019081526020016000206000808152602001908152602001600020908161041a9190612c99565b506040518060600160405280602a81526020016134af602a9139600060405161044290612a78565b908152602001604051809103902060006002815260200190815260200160002060006001815260200190815260200160002090816104809190612c99565b506040518060600160405280602c815260200161329d602c913960006040516104a890612a78565b908152602001604051809103902060006002815260200190815260200160002060006002815260200190815260200160002090816104e69190612c99565b506040518060400160405280602081526020017f5065727369616e2064657369726520746f20636f6e717565722045677970742e815250600060405161052b90612a78565b908152602001604051809103902060006002815260200190815260200160002060006003815260200190815260200160002090816105699190612c99565b506040518060400160405280600781526020017f426173696c20490000000000000000000000000000000000000000000000000081525060006040516105ae90612a78565b9081526020016040518091039020600060038152602001908152602001600020600080815260200190815260200160002090816105eb9190612c99565b506040518060400160405280601481526020017f4e696b6570686f726f732049492050686f6b6173000000000000000000000000815250600060405161063090612a78565b9081526020016040518091039020600060038152602001908152602001600020600060018152602001908152602001600020908161066e9190612c99565b506040518060400160405280601081526020017f4a6f686e204920547a696d69736b65730000000000000000000000000000000081525060006040516106b390612a78565b908152602001604051809103902060006003815260200190815260200160002060006002815260200190815260200160002090816106f19190612c99565b506040518060400160405280600a81526020017f526f6d616e6f7320494900000000000000000000000000000000000000000000815250600060405161073690612a78565b908152602001604051809103902060006003815260200190815260200160002060006003815260200190815260200160002090816107749190612c99565b506040518060400160405280600781526020017f5961726d6f756b0000000000000000000000000000000000000000000000000081525060006040516107b990612a78565b9081526020016040518091039020600060048152602001908152602001600020600080815260200190815260200160002090816107f69190612c99565b506040518060400160405280600681526020017f506c69736b610000000000000000000000000000000000000000000000000000815250600060405161083b90612a78565b908152602001604051809103902060006004815260200190815260200160002060006001815260200190815260200160002090816108799190612c99565b506040518060400160405280600981526020017f43616c696e6963756d000000000000000000000000000000000000000000000081525060006040516108be90612a78565b908152602001604051809103902060006004815260200190815260200160002060006002815260200190815260200160002090816108fc9190612c99565b506040518060400160405280600981526020017f4d616e7a696b6572740000000000000000000000000000000000000000000000815250600060405161094190612a78565b9081526020016040518091039020600060048152602001908152602001600020600060038152602001908152602001600020908161097f9190612c99565b506040518060400160405280600881526020017f436172746861676500000000000000000000000000000000000000000000000081525060006040516109c490612a78565b908152602001604051809103902060006005815260200190815260200160002060008081526020019081526020016000209081610a019190612c99565b506040518060400160405280600781526020017f416e74696f6368000000000000000000000000000000000000000000000000008152506000604051610a4690612a78565b90815260200160405180910390206000600581526020019081526020016000206000600181526020019081526020016000209081610a849190612c99565b506040518060400160405280600b81526020017f41647269616e6f706f6c650000000000000000000000000000000000000000008152506000604051610ac990612a78565b90815260200160405180910390206000600581526020019081526020016000206000600281526020019081526020016000209081610b079190612c99565b506040518060400160405280600c81526020017f54686573616c6c6f6e696b6900000000000000000000000000000000000000008152506000604051610b4c90612a78565b90815260200160405180910390206000600581526020019081526020016000206000600381526020019081526020016000209081610b8a9190612c99565b50600060405180606001604052806040518060600160405280603d8152602001613349603d91398152602001600281526020016040518060c00160405280608381526020016131316083913981525090506000604051806060016040528060405180606001604052806037815260200161360b6037913981526020016000815260200160405180610120016040528060f081526020016133bf60f09139815250905060006040518060600160405280604051806060016040528060398152602001613386603991398152602001600181526020016040518060c0016040528060898152602001612ffe608991398152509050600060405180606001604052806040518060600160405280602d815260200161358b602d913981526020016003815260200160405180610120016040528060e981526020016131b460e991398152509050600060405180606001604052806040518060800160405280605381526020016135b8605391398152602001600081526020016040518060c0016040528060858152602001613642608591398152509050846001604051610d2c90612a78565b908152602001604051809103902060008081526020019081526020016000206000820151816000019081610d609190612c99565b50602082015181600101556040820151816002019081610d809190612c99565b50905050836001604051610d9390612a78565b90815260200160405180910390206000600181526020019081526020016000206000820151816000019081610dc89190612c99565b50602082015181600101556040820151816002019081610de89190612c99565b50905050826001604051610dfb90612a78565b90815260200160405180910390206000600281526020019081526020016000206000820151816000019081610e309190612c99565b50602082015181600101556040820151816002019081610e509190612c99565b50905050816001604051610e6390612a78565b90815260200160405180910390206000600381526020019081526020016000206000820151816000019081610e989190612c99565b50602082015181600101556040820151816002019081610eb89190612c99565b50905050806001604051610ecb90612a78565b90815260200160405180910390206000600481526020019081526020016000206000820151816000019081610f009190612c99565b50602082015181600101556040820151816002019081610f209190612c99565b5090505060056002604051610f3490612a78565b9081526020016040518091039020819055505050505050565b60005b8251811015610fef57828181518110610f6c57610f6b612d6b565b5b6020026020010151600185604051610f849190612dcb565b908152602001604051809103902060008381526020019081526020016000206000820151816000019081610fb89190612c99565b50602082015181600101556040820151816002019081610fd89190612c99565b509050508080610fe790612e11565b915050610f50565b5081516002846040516110029190612dcb565b908152602001604051809103902081905550505050565b6002818051602081018201805184825260208301602085012081835280955050505050506000915090505481565b6001828051602081018201805184825260208301602085012081835280955050505050506020528060005260406000206000915091505080600001805461108d90612abc565b80601f01602080910402602001604051908101604052809291908181526020018280546110b990612abc565b80156111065780601f106110db57610100808354040283529160200191611106565b820191906000526020600020905b8154815290600101906020018083116110e957829003601f168201915b50505050509080600101549080600201805461112190612abc565b80601f016020809104026020016040519081016040528092919081815260200182805461114d90612abc565b801561119a5780601f1061116f5761010080835404028352916020019161119a565b820191906000526020600020905b81548152906001019060200180831161117d57829003601f168201915b5050505050905083565b6040518060400160405280600881526020017f417572656c69616e00000000000000000000000000000000000000000000000081525060006040516111e890612ea5565b90815260200160405180910390206000808152602001908152602001600020600080815260200190815260200160002090816112249190612c99565b506040518060400160405280600881526020017f4175677573747573000000000000000000000000000000000000000000000000815250600060405161126990612ea5565b9081526020016040518091039020600080815260200190815260200160002060006001815260200190815260200160002090816112a69190612c99565b506040518060400160405280600681526020017f4a756c69616e000000000000000000000000000000000000000000000000000081525060006040516112eb90612ea5565b9081526020016040518091039020600080815260200190815260200160002060006002815260200190815260200160002090816113289190612c99565b506040518060400160405280600681526020017f56616c656e730000000000000000000000000000000000000000000000000000815250600060405161136d90612ea5565b9081526020016040518091039020600080815260200190815260200160002060006003815260200190815260200160002090816113aa9190612c99565b506040518060400160405280600881526020017f5374696c6963686f00000000000000000000000000000000000000000000000081525060006040516113ef90612f06565b90815260200160405180910390206000600281526020019081526020016000206000808152602001908152602001600020908161142c9190612c99565b506040518060400160405280600681526020017f4165746975730000000000000000000000000000000000000000000000000000815250600060405161147190612f06565b908152602001604051809103902060006002815260200190815260200160002060006001815260200190815260200160002090816114af9190612c99565b506040518060400160405280600881526020017f4d616a6f7269616e00000000000000000000000000000000000000000000000081525060006040516114f490612f06565b908152602001604051809103902060006002815260200190815260200160002060006002815260200190815260200160002090816115329190612c99565b506040518060400160405280600f81526020017f56616c656e74696e69616e204949490000000000000000000000000000000000815250600060405161157790612f06565b908152602001604051809103902060006002815260200190815260200160002060006003815260200190815260200160002090816115b59190612c99565b506040518060400160405280600481526020017f526f6d650000000000000000000000000000000000000000000000000000000081525060006040516115fa90612f06565b9081526020016040518091039020600060038152602001908152602001600020600080815260200190815260200160002090816116379190612c99565b506040518060400160405280600581526020017f4d696c616e000000000000000000000000000000000000000000000000000000815250600060405161167c90612f06565b908152602001604051809103902060006003815260200190815260200160002060006001815260200190815260200160002090816116ba9190612c99565b506040518060400160405280600781526020017f526176656e6e610000000000000000000000000000000000000000000000000081525060006040516116ff90612f06565b9081526020016040518091039020600060038152602001908152602001600020600060028152602001908152602001600020908161173d9190612c99565b506040518060400160405280600681526020017f4e61706c65730000000000000000000000000000000000000000000000000000815250600060405161178290612f06565b908152602001604051809103902060006003815260200190815260200160002060006003815260200190815260200160002090816117c09190612c99565b506040518060400160405280600b81526020017f41647269616e6f706f6c65000000000000000000000000000000000000000000815250600060405161180590612f06565b9081526020016040518091039020600060048152602001908152602001600020600080815260200190815260200160002090816118429190612c99565b506040518060400160405280600e81526020017f4c616b652054726173696d656e65000000000000000000000000000000000000815250600060405161188790612f06565b908152602001604051809103902060006004815260200190815260200160002060006001815260200190815260200160002090816118c59190612c99565b506040518060400160405280600781526020017f4361727268616500000000000000000000000000000000000000000000000000815250600060405161190a90612f06565b908152602001604051809103902060006004815260200190815260200160002060006002815260200190815260200160002090816119489190612c99565b506040518060400160405280600a81526020017f4964697374617669736f00000000000000000000000000000000000000000000815250600060405161198d90612f06565b908152602001604051809103902060006004815260200190815260200160002060006003815260200190815260200160002090816119cb9190612c99565b50600060405180606001604052806040518060600160405280603f81526020016130b9603f91398152602001600081526020016040518060c0016040528060858152602001612f1c608591398152509050600060405180606001604052806040518060800160405280605d8152602001612fa1605d91398152602001600181526020016040518060c00160405280609581526020016136c76095913981525090506000604051806060016040528060405180608001604052806051815260200161375c605191398152602001600281526020016040518060a00160405280608081526020016132c960809139815250905060006040518060600160405280604051806060016040528060328152602001613087603291398152602001600381526020016040518060e0016040528060b281526020016134d960b291398152509050836001604051611b1b90612f06565b908152602001604051809103902060008081526020019081526020016000206000820151816000019081611b4f9190612c99565b50602082015181600101556040820151816002019081611b6f9190612c99565b50905050826001604051611b8290612f06565b90815260200160405180910390206000600181526020019081526020016000206000820151816000019081611bb79190612c99565b50602082015181600101556040820151816002019081611bd79190612c99565b50905050816001604051611bea90612f06565b90815260200160405180910390206000600281526020019081526020016000206000820151816000019081611c1f9190612c99565b50602082015181600101556040820151816002019081611c3f9190612c99565b50905050806001604051611c5290612f06565b90815260200160405180910390206000600381526020019081526020016000206000820151816000019081611c879190612c99565b50602082015181600101556040820151816002019081611ca79190612c99565b5090505060046002604051611cbb90612f06565b90815260200160405180910390208190555050505050565b6060919050565b60606000600183604051611cee9190612dcb565b908152602001604051809103902090506000600284604051611d109190612dcb565b90815260200160405180910390205467ffffffffffffffff811115611d3857611d37612061565b5b604051908082528060200260200182016040528015611d7157816020015b611d5e612011565b815260200190600190039081611d565790505b50905060005b600285604051611d879190612dcb565b908152602001604051809103902054811015611f3657600185604051611dad9190612dcb565b90815260200160405180910390206000828152602001908152602001600020604051806060016040529081600082018054611de790612abc565b80601f0160208091040260200160405190810160405280929190818152602001828054611e1390612abc565b8015611e605780601f10611e3557610100808354040283529160200191611e60565b820191906000526020600020905b815481529060010190602001808311611e4357829003601f168201915b5050505050815260200160018201548152602001600282018054611e8390612abc565b80601f0160208091040260200160405190810160405280929190818152602001828054611eaf90612abc565b8015611efc5780601f10611ed157610100808354040283529160200191611efc565b820191906000526020600020905b815481529060010190602001808311611edf57829003601f168201915b505050505081525050828281518110611f1857611f17612d6b565b5b60200260200101819052508080611f2e90612e11565b915050611d77565b508092505050919050565b60008380516020810182018051848252602083016020850120818352809550505050505060205281600052604060002060205280600052604060002060009250925050508054611f9090612abc565b80601f0160208091040260200160405190810160405280929190818152602001828054611fbc90612abc565b80156120095780601f10611fde57610100808354040283529160200191612009565b820191906000526020600020905b815481529060010190602001808311611fec57829003601f168201915b505050505081565b60405180606001604052806060815260200160008152602001606081525090565b6000604051905090565b600080fd5b600080fd5b600080fd5b600080fd5b6000601f19601f8301169050919050565b7f4e487b7100000000000000000000000000000000000000000000000000000000600052604160045260246000fd5b61209982612050565b810181811067ffffffffffffffff821117156120b8576120b7612061565b5b80604052505050565b60006120cb612032565b90506120d78282612090565b919050565b600067ffffffffffffffff8211156120f7576120f6612061565b5b61210082612050565b9050602081019050919050565b82818337600083830152505050565b600061212f61212a846120dc565b6120c1565b90508281526020810184848401111561214b5761214a61204b565b5b61215684828561210d565b509392505050565b600082601f83011261217357612172612046565b5b813561218384826020860161211c565b91505092915050565b600067ffffffffffffffff8211156121a7576121a6612061565b5b602082029050602081019050919050565b600080fd5b600080fd5b600080fd5b6000819050919050565b6121da816121c7565b81146121e557600080fd5b50565b6000813590506121f7816121d1565b92915050565b600060608284031215612213576122126121bd565b5b61221d60606120c1565b9050600082013567ffffffffffffffff81111561223d5761223c6121c2565b5b6122498482850161215e565b600083015250602061225d848285016121e8565b602083015250604082013567ffffffffffffffff811115612281576122806121c2565b5b61228d8482850161215e565b60408301525092915050565b60006122ac6122a78461218c565b6120c1565b905080838252602082019050602084028301858111156122cf576122ce6121b8565b5b835b8181101561231657803567ffffffffffffffff8111156122f4576122f3612046565b5b80860161230189826121fd565b855260208501945050506020810190506122d1565b5050509392505050565b600082601f83011261233557612334612046565b5b8135612345848260208601612299565b91505092915050565b600067ffffffffffffffff82111561236957612368612061565b5b602082029050602081019050919050565b600061238d6123888461234e565b6120c1565b905080838252602082019050602084028301858111156123b0576123af6121b8565b5b835b818110156123f757803567ffffffffffffffff8111156123d5576123d4612046565b5b8086016123e2898261215e565b855260208501945050506020810190506123b2565b5050509392505050565b600082601f83011261241657612415612046565b5b813561242684826020860161237a565b91505092915050565b6000806000606084860312156124485761244761203c565b5b600084013567ffffffffffffffff81111561246657612465612041565b5b6124728682870161215e565b935050602084013567ffffffffffffffff81111561249357612492612041565b5b61249f86828701612320565b925050604084013567ffffffffffffffff8111156124c0576124bf612041565b5b6124cc86828701612401565b9150509250925092565b6000602082840312156124ec576124eb61203c565b5b600082013567ffffffffffffffff81111561250a57612509612041565b5b6125168482850161215e565b91505092915050565b612528816121c7565b82525050565b6000602082019050612543600083018461251f565b92915050565b600080604083850312156125605761255f61203c565b5b600083013567ffffffffffffffff81111561257e5761257d612041565b5b61258a8582860161215e565b925050602061259b858286016121e8565b9150509250929050565b600081519050919050565b600082825260208201905092915050565b60005b838110156125df5780820151818401526020810190506125c4565b60008484015250505050565b60006125f6826125a5565b61260081856125b0565b93506126108185602086016125c1565b61261981612050565b840191505092915050565b6000606082019050818103600083015261263e81866125eb565b905061264d602083018561251f565b818103604083015261265f81846125eb565b9050949350505050565b600081519050919050565b600082825260208201905092915050565b6000819050602082019050919050565b600081519050919050565b600082825260208201905092915050565b6000819050602082019050919050565b6126ca816121c7565b82525050565b60006126dc83836126c1565b60208301905092915050565b6000602082019050919050565b600061270082612695565b61270a81856126a0565b9350612715836126b1565b8060005b8381101561274657815161272d88826126d0565b9750612738836126e8565b925050600181019050612719565b5085935050505092915050565b600061275f83836126f5565b905092915050565b6000602082019050919050565b600061277f82612669565b6127898185612674565b93508360208202850161279b85612685565b8060005b858110156127d757848403895281516127b88582612753565b94506127c383612767565b925060208a0199505060018101905061279f565b50829750879550505050505092915050565b600060208201905081810360008301526128038184612774565b905092915050565b600081519050919050565b600082825260208201905092915050565b6000819050602082019050919050565b600082825260208201905092915050565b6000612853826125a5565b61285d8185612837565b935061286d8185602086016125c1565b61287681612050565b840191505092915050565b6000606083016000830151848203600086015261289e8282612848565b91505060208301516128b360208601826126c1565b50604083015184820360408601526128cb8282612848565b9150508091505092915050565b60006128e48383612881565b905092915050565b6000602082019050919050565b60006129048261280b565b61290e8185612816565b93508360208202850161292085612827565b8060005b8581101561295c578484038952815161293d85826128d8565b9450612948836128ec565b925060208a01995050600181019050612924565b50829750879550505050505092915050565b6000602082019050818103600083015261298881846128f9565b905092915050565b6000806000606084860312156129a9576129a861203c565b5b600084013567ffffffffffffffff8111156129c7576129c6612041565b5b6129d38682870161215e565b93505060206129e4868287016121e8565b92505060406129f5868287016121e8565b9150509250925092565b60006020820190508181036000830152612a1981846125eb565b905092915050565b600081905092915050565b7f4d6564696576616c20526f6d616e20456d706972650000000000000000000000600082015250565b6000612a62601583612a21565b9150612a6d82612a2c565b601582019050919050565b6000612a8382612a55565b9150819050919050565b7f4e487b7100000000000000000000000000000000000000000000000000000000600052602260045260246000fd5b60006002820490506001821680612ad457607f821691505b602082108103612ae757612ae6612a8d565b5b50919050565b60008190508160005260206000209050919050565b60006020601f8301049050919050565b600082821b905092915050565b600060088302612b4f7fffffffffffffffffffffffffffffffffffffffffffffffffffffffffffffffff82612b12565b612b598683612b12565b95508019841693508086168417925050509392505050565b6000819050919050565b6000612b96612b91612b8c846121c7565b612b71565b6121c7565b9050919050565b6000819050919050565b612bb083612b7b565b612bc4612bbc82612b9d565b848454612b1f565b825550505050565b600090565b612bd9612bcc565b612be4818484612ba7565b505050565b5b81811015612c0857612bfd600082612bd1565b600181019050612bea565b5050565b601f821115612c4d57612c1e81612aed565b612c2784612b02565b81016020851015612c36578190505b612c4a612c4285612b02565b830182612be9565b50505b505050565b600082821c905092915050565b6000612c7060001984600802612c52565b1980831691505092915050565b6000612c898383612c5f565b9150826002028217905092915050565b612ca2826125a5565b67ffffffffffffffff811115612cbb57612cba612061565b5b612cc58254612abc565b612cd0828285612c0c565b600060209050601f831160018114612d035760008415612cf1578287015190505b612cfb8582612c7d565b865550612d63565b601f198416612d1186612aed565b60005b82811015612d3957848901518255600182019150602085019450602081019050612d14565b86831015612d565784890151612d52601f891682612c5f565b8355505b6001600288020188555050505b505050505050565b7f4e487b7100000000000000000000000000000000000000000000000000000000600052603260045260246000fd5b6000612da5826125a5565b612daf8185612a21565b9350612dbf8185602086016125c1565b80840191505092915050565b6000612dd78284612d9a565b915081905092915050565b7f4e487b7100000000000000000000000000000000000000000000000000000000600052601160045260246000fd5b6000612e1c826121c7565b91507fffffffffffffffffffffffffffffffffffffffffffffffffffffffffffffffff8203612e4e57612e4d612de2565b5b600182019050919050565b7f416e6369656e7420526f6d616e20456d70696500000000000000000000000000600082015250565b6000612e8f601383612a21565b9150612e9a82612e59565b601382019050919050565b6000612eb082612e82565b9150819050919050565b7f416e6369656e7420526f6d616e20456d70697265000000000000000000000000600082015250565b6000612ef0601483612a21565b9150612efb82612eba565b601482019050919050565b6000612f1182612ee3565b915081905091905056fe54686973207469746c652077617320676976656e20746f20417572656c69616e206166746572206865207265696e7465677261746564207365706172617469737420737461746573206f662050616c6d6572696e6520616e642047616c6c696320456d706972657320696e2032373320616e642032373420726573706563746976656c792e426174746c65206f6620436174616c756e79616e20506c61696e73206973207365656e20617320526f6d652773206c61737420677265617420766963746f72792e2057686f20636f6d6d616e64656420526f6d616e20666f726365733f4974207761732061206e69636b6e616d65206f66204e696b6570686f726f732049492050686f6b61732c206561726e656420627920686973206d616e7920766963746f7269657320616761696e73742041726162696320666f726365732c20696e636c7564696e67207265636f6e7175657374206f6620437265746520616e642043696c696369612e5768696368206f6620746865736520626174746c65732064696420656e64207769746820526f6d616e20766963746f72793f5768696368206f6620746865736520526f6d616e20656d7065726f727320776173207469746c656420526573746f726572206f662074686520576f726c643f446573697265206f66205065727369616e207368616820746f206176656e6765206d7572646572206f6620526f6d616e20656d7065726f722e42656c69736172697573206c656420526f6d616e20666f7263657320616761696e73742056616e64616c69632061726d7920756e6465722047656c696d657220616e64206869732062726f7468657220416d6d617461732e20526f6d616e20766963746f7279206c656420746f207265636f6e7175657374206f66204166726963612e446566656174206f6620526f6d616e6f73204956206174204d616e7a696b65727420696e203130373120636175736564206d617373697665206368616f7320696e20526f6d616e20656d706972652e205768656e20656d7065726f7220416c6578696f73204b6f6d6e656e6f7320747269656420746f20756e646f207468652064616d61676520616e64207265636c61696d20416e61746f6c69612c2068652061736b656420706f706520696e20526f6d6520666f72206d657263656e61726965732e20496e73746561642c2074686520706f7065206f7267616e697365642063727573616465732e526f6d616e207265667573616c20746f207061792073756273696469657320746f2053617373616e6964732e526176656e6e61207761732073656174206f6620746865207765737465726e20456d7065726f722073696e6365206974207265706c61636564204d696c616e20696e2034303120432e452e2c20756e74696c6c204f646f6163657272206465706f73656420656d7065726f7220526f6d756c757320417567757374756c75732e57686963682067656e6572616c20636f6d6d616e64656420526f6d616e20666f7263657320696e20626174746c65206f6620416420446563696d756d3f576869636820656d7065726f7220776173206e69636b6e616d656420275468652050616c65204465617468206f66205361726163656e73273f53617373616e69642073686168204b686f73726f772049492077616e74656420746f206176656e6765206d7572646572206f6620656d7065726f72204d61757269636520647572696e672050686f6b6173207265766f6c742c2077686f6d206865206f77656420686973207468726f6e6520616e6420636f6e7369646572656420706572736f6e616c20667269656e642e204974206973207175697465206c696b656c7920686520696e74656e64656420746f20636f6e7175657220456779707420616e642053797269612c206275742074686174207761736e277420757365642061732063617375732062656c692e426f72646572206672696374696f6e206e6561722074686520666f727472657373206f6620446172612e426174746c65206f66204964697374617669736f20746f6f6b20706c61636520696e20313620432e452e20526f6d616e2061726d79206c6564206279204765726d616e69637573206465666561746564206765726d616e696320636f6e66656465726174696f6e206f662041726d696e6975732c2061726368696576696e6720526f6d616e20676f616c206f66206176656e67696e672064656665617420696e20546575746f626f726720466f726573742e5768696368206f6620746865736520526f6d616e2064656665617473206361757365642063727573616465733f456d7065726f722048657261636c69757320706c616e6e656420746f206d6f7665206361706974616c20617761792066726f6d20436f6e7374616e74696e6f706f6c652e20546f20776869636820636974793f576861742077617320746865206f6666696369616c206361757365206f66206c61737420526f6d616e2d53617373616e6964207761723f5768656e2053617373616e69642061726d696573206265736567656420436f6e7374616e74696e6f706f6c652c2048657261636c69757320706c616e6e656420746f206d6f7665206361706974616c20746f2043617274686167652c20617761792066726f6d205065727369616e2c20536c617620616e642041766172207468726561742e426174746c65206f6620436174616c756e79616e20506c61696e7320746f6f6b20706c61636520696e2034353120432e45206265747765656e2048756e73206c656420627920417474696c6120616e6420526f6d616e6f2d4765726d616e20636f616c6c6974696f6e206c656420627920466c61766975732041657469757320616e64206b696e67205468656f646f72696320492e576869636820636974792077617320746865206361706974616c206f66207765737465726e2070617274206f6620526f6d616e20456d7069726520696e207965617273203432302d34373620432e452e3fa26469706673582212207ac9ba88e22b2c730863e27bccf88dfce9e69d38f02ab4e3ec7599467dc40c3b64736f6c6343000811003354686973207469746c652077617320676976656e20746f20417572656c69616e206166746572206865207265696e7465677261746564207365706172617469737420737461746573206f662050616c6d6572696e6520616e642047616c6c696320456d706972657320696e2032373320616e642032373420726573706563746976656c792e426174746c65206f6620436174616c756e79616e20506c61696e73206973207365656e20617320526f6d652773206c61737420677265617420766963746f72792e2057686f20636f6d6d616e64656420526f6d616e20666f726365733f4974207761732061206e69636b6e616d65206f66204e696b6570686f726f732049492050686f6b61732c206561726e656420627920686973206d616e7920766963746f7269657320616761696e73742041726162696320666f726365732c20696e636c7564696e67207265636f6e7175657374206f6620437265746520616e642043696c696369612e5768696368206f6620746865736520626174746c65732064696420656e64207769746820526f6d616e20766963746f72793f5768696368206f6620746865736520526f6d616e20656d7065726f727320776173207469746c656420526573746f726572206f662074686520576f726c643f446573697265206f66205065727369616e207368616820746f206176656e6765206d7572646572206f6620526f6d616e20656d7065726f722e42656c69736172697573206c656420526f6d616e20666f7263657320616761696e73742056616e64616c69632061726d7920756e6465722047656c696d657220616e64206869732062726f7468657220416d6d617461732e20526f6d616e20766963746f7279206c656420746f207265636f6e7175657374206f66204166726963612e446566656174206f6620526f6d616e6f73204956206174204d616e7a696b65727420696e203130373120636175736564206d617373697665206368616f7320696e20526f6d616e20656d706972652e205768656e20656d7065726f7220416c6578696f73204b6f6d6e656e6f7320747269656420746f20756e646f207468652064616d61676520616e64207265636c61696d20416e61746f6c69612c2068652061736b656420706f706520696e20526f6d6520666f72206d657263656e61726965732e20496e73746561642c2074686520706f7065206f7267616e697365642063727573616465732e526f6d616e207265667573616c20746f207061792073756273696469657320746f2053617373616e6964732e526176656e6e61207761732073656174206f6620746865207765737465726e20456d7065726f722073696e6365206974207265706c61636564204d696c616e20696e2034303120432e452e2c20756e74696c6c204f646f6163657272206465706f73656420656d7065726f7220526f6d756c757320417567757374756c75732e57686963682067656e6572616c20636f6d6d616e64656420526f6d616e20666f7263657320696e20626174746c65206f6620416420446563696d756d3f576869636820656d7065726f7220776173206e69636b6e616d656420275468652050616c65204465617468206f66205361726163656e73273f53617373616e69642073686168204b686f73726f772049492077616e74656420746f206176656e6765206d7572646572206f6620656d7065726f72204d61757269636520647572696e672050686f6b6173207265766f6c742c2077686f6d206865206f77656420686973207468726f6e6520616e6420636f6e7369646572656420706572736f6e616c20667269656e642e204974206973207175697465206c696b656c7920686520696e74656e64656420746f20636f6e7175657220456779707420616e642053797269612c206275742074686174207761736e277420757365642061732063617375732062656c692e426f72646572206672696374696f6e206e6561722074686520666f727472657373206f6620446172612e426174746c65206f66204964697374617669736f20746f6f6b20706c61636520696e20313620432e452e20526f6d616e2061726d79206c6564206279204765726d616e69637573206465666561746564206765726d616e696320636f6e66656465726174696f6e206f662041726d696e6975732c2061726368696576696e6720526f6d616e20676f616c206f66206176656e67696e672064656665617420696e20546575746f626f726720466f726573742e5768696368206f6620746865736520526f6d616e2064656665617473206361757365642063727573616465733f456d7065726f722048657261636c69757320706c616e6e656420746f206d6f7665206361706974616c20617761792066726f6d20436f6e7374616e74696e6f706f6c652e20546f20776869636820636974793f576861742077617320746865206f6666696369616c206361757365206f66206c61737420526f6d616e2d53617373616e6964207761723f5768656e2053617373616e69642061726d696573206265736567656420436f6e7374616e74696e6f706f6c652c2048657261636c69757320706c616e6e656420746f206d6f7665206361706974616c20746f2043617274686167652c20617761792066726f6d205065727369616e2c20536c617620616e642041766172207468726561742e426174746c65206f6620436174616c756e79616e20506c61696e7320746f6f6b20706c61636520696e2034353120432e45206265747765656e2048756e73206c656420627920417474696c6120616e6420526f6d616e6f2d4765726d616e20636f616c6c6974696f6e206c656420627920466c61766975732041657469757320616e64206b696e67205468656f646f72696320492e576869636820636974792077617320746865206361706974616c206f66207765737465726e2070617274206f6620526f6d616e20456d7069726520696e207965617273203432302d34373620432e452e3f",
			"opcodes": "PUSH1 0x80 PUSH1 0x40 MSTORE CALLVALUE DUP1 ISZERO PUSH3 0x11 JUMPI PUSH1 0x0 DUP1 REVERT JUMPDEST POP PUSH3 0x22 PUSH3 0x38 PUSH1 0x20 SHL PUSH1 0x20 SHR JUMP JUMPDEST PUSH3 0x32 PUSH3 0xBC9 PUSH1 0x20 SHL PUSH1 0x20 SHR JUMP JUMPDEST PUSH3 0x1E85 JUMP JUMPDEST PUSH1 0x40 MLOAD DUP1 PUSH1 0x40 ADD PUSH1 0x40 MSTORE DUP1 PUSH1 0x8 DUP2 MSTORE PUSH1 0x20 ADD PUSH32 0x417572656C69616E000000000000000000000000000000000000000000000000 DUP2 MSTORE POP PUSH1 0x0 PUSH1 0x40 MLOAD PUSH3 0x7E SWAP1 PUSH3 0x1A3F JUMP JUMPDEST SWAP1 DUP2 MSTORE PUSH1 0x20 ADD PUSH1 0x40 MLOAD DUP1 SWAP2 SUB SWAP1 KECCAK256 PUSH1 0x0 DUP1 DUP2 MSTORE PUSH1 0x20 ADD SWAP1 DUP2 MSTORE PUSH1 0x20 ADD PUSH1 0x0 KECCAK256 PUSH1 0x0 DUP1 DUP2 MSTORE PUSH1 0x20 ADD SWAP1 DUP2 MSTORE PUSH1 0x20 ADD PUSH1 0x0 KECCAK256 SWAP1 DUP2 PUSH3 0xBC SWAP2 SWAP1 PUSH3 0x1CD0 JUMP JUMPDEST POP PUSH1 0x40 MLOAD DUP1 PUSH1 0x40 ADD PUSH1 0x40 MSTORE DUP1 PUSH1 0x8 DUP2 MSTORE PUSH1 0x20 ADD PUSH32 0x4175677573747573000000000000000000000000000000000000000000000000 DUP2 MSTORE POP PUSH1 0x0 PUSH1 0x40 MLOAD PUSH3 0x103 SWAP1 PUSH3 0x1A3F JUMP JUMPDEST SWAP1 DUP2 MSTORE PUSH1 0x20 ADD PUSH1 0x40 MLOAD DUP1 SWAP2 SUB SWAP1 KECCAK256 PUSH1 0x0 DUP1 DUP2 MSTORE PUSH1 0x20 ADD SWAP1 DUP2 MSTORE PUSH1 0x20 ADD PUSH1 0x0 KECCAK256 PUSH1 0x0 PUSH1 0x1 DUP2 MSTORE PUSH1 0x20 ADD SWAP1 DUP2 MSTORE PUSH1 0x20 ADD PUSH1 0x0 KECCAK256 SWAP1 DUP2 PUSH3 0x142 SWAP2 SWAP1 PUSH3 0x1CD0 JUMP JUMPDEST POP PUSH1 0x40 MLOAD DUP1 PUSH1 0x40 ADD PUSH1 0x40 MSTORE DUP1 PUSH1 0x6 DUP2 MSTORE PUSH1 0x20 ADD PUSH32 0x4A756C69616E0000000000000000000000000000000000000000000000000000 DUP2 MSTORE POP PUSH1 0x0 PUSH1 0x40 MLOAD PUSH3 0x189 SWAP1 PUSH3 0x1A3F JUMP JUMPDEST SWAP1 DUP2 MSTORE PUSH1 0x20 ADD PUSH1 0x40 MLOAD DUP1 SWAP2 SUB SWAP1 KECCAK256 PUSH1 0x0 DUP1 DUP2 MSTORE PUSH1 0x20 ADD SWAP1 DUP2 MSTORE PUSH1 0x20 ADD PUSH1 0x0 KECCAK256 PUSH1 0x0 PUSH1 0x2 DUP2 MSTORE PUSH1 0x20 ADD SWAP1 DUP2 MSTORE PUSH1 0x20 ADD PUSH1 0x0 KECCAK256 SWAP1 DUP2 PUSH3 0x1C8 SWAP2 SWAP1 PUSH3 0x1CD0 JUMP JUMPDEST POP PUSH1 0x40 MLOAD DUP1 PUSH1 0x40 ADD PUSH1 0x40 MSTORE DUP1 PUSH1 0x6 DUP2 MSTORE PUSH1 0x20 ADD PUSH32 0x56616C656E730000000000000000000000000000000000000000000000000000 DUP2 MSTORE POP PUSH1 0x0 PUSH1 0x40 MLOAD PUSH3 0x20F SWAP1 PUSH3 0x1A3F JUMP JUMPDEST SWAP1 DUP2 MSTORE PUSH1 0x20 ADD PUSH1 0x40 MLOAD DUP1 SWAP2 SUB SWAP1 KECCAK256 PUSH1 0x0 DUP1 DUP2 MSTORE PUSH1 0x20 ADD SWAP1 DUP2 MSTORE PUSH1 0x20 ADD PUSH1 0x0 KECCAK256 PUSH1 0x0 PUSH1 0x3 DUP2 MSTORE PUSH1 0x20 ADD SWAP1 DUP2 MSTORE PUSH1 0x20 ADD PUSH1 0x0 KECCAK256 SWAP1 DUP2 PUSH3 0x24E SWAP2 SWAP1 PUSH3 0x1CD0 JUMP JUMPDEST POP PUSH1 0x40 MLOAD DUP1 PUSH1 0x40 ADD PUSH1 0x40 MSTORE DUP1 PUSH1 0x8 DUP2 MSTORE PUSH1 0x20 ADD PUSH32 0x5374696C6963686F000000000000000000000000000000000000000000000000 DUP2 MSTORE POP PUSH1 0x0 PUSH1 0x40 MLOAD PUSH3 0x295 SWAP1 PUSH3 0x1E07 JUMP JUMPDEST SWAP1 DUP2 MSTORE PUSH1 0x20 ADD PUSH1 0x40 MLOAD DUP1 SWAP2 SUB SWAP1 KECCAK256 PUSH1 0x0 PUSH1 0x2 DUP2 MSTORE PUSH1 0x20 ADD SWAP1 DUP2 MSTORE PUSH1 0x20 ADD PUSH1 0x0 KECCAK256 PUSH1 0x0 DUP1 DUP2 MSTORE PUSH1 0x20 ADD SWAP1 DUP2 MSTORE PUSH1 0x20 ADD PUSH1 0x0 KECCAK256 SWAP1 DUP2 PUSH3 0x2D4 SWAP2 SWAP1 PUSH3 0x1CD0 JUMP JUMPDEST POP PUSH1 0x40 MLOAD DUP1 PUSH1 0x40 ADD PUSH1 0x40 MSTORE DUP1 PUSH1 0x6 DUP2 MSTORE PUSH1 0x20 ADD PUSH32 0x4165746975730000000000000000000000000000000000000000000000000000 DUP2 MSTORE POP PUSH1 0x0 PUSH1 0x40 MLOAD PUSH3 0x31B SWAP1 PUSH3 0x1E07 JUMP JUMPDEST SWAP1 DUP2 MSTORE PUSH1 0x20 ADD PUSH1 0x40 MLOAD DUP1 SWAP2 SUB SWAP1 KECCAK256 PUSH1 0x0 PUSH1 0x2 DUP2 MSTORE PUSH1 0x20 ADD SWAP1 DUP2 MSTORE PUSH1 0x20 ADD PUSH1 0x0 KECCAK256 PUSH1 0x0 PUSH1 0x1 DUP2 MSTORE PUSH1 0x20 ADD SWAP1 DUP2 MSTORE PUSH1 0x20 ADD PUSH1 0x0 KECCAK256 SWAP1 DUP2 PUSH3 0x35B SWAP2 SWAP1 PUSH3 0x1CD0 JUMP JUMPDEST POP PUSH1 0x40 MLOAD DUP1 PUSH1 0x40 ADD PUSH1 0x40 MSTORE DUP1 PUSH1 0x8 DUP2 MSTORE PUSH1 0x20 ADD PUSH32 0x4D616A6F7269616E000000000000000000000000000000000000000000000000 DUP2 MSTORE POP PUSH1 0x0 PUSH1 0x40 MLOAD PUSH3 0x3A2 SWAP1 PUSH3 0x1E07 JUMP JUMPDEST SWAP1 DUP2 MSTORE PUSH1 0x20 ADD PUSH1 0x40 MLOAD DUP1 SWAP2 SUB SWAP1 KECCAK256 PUSH1 0x0 PUSH1 0x2 DUP2 MSTORE PUSH1 0x20 ADD SWAP1 DUP2 MSTORE PUSH1 0x20 ADD PUSH1 0x0 KECCAK256 PUSH1 0x0 PUSH1 0x2 DUP2 MSTORE PUSH1 0x20 ADD SWAP1 DUP2 MSTORE PUSH1 0x20 ADD PUSH1 0x0 KECCAK256 SWAP1 DUP2 PUSH3 0x3E2 SWAP2 SWAP1 PUSH3 0x1CD0 JUMP JUMPDEST POP PUSH1 0x40 MLOAD DUP1 PUSH1 0x40 ADD PUSH1 0x40 MSTORE DUP1 PUSH1 0xF DUP2 MSTORE PUSH1 0x20 ADD PUSH32 0x56616C656E74696E69616E204949490000000000000000000000000000000000 DUP2 MSTORE POP PUSH1 0x0 PUSH1 0x40 MLOAD PUSH3 0x429 SWAP1 PUSH3 0x1E07 JUMP JUMPDEST SWAP1 DUP2 MSTORE PUSH1 0x20 ADD PUSH1 0x40 MLOAD DUP1 SWAP2 SUB SWAP1 KECCAK256 PUSH1 0x0 PUSH1 0x2 DUP2 MSTORE PUSH1 0x20 ADD SWAP1 DUP2 MSTORE PUSH1 0x20 ADD PUSH1 0x0 KECCAK256 PUSH1 0x0 PUSH1 0x3 DUP2 MSTORE PUSH1 0x20 ADD SWAP1 DUP2 MSTORE PUSH1 0x20 ADD PUSH1 0x0 KECCAK256 SWAP1 DUP2 PUSH3 0x469 SWAP2 SWAP1 PUSH3 0x1CD0 JUMP JUMPDEST POP PUSH1 0x40 MLOAD DUP1 PUSH1 0x40 ADD PUSH1 0x40 MSTORE DUP1 PUSH1 0x4 DUP2 MSTORE PUSH1 0x20 ADD PUSH32 0x526F6D6500000000000000000000000000000000000000000000000000000000 DUP2 MSTORE POP PUSH1 0x0 PUSH1 0x40 MLOAD PUSH3 0x4B0 SWAP1 PUSH3 0x1E07 JUMP JUMPDEST SWAP1 DUP2 MSTORE PUSH1 0x20 ADD PUSH1 0x40 MLOAD DUP1 SWAP2 SUB SWAP1 KECCAK256 PUSH1 0x0 PUSH1 0x3 DUP2 MSTORE PUSH1 0x20 ADD SWAP1 DUP2 MSTORE PUSH1 0x20 ADD PUSH1 0x0 KECCAK256 PUSH1 0x0 DUP1 DUP2 MSTORE PUSH1 0x20 ADD SWAP1 DUP2 MSTORE PUSH1 0x20 ADD PUSH1 0x0 KECCAK256 SWAP1 DUP2 PUSH3 0x4EF SWAP2 SWAP1 PUSH3 0x1CD0 JUMP JUMPDEST POP PUSH1 0x40 MLOAD DUP1 PUSH1 0x40 ADD PUSH1 0x40 MSTORE DUP1 PUSH1 0x5 DUP2 MSTORE PUSH1 0x20 ADD PUSH32 0x4D696C616E000000000000000000000000000000000000000000000000000000 DUP2 MSTORE POP PUSH1 0x0 PUSH1 0x40 MLOAD PUSH3 0x536 SWAP1 PUSH3 0x1E07 JUMP JUMPDEST SWAP1 DUP2 MSTORE PUSH1 0x20 ADD PUSH1 0x40 MLOAD DUP1 SWAP2 SUB SWAP1 KECCAK256 PUSH1 0x0 PUSH1 0x3 DUP2 MSTORE PUSH1 0x20 ADD SWAP1 DUP2 MSTORE PUSH1 0x20 ADD PUSH1 0x0 KECCAK256 PUSH1 0x0 PUSH1 0x1 DUP2 MSTORE PUSH1 0x20 ADD SWAP1 DUP2 MSTORE PUSH1 0x20 ADD PUSH1 0x0 KECCAK256 SWAP1 DUP2 PUSH3 0x576 SWAP2 SWAP1 PUSH3 0x1CD0 JUMP JUMPDEST POP PUSH1 0x40 MLOAD DUP1 PUSH1 0x40 ADD PUSH1 0x40 MSTORE DUP1 PUSH1 0x7 DUP2 MSTORE PUSH1 0x20 ADD PUSH32 0x526176656E6E6100000000000000000000000000000000000000000000000000 DUP2 MSTORE POP PUSH1 0x0 PUSH1 0x40 MLOAD PUSH3 0x5BD SWAP1 PUSH3 0x1E07 JUMP JUMPDEST SWAP1 DUP2 MSTORE PUSH1 0x20 ADD PUSH1 0x40 MLOAD DUP1 SWAP2 SUB SWAP1 KECCAK256 PUSH1 0x0 PUSH1 0x3 DUP2 MSTORE PUSH1 0x20 ADD SWAP1 DUP2 MSTORE PUSH1 0x20 ADD PUSH1 0x0 KECCAK256 PUSH1 0x0 PUSH1 0x2 DUP2 MSTORE PUSH1 0x20 ADD SWAP1 DUP2 MSTORE PUSH1 0x20 ADD PUSH1 0x0 KECCAK256 SWAP1 DUP2 PUSH3 0x5FD SWAP2 SWAP1 PUSH3 0x1CD0 JUMP JUMPDEST POP PUSH1 0x40 MLOAD DUP1 PUSH1 0x40 ADD PUSH1 0x40 MSTORE DUP1 PUSH1 0x6 DUP2 MSTORE PUSH1 0x20 ADD PUSH32 0x4E61706C65730000000000000000000000000000000000000000000000000000 DUP2 MSTORE POP PUSH1 0x0 PUSH1 0x40 MLOAD PUSH3 0x644 SWAP1 PUSH3 0x1E07 JUMP JUMPDEST SWAP1 DUP2 MSTORE PUSH1 0x20 ADD PUSH1 0x40 MLOAD DUP1 SWAP2 SUB SWAP1 KECCAK256 PUSH1 0x0 PUSH1 0x3 DUP2 MSTORE PUSH1 0x20 ADD SWAP1 DUP2 MSTORE PUSH1 0x20 ADD PUSH1 0x0 KECCAK256 PUSH1 0x0 PUSH1 0x3 DUP2 MSTORE PUSH1 0x20 ADD SWAP1 DUP2 MSTORE PUSH1 0x20 ADD PUSH1 0x0 KECCAK256 SWAP1 DUP2 PUSH3 0x684 SWAP2 SWAP1 PUSH3 0x1CD0 JUMP JUMPDEST POP PUSH1 0x40 MLOAD DUP1 PUSH1 0x40 ADD PUSH1 0x40 MSTORE DUP1 PUSH1 0xB DUP2 MSTORE PUSH1 0x20 ADD PUSH32 0x41647269616E6F706F6C65000000000000000000000000000000000000000000 DUP2 MSTORE POP PUSH1 0x0 PUSH1 0x40 MLOAD PUSH3 0x6CB SWAP1 PUSH3 0x1E07 JUMP JUMPDEST SWAP1 DUP2 MSTORE PUSH1 0x20 ADD PUSH1 0x40 MLOAD DUP1 SWAP2 SUB SWAP1 KECCAK256 PUSH1 0x0 PUSH1 0x4 DUP2 MSTORE PUSH1 0x20 ADD SWAP1 DUP2 MSTORE PUSH1 0x20 ADD PUSH1 0x0 KECCAK256 PUSH1 0x0 DUP1 DUP2 MSTORE PUSH1 0x20 ADD SWAP1 DUP2 MSTORE PUSH1 0x20 ADD PUSH1 0x0 KECCAK256 SWAP1 DUP2 PUSH3 0x70A SWAP2 SWAP1 PUSH3 0x1CD0 JUMP JUMPDEST POP PUSH1 0x40 MLOAD DUP1 PUSH1 0x40 ADD PUSH1 0x40 MSTORE DUP1 PUSH1 0xE DUP2 MSTORE PUSH1 0x20 ADD PUSH32 0x4C616B652054726173696D656E65000000000000000000000000000000000000 DUP2 MSTORE POP PUSH1 0x0 PUSH1 0x40 MLOAD PUSH3 0x751 SWAP1 PUSH3 0x1E07 JUMP JUMPDEST SWAP1 DUP2 MSTORE PUSH1 0x20 ADD PUSH1 0x40 MLOAD DUP1 SWAP2 SUB SWAP1 KECCAK256 PUSH1 0x0 PUSH1 0x4 DUP2 MSTORE PUSH1 0x20 ADD SWAP1 DUP2 MSTORE PUSH1 0x20 ADD PUSH1 0x0 KECCAK256 PUSH1 0x0 PUSH1 0x1 DUP2 MSTORE PUSH1 0x20 ADD SWAP1 DUP2 MSTORE PUSH1 0x20 ADD PUSH1 0x0 KECCAK256 SWAP1 DUP2 PUSH3 0x791 SWAP2 SWAP1 PUSH3 0x1CD0 JUMP JUMPDEST POP PUSH1 0x40 MLOAD DUP1 PUSH1 0x40 ADD PUSH1 0x40 MSTORE DUP1 PUSH1 0x7 DUP2 MSTORE PUSH1 0x20 ADD PUSH32 0x4361727268616500000000000000000000000000000000000000000000000000 DUP2 MSTORE POP PUSH1 0x0 PUSH1 0x40 MLOAD PUSH3 0x7D8 SWAP1 PUSH3 0x1E07 JUMP JUMPDEST SWAP1 DUP2 MSTORE PUSH1 0x20 ADD PUSH1 0x40 MLOAD DUP1 SWAP2 SUB SWAP1 KECCAK256 PUSH1 0x0 PUSH1 0x4 DUP2 MSTORE PUSH1 0x20 ADD SWAP1 DUP2 MSTORE PUSH1 0x20 ADD PUSH1 0x0 KECCAK256 PUSH1 0x0 PUSH1 0x2 DUP2 MSTORE PUSH1 0x20 ADD SWAP1 DUP2 MSTORE PUSH1 0x20 ADD PUSH1 0x0 KECCAK256 SWAP1 DUP2 PUSH3 0x818 SWAP2 SWAP1 PUSH3 0x1CD0 JUMP JUMPDEST POP PUSH1 0x40 MLOAD DUP1 PUSH1 0x40 ADD PUSH1 0x40 MSTORE DUP1 PUSH1 0xA DUP2 MSTORE PUSH1 0x20 ADD PUSH32 0x4964697374617669736F00000000000000000000000000000000000000000000 DUP2 MSTORE POP PUSH1 0x0 PUSH1 0x40 MLOAD PUSH3 0x85F SWAP1 PUSH3 0x1E07 JUMP JUMPDEST SWAP1 DUP2 MSTORE PUSH1 0x20 ADD PUSH1 0x40 MLOAD DUP1 SWAP2 SUB SWAP1 KECCAK256 PUSH1 0x0 PUSH1 0x4 DUP2 MSTORE PUSH1 0x20 ADD SWAP1 DUP2 MSTORE PUSH1 0x20 ADD PUSH1 0x0 KECCAK256 PUSH1 0x0 PUSH1 0x3 DUP2 MSTORE PUSH1 0x20 ADD SWAP1 DUP2 MSTORE PUSH1 0x20 ADD PUSH1 0x0 KECCAK256 SWAP1 DUP2 PUSH3 0x89F SWAP2 SWAP1 PUSH3 0x1CD0 JUMP JUMPDEST POP PUSH1 0x0 PUSH1 0x40 MLOAD DUP1 PUSH1 0x60 ADD PUSH1 0x40 MSTORE DUP1 PUSH1 0x40 MLOAD DUP1 PUSH1 0x60 ADD PUSH1 0x40 MSTORE DUP1 PUSH1 0x3F DUP2 MSTORE PUSH1 0x20 ADD PUSH3 0x5814 PUSH1 0x3F SWAP2 CODECOPY DUP2 MSTORE PUSH1 0x20 ADD PUSH1 0x0 DUP2 MSTORE PUSH1 0x20 ADD PUSH1 0x40 MLOAD DUP1 PUSH1 0xC0 ADD PUSH1 0x40 MSTORE DUP1 PUSH1 0x85 DUP2 MSTORE PUSH1 0x20 ADD PUSH3 0x5677 PUSH1 0x85 SWAP2 CODECOPY DUP2 MSTORE POP SWAP1 POP PUSH1 0x0 PUSH1 0x40 MLOAD DUP1 PUSH1 0x60 ADD PUSH1 0x40 MSTORE DUP1 PUSH1 0x40 MLOAD DUP1 PUSH1 0x80 ADD PUSH1 0x40 MSTORE DUP1 PUSH1 0x5D DUP2 MSTORE PUSH1 0x20 ADD PUSH3 0x56FC PUSH1 0x5D SWAP2 CODECOPY DUP2 MSTORE PUSH1 0x20 ADD PUSH1 0x1 DUP2 MSTORE PUSH1 0x20 ADD PUSH1 0x40 MLOAD DUP1 PUSH1 0xC0 ADD PUSH1 0x40 MSTORE DUP1 PUSH1 0x95 DUP2 MSTORE PUSH1 0x20 ADD PUSH3 0x5E22 PUSH1 0x95 SWAP2 CODECOPY DUP2 MSTORE POP SWAP1 POP PUSH1 0x0 PUSH1 0x40 MLOAD DUP1 PUSH1 0x60 ADD PUSH1 0x40 MSTORE DUP1 PUSH1 0x40 MLOAD DUP1 PUSH1 0x80 ADD PUSH1 0x40 MSTORE DUP1 PUSH1 0x51 DUP2 MSTORE PUSH1 0x20 ADD PUSH3 0x5EB7 PUSH1 0x51 SWAP2 CODECOPY DUP2 MSTORE PUSH1 0x20 ADD PUSH1 0x2 DUP2 MSTORE PUSH1 0x20 ADD PUSH1 0x40 MLOAD DUP1 PUSH1 0xA0 ADD PUSH1 0x40 MSTORE DUP1 PUSH1 0x80 DUP2 MSTORE PUSH1 0x20 ADD PUSH3 0x5A24 PUSH1 0x80 SWAP2 CODECOPY DUP2 MSTORE POP SWAP1 POP PUSH1 0x0 PUSH1 0x40 MLOAD DUP1 PUSH1 0x60 ADD PUSH1 0x40 MSTORE DUP1 PUSH1 0x40 MLOAD DUP1 PUSH1 0x60 ADD PUSH1 0x40 MSTORE DUP1 PUSH1 0x32 DUP2 MSTORE PUSH1 0x20 ADD PUSH3 0x57E2 PUSH1 0x32 SWAP2 CODECOPY DUP2 MSTORE PUSH1 0x20 ADD PUSH1 0x3 DUP2 MSTORE PUSH1 0x20 ADD PUSH1 0x40 MLOAD DUP1 PUSH1 0xE0 ADD PUSH1 0x40 MSTORE DUP1 PUSH1 0xB2 DUP2 MSTORE PUSH1 0x20 ADD PUSH3 0x5C34 PUSH1 0xB2 SWAP2 CODECOPY DUP2 MSTORE POP SWAP1 POP DUP4 PUSH1 0x1 PUSH1 0x40 MLOAD PUSH3 0x9F9 SWAP1 PUSH3 0x1E07 JUMP JUMPDEST SWAP1 DUP2 MSTORE PUSH1 0x20 ADD PUSH1 0x40 MLOAD DUP1 SWAP2 SUB SWAP1 KECCAK256 PUSH1 0x0 DUP1 DUP2 MSTORE PUSH1 0x20 ADD SWAP1 DUP2 MSTORE PUSH1 0x20 ADD PUSH1 0x0 KECCAK256 PUSH1 0x0 DUP3 ADD MLOAD DUP2 PUSH1 0x0 ADD SWAP1 DUP2 PUSH3 0xA2F SWAP2 SWAP1 PUSH3 0x1CD0 JUMP JUMPDEST POP PUSH1 0x20 DUP3 ADD MLOAD DUP2 PUSH1 0x1 ADD SSTORE PUSH1 0x40 DUP3 ADD MLOAD DUP2 PUSH1 0x2 ADD SWAP1 DUP2 PUSH3 0xA51 SWAP2 SWAP1 PUSH3 0x1CD0 JUMP JUMPDEST POP SWAP1 POP POP DUP3 PUSH1 0x1 PUSH1 0x40 MLOAD PUSH3 0xA66 SWAP1 PUSH3 0x1E07 JUMP JUMPDEST SWAP1 DUP2 MSTORE PUSH1 0x20 ADD PUSH1 0x40 MLOAD DUP1 SWAP2 SUB SWAP1 KECCAK256 PUSH1 0x0 PUSH1 0x1 DUP2 MSTORE PUSH1 0x20 ADD SWAP1 DUP2 MSTORE PUSH1 0x20 ADD PUSH1 0x0 KECCAK256 PUSH1 0x0 DUP3 ADD MLOAD DUP2 PUSH1 0x0 ADD SWAP1 DUP2 PUSH3 0xA9D SWAP2 SWAP1 PUSH3 0x1CD0 JUMP JUMPDEST POP PUSH1 0x20 DUP3 ADD MLOAD DUP2 PUSH1 0x1 ADD SSTORE PUSH1 0x40 DUP3 ADD MLOAD DUP2 PUSH1 0x2 ADD SWAP1 DUP2 PUSH3 0xABF SWAP2 SWAP1 PUSH3 0x1CD0 JUMP JUMPDEST POP SWAP1 POP POP DUP2 PUSH1 0x1 PUSH1 0x40 MLOAD PUSH3 0xAD4 SWAP1 PUSH3 0x1E07 JUMP JUMPDEST SWAP1 DUP2 MSTORE PUSH1 0x20 ADD PUSH1 0x40 MLOAD DUP1 SWAP2 SUB SWAP1 KECCAK256 PUSH1 0x0 PUSH1 0x2 DUP2 MSTORE PUSH1 0x20 ADD SWAP1 DUP2 MSTORE PUSH1 0x20 ADD PUSH1 0x0 KECCAK256 PUSH1 0x0 DUP3 ADD MLOAD DUP2 PUSH1 0x0 ADD SWAP1 DUP2 PUSH3 0xB0B SWAP2 SWAP1 PUSH3 0x1CD0 JUMP JUMPDEST POP PUSH1 0x20 DUP3 ADD MLOAD DUP2 PUSH1 0x1 ADD SSTORE PUSH1 0x40 DUP3 ADD MLOAD DUP2 PUSH1 0x2 ADD SWAP1 DUP2 PUSH3 0xB2D SWAP2 SWAP1 PUSH3 0x1CD0 JUMP JUMPDEST POP SWAP1 POP POP DUP1 PUSH1 0x1 PUSH1 0x40 MLOAD PUSH3 0xB42 SWAP1 PUSH3 0x1E07 JUMP JUMPDEST SWAP1 DUP2 MSTORE PUSH1 0x20 ADD PUSH1 0x40 MLOAD DUP1 SWAP2 SUB SWAP1 KECCAK256 PUSH1 0x0 PUSH1 0x3 DUP2 MSTORE PUSH1 0x20 ADD SWAP1 DUP2 MSTORE PUSH1 0x20 ADD PUSH1 0x0 KECCAK256 PUSH1 0x0 DUP3 ADD MLOAD DUP2 PUSH1 0x0 ADD SWAP1 DUP2 PUSH3 0xB79 SWAP2 SWAP1 PUSH3 0x1CD0 JUMP JUMPDEST POP PUSH1 0x20 DUP3 ADD MLOAD DUP2 PUSH1 0x1 ADD SSTORE PUSH1 0x40 DUP3 ADD MLOAD DUP2 PUSH1 0x2 ADD SWAP1 DUP2 PUSH3 0xB9B SWAP2 SWAP1 PUSH3 0x1CD0 JUMP JUMPDEST POP SWAP1 POP POP PUSH1 0x4 PUSH1 0x2 PUSH1 0x40 MLOAD PUSH3 0xBB1 SWAP1 PUSH3 0x1E07 JUMP JUMPDEST SWAP1 DUP2 MSTORE PUSH1 0x20 ADD PUSH1 0x40 MLOAD DUP1 SWAP2 SUB SWAP1 KECCAK256 DUP2 SWAP1 SSTORE POP POP POP POP POP JUMP JUMPDEST PUSH1 0x40 MLOAD DUP1 PUSH1 0x40 ADD PUSH1 0x40 MSTORE DUP1 PUSH1 0x6 DUP2 MSTORE PUSH1 0x20 ADD PUSH32 0x4D756E6475730000000000000000000000000000000000000000000000000000 DUP2 MSTORE POP PUSH1 0x0 PUSH1 0x40 MLOAD PUSH3 0xC0F SWAP1 PUSH3 0x1E6E JUMP JUMPDEST SWAP1 DUP2 MSTORE PUSH1 0x20 ADD PUSH1 0x40 MLOAD DUP1 SWAP2 SUB SWAP1 KECCAK256 PUSH1 0x0 DUP1 DUP2 MSTORE PUSH1 0x20 ADD SWAP1 DUP2 MSTORE PUSH1 0x20 ADD PUSH1 0x0 KECCAK256 PUSH1 0x0 DUP1 DUP2 MSTORE PUSH1 0x20 ADD SWAP1 DUP2 MSTORE PUSH1 0x20 ADD PUSH1 0x0 KECCAK256 SWAP1 DUP2 PUSH3 0xC4D SWAP2 SWAP1 PUSH3 0x1CD0 JUMP JUMPDEST POP PUSH1 0x40 MLOAD DUP1 PUSH1 0x40 ADD PUSH1 0x40 MSTORE DUP1 PUSH1 0x6 DUP2 MSTORE PUSH1 0x20 ADD PUSH32 0x4265737361730000000000000000000000000000000000000000000000000000 DUP2 MSTORE POP PUSH1 0x0 PUSH1 0x40 MLOAD PUSH3 0xC94 SWAP1 PUSH3 0x1E6E JUMP JUMPDEST SWAP1 DUP2 MSTORE PUSH1 0x20 ADD PUSH1 0x40 MLOAD DUP1 SWAP2 SUB SWAP1 KECCAK256 PUSH1 0x0 DUP1 DUP2 MSTORE PUSH1 0x20 ADD SWAP1 DUP2 MSTORE PUSH1 0x20 ADD PUSH1 0x0 KECCAK256 PUSH1 0x0 PUSH1 0x1 DUP2 MSTORE PUSH1 0x20 ADD SWAP1 DUP2 MSTORE PUSH1 0x20 ADD PUSH1 0x0 KECCAK256 SWAP1 DUP2 PUSH3 0xCD3 SWAP2 SWAP1 PUSH3 0x1CD0 JUMP JUMPDEST POP PUSH1 0x40 MLOAD DUP1 PUSH1 0x40 ADD PUSH1 0x40 MSTORE DUP1 PUSH1 0xA DUP2 MSTORE PUSH1 0x20 ADD PUSH32 0x42656C6973617269757300000000000000000000000000000000000000000000 DUP2 MSTORE POP PUSH1 0x0 PUSH1 0x40 MLOAD PUSH3 0xD1A SWAP1 PUSH3 0x1E6E JUMP JUMPDEST SWAP1 DUP2 MSTORE PUSH1 0x20 ADD PUSH1 0x40 MLOAD DUP1 SWAP2 SUB SWAP1 KECCAK256 PUSH1 0x0 DUP1 DUP2 MSTORE PUSH1 0x20 ADD SWAP1 DUP2 MSTORE PUSH1 0x20 ADD PUSH1 0x0 KECCAK256 PUSH1 0x0 PUSH1 0x2 DUP2 MSTORE PUSH1 0x20 ADD SWAP1 DUP2 MSTORE PUSH1 0x20 ADD PUSH1 0x0 KECCAK256 SWAP1 DUP2 PUSH3 0xD59 SWAP2 SWAP1 PUSH3 0x1CD0 JUMP JUMPDEST POP PUSH1 0x40 MLOAD DUP1 PUSH1 0x40 ADD PUSH1 0x40 MSTORE DUP1 PUSH1 0x6 DUP2 MSTORE PUSH1 0x20 ADD PUSH32 0x5369747461730000000000000000000000000000000000000000000000000000 DUP2 MSTORE POP PUSH1 0x0 PUSH1 0x40 MLOAD PUSH3 0xDA0 SWAP1 PUSH3 0x1E6E JUMP JUMPDEST SWAP1 DUP2 MSTORE PUSH1 0x20 ADD PUSH1 0x40 MLOAD DUP1 SWAP2 SUB SWAP1 KECCAK256 PUSH1 0x0 DUP1 DUP2 MSTORE PUSH1 0x20 ADD SWAP1 DUP2 MSTORE PUSH1 0x20 ADD PUSH1 0x0 KECCAK256 PUSH1 0x0 PUSH1 0x3 DUP2 MSTORE PUSH1 0x20 ADD SWAP1 DUP2 MSTORE PUSH1 0x20 ADD PUSH1 0x0 KECCAK256 SWAP1 DUP2 PUSH3 0xDDF SWAP2 SWAP1 PUSH3 0x1CD0 JUMP JUMPDEST POP PUSH1 0x40 MLOAD DUP1 PUSH1 0x60 ADD PUSH1 0x40 MSTORE DUP1 PUSH1 0x39 DUP2 MSTORE PUSH1 0x20 ADD PUSH3 0x5853 PUSH1 0x39 SWAP2 CODECOPY PUSH1 0x0 PUSH1 0x40 MLOAD PUSH3 0xE0A SWAP1 PUSH3 0x1E6E JUMP JUMPDEST SWAP1 DUP2 MSTORE PUSH1 0x20 ADD PUSH1 0x40 MLOAD DUP1 SWAP2 SUB SWAP1 KECCAK256 PUSH1 0x0 PUSH1 0x2 DUP2 MSTORE PUSH1 0x20 ADD SWAP1 DUP2 MSTORE PUSH1 0x20 ADD PUSH1 0x0 KECCAK256 PUSH1 0x0 DUP1 DUP2 MSTORE PUSH1 0x20 ADD SWAP1 DUP2 MSTORE PUSH1 0x20 ADD PUSH1 0x0 KECCAK256 SWAP1 DUP2 PUSH3 0xE49 SWAP2 SWAP1 PUSH3 0x1CD0 JUMP JUMPDEST POP PUSH1 0x40 MLOAD DUP1 PUSH1 0x60 ADD PUSH1 0x40 MSTORE DUP1 PUSH1 0x2A DUP2 MSTORE PUSH1 0x20 ADD PUSH3 0x5C0A PUSH1 0x2A SWAP2 CODECOPY PUSH1 0x0 PUSH1 0x40 MLOAD PUSH3 0xE74 SWAP1 PUSH3 0x1E6E JUMP JUMPDEST SWAP1 DUP2 MSTORE PUSH1 0x20 ADD PUSH1 0x40 MLOAD DUP1 SWAP2 SUB SWAP1 KECCAK256 PUSH1 0x0 PUSH1 0x2 DUP2 MSTORE PUSH1 0x20 ADD SWAP1 DUP2 MSTORE PUSH1 0x20 ADD PUSH1 0x0 KECCAK256 PUSH1 0x0 PUSH1 0x1 DUP2 MSTORE PUSH1 0x20 ADD SWAP1 DUP2 MSTORE PUSH1 0x20 ADD PUSH1 0x0 KECCAK256 SWAP1 DUP2 PUSH3 0xEB4 SWAP2 SWAP1 PUSH3 0x1CD0 JUMP JUMPDEST POP PUSH1 0x40 MLOAD DUP1 PUSH1 0x60 ADD PUSH1 0x40 MSTORE DUP1 PUSH1 0x2C DUP2 MSTORE PUSH1 0x20 ADD PUSH3 0x59F8 PUSH1 0x2C SWAP2 CODECOPY PUSH1 0x0 PUSH1 0x40 MLOAD PUSH3 0xEDF SWAP1 PUSH3 0x1E6E JUMP JUMPDEST SWAP1 DUP2 MSTORE PUSH1 0x20 ADD PUSH1 0x40 MLOAD DUP1 SWAP2 SUB SWAP1 KECCAK256 PUSH1 0x0 PUSH1 0x2 DUP2 MSTORE PUSH1 0x20 ADD SWAP1 DUP2 MSTORE PUSH1 0x20 ADD PUSH1 0x0 KECCAK256 PUSH1 0x0 PUSH1 0x2 DUP2 MSTORE PUSH1 0x20 ADD SWAP1 DUP2 MSTORE PUSH1 0x20 ADD PUSH1 0x0 KECCAK256 SWAP1 DUP2 PUSH3 0xF1F SWAP2 SWAP1 PUSH3 0x1CD0 JUMP JUMPDEST POP PUSH1 0x40 MLOAD DUP1 PUSH1 0x40 ADD PUSH1 0x40 MSTORE DUP1 PUSH1 0x20 DUP2 MSTORE PUSH1 0x20 ADD PUSH32 0x5065727369616E2064657369726520746F20636F6E717565722045677970742E DUP2 MSTORE POP PUSH1 0x0 PUSH1 0x40 MLOAD PUSH3 0xF66 SWAP1 PUSH3 0x1E6E JUMP JUMPDEST SWAP1 DUP2 MSTORE PUSH1 0x20 ADD PUSH1 0x40 MLOAD DUP1 SWAP2 SUB SWAP1 KECCAK256 PUSH1 0x0 PUSH1 0x2 DUP2 MSTORE PUSH1 0x20 ADD SWAP1 DUP2 MSTORE PUSH1 0x20 ADD PUSH1 0x0 KECCAK256 PUSH1 0x0 PUSH1 0x3 DUP2 MSTORE PUSH1 0x20 ADD SWAP1 DUP2 MSTORE PUSH1 0x20 ADD PUSH1 0x0 KECCAK256 SWAP1 DUP2 PUSH3 0xFA6 SWAP2 SWAP1 PUSH3 0x1CD0 JUMP JUMPDEST POP PUSH1 0x40 MLOAD DUP1 PUSH1 0x40 ADD PUSH1 0x40 MSTORE DUP1 PUSH1 0x7 DUP2 MSTORE PUSH1 0x20 ADD PUSH32 0x426173696C204900000000000000000000000000000000000000000000000000 DUP2 MSTORE POP PUSH1 0x0 PUSH1 0x40 MLOAD PUSH3 0xFED SWAP1 PUSH3 0x1E6E JUMP JUMPDEST SWAP1 DUP2 MSTORE PUSH1 0x20 ADD PUSH1 0x40 MLOAD DUP1 SWAP2 SUB SWAP1 KECCAK256 PUSH1 0x0 PUSH1 0x3 DUP2 MSTORE PUSH1 0x20 ADD SWAP1 DUP2 MSTORE PUSH1 0x20 ADD PUSH1 0x0 KECCAK256 PUSH1 0x0 DUP1 DUP2 MSTORE PUSH1 0x20 ADD SWAP1 DUP2 MSTORE PUSH1 0x20 ADD PUSH1 0x0 KECCAK256 SWAP1 DUP2 PUSH3 0x102C SWAP2 SWAP1 PUSH3 0x1CD0 JUMP JUMPDEST POP PUSH1 0x40 MLOAD DUP1 PUSH1 0x40 ADD PUSH1 0x40 MSTORE DUP1 PUSH1 0x14 DUP2 MSTORE PUSH1 0x20 ADD PUSH32 0x4E696B6570686F726F732049492050686F6B6173000000000000000000000000 DUP2 MSTORE POP PUSH1 0x0 PUSH1 0x40 MLOAD PUSH3 0x1073 SWAP1 PUSH3 0x1E6E JUMP JUMPDEST SWAP1 DUP2 MSTORE PUSH1 0x20 ADD PUSH1 0x40 MLOAD DUP1 SWAP2 SUB SWAP1 KECCAK256 PUSH1 0x0 PUSH1 0x3 DUP2 MSTORE PUSH1 0x20 ADD SWAP1 DUP2 MSTORE PUSH1 0x20 ADD PUSH1 0x0 KECCAK256 PUSH1 0x0 PUSH1 0x1 DUP2 MSTORE PUSH1 0x20 ADD SWAP1 DUP2 MSTORE PUSH1 0x20 ADD PUSH1 0x0 KECCAK256 SWAP1 DUP2 PUSH3 0x10B3 SWAP2 SWAP1 PUSH3 0x1CD0 JUMP JUMPDEST POP PUSH1 0x40 MLOAD DUP1 PUSH1 0x40 ADD PUSH1 0x40 MSTORE DUP1 PUSH1 0x10 DUP2 MSTORE PUSH1 0x20 ADD PUSH32 0x4A6F686E204920547A696D69736B657300000000000000000000000000000000 DUP2 MSTORE POP PUSH1 0x0 PUSH1 0x40 MLOAD PUSH3 0x10FA SWAP1 PUSH3 0x1E6E JUMP JUMPDEST SWAP1 DUP2 MSTORE PUSH1 0x20 ADD PUSH1 0x40 MLOAD DUP1 SWAP2 SUB SWAP1 KECCAK256 PUSH1 0x0 PUSH1 0x3 DUP2 MSTORE PUSH1 0x20 ADD SWAP1 DUP2 MSTORE PUSH1 0x20 ADD PUSH1 0x0 KECCAK256 PUSH1 0x0 PUSH1 0x2 DUP2 MSTORE PUSH1 0x20 ADD SWAP1 DUP2 MSTORE PUSH1 0x20 ADD PUSH1 0x0 KECCAK256 SWAP1 DUP2 PUSH3 0x113A SWAP2 SWAP1 PUSH3 0x1CD0 JUMP JUMPDEST POP PUSH1 0x40 MLOAD DUP1 PUSH1 0x40 ADD PUSH1 0x40 MSTORE DUP1 PUSH1 0xA DUP2 MSTORE PUSH1 0x20 ADD PUSH32 0x526F6D616E6F7320494900000000000000000000000000000000000000000000 DUP2 MSTORE POP PUSH1 0x0 PUSH1 0x40 MLOAD PUSH3 0x1181 SWAP1 PUSH3 0x1E6E JUMP JUMPDEST SWAP1 DUP2 MSTORE PUSH1 0x20 ADD PUSH1 0x40 MLOAD DUP1 SWAP2 SUB SWAP1 KECCAK256 PUSH1 0x0 PUSH1 0x3 DUP2 MSTORE PUSH1 0x20 ADD SWAP1 DUP2 MSTORE PUSH1 0x20 ADD PUSH1 0x0 KECCAK256 PUSH1 0x0 PUSH1 0x3 DUP2 MSTORE PUSH1 0x20 ADD SWAP1 DUP2 MSTORE PUSH1 0x20 ADD PUSH1 0x0 KECCAK256 SWAP1 DUP2 PUSH3 0x11C1 SWAP2 SWAP1 PUSH3 0x1CD0 JUMP JUMPDEST POP PUSH1 0x40 MLOAD DUP1 PUSH1 0x40 ADD PUSH1 0x40 MSTORE DUP1 PUSH1 0x7 DUP2 MSTORE PUSH1 0x20 ADD PUSH32 0x5961726D6F756B00000000000000000000000000000000000000000000000000 DUP2 MSTORE POP PUSH1 0x0 PUSH1 0x40 MLOAD PUSH3 0x1208 SWAP1 PUSH3 0x1E6E JUMP JUMPDEST SWAP1 DUP2 MSTORE PUSH1 0x20 ADD PUSH1 0x40 MLOAD DUP1 SWAP2 SUB SWAP1 KECCAK256 PUSH1 0x0 PUSH1 0x4 DUP2 MSTORE PUSH1 0x20 ADD SWAP1 DUP2 MSTORE PUSH1 0x20 ADD PUSH1 0x0 KECCAK256 PUSH1 0x0 DUP1 DUP2 MSTORE PUSH1 0x20 ADD SWAP1 DUP2 MSTORE PUSH1 0x20 ADD PUSH1 0x0 KECCAK256 SWAP1 DUP2 PUSH3 0x1247 SWAP2 SWAP1 PUSH3 0x1CD0 JUMP JUMPDEST POP PUSH1 0x40 MLOAD DUP1 PUSH1 0x40 ADD PUSH1 0x40 MSTORE DUP1 PUSH1 0x6 DUP2 MSTORE PUSH1 0x20 ADD PUSH32 0x506C69736B610000000000000000000000000000000000000000000000000000 DUP2 MSTORE POP PUSH1 0x0 PUSH1 0x40 MLOAD PUSH3 0x128E SWAP1 PUSH3 0x1E6E JUMP JUMPDEST SWAP1 DUP2 MSTORE PUSH1 0x20 ADD PUSH1 0x40 MLOAD DUP1 SWAP2 SUB SWAP1 KECCAK256 PUSH1 0x0 PUSH1 0x4 DUP2 MSTORE PUSH1 0x20 ADD SWAP1 DUP2 MSTORE PUSH1 0x20 ADD PUSH1 0x0 KECCAK256 PUSH1 0x0 PUSH1 0x1 DUP2 MSTORE PUSH1 0x20 ADD SWAP1 DUP2 MSTORE PUSH1 0x20 ADD PUSH1 0x0 KECCAK256 SWAP1 DUP2 PUSH3 0x12CE SWAP2 SWAP1 PUSH3 0x1CD0 JUMP JUMPDEST POP PUSH1 0x40 MLOAD DUP1 PUSH1 0x40 ADD PUSH1 0x40 MSTORE DUP1 PUSH1 0x9 DUP2 MSTORE PUSH1 0x20 ADD PUSH32 0x43616C696E6963756D0000000000000000000000000000000000000000000000 DUP2 MSTORE POP PUSH1 0x0 PUSH1 0x40 MLOAD PUSH3 0x1315 SWAP1 PUSH3 0x1E6E JUMP JUMPDEST SWAP1 DUP2 MSTORE PUSH1 0x20 ADD PUSH1 0x40 MLOAD DUP1 SWAP2 SUB SWAP1 KECCAK256 PUSH1 0x0 PUSH1 0x4 DUP2 MSTORE PUSH1 0x20 ADD SWAP1 DUP2 MSTORE PUSH1 0x20 ADD PUSH1 0x0 KECCAK256 PUSH1 0x0 PUSH1 0x2 DUP2 MSTORE PUSH1 0x20 ADD SWAP1 DUP2 MSTORE PUSH1 0x20 ADD PUSH1 0x0 KECCAK256 SWAP1 DUP2 PUSH3 0x1355 SWAP2 SWAP1 PUSH3 0x1CD0 JUMP JUMPDEST POP PUSH1 0x40 MLOAD DUP1 PUSH1 0x40 ADD PUSH1 0x40 MSTORE DUP1 PUSH1 0x9 DUP2 MSTORE PUSH1 0x20 ADD PUSH32 0x4D616E7A696B6572740000000000000000000000000000000000000000000000 DUP2 MSTORE POP PUSH1 0x0 PUSH1 0x40 MLOAD PUSH3 0x139C SWAP1 PUSH3 0x1E6E JUMP JUMPDEST SWAP1 DUP2 MSTORE PUSH1 0x20 ADD PUSH1 0x40 MLOAD DUP1 SWAP2 SUB SWAP1 KECCAK256 PUSH1 0x0 PUSH1 0x4 DUP2 MSTORE PUSH1 0x20 ADD SWAP1 DUP2 MSTORE PUSH1 0x20 ADD PUSH1 0x0 KECCAK256 PUSH1 0x0 PUSH1 0x3 DUP2 MSTORE PUSH1 0x20 ADD SWAP1 DUP2 MSTORE PUSH1 0x20 ADD PUSH1 0x0 KECCAK256 SWAP1 DUP2 PUSH3 0x13DC SWAP2 SWAP1 PUSH3 0x1CD0 JUMP JUMPDEST POP PUSH1 0x40 MLOAD DUP1 PUSH1 0x40 ADD PUSH1 0x40 MSTORE DUP1 PUSH1 0x8 DUP2 MSTORE PUSH1 0x20 ADD PUSH32 0x4361727468616765000000000000000000000000000000000000000000000000 DUP2 MSTORE POP PUSH1 0x0 PUSH1 0x40 MLOAD PUSH3 0x1423 SWAP1 PUSH3 0x1E6E JUMP JUMPDEST SWAP1 DUP2 MSTORE PUSH1 0x20 ADD PUSH1 0x40 MLOAD DUP1 SWAP2 SUB SWAP1 KECCAK256 PUSH1 0x0 PUSH1 0x5 DUP2 MSTORE PUSH1 0x20 ADD SWAP1 DUP2 MSTORE PUSH1 0x20 ADD PUSH1 0x0 KECCAK256 PUSH1 0x0 DUP1 DUP2 MSTORE PUSH1 0x20 ADD SWAP1 DUP2 MSTORE PUSH1 0x20 ADD PUSH1 0x0 KECCAK256 SWAP1 DUP2 PUSH3 0x1462 SWAP2 SWAP1 PUSH3 0x1CD0 JUMP JUMPDEST POP PUSH1 0x40 MLOAD DUP1 PUSH1 0x40 ADD PUSH1 0x40 MSTORE DUP1 PUSH1 0x7 DUP2 MSTORE PUSH1 0x20 ADD PUSH32 0x416E74696F636800000000000000000000000000000000000000000000000000 DUP2 MSTORE POP PUSH1 0x0 PUSH1 0x40 MLOAD PUSH3 0x14A9 SWAP1 PUSH3 0x1E6E JUMP JUMPDEST SWAP1 DUP2 MSTORE PUSH1 0x20 ADD PUSH1 0x40 MLOAD DUP1 SWAP2 SUB SWAP1 KECCAK256 PUSH1 0x0 PUSH1 0x5 DUP2 MSTORE PUSH1 0x20 ADD SWAP1 DUP2 MSTORE PUSH1 0x20 ADD PUSH1 0x0 KECCAK256 PUSH1 0x0 PUSH1 0x1 DUP2 MSTORE PUSH1 0x20 ADD SWAP1 DUP2 MSTORE PUSH1 0x20 ADD PUSH1 0x0 KECCAK256 SWAP1 DUP2 PUSH3 0x14E9 SWAP2 SWAP1 PUSH3 0x1CD0 JUMP JUMPDEST POP PUSH1 0x40 MLOAD DUP1 PUSH1 0x40 ADD PUSH1 0x40 MSTORE DUP1 PUSH1 0xB DUP2 MSTORE PUSH1 0x20 ADD PUSH32 0x41647269616E6F706F6C65000000000000000000000000000000000000000000 DUP2 MSTORE POP PUSH1 0x0 PUSH1 0x40 MLOAD PUSH3 0x1530 SWAP1 PUSH3 0x1E6E JUMP JUMPDEST SWAP1 DUP2 MSTORE PUSH1 0x20 ADD PUSH1 0x40 MLOAD DUP1 SWAP2 SUB SWAP1 KECCAK256 PUSH1 0x0 PUSH1 0x5 DUP2 MSTORE PUSH1 0x20 ADD SWAP1 DUP2 MSTORE PUSH1 0x20 ADD PUSH1 0x0 KECCAK256 PUSH1 0x0 PUSH1 0x2 DUP2 MSTORE PUSH1 0x20 ADD SWAP1 DUP2 MSTORE PUSH1 0x20 ADD PUSH1 0x0 KECCAK256 SWAP1 DUP2 PUSH3 0x1570 SWAP2 SWAP1 PUSH3 0x1CD0 JUMP JUMPDEST POP PUSH1 0x40 MLOAD DUP1 PUSH1 0x40 ADD PUSH1 0x40 MSTORE DUP1 PUSH1 0xC DUP2 MSTORE PUSH1 0x20 ADD PUSH32 0x54686573616C6C6F6E696B690000000000000000000000000000000000000000 DUP2 MSTORE POP PUSH1 0x0 PUSH1 0x40 MLOAD PUSH3 0x15B7 SWAP1 PUSH3 0x1E6E JUMP JUMPDEST SWAP1 DUP2 MSTORE PUSH1 0x20 ADD PUSH1 0x40 MLOAD DUP1 SWAP2 SUB SWAP1 KECCAK256 PUSH1 0x0 PUSH1 0x5 DUP2 MSTORE PUSH1 0x20 ADD SWAP1 DUP2 MSTORE PUSH1 0x20 ADD PUSH1 0x0 KECCAK256 PUSH1 0x0 PUSH1 0x3 DUP2 MSTORE PUSH1 0x20 ADD SWAP1 DUP2 MSTORE PUSH1 0x20 ADD PUSH1 0x0 KECCAK256 SWAP1 DUP2 PUSH3 0x15F7 SWAP2 SWAP1 PUSH3 0x1CD0 JUMP JUMPDEST POP PUSH1 0x0 PUSH1 0x40 MLOAD DUP1 PUSH1 0x60 ADD PUSH1 0x40 MSTORE DUP1 PUSH1 0x40 MLOAD DUP1 PUSH1 0x60 ADD PUSH1 0x40 MSTORE DUP1 PUSH1 0x3D DUP2 MSTORE PUSH1 0x20 ADD PUSH3 0x5AA4 PUSH1 0x3D SWAP2 CODECOPY DUP2 MSTORE PUSH1 0x20 ADD PUSH1 0x2 DUP2 MSTORE PUSH1 0x20 ADD PUSH1 0x40 MLOAD DUP1 PUSH1 0xC0 ADD PUSH1 0x40 MSTORE DUP1 PUSH1 0x83 DUP2 MSTORE PUSH1 0x20 ADD PUSH3 0x588C PUSH1 0x83 SWAP2 CODECOPY DUP2 MSTORE POP SWAP1 POP PUSH1 0x0 PUSH1 0x40 MLOAD DUP1 PUSH1 0x60 ADD PUSH1 0x40 MSTORE DUP1 PUSH1 0x40 MLOAD DUP1 PUSH1 0x60 ADD PUSH1 0x40 MSTORE DUP1 PUSH1 0x37 DUP2 MSTORE PUSH1 0x20 ADD PUSH3 0x5D66 PUSH1 0x37 SWAP2 CODECOPY DUP2 MSTORE PUSH1 0x20 ADD PUSH1 0x0 DUP2 MSTORE PUSH1 0x20 ADD PUSH1 0x40 MLOAD DUP1 PUSH2 0x120 ADD PUSH1 0x40 MSTORE DUP1 PUSH1 0xF0 DUP2 MSTORE PUSH1 0x20 ADD PUSH3 0x5B1A PUSH1 0xF0 SWAP2 CODECOPY DUP2 MSTORE POP SWAP1 POP PUSH1 0x0 PUSH1 0x40 MLOAD DUP1 PUSH1 0x60 ADD PUSH1 0x40 MSTORE DUP1 PUSH1 0x40 MLOAD DUP1 PUSH1 0x60 ADD PUSH1 0x40 MSTORE DUP1 PUSH1 0x39 DUP2 MSTORE PUSH1 0x20 ADD PUSH3 0x5AE1 PUSH1 0x39 SWAP2 CODECOPY DUP2 MSTORE PUSH1 0x20 ADD PUSH1 0x1 DUP2 MSTORE PUSH1 0x20 ADD PUSH1 0x40 MLOAD DUP1 PUSH1 0xC0 ADD PUSH1 0x40 MSTORE DUP1 PUSH1 0x89 DUP2 MSTORE PUSH1 0x20 ADD PUSH3 0x5759 PUSH1 0x89 SWAP2 CODECOPY DUP2 MSTORE POP SWAP1 POP PUSH1 0x0 PUSH1 0x40 MLOAD DUP1 PUSH1 0x60 ADD PUSH1 0x40 MSTORE DUP1 PUSH1 0x40 MLOAD DUP1 PUSH1 0x60 ADD PUSH1 0x40 MSTORE DUP1 PUSH1 0x2D DUP2 MSTORE PUSH1 0x20 ADD PUSH3 0x5CE6 PUSH1 0x2D SWAP2 CODECOPY DUP2 MSTORE PUSH1 0x20 ADD PUSH1 0x3 DUP2 MSTORE PUSH1 0x20 ADD PUSH1 0x40 MLOAD DUP1 PUSH2 0x120 ADD PUSH1 0x40 MSTORE DUP1 PUSH1 0xE9 DUP2 MSTORE PUSH1 0x20 ADD PUSH3 0x590F PUSH1 0xE9 SWAP2 CODECOPY DUP2 MSTORE POP SWAP1 POP PUSH1 0x0 PUSH1 0x40 MLOAD DUP1 PUSH1 0x60 ADD PUSH1 0x40 MSTORE DUP1 PUSH1 0x40 MLOAD DUP1 PUSH1 0x80 ADD PUSH1 0x40 MSTORE DUP1 PUSH1 0x53 DUP2 MSTORE PUSH1 0x20 ADD PUSH3 0x5D13 PUSH1 0x53 SWAP2 CODECOPY DUP2 MSTORE PUSH1 0x20 ADD PUSH1 0x0 DUP2 MSTORE PUSH1 0x20 ADD PUSH1 0x40 MLOAD DUP1 PUSH1 0xC0 ADD PUSH1 0x40 MSTORE DUP1 PUSH1 0x85 DUP2 MSTORE PUSH1 0x20 ADD PUSH3 0x5D9D PUSH1 0x85 SWAP2 CODECOPY DUP2 MSTORE POP SWAP1 POP DUP5 PUSH1 0x1 PUSH1 0x40 MLOAD PUSH3 0x17A5 SWAP1 PUSH3 0x1E6E JUMP JUMPDEST SWAP1 DUP2 MSTORE PUSH1 0x20 ADD PUSH1 0x40 MLOAD DUP1 SWAP2 SUB SWAP1 KECCAK256 PUSH1 0x0 DUP1 DUP2 MSTORE PUSH1 0x20 ADD SWAP1 DUP2 MSTORE PUSH1 0x20 ADD PUSH1 0x0 KECCAK256 PUSH1 0x0 DUP3 ADD MLOAD DUP2 PUSH1 0x0 ADD SWAP1 DUP2 PUSH3 0x17DB SWAP2 SWAP1 PUSH3 0x1CD0 JUMP JUMPDEST POP PUSH1 0x20 DUP3 ADD MLOAD DUP2 PUSH1 0x1 ADD SSTORE PUSH1 0x40 DUP3 ADD MLOAD DUP2 PUSH1 0x2 ADD SWAP1 DUP2 PUSH3 0x17FD SWAP2 SWAP1 PUSH3 0x1CD0 JUMP JUMPDEST POP SWAP1 POP POP DUP4 PUSH1 0x1 PUSH1 0x40 MLOAD PUSH3 0x1812 SWAP1 PUSH3 0x1E6E JUMP JUMPDEST SWAP1 DUP2 MSTORE PUSH1 0x20 ADD PUSH1 0x40 MLOAD DUP1 SWAP2 SUB SWAP1 KECCAK256 PUSH1 0x0 PUSH1 0x1 DUP2 MSTORE PUSH1 0x20 ADD SWAP1 DUP2 MSTORE PUSH1 0x20 ADD PUSH1 0x0 KECCAK256 PUSH1 0x0 DUP3 ADD MLOAD DUP2 PUSH1 0x0 ADD SWAP1 DUP2 PUSH3 0x1849 SWAP2 SWAP1 PUSH3 0x1CD0 JUMP JUMPDEST POP PUSH1 0x20 DUP3 ADD MLOAD DUP2 PUSH1 0x1 ADD SSTORE PUSH1 0x40 DUP3 ADD MLOAD DUP2 PUSH1 0x2 ADD SWAP1 DUP2 PUSH3 0x186B SWAP2 SWAP1 PUSH3 0x1CD0 JUMP JUMPDEST POP SWAP1 POP POP DUP3 PUSH1 0x1 PUSH1 0x40 MLOAD PUSH3 0x1880 SWAP1 PUSH3 0x1E6E JUMP JUMPDEST SWAP1 DUP2 MSTORE PUSH1 0x20 ADD PUSH1 0x40 MLOAD DUP1 SWAP2 SUB SWAP1 KECCAK256 PUSH1 0x0 PUSH1 0x2 DUP2 MSTORE PUSH1 0x20 ADD SWAP1 DUP2 MSTORE PUSH1 0x20 ADD PUSH1 0x0 KECCAK256 PUSH1 0x0 DUP3 ADD MLOAD DUP2 PUSH1 0x0 ADD SWAP1 DUP2 PUSH3 0x18B7 SWAP2 SWAP1 PUSH3 0x1CD0 JUMP JUMPDEST POP PUSH1 0x20 DUP3 ADD MLOAD DUP2 PUSH1 0x1 ADD SSTORE PUSH1 0x40 DUP3 ADD MLOAD DUP2 PUSH1 0x2 ADD SWAP1 DUP2 PUSH3 0x18D9 SWAP2 SWAP1 PUSH3 0x1CD0 JUMP JUMPDEST POP SWAP1 POP POP DUP2 PUSH1 0x1 PUSH1 0x40 MLOAD PUSH3 0x18EE SWAP1 PUSH3 0x1E6E JUMP JUMPDEST SWAP1 DUP2 MSTORE PUSH1 0x20 ADD PUSH1 0x40 MLOAD DUP1 SWAP2 SUB SWAP1 KECCAK256 PUSH1 0x0 PUSH1 0x3 DUP2 MSTORE PUSH1 0x20 ADD SWAP1 DUP2 MSTORE PUSH1 0x20 ADD PUSH1 0x0 KECCAK256 PUSH1 0x0 DUP3 ADD MLOAD DUP2 PUSH1 0x0 ADD SWAP1 DUP2 PUSH3 0x1925 SWAP2 SWAP1 PUSH3 0x1CD0 JUMP JUMPDEST POP PUSH1 0x20 DUP3 ADD MLOAD DUP2 PUSH1 0x1 ADD SSTORE PUSH1 0x40 DUP3 ADD MLOAD DUP2 PUSH1 0x2 ADD SWAP1 DUP2 PUSH3 0x1947 SWAP2 SWAP1 PUSH3 0x1CD0 JUMP JUMPDEST POP SWAP1 POP POP DUP1 PUSH1 0x1 PUSH1 0x40 MLOAD PUSH3 0x195C SWAP1 PUSH3 0x1E6E JUMP JUMPDEST SWAP1 DUP2 MSTORE PUSH1 0x20 ADD PUSH1 0x40 MLOAD DUP1 SWAP2 SUB SWAP1 KECCAK256 PUSH1 0x0 PUSH1 0x4 DUP2 MSTORE PUSH1 0x20 ADD SWAP1 DUP2 MSTORE PUSH1 0x20 ADD PUSH1 0x0 KECCAK256 PUSH1 0x0 DUP3 ADD MLOAD DUP2 PUSH1 0x0 ADD SWAP1 DUP2 PUSH3 0x1993 SWAP2 SWAP1 PUSH3 0x1CD0 JUMP JUMPDEST POP PUSH1 0x20 DUP3 ADD MLOAD DUP2 PUSH1 0x1 ADD SSTORE PUSH1 0x40 DUP3 ADD MLOAD DUP2 PUSH1 0x2 ADD SWAP1 DUP2 PUSH3 0x19B5 SWAP2 SWAP1 PUSH3 0x1CD0 JUMP JUMPDEST POP SWAP1 POP POP PUSH1 0x5 PUSH1 0x2 PUSH1 0x40 MLOAD PUSH3 0x19CB SWAP1 PUSH3 0x1E6E JUMP JUMPDEST SWAP1 DUP2 MSTORE PUSH1 0x20 ADD PUSH1 0x40 MLOAD DUP1 SWAP2 SUB SWAP1 KECCAK256 DUP2 SWAP1 SSTORE POP POP POP POP POP POP JUMP JUMPDEST PUSH1 0x0 DUP2 SWAP1 POP SWAP3 SWAP2 POP POP JUMP JUMPDEST PUSH32 0x416E6369656E7420526F6D616E20456D70696500000000000000000000000000 PUSH1 0x0 DUP3 ADD MSTORE POP JUMP JUMPDEST PUSH1 0x0 PUSH3 0x1A27 PUSH1 0x13 DUP4 PUSH3 0x19E4 JUMP JUMPDEST SWAP2 POP PUSH3 0x1A34 DUP3 PUSH3 0x19EF JUMP JUMPDEST PUSH1 0x13 DUP3 ADD SWAP1 POP SWAP2 SWAP1 POP JUMP JUMPDEST PUSH1 0x0 PUSH3 0x1A4C DUP3 PUSH3 0x1A18 JUMP JUMPDEST SWAP2 POP DUP2 SWAP1 POP SWAP2 SWAP1 POP JUMP JUMPDEST PUSH1 0x0 DUP2 MLOAD SWAP1 POP SWAP2 SWAP1 POP JUMP JUMPDEST PUSH32 0x4E487B7100000000000000000000000000000000000000000000000000000000 PUSH1 0x0 MSTORE PUSH1 0x41 PUSH1 0x4 MSTORE PUSH1 0x24 PUSH1 0x0 REVERT JUMPDEST PUSH32 0x4E487B7100000000000000000000000000000000000000000000000000000000 PUSH1 0x0 MSTORE PUSH1 0x22 PUSH1 0x4 MSTORE PUSH1 0x24 PUSH1 0x0 REVERT JUMPDEST PUSH1 0x0 PUSH1 0x2 DUP3 DIV SWAP1 POP PUSH1 0x1 DUP3 AND DUP1 PUSH3 0x1AD8 JUMPI PUSH1 0x7F DUP3 AND SWAP2 POP JUMPDEST PUSH1 0x20 DUP3 LT DUP2 SUB PUSH3 0x1AEE JUMPI PUSH3 0x1AED PUSH3 0x1A90 JUMP JUMPDEST JUMPDEST POP SWAP2 SWAP1 POP JUMP JUMPDEST PUSH1 0x0 DUP2 SWAP1 POP DUP2 PUSH1 0x0 MSTORE PUSH1 0x20 PUSH1 0x0 KECCAK256 SWAP1 POP SWAP2 SWAP1 POP JUMP JUMPDEST PUSH1 0x0 PUSH1 0x20 PUSH1 0x1F DUP4 ADD DIV SWAP1 POP SWAP2 SWAP1 POP JUMP JUMPDEST PUSH1 0x0 DUP3 DUP3 SHL SWAP1 POP SWAP3 SWAP2 POP POP JUMP JUMPDEST PUSH1 0x0 PUSH1 0x8 DUP4 MUL PUSH3 0x1B58 PUSH32 0xFFFFFFFFFFFFFFFFFFFFFFFFFFFFFFFFFFFFFFFFFFFFFFFFFFFFFFFFFFFFFFFF DUP3 PUSH3 0x1B19 JUMP JUMPDEST PUSH3 0x1B64 DUP7 DUP4 PUSH3 0x1B19 JUMP JUMPDEST SWAP6 POP DUP1 NOT DUP5 AND SWAP4 POP DUP1 DUP7 AND DUP5 OR SWAP3 POP POP POP SWAP4 SWAP3 POP POP POP JUMP JUMPDEST PUSH1 0x0 DUP2 SWAP1 POP SWAP2 SWAP1 POP JUMP JUMPDEST PUSH1 0x0 DUP2 SWAP1 POP SWAP2 SWAP1 POP JUMP JUMPDEST PUSH1 0x0 PUSH3 0x1BB1 PUSH3 0x1BAB PUSH3 0x1BA5 DUP5 PUSH3 0x1B7C JUMP JUMPDEST PUSH3 0x1B86 JUMP JUMPDEST PUSH3 0x1B7C JUMP JUMPDEST SWAP1 POP SWAP2 SWAP1 POP JUMP JUMPDEST PUSH1 0x0 DUP2 SWAP1 POP SWAP2 SWAP1 POP JUMP JUMPDEST PUSH3 0x1BCD DUP4 PUSH3 0x1B90 JUMP JUMPDEST PUSH3 0x1BE5 PUSH3 0x1BDC DUP3 PUSH3 0x1BB8 JUMP JUMPDEST DUP5 DUP5 SLOAD PUSH3 0x1B26 JUMP JUMPDEST DUP3 SSTORE POP POP POP POP JUMP JUMPDEST PUSH1 0x0 SWAP1 JUMP JUMPDEST PUSH3 0x1BFC PUSH3 0x1BED JUMP JUMPDEST PUSH3 0x1C09 DUP2 DUP5 DUP5 PUSH3 0x1BC2 JUMP JUMPDEST POP POP POP JUMP JUMPDEST JUMPDEST DUP2 DUP2 LT ISZERO PUSH3 0x1C31 JUMPI PUSH3 0x1C25 PUSH1 0x0 DUP3 PUSH3 0x1BF2 JUMP JUMPDEST PUSH1 0x1 DUP2 ADD SWAP1 POP PUSH3 0x1C0F JUMP JUMPDEST POP POP JUMP JUMPDEST PUSH1 0x1F DUP3 GT ISZERO PUSH3 0x1C80 JUMPI PUSH3 0x1C4A DUP2 PUSH3 0x1AF4 JUMP JUMPDEST PUSH3 0x1C55 DUP5 PUSH3 0x1B09 JUMP JUMPDEST DUP2 ADD PUSH1 0x20 DUP6 LT ISZERO PUSH3 0x1C65 JUMPI DUP2 SWAP1 POP JUMPDEST PUSH3 0x1C7D PUSH3 0x1C74 DUP6 PUSH3 0x1B09 JUMP JUMPDEST DUP4 ADD DUP3 PUSH3 0x1C0E JUMP JUMPDEST POP POP JUMPDEST POP POP POP JUMP JUMPDEST PUSH1 0x0 DUP3 DUP3 SHR SWAP1 POP SWAP3 SWAP2 POP POP JUMP JUMPDEST PUSH1 0x0 PUSH3 0x1CA5 PUSH1 0x0 NOT DUP5 PUSH1 0x8 MUL PUSH3 0x1C85 JUMP JUMPDEST NOT DUP1 DUP4 AND SWAP2 POP POP SWAP3 SWAP2 POP POP JUMP JUMPDEST PUSH1 0x0 PUSH3 0x1CC0 DUP4 DUP4 PUSH3 0x1C92 JUMP JUMPDEST SWAP2 POP DUP3 PUSH1 0x2 MUL DUP3 OR SWAP1 POP SWAP3 SWAP2 POP POP JUMP JUMPDEST PUSH3 0x1CDB DUP3 PUSH3 0x1A56 JUMP JUMPDEST PUSH8 0xFFFFFFFFFFFFFFFF DUP2 GT ISZERO PUSH3 0x1CF7 JUMPI PUSH3 0x1CF6 PUSH3 0x1A61 JUMP JUMPDEST JUMPDEST PUSH3 0x1D03 DUP3 SLOAD PUSH3 0x1ABF JUMP JUMPDEST PUSH3 0x1D10 DUP3 DUP3 DUP6 PUSH3 0x1C35 JUMP JUMPDEST PUSH1 0x0 PUSH1 0x20 SWAP1 POP PUSH1 0x1F DUP4 GT PUSH1 0x1 DUP2 EQ PUSH3 0x1D48 JUMPI PUSH1 0x0 DUP5 ISZERO PUSH3 0x1D33 JUMPI DUP3 DUP8 ADD MLOAD SWAP1 POP JUMPDEST PUSH3 0x1D3F DUP6 DUP3 PUSH3 0x1CB2 JUMP JUMPDEST DUP7 SSTORE POP PUSH3 0x1DAF JUMP JUMPDEST PUSH1 0x1F NOT DUP5 AND PUSH3 0x1D58 DUP7 PUSH3 0x1AF4 JUMP JUMPDEST PUSH1 0x0 JUMPDEST DUP3 DUP2 LT ISZERO PUSH3 0x1D82 JUMPI DUP5 DUP10 ADD MLOAD DUP3 SSTORE PUSH1 0x1 DUP3 ADD SWAP2 POP PUSH1 0x20 DUP6 ADD SWAP5 POP PUSH1 0x20 DUP2 ADD SWAP1 POP PUSH3 0x1D5B JUMP JUMPDEST DUP7 DUP4 LT ISZERO PUSH3 0x1DA2 JUMPI DUP5 DUP10 ADD MLOAD PUSH3 0x1D9E PUSH1 0x1F DUP10 AND DUP3 PUSH3 0x1C92 JUMP JUMPDEST DUP4 SSTORE POP JUMPDEST PUSH1 0x1 PUSH1 0x2 DUP9 MUL ADD DUP9 SSTORE POP POP POP JUMPDEST POP POP POP POP POP POP JUMP JUMPDEST PUSH32 0x416E6369656E7420526F6D616E20456D70697265000000000000000000000000 PUSH1 0x0 DUP3 ADD MSTORE POP JUMP JUMPDEST PUSH1 0x0 PUSH3 0x1DEF PUSH1 0x14 DUP4 PUSH3 0x19E4 JUMP JUMPDEST SWAP2 POP PUSH3 0x1DFC DUP3 PUSH3 0x1DB7 JUMP JUMPDEST PUSH1 0x14 DUP3 ADD SWAP1 POP SWAP2 SWAP1 POP JUMP JUMPDEST PUSH1 0x0 PUSH3 0x1E14 DUP3 PUSH3 0x1DE0 JUMP JUMPDEST SWAP2 POP DUP2 SWAP1 POP SWAP2 SWAP1 POP JUMP JUMPDEST PUSH32 0x4D6564696576616C20526F6D616E20456D706972650000000000000000000000 PUSH1 0x0 DUP3 ADD MSTORE POP JUMP JUMPDEST PUSH1 0x0 PUSH3 0x1E56 PUSH1 0x15 DUP4 PUSH3 0x19E4 JUMP JUMPDEST SWAP2 POP PUSH3 0x1E63 DUP3 PUSH3 0x1E1E JUMP JUMPDEST PUSH1 0x15 DUP3 ADD SWAP1 POP SWAP2 SWAP1 POP JUMP JUMPDEST PUSH1 0x0 PUSH3 0x1E7B DUP3 PUSH3 0x1E47 JUMP JUMPDEST SWAP2 POP DUP2 SWAP1 POP SWAP2 SWAP1 POP JUMP JUMPDEST PUSH2 0x37E2 DUP1 PUSH3 0x1E95 PUSH1 0x0 CODECOPY PUSH1 0x0 RETURN INVALID PUSH1 0x80 PUSH1 0x40 MSTORE CALLVALUE DUP1 ISZERO PUSH2 0x10 JUMPI PUSH1 0x0 DUP1 REVERT JUMPDEST POP PUSH1 0x4 CALLDATASIZE LT PUSH2 0x88 JUMPI PUSH1 0x0 CALLDATALOAD PUSH1 0xE0 SHR DUP1 PUSH4 0x961C37CC GT PUSH2 0x5B JUMPI DUP1 PUSH4 0x961C37CC EQ PUSH2 0x115 JUMPI DUP1 PUSH4 0xA9729B25 EQ PUSH2 0x11F JUMPI DUP1 PUSH4 0xB6C56385 EQ PUSH2 0x14F JUMPI DUP1 PUSH4 0xE6C1E335 EQ PUSH2 0x17F JUMPI PUSH2 0x88 JUMP JUMPDEST DUP1 PUSH4 0x4F268ED EQ PUSH2 0x8D JUMPI DUP1 PUSH4 0x77A3735 EQ PUSH2 0x97 JUMPI DUP1 PUSH4 0xAFB2DE9 EQ PUSH2 0xB3 JUMPI DUP1 PUSH4 0x7EDE6FDF EQ PUSH2 0xE3 JUMPI JUMPDEST PUSH1 0x0 DUP1 REVERT JUMPDEST PUSH2 0x95 PUSH2 0x1AF JUMP JUMPDEST STOP JUMPDEST PUSH2 0xB1 PUSH1 0x4 DUP1 CALLDATASIZE SUB DUP2 ADD SWAP1 PUSH2 0xAC SWAP2 SWAP1 PUSH2 0x242F JUMP JUMPDEST PUSH2 0xF4D JUMP JUMPDEST STOP JUMPDEST PUSH2 0xCD PUSH1 0x4 DUP1 CALLDATASIZE SUB DUP2 ADD SWAP1 PUSH2 0xC8 SWAP2 SWAP1 PUSH2 0x24D6 JUMP JUMPDEST PUSH2 0x1019 JUMP JUMPDEST PUSH1 0x40 MLOAD PUSH2 0xDA SWAP2 SWAP1 PUSH2 0x252E JUMP JUMPDEST PUSH1 0x40 MLOAD DUP1 SWAP2 SUB SWAP1 RETURN JUMPDEST PUSH2 0xFD PUSH1 0x4 DUP1 CALLDATASIZE SUB DUP2 ADD SWAP1 PUSH2 0xF8 SWAP2 SWAP1 PUSH2 0x2549 JUMP JUMPDEST PUSH2 0x1047 JUMP JUMPDEST PUSH1 0x40 MLOAD PUSH2 0x10C SWAP4 SWAP3 SWAP2 SWAP1 PUSH2 0x2624 JUMP JUMPDEST PUSH1 0x40 MLOAD DUP1 SWAP2 SUB SWAP1 RETURN JUMPDEST PUSH2 0x11D PUSH2 0x11A4 JUMP JUMPDEST STOP JUMPDEST PUSH2 0x139 PUSH1 0x4 DUP1 CALLDATASIZE SUB DUP2 ADD SWAP1 PUSH2 0x134 SWAP2 SWAP1 PUSH2 0x24D6 JUMP JUMPDEST PUSH2 0x1CD3 JUMP JUMPDEST PUSH1 0x40 MLOAD PUSH2 0x146 SWAP2 SWAP1 PUSH2 0x27E9 JUMP JUMPDEST PUSH1 0x40 MLOAD DUP1 SWAP2 SUB SWAP1 RETURN JUMPDEST PUSH2 0x169 PUSH1 0x4 DUP1 CALLDATASIZE SUB DUP2 ADD SWAP1 PUSH2 0x164 SWAP2 SWAP1 PUSH2 0x24D6 JUMP JUMPDEST PUSH2 0x1CDA JUMP JUMPDEST PUSH1 0x40 MLOAD PUSH2 0x176 SWAP2 SWAP1 PUSH2 0x296E JUMP JUMPDEST PUSH1 0x40 MLOAD DUP1 SWAP2 SUB SWAP1 RETURN JUMPDEST PUSH2 0x199 PUSH1 0x4 DUP1 CALLDATASIZE SUB DUP2 ADD SWAP1 PUSH2 0x194 SWAP2 SWAP1 PUSH2 0x2990 JUMP JUMPDEST PUSH2 0x1F41 JUMP JUMPDEST PUSH1 0x40 MLOAD PUSH2 0x1A6 SWAP2 SWAP1 PUSH2 0x29FF JUMP JUMPDEST PUSH1 0x40 MLOAD DUP1 SWAP2 SUB SWAP1 RETURN JUMPDEST PUSH1 0x40 MLOAD DUP1 PUSH1 0x40 ADD PUSH1 0x40 MSTORE DUP1 PUSH1 0x6 DUP2 MSTORE PUSH1 0x20 ADD PUSH32 0x4D756E6475730000000000000000000000000000000000000000000000000000 DUP2 MSTORE POP PUSH1 0x0 PUSH1 0x40 MLOAD PUSH2 0x1F3 SWAP1 PUSH2 0x2A78 JUMP JUMPDEST SWAP1 DUP2 MSTORE PUSH1 0x20 ADD PUSH1 0x40 MLOAD DUP1 SWAP2 SUB SWAP1 KECCAK256 PUSH1 0x0 DUP1 DUP2 MSTORE PUSH1 0x20 ADD SWAP1 DUP2 MSTORE PUSH1 0x20 ADD PUSH1 0x0 KECCAK256 PUSH1 0x0 DUP1 DUP2 MSTORE PUSH1 0x20 ADD SWAP1 DUP2 MSTORE PUSH1 0x20 ADD PUSH1 0x0 KECCAK256 SWAP1 DUP2 PUSH2 0x22F SWAP2 SWAP1 PUSH2 0x2C99 JUMP JUMPDEST POP PUSH1 0x40 MLOAD DUP1 PUSH1 0x40 ADD PUSH1 0x40 MSTORE DUP1 PUSH1 0x6 DUP2 MSTORE PUSH1 0x20 ADD PUSH32 0x4265737361730000000000000000000000000000000000000000000000000000 DUP2 MSTORE POP PUSH1 0x0 PUSH1 0x40 MLOAD PUSH2 0x274 SWAP1 PUSH2 0x2A78 JUMP JUMPDEST SWAP1 DUP2 MSTORE PUSH1 0x20 ADD PUSH1 0x40 MLOAD DUP1 SWAP2 SUB SWAP1 KECCAK256 PUSH1 0x0 DUP1 DUP2 MSTORE PUSH1 0x20 ADD SWAP1 DUP2 MSTORE PUSH1 0x20 ADD PUSH1 0x0 KECCAK256 PUSH1 0x0 PUSH1 0x1 DUP2 MSTORE PUSH1 0x20 ADD SWAP1 DUP2 MSTORE PUSH1 0x20 ADD PUSH1 0x0 KECCAK256 SWAP1 DUP2 PUSH2 0x2B1 SWAP2 SWAP1 PUSH2 0x2C99 JUMP JUMPDEST POP PUSH1 0x40 MLOAD DUP1 PUSH1 0x40 ADD PUSH1 0x40 MSTORE DUP1 PUSH1 0xA DUP2 MSTORE PUSH1 0x20 ADD PUSH32 0x42656C6973617269757300000000000000000000000000000000000000000000 DUP2 MSTORE POP PUSH1 0x0 PUSH1 0x40 MLOAD PUSH2 0x2F6 SWAP1 PUSH2 0x2A78 JUMP JUMPDEST SWAP1 DUP2 MSTORE PUSH1 0x20 ADD PUSH1 0x40 MLOAD DUP1 SWAP2 SUB SWAP1 KECCAK256 PUSH1 0x0 DUP1 DUP2 MSTORE PUSH1 0x20 ADD SWAP1 DUP2 MSTORE PUSH1 0x20 ADD PUSH1 0x0 KECCAK256 PUSH1 0x0 PUSH1 0x2 DUP2 MSTORE PUSH1 0x20 ADD SWAP1 DUP2 MSTORE PUSH1 0x20 ADD PUSH1 0x0 KECCAK256 SWAP1 DUP2 PUSH2 0x333 SWAP2 SWAP1 PUSH2 0x2C99 JUMP JUMPDEST POP PUSH1 0x40 MLOAD DUP1 PUSH1 0x40 ADD PUSH1 0x40 MSTORE DUP1 PUSH1 0x6 DUP2 MSTORE PUSH1 0x20 ADD PUSH32 0x5369747461730000000000000000000000000000000000000000000000000000 DUP2 MSTORE POP PUSH1 0x0 PUSH1 0x40 MLOAD PUSH2 0x378 SWAP1 PUSH2 0x2A78 JUMP JUMPDEST SWAP1 DUP2 MSTORE PUSH1 0x20 ADD PUSH1 0x40 MLOAD DUP1 SWAP2 SUB SWAP1 KECCAK256 PUSH1 0x0 DUP1 DUP2 MSTORE PUSH1 0x20 ADD SWAP1 DUP2 MSTORE PUSH1 0x20 ADD PUSH1 0x0 KECCAK256 PUSH1 0x0 PUSH1 0x3 DUP2 MSTORE PUSH1 0x20 ADD SWAP1 DUP2 MSTORE PUSH1 0x20 ADD PUSH1 0x0 KECCAK256 SWAP1 DUP2 PUSH2 0x3B5 SWAP2 SWAP1 PUSH2 0x2C99 JUMP JUMPDEST POP PUSH1 0x40 MLOAD DUP1 PUSH1 0x60 ADD PUSH1 0x40 MSTORE DUP1 PUSH1 0x39 DUP2 MSTORE PUSH1 0x20 ADD PUSH2 0x30F8 PUSH1 0x39 SWAP2 CODECOPY PUSH1 0x0 PUSH1 0x40 MLOAD PUSH2 0x3DD SWAP1 PUSH2 0x2A78 JUMP JUMPDEST SWAP1 DUP2 MSTORE PUSH1 0x20 ADD PUSH1 0x40 MLOAD DUP1 SWAP2 SUB SWAP1 KECCAK256 PUSH1 0x0 PUSH1 0x2 DUP2 MSTORE PUSH1 0x20 ADD SWAP1 DUP2 MSTORE PUSH1 0x20 ADD PUSH1 0x0 KECCAK256 PUSH1 0x0 DUP1 DUP2 MSTORE PUSH1 0x20 ADD SWAP1 DUP2 MSTORE PUSH1 0x20 ADD PUSH1 0x0 KECCAK256 SWAP1 DUP2 PUSH2 0x41A SWAP2 SWAP1 PUSH2 0x2C99 JUMP JUMPDEST POP PUSH1 0x40 MLOAD DUP1 PUSH1 0x60 ADD PUSH1 0x40 MSTORE DUP1 PUSH1 0x2A DUP2 MSTORE PUSH1 0x20 ADD PUSH2 0x34AF PUSH1 0x2A SWAP2 CODECOPY PUSH1 0x0 PUSH1 0x40 MLOAD PUSH2 0x442 SWAP1 PUSH2 0x2A78 JUMP JUMPDEST SWAP1 DUP2 MSTORE PUSH1 0x20 ADD PUSH1 0x40 MLOAD DUP1 SWAP2 SUB SWAP1 KECCAK256 PUSH1 0x0 PUSH1 0x2 DUP2 MSTORE PUSH1 0x20 ADD SWAP1 DUP2 MSTORE PUSH1 0x20 ADD PUSH1 0x0 KECCAK256 PUSH1 0x0 PUSH1 0x1 DUP2 MSTORE PUSH1 0x20 ADD SWAP1 DUP2 MSTORE PUSH1 0x20 ADD PUSH1 0x0 KECCAK256 SWAP1 DUP2 PUSH2 0x480 SWAP2 SWAP1 PUSH2 0x2C99 JUMP JUMPDEST POP PUSH1 0x40 MLOAD DUP1 PUSH1 0x60 ADD PUSH1 0x40 MSTORE DUP1 PUSH1 0x2C DUP2 MSTORE PUSH1 0x20 ADD PUSH2 0x329D PUSH1 0x2C SWAP2 CODECOPY PUSH1 0x0 PUSH1 0x40 MLOAD PUSH2 0x4A8 SWAP1 PUSH2 0x2A78 JUMP JUMPDEST SWAP1 DUP2 MSTORE PUSH1 0x20 ADD PUSH1 0x40 MLOAD DUP1 SWAP2 SUB SWAP1 KECCAK256 PUSH1 0x0 PUSH1 0x2 DUP2 MSTORE PUSH1 0x20 ADD SWAP1 DUP2 MSTORE PUSH1 0x20 ADD PUSH1 0x0 KECCAK256 PUSH1 0x0 PUSH1 0x2 DUP2 MSTORE PUSH1 0x20 ADD SWAP1 DUP2 MSTORE PUSH1 0x20 ADD PUSH1 0x0 KECCAK256 SWAP1 DUP2 PUSH2 0x4E6 SWAP2 SWAP1 PUSH2 0x2C99 JUMP JUMPDEST POP PUSH1 0x40 MLOAD DUP1 PUSH1 0x40 ADD PUSH1 0x40 MSTORE DUP1 PUSH1 0x20 DUP2 MSTORE PUSH1 0x20 ADD PUSH32 0x5065727369616E2064657369726520746F20636F6E717565722045677970742E DUP2 MSTORE POP PUSH1 0x0 PUSH1 0x40 MLOAD PUSH2 0x52B SWAP1 PUSH2 0x2A78 JUMP JUMPDEST SWAP1 DUP2 MSTORE PUSH1 0x20 ADD PUSH1 0x40 MLOAD DUP1 SWAP2 SUB SWAP1 KECCAK256 PUSH1 0x0 PUSH1 0x2 DUP2 MSTORE PUSH1 0x20 ADD SWAP1 DUP2 MSTORE PUSH1 0x20 ADD PUSH1 0x0 KECCAK256 PUSH1 0x0 PUSH1 0x3 DUP2 MSTORE PUSH1 0x20 ADD SWAP1 DUP2 MSTORE PUSH1 0x20 ADD PUSH1 0x0 KECCAK256 SWAP1 DUP2 PUSH2 0x569 SWAP2 SWAP1 PUSH2 0x2C99 JUMP JUMPDEST POP PUSH1 0x40 MLOAD DUP1 PUSH1 0x40 ADD PUSH1 0x40 MSTORE DUP1 PUSH1 0x7 DUP2 MSTORE PUSH1 0x20 ADD PUSH32 0x426173696C204900000000000000000000000000000000000000000000000000 DUP2 MSTORE POP PUSH1 0x0 PUSH1 0x40 MLOAD PUSH2 0x5AE SWAP1 PUSH2 0x2A78 JUMP JUMPDEST SWAP1 DUP2 MSTORE PUSH1 0x20 ADD PUSH1 0x40 MLOAD DUP1 SWAP2 SUB SWAP1 KECCAK256 PUSH1 0x0 PUSH1 0x3 DUP2 MSTORE PUSH1 0x20 ADD SWAP1 DUP2 MSTORE PUSH1 0x20 ADD PUSH1 0x0 KECCAK256 PUSH1 0x0 DUP1 DUP2 MSTORE PUSH1 0x20 ADD SWAP1 DUP2 MSTORE PUSH1 0x20 ADD PUSH1 0x0 KECCAK256 SWAP1 DUP2 PUSH2 0x5EB SWAP2 SWAP1 PUSH2 0x2C99 JUMP JUMPDEST POP PUSH1 0x40 MLOAD DUP1 PUSH1 0x40 ADD PUSH1 0x40 MSTORE DUP1 PUSH1 0x14 DUP2 MSTORE PUSH1 0x20 ADD PUSH32 0x4E696B6570686F726F732049492050686F6B6173000000000000000000000000 DUP2 MSTORE POP PUSH1 0x0 PUSH1 0x40 MLOAD PUSH2 0x630 SWAP1 PUSH2 0x2A78 JUMP JUMPDEST SWAP1 DUP2 MSTORE PUSH1 0x20 ADD PUSH1 0x40 MLOAD DUP1 SWAP2 SUB SWAP1 KECCAK256 PUSH1 0x0 PUSH1 0x3 DUP2 MSTORE PUSH1 0x20 ADD SWAP1 DUP2 MSTORE PUSH1 0x20 ADD PUSH1 0x0 KECCAK256 PUSH1 0x0 PUSH1 0x1 DUP2 MSTORE PUSH1 0x20 ADD SWAP1 DUP2 MSTORE PUSH1 0x20 ADD PUSH1 0x0 KECCAK256 SWAP1 DUP2 PUSH2 0x66E SWAP2 SWAP1 PUSH2 0x2C99 JUMP JUMPDEST POP PUSH1 0x40 MLOAD DUP1 PUSH1 0x40 ADD PUSH1 0x40 MSTORE DUP1 PUSH1 0x10 DUP2 MSTORE PUSH1 0x20 ADD PUSH32 0x4A6F686E204920547A696D69736B657300000000000000000000000000000000 DUP2 MSTORE POP PUSH1 0x0 PUSH1 0x40 MLOAD PUSH2 0x6B3 SWAP1 PUSH2 0x2A78 JUMP JUMPDEST SWAP1 DUP2 MSTORE PUSH1 0x20 ADD PUSH1 0x40 MLOAD DUP1 SWAP2 SUB SWAP1 KECCAK256 PUSH1 0x0 PUSH1 0x3 DUP2 MSTORE PUSH1 0x20 ADD SWAP1 DUP2 MSTORE PUSH1 0x20 ADD PUSH1 0x0 KECCAK256 PUSH1 0x0 PUSH1 0x2 DUP2 MSTORE PUSH1 0x20 ADD SWAP1 DUP2 MSTORE PUSH1 0x20 ADD PUSH1 0x0 KECCAK256 SWAP1 DUP2 PUSH2 0x6F1 SWAP2 SWAP1 PUSH2 0x2C99 JUMP JUMPDEST POP PUSH1 0x40 MLOAD DUP1 PUSH1 0x40 ADD PUSH1 0x40 MSTORE DUP1 PUSH1 0xA DUP2 MSTORE PUSH1 0x20 ADD PUSH32 0x526F6D616E6F7320494900000000000000000000000000000000000000000000 DUP2 MSTORE POP PUSH1 0x0 PUSH1 0x40 MLOAD PUSH2 0x736 SWAP1 PUSH2 0x2A78 JUMP JUMPDEST SWAP1 DUP2 MSTORE PUSH1 0x20 ADD PUSH1 0x40 MLOAD DUP1 SWAP2 SUB SWAP1 KECCAK256 PUSH1 0x0 PUSH1 0x3 DUP2 MSTORE PUSH1 0x20 ADD SWAP1 DUP2 MSTORE PUSH1 0x20 ADD PUSH1 0x0 KECCAK256 PUSH1 0x0 PUSH1 0x3 DUP2 MSTORE PUSH1 0x20 ADD SWAP1 DUP2 MSTORE PUSH1 0x20 ADD PUSH1 0x0 KECCAK256 SWAP1 DUP2 PUSH2 0x774 SWAP2 SWAP1 PUSH2 0x2C99 JUMP JUMPDEST POP PUSH1 0x40 MLOAD DUP1 PUSH1 0x40 ADD PUSH1 0x40 MSTORE DUP1 PUSH1 0x7 DUP2 MSTORE PUSH1 0x20 ADD PUSH32 0x5961726D6F756B00000000000000000000000000000000000000000000000000 DUP2 MSTORE POP PUSH1 0x0 PUSH1 0x40 MLOAD PUSH2 0x7B9 SWAP1 PUSH2 0x2A78 JUMP JUMPDEST SWAP1 DUP2 MSTORE PUSH1 0x20 ADD PUSH1 0x40 MLOAD DUP1 SWAP2 SUB SWAP1 KECCAK256 PUSH1 0x0 PUSH1 0x4 DUP2 MSTORE PUSH1 0x20 ADD SWAP1 DUP2 MSTORE PUSH1 0x20 ADD PUSH1 0x0 KECCAK256 PUSH1 0x0 DUP1 DUP2 MSTORE PUSH1 0x20 ADD SWAP1 DUP2 MSTORE PUSH1 0x20 ADD PUSH1 0x0 KECCAK256 SWAP1 DUP2 PUSH2 0x7F6 SWAP2 SWAP1 PUSH2 0x2C99 JUMP JUMPDEST POP PUSH1 0x40 MLOAD DUP1 PUSH1 0x40 ADD PUSH1 0x40 MSTORE DUP1 PUSH1 0x6 DUP2 MSTORE PUSH1 0x20 ADD PUSH32 0x506C69736B610000000000000000000000000000000000000000000000000000 DUP2 MSTORE POP PUSH1 0x0 PUSH1 0x40 MLOAD PUSH2 0x83B SWAP1 PUSH2 0x2A78 JUMP JUMPDEST SWAP1 DUP2 MSTORE PUSH1 0x20 ADD PUSH1 0x40 MLOAD DUP1 SWAP2 SUB SWAP1 KECCAK256 PUSH1 0x0 PUSH1 0x4 DUP2 MSTORE PUSH1 0x20 ADD SWAP1 DUP2 MSTORE PUSH1 0x20 ADD PUSH1 0x0 KECCAK256 PUSH1 0x0 PUSH1 0x1 DUP2 MSTORE PUSH1 0x20 ADD SWAP1 DUP2 MSTORE PUSH1 0x20 ADD PUSH1 0x0 KECCAK256 SWAP1 DUP2 PUSH2 0x879 SWAP2 SWAP1 PUSH2 0x2C99 JUMP JUMPDEST POP PUSH1 0x40 MLOAD DUP1 PUSH1 0x40 ADD PUSH1 0x40 MSTORE DUP1 PUSH1 0x9 DUP2 MSTORE PUSH1 0x20 ADD PUSH32 0x43616C696E6963756D0000000000000000000000000000000000000000000000 DUP2 MSTORE POP PUSH1 0x0 PUSH1 0x40 MLOAD PUSH2 0x8BE SWAP1 PUSH2 0x2A78 JUMP JUMPDEST SWAP1 DUP2 MSTORE PUSH1 0x20 ADD PUSH1 0x40 MLOAD DUP1 SWAP2 SUB SWAP1 KECCAK256 PUSH1 0x0 PUSH1 0x4 DUP2 MSTORE PUSH1 0x20 ADD SWAP1 DUP2 MSTORE PUSH1 0x20 ADD PUSH1 0x0 KECCAK256 PUSH1 0x0 PUSH1 0x2 DUP2 MSTORE PUSH1 0x20 ADD SWAP1 DUP2 MSTORE PUSH1 0x20 ADD PUSH1 0x0 KECCAK256 SWAP1 DUP2 PUSH2 0x8FC SWAP2 SWAP1 PUSH2 0x2C99 JUMP JUMPDEST POP PUSH1 0x40 MLOAD DUP1 PUSH1 0x40 ADD PUSH1 0x40 MSTORE DUP1 PUSH1 0x9 DUP2 MSTORE PUSH1 0x20 ADD PUSH32 0x4D616E7A696B6572740000000000000000000000000000000000000000000000 DUP2 MSTORE POP PUSH1 0x0 PUSH1 0x40 MLOAD PUSH2 0x941 SWAP1 PUSH2 0x2A78 JUMP JUMPDEST SWAP1 DUP2 MSTORE PUSH1 0x20 ADD PUSH1 0x40 MLOAD DUP1 SWAP2 SUB SWAP1 KECCAK256 PUSH1 0x0 PUSH1 0x4 DUP2 MSTORE PUSH1 0x20 ADD SWAP1 DUP2 MSTORE PUSH1 0x20 ADD PUSH1 0x0 KECCAK256 PUSH1 0x0 PUSH1 0x3 DUP2 MSTORE PUSH1 0x20 ADD SWAP1 DUP2 MSTORE PUSH1 0x20 ADD PUSH1 0x0 KECCAK256 SWAP1 DUP2 PUSH2 0x97F SWAP2 SWAP1 PUSH2 0x2C99 JUMP JUMPDEST POP PUSH1 0x40 MLOAD DUP1 PUSH1 0x40 ADD PUSH1 0x40 MSTORE DUP1 PUSH1 0x8 DUP2 MSTORE PUSH1 0x20 ADD PUSH32 0x4361727468616765000000000000000000000000000000000000000000000000 DUP2 MSTORE POP PUSH1 0x0 PUSH1 0x40 MLOAD PUSH2 0x9C4 SWAP1 PUSH2 0x2A78 JUMP JUMPDEST SWAP1 DUP2 MSTORE PUSH1 0x20 ADD PUSH1 0x40 MLOAD DUP1 SWAP2 SUB SWAP1 KECCAK256 PUSH1 0x0 PUSH1 0x5 DUP2 MSTORE PUSH1 0x20 ADD SWAP1 DUP2 MSTORE PUSH1 0x20 ADD PUSH1 0x0 KECCAK256 PUSH1 0x0 DUP1 DUP2 MSTORE PUSH1 0x20 ADD SWAP1 DUP2 MSTORE PUSH1 0x20 ADD PUSH1 0x0 KECCAK256 SWAP1 DUP2 PUSH2 0xA01 SWAP2 SWAP1 PUSH2 0x2C99 JUMP JUMPDEST POP PUSH1 0x40 MLOAD DUP1 PUSH1 0x40 ADD PUSH1 0x40 MSTORE DUP1 PUSH1 0x7 DUP2 MSTORE PUSH1 0x20 ADD PUSH32 0x416E74696F636800000000000000000000000000000000000000000000000000 DUP2 MSTORE POP PUSH1 0x0 PUSH1 0x40 MLOAD PUSH2 0xA46 SWAP1 PUSH2 0x2A78 JUMP JUMPDEST SWAP1 DUP2 MSTORE PUSH1 0x20 ADD PUSH1 0x40 MLOAD DUP1 SWAP2 SUB SWAP1 KECCAK256 PUSH1 0x0 PUSH1 0x5 DUP2 MSTORE PUSH1 0x20 ADD SWAP1 DUP2 MSTORE PUSH1 0x20 ADD PUSH1 0x0 KECCAK256 PUSH1 0x0 PUSH1 0x1 DUP2 MSTORE PUSH1 0x20 ADD SWAP1 DUP2 MSTORE PUSH1 0x20 ADD PUSH1 0x0 KECCAK256 SWAP1 DUP2 PUSH2 0xA84 SWAP2 SWAP1 PUSH2 0x2C99 JUMP JUMPDEST POP PUSH1 0x40 MLOAD DUP1 PUSH1 0x40 ADD PUSH1 0x40 MSTORE DUP1 PUSH1 0xB DUP2 MSTORE PUSH1 0x20 ADD PUSH32 0x41647269616E6F706F6C65000000000000000000000000000000000000000000 DUP2 MSTORE POP PUSH1 0x0 PUSH1 0x40 MLOAD PUSH2 0xAC9 SWAP1 PUSH2 0x2A78 JUMP JUMPDEST SWAP1 DUP2 MSTORE PUSH1 0x20 ADD PUSH1 0x40 MLOAD DUP1 SWAP2 SUB SWAP1 KECCAK256 PUSH1 0x0 PUSH1 0x5 DUP2 MSTORE PUSH1 0x20 ADD SWAP1 DUP2 MSTORE PUSH1 0x20 ADD PUSH1 0x0 KECCAK256 PUSH1 0x0 PUSH1 0x2 DUP2 MSTORE PUSH1 0x20 ADD SWAP1 DUP2 MSTORE PUSH1 0x20 ADD PUSH1 0x0 KECCAK256 SWAP1 DUP2 PUSH2 0xB07 SWAP2 SWAP1 PUSH2 0x2C99 JUMP JUMPDEST POP PUSH1 0x40 MLOAD DUP1 PUSH1 0x40 ADD PUSH1 0x40 MSTORE DUP1 PUSH1 0xC DUP2 MSTORE PUSH1 0x20 ADD PUSH32 0x54686573616C6C6F6E696B690000000000000000000000000000000000000000 DUP2 MSTORE POP PUSH1 0x0 PUSH1 0x40 MLOAD PUSH2 0xB4C SWAP1 PUSH2 0x2A78 JUMP JUMPDEST SWAP1 DUP2 MSTORE PUSH1 0x20 ADD PUSH1 0x40 MLOAD DUP1 SWAP2 SUB SWAP1 KECCAK256 PUSH1 0x0 PUSH1 0x5 DUP2 MSTORE PUSH1 0x20 ADD SWAP1 DUP2 MSTORE PUSH1 0x20 ADD PUSH1 0x0 KECCAK256 PUSH1 0x0 PUSH1 0x3 DUP2 MSTORE PUSH1 0x20 ADD SWAP1 DUP2 MSTORE PUSH1 0x20 ADD PUSH1 0x0 KECCAK256 SWAP1 DUP2 PUSH2 0xB8A SWAP2 SWAP1 PUSH2 0x2C99 JUMP JUMPDEST POP PUSH1 0x0 PUSH1 0x40 MLOAD DUP1 PUSH1 0x60 ADD PUSH1 0x40 MSTORE DUP1 PUSH1 0x40 MLOAD DUP1 PUSH1 0x60 ADD PUSH1 0x40 MSTORE DUP1 PUSH1 0x3D DUP2 MSTORE PUSH1 0x20 ADD PUSH2 0x3349 PUSH1 0x3D SWAP2 CODECOPY DUP2 MSTORE PUSH1 0x20 ADD PUSH1 0x2 DUP2 MSTORE PUSH1 0x20 ADD PUSH1 0x40 MLOAD DUP1 PUSH1 0xC0 ADD PUSH1 0x40 MSTORE DUP1 PUSH1 0x83 DUP2 MSTORE PUSH1 0x20 ADD PUSH2 0x3131 PUSH1 0x83 SWAP2 CODECOPY DUP2 MSTORE POP SWAP1 POP PUSH1 0x0 PUSH1 0x40 MLOAD DUP1 PUSH1 0x60 ADD PUSH1 0x40 MSTORE DUP1 PUSH1 0x40 MLOAD DUP1 PUSH1 0x60 ADD PUSH1 0x40 MSTORE DUP1 PUSH1 0x37 DUP2 MSTORE PUSH1 0x20 ADD PUSH2 0x360B PUSH1 0x37 SWAP2 CODECOPY DUP2 MSTORE PUSH1 0x20 ADD PUSH1 0x0 DUP2 MSTORE PUSH1 0x20 ADD PUSH1 0x40 MLOAD DUP1 PUSH2 0x120 ADD PUSH1 0x40 MSTORE DUP1 PUSH1 0xF0 DUP2 MSTORE PUSH1 0x20 ADD PUSH2 0x33BF PUSH1 0xF0 SWAP2 CODECOPY DUP2 MSTORE POP SWAP1 POP PUSH1 0x0 PUSH1 0x40 MLOAD DUP1 PUSH1 0x60 ADD PUSH1 0x40 MSTORE DUP1 PUSH1 0x40 MLOAD DUP1 PUSH1 0x60 ADD PUSH1 0x40 MSTORE DUP1 PUSH1 0x39 DUP2 MSTORE PUSH1 0x20 ADD PUSH2 0x3386 PUSH1 0x39 SWAP2 CODECOPY DUP2 MSTORE PUSH1 0x20 ADD PUSH1 0x1 DUP2 MSTORE PUSH1 0x20 ADD PUSH1 0x40 MLOAD DUP1 PUSH1 0xC0 ADD PUSH1 0x40 MSTORE DUP1 PUSH1 0x89 DUP2 MSTORE PUSH1 0x20 ADD PUSH2 0x2FFE PUSH1 0x89 SWAP2 CODECOPY DUP2 MSTORE POP SWAP1 POP PUSH1 0x0 PUSH1 0x40 MLOAD DUP1 PUSH1 0x60 ADD PUSH1 0x40 MSTORE DUP1 PUSH1 0x40 MLOAD DUP1 PUSH1 0x60 ADD PUSH1 0x40 MSTORE DUP1 PUSH1 0x2D DUP2 MSTORE PUSH1 0x20 ADD PUSH2 0x358B PUSH1 0x2D SWAP2 CODECOPY DUP2 MSTORE PUSH1 0x20 ADD PUSH1 0x3 DUP2 MSTORE PUSH1 0x20 ADD PUSH1 0x40 MLOAD DUP1 PUSH2 0x120 ADD PUSH1 0x40 MSTORE DUP1 PUSH1 0xE9 DUP2 MSTORE PUSH1 0x20 ADD PUSH2 0x31B4 PUSH1 0xE9 SWAP2 CODECOPY DUP2 MSTORE POP SWAP1 POP PUSH1 0x0 PUSH1 0x40 MLOAD DUP1 PUSH1 0x60 ADD PUSH1 0x40 MSTORE DUP1 PUSH1 0x40 MLOAD DUP1 PUSH1 0x80 ADD PUSH1 0x40 MSTORE DUP1 PUSH1 0x53 DUP2 MSTORE PUSH1 0x20 ADD PUSH2 0x35B8 PUSH1 0x53 SWAP2 CODECOPY DUP2 MSTORE PUSH1 0x20 ADD PUSH1 0x0 DUP2 MSTORE PUSH1 0x20 ADD PUSH1 0x40 MLOAD DUP1 PUSH1 0xC0 ADD PUSH1 0x40 MSTORE DUP1 PUSH1 0x85 DUP2 MSTORE PUSH1 0x20 ADD PUSH2 0x3642 PUSH1 0x85 SWAP2 CODECOPY DUP2 MSTORE POP SWAP1 POP DUP5 PUSH1 0x1 PUSH1 0x40 MLOAD PUSH2 0xD2C SWAP1 PUSH2 0x2A78 JUMP JUMPDEST SWAP1 DUP2 MSTORE PUSH1 0x20 ADD PUSH1 0x40 MLOAD DUP1 SWAP2 SUB SWAP1 KECCAK256 PUSH1 0x0 DUP1 DUP2 MSTORE PUSH1 0x20 ADD SWAP1 DUP2 MSTORE PUSH1 0x20 ADD PUSH1 0x0 KECCAK256 PUSH1 0x0 DUP3 ADD MLOAD DUP2 PUSH1 0x0 ADD SWAP1 DUP2 PUSH2 0xD60 SWAP2 SWAP1 PUSH2 0x2C99 JUMP JUMPDEST POP PUSH1 0x20 DUP3 ADD MLOAD DUP2 PUSH1 0x1 ADD SSTORE PUSH1 0x40 DUP3 ADD MLOAD DUP2 PUSH1 0x2 ADD SWAP1 DUP2 PUSH2 0xD80 SWAP2 SWAP1 PUSH2 0x2C99 JUMP JUMPDEST POP SWAP1 POP POP DUP4 PUSH1 0x1 PUSH1 0x40 MLOAD PUSH2 0xD93 SWAP1 PUSH2 0x2A78 JUMP JUMPDEST SWAP1 DUP2 MSTORE PUSH1 0x20 ADD PUSH1 0x40 MLOAD DUP1 SWAP2 SUB SWAP1 KECCAK256 PUSH1 0x0 PUSH1 0x1 DUP2 MSTORE PUSH1 0x20 ADD SWAP1 DUP2 MSTORE PUSH1 0x20 ADD PUSH1 0x0 KECCAK256 PUSH1 0x0 DUP3 ADD MLOAD DUP2 PUSH1 0x0 ADD SWAP1 DUP2 PUSH2 0xDC8 SWAP2 SWAP1 PUSH2 0x2C99 JUMP JUMPDEST POP PUSH1 0x20 DUP3 ADD MLOAD DUP2 PUSH1 0x1 ADD SSTORE PUSH1 0x40 DUP3 ADD MLOAD DUP2 PUSH1 0x2 ADD SWAP1 DUP2 PUSH2 0xDE8 SWAP2 SWAP1 PUSH2 0x2C99 JUMP JUMPDEST POP SWAP1 POP POP DUP3 PUSH1 0x1 PUSH1 0x40 MLOAD PUSH2 0xDFB SWAP1 PUSH2 0x2A78 JUMP JUMPDEST SWAP1 DUP2 MSTORE PUSH1 0x20 ADD PUSH1 0x40 MLOAD DUP1 SWAP2 SUB SWAP1 KECCAK256 PUSH1 0x0 PUSH1 0x2 DUP2 MSTORE PUSH1 0x20 ADD SWAP1 DUP2 MSTORE PUSH1 0x20 ADD PUSH1 0x0 KECCAK256 PUSH1 0x0 DUP3 ADD MLOAD DUP2 PUSH1 0x0 ADD SWAP1 DUP2 PUSH2 0xE30 SWAP2 SWAP1 PUSH2 0x2C99 JUMP JUMPDEST POP PUSH1 0x20 DUP3 ADD MLOAD DUP2 PUSH1 0x1 ADD SSTORE PUSH1 0x40 DUP3 ADD MLOAD DUP2 PUSH1 0x2 ADD SWAP1 DUP2 PUSH2 0xE50 SWAP2 SWAP1 PUSH2 0x2C99 JUMP JUMPDEST POP SWAP1 POP POP DUP2 PUSH1 0x1 PUSH1 0x40 MLOAD PUSH2 0xE63 SWAP1 PUSH2 0x2A78 JUMP JUMPDEST SWAP1 DUP2 MSTORE PUSH1 0x20 ADD PUSH1 0x40 MLOAD DUP1 SWAP2 SUB SWAP1 KECCAK256 PUSH1 0x0 PUSH1 0x3 DUP2 MSTORE PUSH1 0x20 ADD SWAP1 DUP2 MSTORE PUSH1 0x20 ADD PUSH1 0x0 KECCAK256 PUSH1 0x0 DUP3 ADD MLOAD DUP2 PUSH1 0x0 ADD SWAP1 DUP2 PUSH2 0xE98 SWAP2 SWAP1 PUSH2 0x2C99 JUMP JUMPDEST POP PUSH1 0x20 DUP3 ADD MLOAD DUP2 PUSH1 0x1 ADD SSTORE PUSH1 0x40 DUP3 ADD MLOAD DUP2 PUSH1 0x2 ADD SWAP1 DUP2 PUSH2 0xEB8 SWAP2 SWAP1 PUSH2 0x2C99 JUMP JUMPDEST POP SWAP1 POP POP DUP1 PUSH1 0x1 PUSH1 0x40 MLOAD PUSH2 0xECB SWAP1 PUSH2 0x2A78 JUMP JUMPDEST SWAP1 DUP2 MSTORE PUSH1 0x20 ADD PUSH1 0x40 MLOAD DUP1 SWAP2 SUB SWAP1 KECCAK256 PUSH1 0x0 PUSH1 0x4 DUP2 MSTORE PUSH1 0x20 ADD SWAP1 DUP2 MSTORE PUSH1 0x20 ADD PUSH1 0x0 KECCAK256 PUSH1 0x0 DUP3 ADD MLOAD DUP2 PUSH1 0x0 ADD SWAP1 DUP2 PUSH2 0xF00 SWAP2 SWAP1 PUSH2 0x2C99 JUMP JUMPDEST POP PUSH1 0x20 DUP3 ADD MLOAD DUP2 PUSH1 0x1 ADD SSTORE PUSH1 0x40 DUP3 ADD MLOAD DUP2 PUSH1 0x2 ADD SWAP1 DUP2 PUSH2 0xF20 SWAP2 SWAP1 PUSH2 0x2C99 JUMP JUMPDEST POP SWAP1 POP POP PUSH1 0x5 PUSH1 0x2 PUSH1 0x40 MLOAD PUSH2 0xF34 SWAP1 PUSH2 0x2A78 JUMP JUMPDEST SWAP1 DUP2 MSTORE PUSH1 0x20 ADD PUSH1 0x40 MLOAD DUP1 SWAP2 SUB SWAP1 KECCAK256 DUP2 SWAP1 SSTORE POP POP POP POP POP POP JUMP JUMPDEST PUSH1 0x0 JUMPDEST DUP3 MLOAD DUP2 LT ISZERO PUSH2 0xFEF JUMPI DUP3 DUP2 DUP2 MLOAD DUP2 LT PUSH2 0xF6C JUMPI PUSH2 0xF6B PUSH2 0x2D6B JUMP JUMPDEST JUMPDEST PUSH1 0x20 MUL PUSH1 0x20 ADD ADD MLOAD PUSH1 0x1 DUP6 PUSH1 0x40 MLOAD PUSH2 0xF84 SWAP2 SWAP1 PUSH2 0x2DCB JUMP JUMPDEST SWAP1 DUP2 MSTORE PUSH1 0x20 ADD PUSH1 0x40 MLOAD DUP1 SWAP2 SUB SWAP1 KECCAK256 PUSH1 0x0 DUP4 DUP2 MSTORE PUSH1 0x20 ADD SWAP1 DUP2 MSTORE PUSH1 0x20 ADD PUSH1 0x0 KECCAK256 PUSH1 0x0 DUP3 ADD MLOAD DUP2 PUSH1 0x0 ADD SWAP1 DUP2 PUSH2 0xFB8 SWAP2 SWAP1 PUSH2 0x2C99 JUMP JUMPDEST POP PUSH1 0x20 DUP3 ADD MLOAD DUP2 PUSH1 0x1 ADD SSTORE PUSH1 0x40 DUP3 ADD MLOAD DUP2 PUSH1 0x2 ADD SWAP1 DUP2 PUSH2 0xFD8 SWAP2 SWAP1 PUSH2 0x2C99 JUMP JUMPDEST POP SWAP1 POP POP DUP1 DUP1 PUSH2 0xFE7 SWAP1 PUSH2 0x2E11 JUMP JUMPDEST SWAP2 POP POP PUSH2 0xF50 JUMP JUMPDEST POP DUP2 MLOAD PUSH1 0x2 DUP5 PUSH1 0x40 MLOAD PUSH2 0x1002 SWAP2 SWAP1 PUSH2 0x2DCB JUMP JUMPDEST SWAP1 DUP2 MSTORE PUSH1 0x20 ADD PUSH1 0x40 MLOAD DUP1 SWAP2 SUB SWAP1 KECCAK256 DUP2 SWAP1 SSTORE POP POP POP POP JUMP JUMPDEST PUSH1 0x2 DUP2 DUP1 MLOAD PUSH1 0x20 DUP2 ADD DUP3 ADD DUP1 MLOAD DUP5 DUP3 MSTORE PUSH1 0x20 DUP4 ADD PUSH1 0x20 DUP6 ADD KECCAK256 DUP2 DUP4 MSTORE DUP1 SWAP6 POP POP POP POP POP POP PUSH1 0x0 SWAP2 POP SWAP1 POP SLOAD DUP2 JUMP JUMPDEST PUSH1 0x1 DUP3 DUP1 MLOAD PUSH1 0x20 DUP2 ADD DUP3 ADD DUP1 MLOAD DUP5 DUP3 MSTORE PUSH1 0x20 DUP4 ADD PUSH1 0x20 DUP6 ADD KECCAK256 DUP2 DUP4 MSTORE DUP1 SWAP6 POP POP POP POP POP POP PUSH1 0x20 MSTORE DUP1 PUSH1 0x0 MSTORE PUSH1 0x40 PUSH1 0x0 KECCAK256 PUSH1 0x0 SWAP2 POP SWAP2 POP POP DUP1 PUSH1 0x0 ADD DUP1 SLOAD PUSH2 0x108D SWAP1 PUSH2 0x2ABC JUMP JUMPDEST DUP1 PUSH1 0x1F ADD PUSH1 0x20 DUP1 SWAP2 DIV MUL PUSH1 0x20 ADD PUSH1 0x40 MLOAD SWAP1 DUP2 ADD PUSH1 0x40 MSTORE DUP1 SWAP3 SWAP2 SWAP1 DUP2 DUP2 MSTORE PUSH1 0x20 ADD DUP3 DUP1 SLOAD PUSH2 0x10B9 SWAP1 PUSH2 0x2ABC JUMP JUMPDEST DUP1 ISZERO PUSH2 0x1106 JUMPI DUP1 PUSH1 0x1F LT PUSH2 0x10DB JUMPI PUSH2 0x100 DUP1 DUP4 SLOAD DIV MUL DUP4 MSTORE SWAP2 PUSH1 0x20 ADD SWAP2 PUSH2 0x1106 JUMP JUMPDEST DUP3 ADD SWAP2 SWAP1 PUSH1 0x0 MSTORE PUSH1 0x20 PUSH1 0x0 KECCAK256 SWAP1 JUMPDEST DUP2 SLOAD DUP2 MSTORE SWAP1 PUSH1 0x1 ADD SWAP1 PUSH1 0x20 ADD DUP1 DUP4 GT PUSH2 0x10E9 JUMPI DUP3 SWAP1 SUB PUSH1 0x1F AND DUP3 ADD SWAP2 JUMPDEST POP POP POP POP POP SWAP1 DUP1 PUSH1 0x1 ADD SLOAD SWAP1 DUP1 PUSH1 0x2 ADD DUP1 SLOAD PUSH2 0x1121 SWAP1 PUSH2 0x2ABC JUMP JUMPDEST DUP1 PUSH1 0x1F ADD PUSH1 0x20 DUP1 SWAP2 DIV MUL PUSH1 0x20 ADD PUSH1 0x40 MLOAD SWAP1 DUP2 ADD PUSH1 0x40 MSTORE DUP1 SWAP3 SWAP2 SWAP1 DUP2 DUP2 MSTORE PUSH1 0x20 ADD DUP3 DUP1 SLOAD PUSH2 0x114D SWAP1 PUSH2 0x2ABC JUMP JUMPDEST DUP1 ISZERO PUSH2 0x119A JUMPI DUP1 PUSH1 0x1F LT PUSH2 0x116F JUMPI PUSH2 0x100 DUP1 DUP4 SLOAD DIV MUL DUP4 MSTORE SWAP2 PUSH1 0x20 ADD SWAP2 PUSH2 0x119A JUMP JUMPDEST DUP3 ADD SWAP2 SWAP1 PUSH1 0x0 MSTORE PUSH1 0x20 PUSH1 0x0 KECCAK256 SWAP1 JUMPDEST DUP2 SLOAD DUP2 MSTORE SWAP1 PUSH1 0x1 ADD SWAP1 PUSH1 0x20 ADD DUP1 DUP4 GT PUSH2 0x117D JUMPI DUP3 SWAP1 SUB PUSH1 0x1F AND DUP3 ADD SWAP2 JUMPDEST POP POP POP POP POP SWAP1 POP DUP4 JUMP JUMPDEST PUSH1 0x40 MLOAD DUP1 PUSH1 0x40 ADD PUSH1 0x40 MSTORE DUP1 PUSH1 0x8 DUP2 MSTORE PUSH1 0x20 ADD PUSH32 0x417572656C69616E000000000000000000000000000000000000000000000000 DUP2 MSTORE POP PUSH1 0x0 PUSH1 0x40 MLOAD PUSH2 0x11E8 SWAP1 PUSH2 0x2EA5 JUMP JUMPDEST SWAP1 DUP2 MSTORE PUSH1 0x20 ADD PUSH1 0x40 MLOAD DUP1 SWAP2 SUB SWAP1 KECCAK256 PUSH1 0x0 DUP1 DUP2 MSTORE PUSH1 0x20 ADD SWAP1 DUP2 MSTORE PUSH1 0x20 ADD PUSH1 0x0 KECCAK256 PUSH1 0x0 DUP1 DUP2 MSTORE PUSH1 0x20 ADD SWAP1 DUP2 MSTORE PUSH1 0x20 ADD PUSH1 0x0 KECCAK256 SWAP1 DUP2 PUSH2 0x1224 SWAP2 SWAP1 PUSH2 0x2C99 JUMP JUMPDEST POP PUSH1 0x40 MLOAD DUP1 PUSH1 0x40 ADD PUSH1 0x40 MSTORE DUP1 PUSH1 0x8 DUP2 MSTORE PUSH1 0x20 ADD PUSH32 0x4175677573747573000000000000000000000000000000000000000000000000 DUP2 MSTORE POP PUSH1 0x0 PUSH1 0x40 MLOAD PUSH2 0x1269 SWAP1 PUSH2 0x2EA5 JUMP JUMPDEST SWAP1 DUP2 MSTORE PUSH1 0x20 ADD PUSH1 0x40 MLOAD DUP1 SWAP2 SUB SWAP1 KECCAK256 PUSH1 0x0 DUP1 DUP2 MSTORE PUSH1 0x20 ADD SWAP1 DUP2 MSTORE PUSH1 0x20 ADD PUSH1 0x0 KECCAK256 PUSH1 0x0 PUSH1 0x1 DUP2 MSTORE PUSH1 0x20 ADD SWAP1 DUP2 MSTORE PUSH1 0x20 ADD PUSH1 0x0 KECCAK256 SWAP1 DUP2 PUSH2 0x12A6 SWAP2 SWAP1 PUSH2 0x2C99 JUMP JUMPDEST POP PUSH1 0x40 MLOAD DUP1 PUSH1 0x40 ADD PUSH1 0x40 MSTORE DUP1 PUSH1 0x6 DUP2 MSTORE PUSH1 0x20 ADD PUSH32 0x4A756C69616E0000000000000000000000000000000000000000000000000000 DUP2 MSTORE POP PUSH1 0x0 PUSH1 0x40 MLOAD PUSH2 0x12EB SWAP1 PUSH2 0x2EA5 JUMP JUMPDEST SWAP1 DUP2 MSTORE PUSH1 0x20 ADD PUSH1 0x40 MLOAD DUP1 SWAP2 SUB SWAP1 KECCAK256 PUSH1 0x0 DUP1 DUP2 MSTORE PUSH1 0x20 ADD SWAP1 DUP2 MSTORE PUSH1 0x20 ADD PUSH1 0x0 KECCAK256 PUSH1 0x0 PUSH1 0x2 DUP2 MSTORE PUSH1 0x20 ADD SWAP1 DUP2 MSTORE PUSH1 0x20 ADD PUSH1 0x0 KECCAK256 SWAP1 DUP2 PUSH2 0x1328 SWAP2 SWAP1 PUSH2 0x2C99 JUMP JUMPDEST POP PUSH1 0x40 MLOAD DUP1 PUSH1 0x40 ADD PUSH1 0x40 MSTORE DUP1 PUSH1 0x6 DUP2 MSTORE PUSH1 0x20 ADD PUSH32 0x56616C656E730000000000000000000000000000000000000000000000000000 DUP2 MSTORE POP PUSH1 0x0 PUSH1 0x40 MLOAD PUSH2 0x136D SWAP1 PUSH2 0x2EA5 JUMP JUMPDEST SWAP1 DUP2 MSTORE PUSH1 0x20 ADD PUSH1 0x40 MLOAD DUP1 SWAP2 SUB SWAP1 KECCAK256 PUSH1 0x0 DUP1 DUP2 MSTORE PUSH1 0x20 ADD SWAP1 DUP2 MSTORE PUSH1 0x20 ADD PUSH1 0x0 KECCAK256 PUSH1 0x0 PUSH1 0x3 DUP2 MSTORE PUSH1 0x20 ADD SWAP1 DUP2 MSTORE PUSH1 0x20 ADD PUSH1 0x0 KECCAK256 SWAP1 DUP2 PUSH2 0x13AA SWAP2 SWAP1 PUSH2 0x2C99 JUMP JUMPDEST POP PUSH1 0x40 MLOAD DUP1 PUSH1 0x40 ADD PUSH1 0x40 MSTORE DUP1 PUSH1 0x8 DUP2 MSTORE PUSH1 0x20 ADD PUSH32 0x5374696C6963686F000000000000000000000000000000000000000000000000 DUP2 MSTORE POP PUSH1 0x0 PUSH1 0x40 MLOAD PUSH2 0x13EF SWAP1 PUSH2 0x2F06 JUMP JUMPDEST SWAP1 DUP2 MSTORE PUSH1 0x20 ADD PUSH1 0x40 MLOAD DUP1 SWAP2 SUB SWAP1 KECCAK256 PUSH1 0x0 PUSH1 0x2 DUP2 MSTORE PUSH1 0x20 ADD SWAP1 DUP2 MSTORE PUSH1 0x20 ADD PUSH1 0x0 KECCAK256 PUSH1 0x0 DUP1 DUP2 MSTORE PUSH1 0x20 ADD SWAP1 DUP2 MSTORE PUSH1 0x20 ADD PUSH1 0x0 KECCAK256 SWAP1 DUP2 PUSH2 0x142C SWAP2 SWAP1 PUSH2 0x2C99 JUMP JUMPDEST POP PUSH1 0x40 MLOAD DUP1 PUSH1 0x40 ADD PUSH1 0x40 MSTORE DUP1 PUSH1 0x6 DUP2 MSTORE PUSH1 0x20 ADD PUSH32 0x4165746975730000000000000000000000000000000000000000000000000000 DUP2 MSTORE POP PUSH1 0x0 PUSH1 0x40 MLOAD PUSH2 0x1471 SWAP1 PUSH2 0x2F06 JUMP JUMPDEST SWAP1 DUP2 MSTORE PUSH1 0x20 ADD PUSH1 0x40 MLOAD DUP1 SWAP2 SUB SWAP1 KECCAK256 PUSH1 0x0 PUSH1 0x2 DUP2 MSTORE PUSH1 0x20 ADD SWAP1 DUP2 MSTORE PUSH1 0x20 ADD PUSH1 0x0 KECCAK256 PUSH1 0x0 PUSH1 0x1 DUP2 MSTORE PUSH1 0x20 ADD SWAP1 DUP2 MSTORE PUSH1 0x20 ADD PUSH1 0x0 KECCAK256 SWAP1 DUP2 PUSH2 0x14AF SWAP2 SWAP1 PUSH2 0x2C99 JUMP JUMPDEST POP PUSH1 0x40 MLOAD DUP1 PUSH1 0x40 ADD PUSH1 0x40 MSTORE DUP1 PUSH1 0x8 DUP2 MSTORE PUSH1 0x20 ADD PUSH32 0x4D616A6F7269616E000000000000000000000000000000000000000000000000 DUP2 MSTORE POP PUSH1 0x0 PUSH1 0x40 MLOAD PUSH2 0x14F4 SWAP1 PUSH2 0x2F06 JUMP JUMPDEST SWAP1 DUP2 MSTORE PUSH1 0x20 ADD PUSH1 0x40 MLOAD DUP1 SWAP2 SUB SWAP1 KECCAK256 PUSH1 0x0 PUSH1 0x2 DUP2 MSTORE PUSH1 0x20 ADD SWAP1 DUP2 MSTORE PUSH1 0x20 ADD PUSH1 0x0 KECCAK256 PUSH1 0x0 PUSH1 0x2 DUP2 MSTORE PUSH1 0x20 ADD SWAP1 DUP2 MSTORE PUSH1 0x20 ADD PUSH1 0x0 KECCAK256 SWAP1 DUP2 PUSH2 0x1532 SWAP2 SWAP1 PUSH2 0x2C99 JUMP JUMPDEST POP PUSH1 0x40 MLOAD DUP1 PUSH1 0x40 ADD PUSH1 0x40 MSTORE DUP1 PUSH1 0xF DUP2 MSTORE PUSH1 0x20 ADD PUSH32 0x56616C656E74696E69616E204949490000000000000000000000000000000000 DUP2 MSTORE POP PUSH1 0x0 PUSH1 0x40 MLOAD PUSH2 0x1577 SWAP1 PUSH2 0x2F06 JUMP JUMPDEST SWAP1 DUP2 MSTORE PUSH1 0x20 ADD PUSH1 0x40 MLOAD DUP1 SWAP2 SUB SWAP1 KECCAK256 PUSH1 0x0 PUSH1 0x2 DUP2 MSTORE PUSH1 0x20 ADD SWAP1 DUP2 MSTORE PUSH1 0x20 ADD PUSH1 0x0 KECCAK256 PUSH1 0x0 PUSH1 0x3 DUP2 MSTORE PUSH1 0x20 ADD SWAP1 DUP2 MSTORE PUSH1 0x20 ADD PUSH1 0x0 KECCAK256 SWAP1 DUP2 PUSH2 0x15B5 SWAP2 SWAP1 PUSH2 0x2C99 JUMP JUMPDEST POP PUSH1 0x40 MLOAD DUP1 PUSH1 0x40 ADD PUSH1 0x40 MSTORE DUP1 PUSH1 0x4 DUP2 MSTORE PUSH1 0x20 ADD PUSH32 0x526F6D6500000000000000000000000000000000000000000000000000000000 DUP2 MSTORE POP PUSH1 0x0 PUSH1 0x40 MLOAD PUSH2 0x15FA SWAP1 PUSH2 0x2F06 JUMP JUMPDEST SWAP1 DUP2 MSTORE PUSH1 0x20 ADD PUSH1 0x40 MLOAD DUP1 SWAP2 SUB SWAP1 KECCAK256 PUSH1 0x0 PUSH1 0x3 DUP2 MSTORE PUSH1 0x20 ADD SWAP1 DUP2 MSTORE PUSH1 0x20 ADD PUSH1 0x0 KECCAK256 PUSH1 0x0 DUP1 DUP2 MSTORE PUSH1 0x20 ADD SWAP1 DUP2 MSTORE PUSH1 0x20 ADD PUSH1 0x0 KECCAK256 SWAP1 DUP2 PUSH2 0x1637 SWAP2 SWAP1 PUSH2 0x2C99 JUMP JUMPDEST POP PUSH1 0x40 MLOAD DUP1 PUSH1 0x40 ADD PUSH1 0x40 MSTORE DUP1 PUSH1 0x5 DUP2 MSTORE PUSH1 0x20 ADD PUSH32 0x4D696C616E000000000000000000000000000000000000000000000000000000 DUP2 MSTORE POP PUSH1 0x0 PUSH1 0x40 MLOAD PUSH2 0x167C SWAP1 PUSH2 0x2F06 JUMP JUMPDEST SWAP1 DUP2 MSTORE PUSH1 0x20 ADD PUSH1 0x40 MLOAD DUP1 SWAP2 SUB SWAP1 KECCAK256 PUSH1 0x0 PUSH1 0x3 DUP2 MSTORE PUSH1 0x20 ADD SWAP1 DUP2 MSTORE PUSH1 0x20 ADD PUSH1 0x0 KECCAK256 PUSH1 0x0 PUSH1 0x1 DUP2 MSTORE PUSH1 0x20 ADD SWAP1 DUP2 MSTORE PUSH1 0x20 ADD PUSH1 0x0 KECCAK256 SWAP1 DUP2 PUSH2 0x16BA SWAP2 SWAP1 PUSH2 0x2C99 JUMP JUMPDEST POP PUSH1 0x40 MLOAD DUP1 PUSH1 0x40 ADD PUSH1 0x40 MSTORE DUP1 PUSH1 0x7 DUP2 MSTORE PUSH1 0x20 ADD PUSH32 0x526176656E6E6100000000000000000000000000000000000000000000000000 DUP2 MSTORE POP PUSH1 0x0 PUSH1 0x40 MLOAD PUSH2 0x16FF SWAP1 PUSH2 0x2F06 JUMP JUMPDEST SWAP1 DUP2 MSTORE PUSH1 0x20 ADD PUSH1 0x40 MLOAD DUP1 SWAP2 SUB SWAP1 KECCAK256 PUSH1 0x0 PUSH1 0x3 DUP2 MSTORE PUSH1 0x20 ADD SWAP1 DUP2 MSTORE PUSH1 0x20 ADD PUSH1 0x0 KECCAK256 PUSH1 0x0 PUSH1 0x2 DUP2 MSTORE PUSH1 0x20 ADD SWAP1 DUP2 MSTORE PUSH1 0x20 ADD PUSH1 0x0 KECCAK256 SWAP1 DUP2 PUSH2 0x173D SWAP2 SWAP1 PUSH2 0x2C99 JUMP JUMPDEST POP PUSH1 0x40 MLOAD DUP1 PUSH1 0x40 ADD PUSH1 0x40 MSTORE DUP1 PUSH1 0x6 DUP2 MSTORE PUSH1 0x20 ADD PUSH32 0x4E61706C65730000000000000000000000000000000000000000000000000000 DUP2 MSTORE POP PUSH1 0x0 PUSH1 0x40 MLOAD PUSH2 0x1782 SWAP1 PUSH2 0x2F06 JUMP JUMPDEST SWAP1 DUP2 MSTORE PUSH1 0x20 ADD PUSH1 0x40 MLOAD DUP1 SWAP2 SUB SWAP1 KECCAK256 PUSH1 0x0 PUSH1 0x3 DUP2 MSTORE PUSH1 0x20 ADD SWAP1 DUP2 MSTORE PUSH1 0x20 ADD PUSH1 0x0 KECCAK256 PUSH1 0x0 PUSH1 0x3 DUP2 MSTORE PUSH1 0x20 ADD SWAP1 DUP2 MSTORE PUSH1 0x20 ADD PUSH1 0x0 KECCAK256 SWAP1 DUP2 PUSH2 0x17C0 SWAP2 SWAP1 PUSH2 0x2C99 JUMP JUMPDEST POP PUSH1 0x40 MLOAD DUP1 PUSH1 0x40 ADD PUSH1 0x40 MSTORE DUP1 PUSH1 0xB DUP2 MSTORE PUSH1 0x20 ADD PUSH32 0x41647269616E6F706F6C65000000000000000000000000000000000000000000 DUP2 MSTORE POP PUSH1 0x0 PUSH1 0x40 MLOAD PUSH2 0x1805 SWAP1 PUSH2 0x2F06 JUMP JUMPDEST SWAP1 DUP2 MSTORE PUSH1 0x20 ADD PUSH1 0x40 MLOAD DUP1 SWAP2 SUB SWAP1 KECCAK256 PUSH1 0x0 PUSH1 0x4 DUP2 MSTORE PUSH1 0x20 ADD SWAP1 DUP2 MSTORE PUSH1 0x20 ADD PUSH1 0x0 KECCAK256 PUSH1 0x0 DUP1 DUP2 MSTORE PUSH1 0x20 ADD SWAP1 DUP2 MSTORE PUSH1 0x20 ADD PUSH1 0x0 KECCAK256 SWAP1 DUP2 PUSH2 0x1842 SWAP2 SWAP1 PUSH2 0x2C99 JUMP JUMPDEST POP PUSH1 0x40 MLOAD DUP1 PUSH1 0x40 ADD PUSH1 0x40 MSTORE DUP1 PUSH1 0xE DUP2 MSTORE PUSH1 0x20 ADD PUSH32 0x4C616B652054726173696D656E65000000000000000000000000000000000000 DUP2 MSTORE POP PUSH1 0x0 PUSH1 0x40 MLOAD PUSH2 0x1887 SWAP1 PUSH2 0x2F06 JUMP JUMPDEST SWAP1 DUP2 MSTORE PUSH1 0x20 ADD PUSH1 0x40 MLOAD DUP1 SWAP2 SUB SWAP1 KECCAK256 PUSH1 0x0 PUSH1 0x4 DUP2 MSTORE PUSH1 0x20 ADD SWAP1 DUP2 MSTORE PUSH1 0x20 ADD PUSH1 0x0 KECCAK256 PUSH1 0x0 PUSH1 0x1 DUP2 MSTORE PUSH1 0x20 ADD SWAP1 DUP2 MSTORE PUSH1 0x20 ADD PUSH1 0x0 KECCAK256 SWAP1 DUP2 PUSH2 0x18C5 SWAP2 SWAP1 PUSH2 0x2C99 JUMP JUMPDEST POP PUSH1 0x40 MLOAD DUP1 PUSH1 0x40 ADD PUSH1 0x40 MSTORE DUP1 PUSH1 0x7 DUP2 MSTORE PUSH1 0x20 ADD PUSH32 0x4361727268616500000000000000000000000000000000000000000000000000 DUP2 MSTORE POP PUSH1 0x0 PUSH1 0x40 MLOAD PUSH2 0x190A SWAP1 PUSH2 0x2F06 JUMP JUMPDEST SWAP1 DUP2 MSTORE PUSH1 0x20 ADD PUSH1 0x40 MLOAD DUP1 SWAP2 SUB SWAP1 KECCAK256 PUSH1 0x0 PUSH1 0x4 DUP2 MSTORE PUSH1 0x20 ADD SWAP1 DUP2 MSTORE PUSH1 0x20 ADD PUSH1 0x0 KECCAK256 PUSH1 0x0 PUSH1 0x2 DUP2 MSTORE PUSH1 0x20 ADD SWAP1 DUP2 MSTORE PUSH1 0x20 ADD PUSH1 0x0 KECCAK256 SWAP1 DUP2 PUSH2 0x1948 SWAP2 SWAP1 PUSH2 0x2C99 JUMP JUMPDEST POP PUSH1 0x40 MLOAD DUP1 PUSH1 0x40 ADD PUSH1 0x40 MSTORE DUP1 PUSH1 0xA DUP2 MSTORE PUSH1 0x20 ADD PUSH32 0x4964697374617669736F00000000000000000000000000000000000000000000 DUP2 MSTORE POP PUSH1 0x0 PUSH1 0x40 MLOAD PUSH2 0x198D SWAP1 PUSH2 0x2F06 JUMP JUMPDEST SWAP1 DUP2 MSTORE PUSH1 0x20 ADD PUSH1 0x40 MLOAD DUP1 SWAP2 SUB SWAP1 KECCAK256 PUSH1 0x0 PUSH1 0x4 DUP2 MSTORE PUSH1 0x20 ADD SWAP1 DUP2 MSTORE PUSH1 0x20 ADD PUSH1 0x0 KECCAK256 PUSH1 0x0 PUSH1 0x3 DUP2 MSTORE PUSH1 0x20 ADD SWAP1 DUP2 MSTORE PUSH1 0x20 ADD PUSH1 0x0 KECCAK256 SWAP1 DUP2 PUSH2 0x19CB SWAP2 SWAP1 PUSH2 0x2C99 JUMP JUMPDEST POP PUSH1 0x0 PUSH1 0x40 MLOAD DUP1 PUSH1 0x60 ADD PUSH1 0x40 MSTORE DUP1 PUSH1 0x40 MLOAD DUP1 PUSH1 0x60 ADD PUSH1 0x40 MSTORE DUP1 PUSH1 0x3F DUP2 MSTORE PUSH1 0x20 ADD PUSH2 0x30B9 PUSH1 0x3F SWAP2 CODECOPY DUP2 MSTORE PUSH1 0x20 ADD PUSH1 0x0 DUP2 MSTORE PUSH1 0x20 ADD PUSH1 0x40 MLOAD DUP1 PUSH1 0xC0 ADD PUSH1 0x40 MSTORE DUP1 PUSH1 0x85 DUP2 MSTORE PUSH1 0x20 ADD PUSH2 0x2F1C PUSH1 0x85 SWAP2 CODECOPY DUP2 MSTORE POP SWAP1 POP PUSH1 0x0 PUSH1 0x40 MLOAD DUP1 PUSH1 0x60 ADD PUSH1 0x40 MSTORE DUP1 PUSH1 0x40 MLOAD DUP1 PUSH1 0x80 ADD PUSH1 0x40 MSTORE DUP1 PUSH1 0x5D DUP2 MSTORE PUSH1 0x20 ADD PUSH2 0x2FA1 PUSH1 0x5D SWAP2 CODECOPY DUP2 MSTORE PUSH1 0x20 ADD PUSH1 0x1 DUP2 MSTORE PUSH1 0x20 ADD PUSH1 0x40 MLOAD DUP1 PUSH1 0xC0 ADD PUSH1 0x40 MSTORE DUP1 PUSH1 0x95 DUP2 MSTORE PUSH1 0x20 ADD PUSH2 0x36C7 PUSH1 0x95 SWAP2 CODECOPY DUP2 MSTORE POP SWAP1 POP PUSH1 0x0 PUSH1 0x40 MLOAD DUP1 PUSH1 0x60 ADD PUSH1 0x40 MSTORE DUP1 PUSH1 0x40 MLOAD DUP1 PUSH1 0x80 ADD PUSH1 0x40 MSTORE DUP1 PUSH1 0x51 DUP2 MSTORE PUSH1 0x20 ADD PUSH2 0x375C PUSH1 0x51 SWAP2 CODECOPY DUP2 MSTORE PUSH1 0x20 ADD PUSH1 0x2 DUP2 MSTORE PUSH1 0x20 ADD PUSH1 0x40 MLOAD DUP1 PUSH1 0xA0 ADD PUSH1 0x40 MSTORE DUP1 PUSH1 0x80 DUP2 MSTORE PUSH1 0x20 ADD PUSH2 0x32C9 PUSH1 0x80 SWAP2 CODECOPY DUP2 MSTORE POP SWAP1 POP PUSH1 0x0 PUSH1 0x40 MLOAD DUP1 PUSH1 0x60 ADD PUSH1 0x40 MSTORE DUP1 PUSH1 0x40 MLOAD DUP1 PUSH1 0x60 ADD PUSH1 0x40 MSTORE DUP1 PUSH1 0x32 DUP2 MSTORE PUSH1 0x20 ADD PUSH2 0x3087 PUSH1 0x32 SWAP2 CODECOPY DUP2 MSTORE PUSH1 0x20 ADD PUSH1 0x3 DUP2 MSTORE PUSH1 0x20 ADD PUSH1 0x40 MLOAD DUP1 PUSH1 0xE0 ADD PUSH1 0x40 MSTORE DUP1 PUSH1 0xB2 DUP2 MSTORE PUSH1 0x20 ADD PUSH2 0x34D9 PUSH1 0xB2 SWAP2 CODECOPY DUP2 MSTORE POP SWAP1 POP DUP4 PUSH1 0x1 PUSH1 0x40 MLOAD PUSH2 0x1B1B SWAP1 PUSH2 0x2F06 JUMP JUMPDEST SWAP1 DUP2 MSTORE PUSH1 0x20 ADD PUSH1 0x40 MLOAD DUP1 SWAP2 SUB SWAP1 KECCAK256 PUSH1 0x0 DUP1 DUP2 MSTORE PUSH1 0x20 ADD SWAP1 DUP2 MSTORE PUSH1 0x20 ADD PUSH1 0x0 KECCAK256 PUSH1 0x0 DUP3 ADD MLOAD DUP2 PUSH1 0x0 ADD SWAP1 DUP2 PUSH2 0x1B4F SWAP2 SWAP1 PUSH2 0x2C99 JUMP JUMPDEST POP PUSH1 0x20 DUP3 ADD MLOAD DUP2 PUSH1 0x1 ADD SSTORE PUSH1 0x40 DUP3 ADD MLOAD DUP2 PUSH1 0x2 ADD SWAP1 DUP2 PUSH2 0x1B6F SWAP2 SWAP1 PUSH2 0x2C99 JUMP JUMPDEST POP SWAP1 POP POP DUP3 PUSH1 0x1 PUSH1 0x40 MLOAD PUSH2 0x1B82 SWAP1 PUSH2 0x2F06 JUMP JUMPDEST SWAP1 DUP2 MSTORE PUSH1 0x20 ADD PUSH1 0x40 MLOAD DUP1 SWAP2 SUB SWAP1 KECCAK256 PUSH1 0x0 PUSH1 0x1 DUP2 MSTORE PUSH1 0x20 ADD SWAP1 DUP2 MSTORE PUSH1 0x20 ADD PUSH1 0x0 KECCAK256 PUSH1 0x0 DUP3 ADD MLOAD DUP2 PUSH1 0x0 ADD SWAP1 DUP2 PUSH2 0x1BB7 SWAP2 SWAP1 PUSH2 0x2C99 JUMP JUMPDEST POP PUSH1 0x20 DUP3 ADD MLOAD DUP2 PUSH1 0x1 ADD SSTORE PUSH1 0x40 DUP3 ADD MLOAD DUP2 PUSH1 0x2 ADD SWAP1 DUP2 PUSH2 0x1BD7 SWAP2 SWAP1 PUSH2 0x2C99 JUMP JUMPDEST POP SWAP1 POP POP DUP2 PUSH1 0x1 PUSH1 0x40 MLOAD PUSH2 0x1BEA SWAP1 PUSH2 0x2F06 JUMP JUMPDEST SWAP1 DUP2 MSTORE PUSH1 0x20 ADD PUSH1 0x40 MLOAD DUP1 SWAP2 SUB SWAP1 KECCAK256 PUSH1 0x0 PUSH1 0x2 DUP2 MSTORE PUSH1 0x20 ADD SWAP1 DUP2 MSTORE PUSH1 0x20 ADD PUSH1 0x0 KECCAK256 PUSH1 0x0 DUP3 ADD MLOAD DUP2 PUSH1 0x0 ADD SWAP1 DUP2 PUSH2 0x1C1F SWAP2 SWAP1 PUSH2 0x2C99 JUMP JUMPDEST POP PUSH1 0x20 DUP3 ADD MLOAD DUP2 PUSH1 0x1 ADD SSTORE PUSH1 0x40 DUP3 ADD MLOAD DUP2 PUSH1 0x2 ADD SWAP1 DUP2 PUSH2 0x1C3F SWAP2 SWAP1 PUSH2 0x2C99 JUMP JUMPDEST POP SWAP1 POP POP DUP1 PUSH1 0x1 PUSH1 0x40 MLOAD PUSH2 0x1C52 SWAP1 PUSH2 0x2F06 JUMP JUMPDEST SWAP1 DUP2 MSTORE PUSH1 0x20 ADD PUSH1 0x40 MLOAD DUP1 SWAP2 SUB SWAP1 KECCAK256 PUSH1 0x0 PUSH1 0x3 DUP2 MSTORE PUSH1 0x20 ADD SWAP1 DUP2 MSTORE PUSH1 0x20 ADD PUSH1 0x0 KECCAK256 PUSH1 0x0 DUP3 ADD MLOAD DUP2 PUSH1 0x0 ADD SWAP1 DUP2 PUSH2 0x1C87 SWAP2 SWAP1 PUSH2 0x2C99 JUMP JUMPDEST POP PUSH1 0x20 DUP3 ADD MLOAD DUP2 PUSH1 0x1 ADD SSTORE PUSH1 0x40 DUP3 ADD MLOAD DUP2 PUSH1 0x2 ADD SWAP1 DUP2 PUSH2 0x1CA7 SWAP2 SWAP1 PUSH2 0x2C99 JUMP JUMPDEST POP SWAP1 POP POP PUSH1 0x4 PUSH1 0x2 PUSH1 0x40 MLOAD PUSH2 0x1CBB SWAP1 PUSH2 0x2F06 JUMP JUMPDEST SWAP1 DUP2 MSTORE PUSH1 0x20 ADD PUSH1 0x40 MLOAD DUP1 SWAP2 SUB SWAP1 KECCAK256 DUP2 SWAP1 SSTORE POP POP POP POP POP JUMP JUMPDEST PUSH1 0x60 SWAP2 SWAP1 POP JUMP JUMPDEST PUSH1 0x60 PUSH1 0x0 PUSH1 0x1 DUP4 PUSH1 0x40 MLOAD PUSH2 0x1CEE SWAP2 SWAP1 PUSH2 0x2DCB JUMP JUMPDEST SWAP1 DUP2 MSTORE PUSH1 0x20 ADD PUSH1 0x40 MLOAD DUP1 SWAP2 SUB SWAP1 KECCAK256 SWAP1 POP PUSH1 0x0 PUSH1 0x2 DUP5 PUSH1 0x40 MLOAD PUSH2 0x1D10 SWAP2 SWAP1 PUSH2 0x2DCB JUMP JUMPDEST SWAP1 DUP2 MSTORE PUSH1 0x20 ADD PUSH1 0x40 MLOAD DUP1 SWAP2 SUB SWAP1 KECCAK256 SLOAD PUSH8 0xFFFFFFFFFFFFFFFF DUP2 GT ISZERO PUSH2 0x1D38 JUMPI PUSH2 0x1D37 PUSH2 0x2061 JUMP JUMPDEST JUMPDEST PUSH1 0x40 MLOAD SWAP1 DUP1 DUP3 MSTORE DUP1 PUSH1 0x20 MUL PUSH1 0x20 ADD DUP3 ADD PUSH1 0x40 MSTORE DUP1 ISZERO PUSH2 0x1D71 JUMPI DUP2 PUSH1 0x20 ADD JUMPDEST PUSH2 0x1D5E PUSH2 0x2011 JUMP JUMPDEST DUP2 MSTORE PUSH1 0x20 ADD SWAP1 PUSH1 0x1 SWAP1 SUB SWAP1 DUP2 PUSH2 0x1D56 JUMPI SWAP1 POP JUMPDEST POP SWAP1 POP PUSH1 0x0 JUMPDEST PUSH1 0x2 DUP6 PUSH1 0x40 MLOAD PUSH2 0x1D87 SWAP2 SWAP1 PUSH2 0x2DCB JUMP JUMPDEST SWAP1 DUP2 MSTORE PUSH1 0x20 ADD PUSH1 0x40 MLOAD DUP1 SWAP2 SUB SWAP1 KECCAK256 SLOAD DUP2 LT ISZERO PUSH2 0x1F36 JUMPI PUSH1 0x1 DUP6 PUSH1 0x40 MLOAD PUSH2 0x1DAD SWAP2 SWAP1 PUSH2 0x2DCB JUMP JUMPDEST SWAP1 DUP2 MSTORE PUSH1 0x20 ADD PUSH1 0x40 MLOAD DUP1 SWAP2 SUB SWAP1 KECCAK256 PUSH1 0x0 DUP3 DUP2 MSTORE PUSH1 0x20 ADD SWAP1 DUP2 MSTORE PUSH1 0x20 ADD PUSH1 0x0 KECCAK256 PUSH1 0x40 MLOAD DUP1 PUSH1 0x60 ADD PUSH1 0x40 MSTORE SWAP1 DUP2 PUSH1 0x0 DUP3 ADD DUP1 SLOAD PUSH2 0x1DE7 SWAP1 PUSH2 0x2ABC JUMP JUMPDEST DUP1 PUSH1 0x1F ADD PUSH1 0x20 DUP1 SWAP2 DIV MUL PUSH1 0x20 ADD PUSH1 0x40 MLOAD SWAP1 DUP2 ADD PUSH1 0x40 MSTORE DUP1 SWAP3 SWAP2 SWAP1 DUP2 DUP2 MSTORE PUSH1 0x20 ADD DUP3 DUP1 SLOAD PUSH2 0x1E13 SWAP1 PUSH2 0x2ABC JUMP JUMPDEST DUP1 ISZERO PUSH2 0x1E60 JUMPI DUP1 PUSH1 0x1F LT PUSH2 0x1E35 JUMPI PUSH2 0x100 DUP1 DUP4 SLOAD DIV MUL DUP4 MSTORE SWAP2 PUSH1 0x20 ADD SWAP2 PUSH2 0x1E60 JUMP JUMPDEST DUP3 ADD SWAP2 SWAP1 PUSH1 0x0 MSTORE PUSH1 0x20 PUSH1 0x0 KECCAK256 SWAP1 JUMPDEST DUP2 SLOAD DUP2 MSTORE SWAP1 PUSH1 0x1 ADD SWAP1 PUSH1 0x20 ADD DUP1 DUP4 GT PUSH2 0x1E43 JUMPI DUP3 SWAP1 SUB PUSH1 0x1F AND DUP3 ADD SWAP2 JUMPDEST POP POP POP POP POP DUP2 MSTORE PUSH1 0x20 ADD PUSH1 0x1 DUP3 ADD SLOAD DUP2 MSTORE PUSH1 0x20 ADD PUSH1 0x2 DUP3 ADD DUP1 SLOAD PUSH2 0x1E83 SWAP1 PUSH2 0x2ABC JUMP JUMPDEST DUP1 PUSH1 0x1F ADD PUSH1 0x20 DUP1 SWAP2 DIV MUL PUSH1 0x20 ADD PUSH1 0x40 MLOAD SWAP1 DUP2 ADD PUSH1 0x40 MSTORE DUP1 SWAP3 SWAP2 SWAP1 DUP2 DUP2 MSTORE PUSH1 0x20 ADD DUP3 DUP1 SLOAD PUSH2 0x1EAF SWAP1 PUSH2 0x2ABC JUMP JUMPDEST DUP1 ISZERO PUSH2 0x1EFC JUMPI DUP1 PUSH1 0x1F LT PUSH2 0x1ED1 JUMPI PUSH2 0x100 DUP1 DUP4 SLOAD DIV MUL DUP4 MSTORE SWAP2 PUSH1 0x20 ADD SWAP2 PUSH2 0x1EFC JUMP JUMPDEST DUP3 ADD SWAP2 SWAP1 PUSH1 0x0 MSTORE PUSH1 0x20 PUSH1 0x0 KECCAK256 SWAP1 JUMPDEST DUP2 SLOAD DUP2 MSTORE SWAP1 PUSH1 0x1 ADD SWAP1 PUSH1 0x20 ADD DUP1 DUP4 GT PUSH2 0x1EDF JUMPI DUP3 SWAP1 SUB PUSH1 0x1F AND DUP3 ADD SWAP2 JUMPDEST POP POP POP POP POP DUP2 MSTORE POP POP DUP3 DUP3 DUP2 MLOAD DUP2 LT PUSH2 0x1F18 JUMPI PUSH2 0x1F17 PUSH2 0x2D6B JUMP JUMPDEST JUMPDEST PUSH1 0x20 MUL PUSH1 0x20 ADD ADD DUP2 SWAP1 MSTORE POP DUP1 DUP1 PUSH2 0x1F2E SWAP1 PUSH2 0x2E11 JUMP JUMPDEST SWAP2 POP POP PUSH2 0x1D77 JUMP JUMPDEST POP DUP1 SWAP3 POP POP POP SWAP2 SWAP1 POP JUMP JUMPDEST PUSH1 0x0 DUP4 DUP1 MLOAD PUSH1 0x20 DUP2 ADD DUP3 ADD DUP1 MLOAD DUP5 DUP3 MSTORE PUSH1 0x20 DUP4 ADD PUSH1 0x20 DUP6 ADD KECCAK256 DUP2 DUP4 MSTORE DUP1 SWAP6 POP POP POP POP POP POP PUSH1 0x20 MSTORE DUP2 PUSH1 0x0 MSTORE PUSH1 0x40 PUSH1 0x0 KECCAK256 PUSH1 0x20 MSTORE DUP1 PUSH1 0x0 MSTORE PUSH1 0x40 PUSH1 0x0 KECCAK256 PUSH1 0x0 SWAP3 POP SWAP3 POP POP POP DUP1 SLOAD PUSH2 0x1F90 SWAP1 PUSH2 0x2ABC JUMP JUMPDEST DUP1 PUSH1 0x1F ADD PUSH1 0x20 DUP1 SWAP2 DIV MUL PUSH1 0x20 ADD PUSH1 0x40 MLOAD SWAP1 DUP2 ADD PUSH1 0x40 MSTORE DUP1 SWAP3 SWAP2 SWAP1 DUP2 DUP2 MSTORE PUSH1 0x20 ADD DUP3 DUP1 SLOAD PUSH2 0x1FBC SWAP1 PUSH2 0x2ABC JUMP JUMPDEST DUP1 ISZERO PUSH2 0x2009 JUMPI DUP1 PUSH1 0x1F LT PUSH2 0x1FDE JUMPI PUSH2 0x100 DUP1 DUP4 SLOAD DIV MUL DUP4 MSTORE SWAP2 PUSH1 0x20 ADD SWAP2 PUSH2 0x2009 JUMP JUMPDEST DUP3 ADD SWAP2 SWAP1 PUSH1 0x0 MSTORE PUSH1 0x20 PUSH1 0x0 KECCAK256 SWAP1 JUMPDEST DUP2 SLOAD DUP2 MSTORE SWAP1 PUSH1 0x1 ADD SWAP1 PUSH1 0x20 ADD DUP1 DUP4 GT PUSH2 0x1FEC JUMPI DUP3 SWAP1 SUB PUSH1 0x1F AND DUP3 ADD SWAP2 JUMPDEST POP POP POP POP POP DUP2 JUMP JUMPDEST PUSH1 0x40 MLOAD DUP1 PUSH1 0x60 ADD PUSH1 0x40 MSTORE DUP1 PUSH1 0x60 DUP2 MSTORE PUSH1 0x20 ADD PUSH1 0x0 DUP2 MSTORE PUSH1 0x20 ADD PUSH1 0x60 DUP2 MSTORE POP SWAP1 JUMP JUMPDEST PUSH1 0x0 PUSH1 0x40 MLOAD SWAP1 POP SWAP1 JUMP JUMPDEST PUSH1 0x0 DUP1 REVERT JUMPDEST PUSH1 0x0 DUP1 REVERT JUMPDEST PUSH1 0x0 DUP1 REVERT JUMPDEST PUSH1 0x0 DUP1 REVERT JUMPDEST PUSH1 0x0 PUSH1 0x1F NOT PUSH1 0x1F DUP4 ADD AND SWAP1 POP SWAP2 SWAP1 POP JUMP JUMPDEST PUSH32 0x4E487B7100000000000000000000000000000000000000000000000000000000 PUSH1 0x0 MSTORE PUSH1 0x41 PUSH1 0x4 MSTORE PUSH1 0x24 PUSH1 0x0 REVERT JUMPDEST PUSH2 0x2099 DUP3 PUSH2 0x2050 JUMP JUMPDEST DUP2 ADD DUP2 DUP2 LT PUSH8 0xFFFFFFFFFFFFFFFF DUP3 GT OR ISZERO PUSH2 0x20B8 JUMPI PUSH2 0x20B7 PUSH2 0x2061 JUMP JUMPDEST JUMPDEST DUP1 PUSH1 0x40 MSTORE POP POP POP JUMP JUMPDEST PUSH1 0x0 PUSH2 0x20CB PUSH2 0x2032 JUMP JUMPDEST SWAP1 POP PUSH2 0x20D7 DUP3 DUP3 PUSH2 0x2090 JUMP JUMPDEST SWAP2 SWAP1 POP JUMP JUMPDEST PUSH1 0x0 PUSH8 0xFFFFFFFFFFFFFFFF DUP3 GT ISZERO PUSH2 0x20F7 JUMPI PUSH2 0x20F6 PUSH2 0x2061 JUMP JUMPDEST JUMPDEST PUSH2 0x2100 DUP3 PUSH2 0x2050 JUMP JUMPDEST SWAP1 POP PUSH1 0x20 DUP2 ADD SWAP1 POP SWAP2 SWAP1 POP JUMP JUMPDEST DUP3 DUP2 DUP4 CALLDATACOPY PUSH1 0x0 DUP4 DUP4 ADD MSTORE POP POP POP JUMP JUMPDEST PUSH1 0x0 PUSH2 0x212F PUSH2 0x212A DUP5 PUSH2 0x20DC JUMP JUMPDEST PUSH2 0x20C1 JUMP JUMPDEST SWAP1 POP DUP3 DUP2 MSTORE PUSH1 0x20 DUP2 ADD DUP5 DUP5 DUP5 ADD GT ISZERO PUSH2 0x214B JUMPI PUSH2 0x214A PUSH2 0x204B JUMP JUMPDEST JUMPDEST PUSH2 0x2156 DUP5 DUP3 DUP6 PUSH2 0x210D JUMP JUMPDEST POP SWAP4 SWAP3 POP POP POP JUMP JUMPDEST PUSH1 0x0 DUP3 PUSH1 0x1F DUP4 ADD SLT PUSH2 0x2173 JUMPI PUSH2 0x2172 PUSH2 0x2046 JUMP JUMPDEST JUMPDEST DUP2 CALLDATALOAD PUSH2 0x2183 DUP5 DUP3 PUSH1 0x20 DUP7 ADD PUSH2 0x211C JUMP JUMPDEST SWAP2 POP POP SWAP3 SWAP2 POP POP JUMP JUMPDEST PUSH1 0x0 PUSH8 0xFFFFFFFFFFFFFFFF DUP3 GT ISZERO PUSH2 0x21A7 JUMPI PUSH2 0x21A6 PUSH2 0x2061 JUMP JUMPDEST JUMPDEST PUSH1 0x20 DUP3 MUL SWAP1 POP PUSH1 0x20 DUP2 ADD SWAP1 POP SWAP2 SWAP1 POP JUMP JUMPDEST PUSH1 0x0 DUP1 REVERT JUMPDEST PUSH1 0x0 DUP1 REVERT JUMPDEST PUSH1 0x0 DUP1 REVERT JUMPDEST PUSH1 0x0 DUP2 SWAP1 POP SWAP2 SWAP1 POP JUMP JUMPDEST PUSH2 0x21DA DUP2 PUSH2 0x21C7 JUMP JUMPDEST DUP2 EQ PUSH2 0x21E5 JUMPI PUSH1 0x0 DUP1 REVERT JUMPDEST POP JUMP JUMPDEST PUSH1 0x0 DUP2 CALLDATALOAD SWAP1 POP PUSH2 0x21F7 DUP2 PUSH2 0x21D1 JUMP JUMPDEST SWAP3 SWAP2 POP POP JUMP JUMPDEST PUSH1 0x0 PUSH1 0x60 DUP3 DUP5 SUB SLT ISZERO PUSH2 0x2213 JUMPI PUSH2 0x2212 PUSH2 0x21BD JUMP JUMPDEST JUMPDEST PUSH2 0x221D PUSH1 0x60 PUSH2 0x20C1 JUMP JUMPDEST SWAP1 POP PUSH1 0x0 DUP3 ADD CALLDATALOAD PUSH8 0xFFFFFFFFFFFFFFFF DUP2 GT ISZERO PUSH2 0x223D JUMPI PUSH2 0x223C PUSH2 0x21C2 JUMP JUMPDEST JUMPDEST PUSH2 0x2249 DUP5 DUP3 DUP6 ADD PUSH2 0x215E JUMP JUMPDEST PUSH1 0x0 DUP4 ADD MSTORE POP PUSH1 0x20 PUSH2 0x225D DUP5 DUP3 DUP6 ADD PUSH2 0x21E8 JUMP JUMPDEST PUSH1 0x20 DUP4 ADD MSTORE POP PUSH1 0x40 DUP3 ADD CALLDATALOAD PUSH8 0xFFFFFFFFFFFFFFFF DUP2 GT ISZERO PUSH2 0x2281 JUMPI PUSH2 0x2280 PUSH2 0x21C2 JUMP JUMPDEST JUMPDEST PUSH2 0x228D DUP5 DUP3 DUP6 ADD PUSH2 0x215E JUMP JUMPDEST PUSH1 0x40 DUP4 ADD MSTORE POP SWAP3 SWAP2 POP POP JUMP JUMPDEST PUSH1 0x0 PUSH2 0x22AC PUSH2 0x22A7 DUP5 PUSH2 0x218C JUMP JUMPDEST PUSH2 0x20C1 JUMP JUMPDEST SWAP1 POP DUP1 DUP4 DUP3 MSTORE PUSH1 0x20 DUP3 ADD SWAP1 POP PUSH1 0x20 DUP5 MUL DUP4 ADD DUP6 DUP2 GT ISZERO PUSH2 0x22CF JUMPI PUSH2 0x22CE PUSH2 0x21B8 JUMP JUMPDEST JUMPDEST DUP4 JUMPDEST DUP2 DUP2 LT ISZERO PUSH2 0x2316 JUMPI DUP1 CALLDATALOAD PUSH8 0xFFFFFFFFFFFFFFFF DUP2 GT ISZERO PUSH2 0x22F4 JUMPI PUSH2 0x22F3 PUSH2 0x2046 JUMP JUMPDEST JUMPDEST DUP1 DUP7 ADD PUSH2 0x2301 DUP10 DUP3 PUSH2 0x21FD JUMP JUMPDEST DUP6 MSTORE PUSH1 0x20 DUP6 ADD SWAP5 POP POP POP PUSH1 0x20 DUP2 ADD SWAP1 POP PUSH2 0x22D1 JUMP JUMPDEST POP POP POP SWAP4 SWAP3 POP POP POP JUMP JUMPDEST PUSH1 0x0 DUP3 PUSH1 0x1F DUP4 ADD SLT PUSH2 0x2335 JUMPI PUSH2 0x2334 PUSH2 0x2046 JUMP JUMPDEST JUMPDEST DUP2 CALLDATALOAD PUSH2 0x2345 DUP5 DUP3 PUSH1 0x20 DUP7 ADD PUSH2 0x2299 JUMP JUMPDEST SWAP2 POP POP SWAP3 SWAP2 POP POP JUMP JUMPDEST PUSH1 0x0 PUSH8 0xFFFFFFFFFFFFFFFF DUP3 GT ISZERO PUSH2 0x2369 JUMPI PUSH2 0x2368 PUSH2 0x2061 JUMP JUMPDEST JUMPDEST PUSH1 0x20 DUP3 MUL SWAP1 POP PUSH1 0x20 DUP2 ADD SWAP1 POP SWAP2 SWAP1 POP JUMP JUMPDEST PUSH1 0x0 PUSH2 0x238D PUSH2 0x2388 DUP5 PUSH2 0x234E JUMP JUMPDEST PUSH2 0x20C1 JUMP JUMPDEST SWAP1 POP DUP1 DUP4 DUP3 MSTORE PUSH1 0x20 DUP3 ADD SWAP1 POP PUSH1 0x20 DUP5 MUL DUP4 ADD DUP6 DUP2 GT ISZERO PUSH2 0x23B0 JUMPI PUSH2 0x23AF PUSH2 0x21B8 JUMP JUMPDEST JUMPDEST DUP4 JUMPDEST DUP2 DUP2 LT ISZERO PUSH2 0x23F7 JUMPI DUP1 CALLDATALOAD PUSH8 0xFFFFFFFFFFFFFFFF DUP2 GT ISZERO PUSH2 0x23D5 JUMPI PUSH2 0x23D4 PUSH2 0x2046 JUMP JUMPDEST JUMPDEST DUP1 DUP7 ADD PUSH2 0x23E2 DUP10 DUP3 PUSH2 0x215E JUMP JUMPDEST DUP6 MSTORE PUSH1 0x20 DUP6 ADD SWAP5 POP POP POP PUSH1 0x20 DUP2 ADD SWAP1 POP PUSH2 0x23B2 JUMP JUMPDEST POP POP POP SWAP4 SWAP3 POP POP POP JUMP JUMPDEST PUSH1 0x0 DUP3 PUSH1 0x1F DUP4 ADD SLT PUSH2 0x2416 JUMPI PUSH2 0x2415 PUSH2 0x2046 JUMP JUMPDEST JUMPDEST DUP2 CALLDATALOAD PUSH2 0x2426 DUP5 DUP3 PUSH1 0x20 DUP7 ADD PUSH2 0x237A JUMP JUMPDEST SWAP2 POP POP SWAP3 SWAP2 POP POP JUMP JUMPDEST PUSH1 0x0 DUP1 PUSH1 0x0 PUSH1 0x60 DUP5 DUP7 SUB SLT ISZERO PUSH2 0x2448 JUMPI PUSH2 0x2447 PUSH2 0x203C JUMP JUMPDEST JUMPDEST PUSH1 0x0 DUP5 ADD CALLDATALOAD PUSH8 0xFFFFFFFFFFFFFFFF DUP2 GT ISZERO PUSH2 0x2466 JUMPI PUSH2 0x2465 PUSH2 0x2041 JUMP JUMPDEST JUMPDEST PUSH2 0x2472 DUP7 DUP3 DUP8 ADD PUSH2 0x215E JUMP JUMPDEST SWAP4 POP POP PUSH1 0x20 DUP5 ADD CALLDATALOAD PUSH8 0xFFFFFFFFFFFFFFFF DUP2 GT ISZERO PUSH2 0x2493 JUMPI PUSH2 0x2492 PUSH2 0x2041 JUMP JUMPDEST JUMPDEST PUSH2 0x249F DUP7 DUP3 DUP8 ADD PUSH2 0x2320 JUMP JUMPDEST SWAP3 POP POP PUSH1 0x40 DUP5 ADD CALLDATALOAD PUSH8 0xFFFFFFFFFFFFFFFF DUP2 GT ISZERO PUSH2 0x24C0 JUMPI PUSH2 0x24BF PUSH2 0x2041 JUMP JUMPDEST JUMPDEST PUSH2 0x24CC DUP7 DUP3 DUP8 ADD PUSH2 0x2401 JUMP JUMPDEST SWAP2 POP POP SWAP3 POP SWAP3 POP SWAP3 JUMP JUMPDEST PUSH1 0x0 PUSH1 0x20 DUP3 DUP5 SUB SLT ISZERO PUSH2 0x24EC JUMPI PUSH2 0x24EB PUSH2 0x203C JUMP JUMPDEST JUMPDEST PUSH1 0x0 DUP3 ADD CALLDATALOAD PUSH8 0xFFFFFFFFFFFFFFFF DUP2 GT ISZERO PUSH2 0x250A JUMPI PUSH2 0x2509 PUSH2 0x2041 JUMP JUMPDEST JUMPDEST PUSH2 0x2516 DUP5 DUP3 DUP6 ADD PUSH2 0x215E JUMP JUMPDEST SWAP2 POP POP SWAP3 SWAP2 POP POP JUMP JUMPDEST PUSH2 0x2528 DUP2 PUSH2 0x21C7 JUMP JUMPDEST DUP3 MSTORE POP POP JUMP JUMPDEST PUSH1 0x0 PUSH1 0x20 DUP3 ADD SWAP1 POP PUSH2 0x2543 PUSH1 0x0 DUP4 ADD DUP5 PUSH2 0x251F JUMP JUMPDEST SWAP3 SWAP2 POP POP JUMP JUMPDEST PUSH1 0x0 DUP1 PUSH1 0x40 DUP4 DUP6 SUB SLT ISZERO PUSH2 0x2560 JUMPI PUSH2 0x255F PUSH2 0x203C JUMP JUMPDEST JUMPDEST PUSH1 0x0 DUP4 ADD CALLDATALOAD PUSH8 0xFFFFFFFFFFFFFFFF DUP2 GT ISZERO PUSH2 0x257E JUMPI PUSH2 0x257D PUSH2 0x2041 JUMP JUMPDEST JUMPDEST PUSH2 0x258A DUP6 DUP3 DUP7 ADD PUSH2 0x215E JUMP JUMPDEST SWAP3 POP POP PUSH1 0x20 PUSH2 0x259B DUP6 DUP3 DUP7 ADD PUSH2 0x21E8 JUMP JUMPDEST SWAP2 POP POP SWAP3 POP SWAP3 SWAP1 POP JUMP JUMPDEST PUSH1 0x0 DUP2 MLOAD SWAP1 POP SWAP2 SWAP1 POP JUMP JUMPDEST PUSH1 0x0 DUP3 DUP3 MSTORE PUSH1 0x20 DUP3 ADD SWAP1 POP SWAP3 SWAP2 POP POP JUMP JUMPDEST PUSH1 0x0 JUMPDEST DUP4 DUP2 LT ISZERO PUSH2 0x25DF JUMPI DUP1 DUP3 ADD MLOAD DUP2 DUP5 ADD MSTORE PUSH1 0x20 DUP2 ADD SWAP1 POP PUSH2 0x25C4 JUMP JUMPDEST PUSH1 0x0 DUP5 DUP5 ADD MSTORE POP POP POP POP JUMP JUMPDEST PUSH1 0x0 PUSH2 0x25F6 DUP3 PUSH2 0x25A5 JUMP JUMPDEST PUSH2 0x2600 DUP2 DUP6 PUSH2 0x25B0 JUMP JUMPDEST SWAP4 POP PUSH2 0x2610 DUP2 DUP6 PUSH1 0x20 DUP7 ADD PUSH2 0x25C1 JUMP JUMPDEST PUSH2 0x2619 DUP2 PUSH2 0x2050 JUMP JUMPDEST DUP5 ADD SWAP2 POP POP SWAP3 SWAP2 POP POP JUMP JUMPDEST PUSH1 0x0 PUSH1 0x60 DUP3 ADD SWAP1 POP DUP2 DUP2 SUB PUSH1 0x0 DUP4 ADD MSTORE PUSH2 0x263E DUP2 DUP7 PUSH2 0x25EB JUMP JUMPDEST SWAP1 POP PUSH2 0x264D PUSH1 0x20 DUP4 ADD DUP6 PUSH2 0x251F JUMP JUMPDEST DUP2 DUP2 SUB PUSH1 0x40 DUP4 ADD MSTORE PUSH2 0x265F DUP2 DUP5 PUSH2 0x25EB JUMP JUMPDEST SWAP1 POP SWAP5 SWAP4 POP POP POP POP JUMP JUMPDEST PUSH1 0x0 DUP2 MLOAD SWAP1 POP SWAP2 SWAP1 POP JUMP JUMPDEST PUSH1 0x0 DUP3 DUP3 MSTORE PUSH1 0x20 DUP3 ADD SWAP1 POP SWAP3 SWAP2 POP POP JUMP JUMPDEST PUSH1 0x0 DUP2 SWAP1 POP PUSH1 0x20 DUP3 ADD SWAP1 POP SWAP2 SWAP1 POP JUMP JUMPDEST PUSH1 0x0 DUP2 MLOAD SWAP1 POP SWAP2 SWAP1 POP JUMP JUMPDEST PUSH1 0x0 DUP3 DUP3 MSTORE PUSH1 0x20 DUP3 ADD SWAP1 POP SWAP3 SWAP2 POP POP JUMP JUMPDEST PUSH1 0x0 DUP2 SWAP1 POP PUSH1 0x20 DUP3 ADD SWAP1 POP SWAP2 SWAP1 POP JUMP JUMPDEST PUSH2 0x26CA DUP2 PUSH2 0x21C7 JUMP JUMPDEST DUP3 MSTORE POP POP JUMP JUMPDEST PUSH1 0x0 PUSH2 0x26DC DUP4 DUP4 PUSH2 0x26C1 JUMP JUMPDEST PUSH1 0x20 DUP4 ADD SWAP1 POP SWAP3 SWAP2 POP POP JUMP JUMPDEST PUSH1 0x0 PUSH1 0x20 DUP3 ADD SWAP1 POP SWAP2 SWAP1 POP JUMP JUMPDEST PUSH1 0x0 PUSH2 0x2700 DUP3 PUSH2 0x2695 JUMP JUMPDEST PUSH2 0x270A DUP2 DUP6 PUSH2 0x26A0 JUMP JUMPDEST SWAP4 POP PUSH2 0x2715 DUP4 PUSH2 0x26B1 JUMP JUMPDEST DUP1 PUSH1 0x0 JUMPDEST DUP4 DUP2 LT ISZERO PUSH2 0x2746 JUMPI DUP2 MLOAD PUSH2 0x272D DUP9 DUP3 PUSH2 0x26D0 JUMP JUMPDEST SWAP8 POP PUSH2 0x2738 DUP4 PUSH2 0x26E8 JUMP JUMPDEST SWAP3 POP POP PUSH1 0x1 DUP2 ADD SWAP1 POP PUSH2 0x2719 JUMP JUMPDEST POP DUP6 SWAP4 POP POP POP POP SWAP3 SWAP2 POP POP JUMP JUMPDEST PUSH1 0x0 PUSH2 0x275F DUP4 DUP4 PUSH2 0x26F5 JUMP JUMPDEST SWAP1 POP SWAP3 SWAP2 POP POP JUMP JUMPDEST PUSH1 0x0 PUSH1 0x20 DUP3 ADD SWAP1 POP SWAP2 SWAP1 POP JUMP JUMPDEST PUSH1 0x0 PUSH2 0x277F DUP3 PUSH2 0x2669 JUMP JUMPDEST PUSH2 0x2789 DUP2 DUP6 PUSH2 0x2674 JUMP JUMPDEST SWAP4 POP DUP4 PUSH1 0x20 DUP3 MUL DUP6 ADD PUSH2 0x279B DUP6 PUSH2 0x2685 JUMP JUMPDEST DUP1 PUSH1 0x0 JUMPDEST DUP6 DUP2 LT ISZERO PUSH2 0x27D7 JUMPI DUP5 DUP5 SUB DUP10 MSTORE DUP2 MLOAD PUSH2 0x27B8 DUP6 DUP3 PUSH2 0x2753 JUMP JUMPDEST SWAP5 POP PUSH2 0x27C3 DUP4 PUSH2 0x2767 JUMP JUMPDEST SWAP3 POP PUSH1 0x20 DUP11 ADD SWAP10 POP POP PUSH1 0x1 DUP2 ADD SWAP1 POP PUSH2 0x279F JUMP JUMPDEST POP DUP3 SWAP8 POP DUP8 SWAP6 POP POP POP POP POP POP SWAP3 SWAP2 POP POP JUMP JUMPDEST PUSH1 0x0 PUSH1 0x20 DUP3 ADD SWAP1 POP DUP2 DUP2 SUB PUSH1 0x0 DUP4 ADD MSTORE PUSH2 0x2803 DUP2 DUP5 PUSH2 0x2774 JUMP JUMPDEST SWAP1 POP SWAP3 SWAP2 POP POP JUMP JUMPDEST PUSH1 0x0 DUP2 MLOAD SWAP1 POP SWAP2 SWAP1 POP JUMP JUMPDEST PUSH1 0x0 DUP3 DUP3 MSTORE PUSH1 0x20 DUP3 ADD SWAP1 POP SWAP3 SWAP2 POP POP JUMP JUMPDEST PUSH1 0x0 DUP2 SWAP1 POP PUSH1 0x20 DUP3 ADD SWAP1 POP SWAP2 SWAP1 POP JUMP JUMPDEST PUSH1 0x0 DUP3 DUP3 MSTORE PUSH1 0x20 DUP3 ADD SWAP1 POP SWAP3 SWAP2 POP POP JUMP JUMPDEST PUSH1 0x0 PUSH2 0x2853 DUP3 PUSH2 0x25A5 JUMP JUMPDEST PUSH2 0x285D DUP2 DUP6 PUSH2 0x2837 JUMP JUMPDEST SWAP4 POP PUSH2 0x286D DUP2 DUP6 PUSH1 0x20 DUP7 ADD PUSH2 0x25C1 JUMP JUMPDEST PUSH2 0x2876 DUP2 PUSH2 0x2050 JUMP JUMPDEST DUP5 ADD SWAP2 POP POP SWAP3 SWAP2 POP POP JUMP JUMPDEST PUSH1 0x0 PUSH1 0x60 DUP4 ADD PUSH1 0x0 DUP4 ADD MLOAD DUP5 DUP3 SUB PUSH1 0x0 DUP7 ADD MSTORE PUSH2 0x289E DUP3 DUP3 PUSH2 0x2848 JUMP JUMPDEST SWAP2 POP POP PUSH1 0x20 DUP4 ADD MLOAD PUSH2 0x28B3 PUSH1 0x20 DUP7 ADD DUP3 PUSH2 0x26C1 JUMP JUMPDEST POP PUSH1 0x40 DUP4 ADD MLOAD DUP5 DUP3 SUB PUSH1 0x40 DUP7 ADD MSTORE PUSH2 0x28CB DUP3 DUP3 PUSH2 0x2848 JUMP JUMPDEST SWAP2 POP POP DUP1 SWAP2 POP POP SWAP3 SWAP2 POP POP JUMP JUMPDEST PUSH1 0x0 PUSH2 0x28E4 DUP4 DUP4 PUSH2 0x2881 JUMP JUMPDEST SWAP1 POP SWAP3 SWAP2 POP POP JUMP JUMPDEST PUSH1 0x0 PUSH1 0x20 DUP3 ADD SWAP1 POP SWAP2 SWAP1 POP JUMP JUMPDEST PUSH1 0x0 PUSH2 0x2904 DUP3 PUSH2 0x280B JUMP JUMPDEST PUSH2 0x290E DUP2 DUP6 PUSH2 0x2816 JUMP JUMPDEST SWAP4 POP DUP4 PUSH1 0x20 DUP3 MUL DUP6 ADD PUSH2 0x2920 DUP6 PUSH2 0x2827 JUMP JUMPDEST DUP1 PUSH1 0x0 JUMPDEST DUP6 DUP2 LT ISZERO PUSH2 0x295C JUMPI DUP5 DUP5 SUB DUP10 MSTORE DUP2 MLOAD PUSH2 0x293D DUP6 DUP3 PUSH2 0x28D8 JUMP JUMPDEST SWAP5 POP PUSH2 0x2948 DUP4 PUSH2 0x28EC JUMP JUMPDEST SWAP3 POP PUSH1 0x20 DUP11 ADD SWAP10 POP POP PUSH1 0x1 DUP2 ADD SWAP1 POP PUSH2 0x2924 JUMP JUMPDEST POP DUP3 SWAP8 POP DUP8 SWAP6 POP POP POP POP POP POP SWAP3 SWAP2 POP POP JUMP JUMPDEST PUSH1 0x0 PUSH1 0x20 DUP3 ADD SWAP1 POP DUP2 DUP2 SUB PUSH1 0x0 DUP4 ADD MSTORE PUSH2 0x2988 DUP2 DUP5 PUSH2 0x28F9 JUMP JUMPDEST SWAP1 POP SWAP3 SWAP2 POP POP JUMP JUMPDEST PUSH1 0x0 DUP1 PUSH1 0x0 PUSH1 0x60 DUP5 DUP7 SUB SLT ISZERO PUSH2 0x29A9 JUMPI PUSH2 0x29A8 PUSH2 0x203C JUMP JUMPDEST JUMPDEST PUSH1 0x0 DUP5 ADD CALLDATALOAD PUSH8 0xFFFFFFFFFFFFFFFF DUP2 GT ISZERO PUSH2 0x29C7 JUMPI PUSH2 0x29C6 PUSH2 0x2041 JUMP JUMPDEST JUMPDEST PUSH2 0x29D3 DUP7 DUP3 DUP8 ADD PUSH2 0x215E JUMP JUMPDEST SWAP4 POP POP PUSH1 0x20 PUSH2 0x29E4 DUP7 DUP3 DUP8 ADD PUSH2 0x21E8 JUMP JUMPDEST SWAP3 POP POP PUSH1 0x40 PUSH2 0x29F5 DUP7 DUP3 DUP8 ADD PUSH2 0x21E8 JUMP JUMPDEST SWAP2 POP POP SWAP3 POP SWAP3 POP SWAP3 JUMP JUMPDEST PUSH1 0x0 PUSH1 0x20 DUP3 ADD SWAP1 POP DUP2 DUP2 SUB PUSH1 0x0 DUP4 ADD MSTORE PUSH2 0x2A19 DUP2 DUP5 PUSH2 0x25EB JUMP JUMPDEST SWAP1 POP SWAP3 SWAP2 POP POP JUMP JUMPDEST PUSH1 0x0 DUP2 SWAP1 POP SWAP3 SWAP2 POP POP JUMP JUMPDEST PUSH32 0x4D6564696576616C20526F6D616E20456D706972650000000000000000000000 PUSH1 0x0 DUP3 ADD MSTORE POP JUMP JUMPDEST PUSH1 0x0 PUSH2 0x2A62 PUSH1 0x15 DUP4 PUSH2 0x2A21 JUMP JUMPDEST SWAP2 POP PUSH2 0x2A6D DUP3 PUSH2 0x2A2C JUMP JUMPDEST PUSH1 0x15 DUP3 ADD SWAP1 POP SWAP2 SWAP1 POP JUMP JUMPDEST PUSH1 0x0 PUSH2 0x2A83 DUP3 PUSH2 0x2A55 JUMP JUMPDEST SWAP2 POP DUP2 SWAP1 POP SWAP2 SWAP1 POP JUMP JUMPDEST PUSH32 0x4E487B7100000000000000000000000000000000000000000000000000000000 PUSH1 0x0 MSTORE PUSH1 0x22 PUSH1 0x4 MSTORE PUSH1 0x24 PUSH1 0x0 REVERT JUMPDEST PUSH1 0x0 PUSH1 0x2 DUP3 DIV SWAP1 POP PUSH1 0x1 DUP3 AND DUP1 PUSH2 0x2AD4 JUMPI PUSH1 0x7F DUP3 AND SWAP2 POP JUMPDEST PUSH1 0x20 DUP3 LT DUP2 SUB PUSH2 0x2AE7 JUMPI PUSH2 0x2AE6 PUSH2 0x2A8D JUMP JUMPDEST JUMPDEST POP SWAP2 SWAP1 POP JUMP JUMPDEST PUSH1 0x0 DUP2 SWAP1 POP DUP2 PUSH1 0x0 MSTORE PUSH1 0x20 PUSH1 0x0 KECCAK256 SWAP1 POP SWAP2 SWAP1 POP JUMP JUMPDEST PUSH1 0x0 PUSH1 0x20 PUSH1 0x1F DUP4 ADD DIV SWAP1 POP SWAP2 SWAP1 POP JUMP JUMPDEST PUSH1 0x0 DUP3 DUP3 SHL SWAP1 POP SWAP3 SWAP2 POP POP JUMP JUMPDEST PUSH1 0x0 PUSH1 0x8 DUP4 MUL PUSH2 0x2B4F PUSH32 0xFFFFFFFFFFFFFFFFFFFFFFFFFFFFFFFFFFFFFFFFFFFFFFFFFFFFFFFFFFFFFFFF DUP3 PUSH2 0x2B12 JUMP JUMPDEST PUSH2 0x2B59 DUP7 DUP4 PUSH2 0x2B12 JUMP JUMPDEST SWAP6 POP DUP1 NOT DUP5 AND SWAP4 POP DUP1 DUP7 AND DUP5 OR SWAP3 POP POP POP SWAP4 SWAP3 POP POP POP JUMP JUMPDEST PUSH1 0x0 DUP2 SWAP1 POP SWAP2 SWAP1 POP JUMP JUMPDEST PUSH1 0x0 PUSH2 0x2B96 PUSH2 0x2B91 PUSH2 0x2B8C DUP5 PUSH2 0x21C7 JUMP JUMPDEST PUSH2 0x2B71 JUMP JUMPDEST PUSH2 0x21C7 JUMP JUMPDEST SWAP1 POP SWAP2 SWAP1 POP JUMP JUMPDEST PUSH1 0x0 DUP2 SWAP1 POP SWAP2 SWAP1 POP JUMP JUMPDEST PUSH2 0x2BB0 DUP4 PUSH2 0x2B7B JUMP JUMPDEST PUSH2 0x2BC4 PUSH2 0x2BBC DUP3 PUSH2 0x2B9D JUMP JUMPDEST DUP5 DUP5 SLOAD PUSH2 0x2B1F JUMP JUMPDEST DUP3 SSTORE POP POP POP POP JUMP JUMPDEST PUSH1 0x0 SWAP1 JUMP JUMPDEST PUSH2 0x2BD9 PUSH2 0x2BCC JUMP JUMPDEST PUSH2 0x2BE4 DUP2 DUP5 DUP5 PUSH2 0x2BA7 JUMP JUMPDEST POP POP POP JUMP JUMPDEST JUMPDEST DUP2 DUP2 LT ISZERO PUSH2 0x2C08 JUMPI PUSH2 0x2BFD PUSH1 0x0 DUP3 PUSH2 0x2BD1 JUMP JUMPDEST PUSH1 0x1 DUP2 ADD SWAP1 POP PUSH2 0x2BEA JUMP JUMPDEST POP POP JUMP JUMPDEST PUSH1 0x1F DUP3 GT ISZERO PUSH2 0x2C4D JUMPI PUSH2 0x2C1E DUP2 PUSH2 0x2AED JUMP JUMPDEST PUSH2 0x2C27 DUP5 PUSH2 0x2B02 JUMP JUMPDEST DUP2 ADD PUSH1 0x20 DUP6 LT ISZERO PUSH2 0x2C36 JUMPI DUP2 SWAP1 POP JUMPDEST PUSH2 0x2C4A PUSH2 0x2C42 DUP6 PUSH2 0x2B02 JUMP JUMPDEST DUP4 ADD DUP3 PUSH2 0x2BE9 JUMP JUMPDEST POP POP JUMPDEST POP POP POP JUMP JUMPDEST PUSH1 0x0 DUP3 DUP3 SHR SWAP1 POP SWAP3 SWAP2 POP POP JUMP JUMPDEST PUSH1 0x0 PUSH2 0x2C70 PUSH1 0x0 NOT DUP5 PUSH1 0x8 MUL PUSH2 0x2C52 JUMP JUMPDEST NOT DUP1 DUP4 AND SWAP2 POP POP SWAP3 SWAP2 POP POP JUMP JUMPDEST PUSH1 0x0 PUSH2 0x2C89 DUP4 DUP4 PUSH2 0x2C5F JUMP JUMPDEST SWAP2 POP DUP3 PUSH1 0x2 MUL DUP3 OR SWAP1 POP SWAP3 SWAP2 POP POP JUMP JUMPDEST PUSH2 0x2CA2 DUP3 PUSH2 0x25A5 JUMP JUMPDEST PUSH8 0xFFFFFFFFFFFFFFFF DUP2 GT ISZERO PUSH2 0x2CBB JUMPI PUSH2 0x2CBA PUSH2 0x2061 JUMP JUMPDEST JUMPDEST PUSH2 0x2CC5 DUP3 SLOAD PUSH2 0x2ABC JUMP JUMPDEST PUSH2 0x2CD0 DUP3 DUP3 DUP6 PUSH2 0x2C0C JUMP JUMPDEST PUSH1 0x0 PUSH1 0x20 SWAP1 POP PUSH1 0x1F DUP4 GT PUSH1 0x1 DUP2 EQ PUSH2 0x2D03 JUMPI PUSH1 0x0 DUP5 ISZERO PUSH2 0x2CF1 JUMPI DUP3 DUP8 ADD MLOAD SWAP1 POP JUMPDEST PUSH2 0x2CFB DUP6 DUP3 PUSH2 0x2C7D JUMP JUMPDEST DUP7 SSTORE POP PUSH2 0x2D63 JUMP JUMPDEST PUSH1 0x1F NOT DUP5 AND PUSH2 0x2D11 DUP7 PUSH2 0x2AED JUMP JUMPDEST PUSH1 0x0 JUMPDEST DUP3 DUP2 LT ISZERO PUSH2 0x2D39 JUMPI DUP5 DUP10 ADD MLOAD DUP3 SSTORE PUSH1 0x1 DUP3 ADD SWAP2 POP PUSH1 0x20 DUP6 ADD SWAP5 POP PUSH1 0x20 DUP2 ADD SWAP1 POP PUSH2 0x2D14 JUMP JUMPDEST DUP7 DUP4 LT ISZERO PUSH2 0x2D56 JUMPI DUP5 DUP10 ADD MLOAD PUSH2 0x2D52 PUSH1 0x1F DUP10 AND DUP3 PUSH2 0x2C5F JUMP JUMPDEST DUP4 SSTORE POP JUMPDEST PUSH1 0x1 PUSH1 0x2 DUP9 MUL ADD DUP9 SSTORE POP POP POP JUMPDEST POP POP POP POP POP POP JUMP JUMPDEST PUSH32 0x4E487B7100000000000000000000000000000000000000000000000000000000 PUSH1 0x0 MSTORE PUSH1 0x32 PUSH1 0x4 MSTORE PUSH1 0x24 PUSH1 0x0 REVERT JUMPDEST PUSH1 0x0 PUSH2 0x2DA5 DUP3 PUSH2 0x25A5 JUMP JUMPDEST PUSH2 0x2DAF DUP2 DUP6 PUSH2 0x2A21 JUMP JUMPDEST SWAP4 POP PUSH2 0x2DBF DUP2 DUP6 PUSH1 0x20 DUP7 ADD PUSH2 0x25C1 JUMP JUMPDEST DUP1 DUP5 ADD SWAP2 POP POP SWAP3 SWAP2 POP POP JUMP JUMPDEST PUSH1 0x0 PUSH2 0x2DD7 DUP3 DUP5 PUSH2 0x2D9A JUMP JUMPDEST SWAP2 POP DUP2 SWAP1 POP SWAP3 SWAP2 POP POP JUMP JUMPDEST PUSH32 0x4E487B7100000000000000000000000000000000000000000000000000000000 PUSH1 0x0 MSTORE PUSH1 0x11 PUSH1 0x4 MSTORE PUSH1 0x24 PUSH1 0x0 REVERT JUMPDEST PUSH1 0x0 PUSH2 0x2E1C DUP3 PUSH2 0x21C7 JUMP JUMPDEST SWAP2 POP PUSH32 0xFFFFFFFFFFFFFFFFFFFFFFFFFFFFFFFFFFFFFFFFFFFFFFFFFFFFFFFFFFFFFFFF DUP3 SUB PUSH2 0x2E4E JUMPI PUSH2 0x2E4D PUSH2 0x2DE2 JUMP JUMPDEST JUMPDEST PUSH1 0x1 DUP3 ADD SWAP1 POP SWAP2 SWAP1 POP JUMP JUMPDEST PUSH32 0x416E6369656E7420526F6D616E20456D70696500000000000000000000000000 PUSH1 0x0 DUP3 ADD MSTORE POP JUMP JUMPDEST PUSH1 0x0 PUSH2 0x2E8F PUSH1 0x13 DUP4 PUSH2 0x2A21 JUMP JUMPDEST SWAP2 POP PUSH2 0x2E9A DUP3 PUSH2 0x2E59 JUMP JUMPDEST PUSH1 0x13 DUP3 ADD SWAP1 POP SWAP2 SWAP1 POP JUMP JUMPDEST PUSH1 0x0 PUSH2 0x2EB0 DUP3 PUSH2 0x2E82 JUMP JUMPDEST SWAP2 POP DUP2 SWAP1 POP SWAP2 SWAP1 POP JUMP JUMPDEST PUSH32 0x416E6369656E7420526F6D616E20456D70697265000000000000000000000000 PUSH1 0x0 DUP3 ADD MSTORE POP JUMP JUMPDEST PUSH1 0x0 PUSH2 0x2EF0 PUSH1 0x14 DUP4 PUSH2 0x2A21 JUMP JUMPDEST SWAP2 POP PUSH2 0x2EFB DUP3 PUSH2 0x2EBA JUMP JUMPDEST PUSH1 0x14 DUP3 ADD SWAP1 POP SWAP2 SWAP1 POP JUMP JUMPDEST PUSH1 0x0 PUSH2 0x2F11 DUP3 PUSH2 0x2EE3 JUMP JUMPDEST SWAP2 POP DUP2 SWAP1 POP SWAP2 SWAP1 POP JUMP INVALID SLOAD PUSH9 0x6973207469746C6520 PUSH24 0x617320676976656E20746F20417572656C69616E20616674 PUSH6 0x722068652072 PUSH6 0x696E74656772 PUSH2 0x7465 PUSH5 0x2073657061 PUSH19 0x617469737420737461746573206F662050616C PUSH14 0x6572696E6520616E642047616C6C PUSH10 0x6320456D706972657320 PUSH10 0x6E2032373320616E6420 ORIGIN CALLDATACOPY CALLVALUE KECCAK256 PUSH19 0x6573706563746976656C792E426174746C6520 PUSH16 0x6620436174616C756E79616E20506C61 PUSH10 0x6E73206973207365656E KECCAK256 PUSH2 0x7320 MSTORE PUSH16 0x6D652773206C61737420677265617420 PUSH23 0x6963746F72792E2057686F20636F6D6D616E6465642052 PUSH16 0x6D616E20666F726365733F4974207761 PUSH20 0x2061206E69636B6E616D65206F66204E696B6570 PUSH9 0x6F726F732049492050 PUSH9 0x6F6B61732C20656172 PUSH15 0x656420627920686973206D616E7920 PUSH23 0x6963746F7269657320616761696E737420417261626963 KECCAK256 PUSH7 0x6F726365732C20 PUSH10 0x6E636C7564696E672072 PUSH6 0x636F6E717565 PUSH20 0x74206F6620437265746520616E642043696C6963 PUSH10 0x612E5768696368206F66 KECCAK256 PUSH21 0x6865736520626174746C65732064696420656E6420 PUSH24 0x69746820526F6D616E20766963746F72793F576869636820 PUSH16 0x6620746865736520526F6D616E20656D PUSH17 0x65726F727320776173207469746C656420 MSTORE PUSH6 0x73746F726572 KECCAK256 PUSH16 0x662074686520576F726C643F44657369 PUSH19 0x65206F66205065727369616E20736861682074 PUSH16 0x206176656E6765206D7572646572206F PUSH7 0x20526F6D616E20 PUSH6 0x6D7065726F72 0x2E TIMESTAMP PUSH6 0x6C6973617269 PUSH22 0x73206C656420526F6D616E20666F7263657320616761 PUSH10 0x6E73742056616E64616C PUSH10 0x632061726D7920756E64 PUSH6 0x722047656C69 PUSH14 0x657220616E64206869732062726F PUSH21 0x68657220416D6D617461732E20526F6D616E207669 PUSH4 0x746F7279 KECCAK256 PUSH13 0x656420746F207265636F6E7175 PUSH6 0x7374206F6620 COINBASE PUSH7 0x726963612E4465 PUSH7 0x656174206F6620 MSTORE PUSH16 0x6D616E6F73204956206174204D616E7A PUSH10 0x6B65727420696E203130 CALLDATACOPY BALANCE KECCAK256 PUSH4 0x61757365 PUSH5 0x206D617373 PUSH10 0x7665206368616F732069 PUSH15 0x20526F6D616E20656D706972652E20 JUMPI PUSH9 0x656E20656D7065726F PUSH19 0x20416C6578696F73204B6F6D6E656E6F732074 PUSH19 0x69656420746F20756E646F207468652064616D PUSH2 0x6765 KECCAK256 PUSH2 0x6E64 KECCAK256 PUSH19 0x65636C61696D20416E61746F6C69612C206865 KECCAK256 PUSH2 0x736B PUSH6 0x6420706F7065 KECCAK256 PUSH10 0x6E20526F6D6520666F72 KECCAK256 PUSH14 0x657263656E61726965732E20496E PUSH20 0x746561642C2074686520706F7065206F7267616E PUSH10 0x73656420637275736164 PUSH6 0x732E526F6D61 PUSH15 0x207265667573616C20746F20706179 KECCAK256 PUSH20 0x756273696469657320746F2053617373616E6964 PUSH20 0x2E526176656E6E61207761732073656174206F66 KECCAK256 PUSH21 0x6865207765737465726E20456D7065726F72207369 PUSH15 0x6365206974207265706C6163656420 0x4D PUSH10 0x6C616E20696E20343031 KECCAK256 NUMBER 0x2E GASLIMIT 0x2E 0x2C KECCAK256 PUSH22 0x6E74696C6C204F646F6163657272206465706F736564 KECCAK256 PUSH6 0x6D7065726F72 KECCAK256 MSTORE PUSH16 0x6D756C757320417567757374756C7573 0x2E JUMPI PUSH9 0x6963682067656E6572 PUSH2 0x6C20 PUSH4 0x6F6D6D61 PUSH15 0x64656420526F6D616E20666F726365 PUSH20 0x20696E20626174746C65206F6620416420446563 PUSH10 0x6D756D3F576869636820 PUSH6 0x6D7065726F72 KECCAK256 PUSH24 0x6173206E69636B6E616D656420275468652050616C652044 PUSH6 0x617468206F66 KECCAK256 MSTORE8 PUSH2 0x7261 PUSH4 0x656E7327 EXTCODEHASH MSTORE8 PUSH2 0x7373 PUSH2 0x6E69 PUSH5 0x2073686168 KECCAK256 0x4B PUSH9 0x6F73726F7720494920 PUSH24 0x616E74656420746F206176656E6765206D7572646572206F PUSH7 0x20656D7065726F PUSH19 0x204D61757269636520647572696E672050686F PUSH12 0x6173207265766F6C742C2077 PUSH9 0x6F6D206865206F7765 PUSH5 0x2068697320 PUSH21 0x68726F6E6520616E6420636F6E7369646572656420 PUSH17 0x6572736F6E616C20667269656E642E2049 PUSH21 0x206973207175697465206C696B656C792068652069 PUSH15 0x74656E64656420746F20636F6E7175 PUSH6 0x722045677970 PUSH21 0x20616E642053797269612C20627574207468617420 PUSH24 0x61736E277420757365642061732063617375732062656C69 0x2E TIMESTAMP PUSH16 0x72646572206672696374696F6E206E65 PUSH2 0x7220 PUSH21 0x686520666F727472657373206F6620446172612E42 PUSH2 0x7474 PUSH13 0x65206F66204964697374617669 PUSH20 0x6F20746F6F6B20706C61636520696E2031362043 0x2E GASLIMIT 0x2E KECCAK256 MSTORE PUSH16 0x6D616E2061726D79206C656420627920 SELFBALANCE PUSH6 0x726D616E6963 PUSH22 0x73206465666561746564206765726D616E696320636F PUSH15 0x66656465726174696F6E206F662041 PUSH19 0x6D696E6975732C2061726368696576696E6720 MSTORE PUSH16 0x6D616E20676F616C206F66206176656E PUSH8 0x696E672064656665 PUSH2 0x7420 PUSH10 0x6E20546575746F626F72 PUSH8 0x20466F726573742E JUMPI PUSH9 0x696368206F66207468 PUSH6 0x736520526F6D PUSH2 0x6E20 PUSH5 0x6566656174 PUSH20 0x206361757365642063727573616465733F456D70 PUSH6 0x726F72204865 PUSH19 0x61636C69757320706C616E6E656420746F206D PUSH16 0x7665206361706974616C206177617920 PUSH7 0x726F6D20436F6E PUSH20 0x74616E74696E6F706F6C652E20546F2077686963 PUSH9 0x20636974793F576861 PUSH21 0x2077617320746865206F6666696369616C20636175 PUSH20 0x65206F66206C61737420526F6D616E2D53617373 PUSH2 0x6E69 PUSH5 0x207761723F JUMPI PUSH9 0x656E2053617373616E PUSH10 0x642061726D6965732062 PUSH6 0x736567656420 NUMBER PUSH16 0x6E7374616E74696E6F706F6C652C2048 PUSH6 0x7261636C6975 PUSH20 0x20706C616E6E656420746F206D6F766520636170 PUSH10 0x74616C20746F20436172 PUSH21 0x686167652C20617761792066726F6D205065727369 PUSH2 0x6E2C KECCAK256 MSTORE8 PUSH13 0x617620616E6420417661722074 PUSH9 0x726561742E42617474 PUSH13 0x65206F6620436174616C756E79 PUSH2 0x6E20 POP PUSH13 0x61696E7320746F6F6B20706C61 PUSH4 0x6520696E KECCAK256 CALLVALUE CALLDATALOAD BALANCE KECCAK256 NUMBER 0x2E GASLIMIT KECCAK256 PUSH3 0x657477 PUSH6 0x656E2048756E PUSH20 0x206C656420627920417474696C6120616E642052 PUSH16 0x6D616E6F2D4765726D616E20636F616C PUSH13 0x6974696F6E206C656420627920 CHAINID PUSH13 0x61766975732041657469757320 PUSH2 0x6E64 KECCAK256 PUSH12 0x696E67205468656F646F7269 PUSH4 0x20492E57 PUSH9 0x696368206369747920 PUSH24 0x617320746865206361706974616C206F6620776573746572 PUSH15 0x2070617274206F6620526F6D616E20 GASLIMIT PUSH14 0x7069726520696E20796561727320 CALLVALUE ORIGIN ADDRESS 0x2D CALLVALUE CALLDATACOPY CALLDATASIZE KECCAK256 NUMBER 0x2E GASLIMIT 0x2E EXTCODEHASH LOG2 PUSH5 0x6970667358 0x22 SLT KECCAK256 PUSH27 0xC9BA88E22B2C730863E27BCCF88DFCE9E69D38F02AB4E3EC759946 PUSH30 0xC40C3B64736F6C6343000811003354686973207469746C65207761732067 PUSH10 0x76656E20746F20417572 PUSH6 0x6C69616E2061 PUSH7 0x74657220686520 PUSH19 0x65696E74656772617465642073657061726174 PUSH10 0x73742073746174657320 PUSH16 0x662050616C6D6572696E6520616E6420 SELFBALANCE PUSH2 0x6C6C PUSH10 0x6320456D706972657320 PUSH10 0x6E2032373320616E6420 ORIGIN CALLDATACOPY CALLVALUE KECCAK256 PUSH19 0x6573706563746976656C792E426174746C6520 PUSH16 0x6620436174616C756E79616E20506C61 PUSH10 0x6E73206973207365656E KECCAK256 PUSH2 0x7320 MSTORE PUSH16 0x6D652773206C61737420677265617420 PUSH23 0x6963746F72792E2057686F20636F6D6D616E6465642052 PUSH16 0x6D616E20666F726365733F4974207761 PUSH20 0x2061206E69636B6E616D65206F66204E696B6570 PUSH9 0x6F726F732049492050 PUSH9 0x6F6B61732C20656172 PUSH15 0x656420627920686973206D616E7920 PUSH23 0x6963746F7269657320616761696E737420417261626963 KECCAK256 PUSH7 0x6F726365732C20 PUSH10 0x6E636C7564696E672072 PUSH6 0x636F6E717565 PUSH20 0x74206F6620437265746520616E642043696C6963 PUSH10 0x612E5768696368206F66 KECCAK256 PUSH21 0x6865736520626174746C65732064696420656E6420 PUSH24 0x69746820526F6D616E20766963746F72793F576869636820 PUSH16 0x6620746865736520526F6D616E20656D PUSH17 0x65726F727320776173207469746C656420 MSTORE PUSH6 0x73746F726572 KECCAK256 PUSH16 0x662074686520576F726C643F44657369 PUSH19 0x65206F66205065727369616E20736861682074 PUSH16 0x206176656E6765206D7572646572206F PUSH7 0x20526F6D616E20 PUSH6 0x6D7065726F72 0x2E TIMESTAMP PUSH6 0x6C6973617269 PUSH22 0x73206C656420526F6D616E20666F7263657320616761 PUSH10 0x6E73742056616E64616C PUSH10 0x632061726D7920756E64 PUSH6 0x722047656C69 PUSH14 0x657220616E64206869732062726F PUSH21 0x68657220416D6D617461732E20526F6D616E207669 PUSH4 0x746F7279 KECCAK256 PUSH13 0x656420746F207265636F6E7175 PUSH6 0x7374206F6620 COINBASE PUSH7 0x726963612E4465 PUSH7 0x656174206F6620 MSTORE PUSH16 0x6D616E6F73204956206174204D616E7A PUSH10 0x6B65727420696E203130 CALLDATACOPY BALANCE KECCAK256 PUSH4 0x61757365 PUSH5 0x206D617373 PUSH10 0x7665206368616F732069 PUSH15 0x20526F6D616E20656D706972652E20 JUMPI PUSH9 0x656E20656D7065726F PUSH19 0x20416C6578696F73204B6F6D6E656E6F732074 PUSH19 0x69656420746F20756E646F207468652064616D PUSH2 0x6765 KECCAK256 PUSH2 0x6E64 KECCAK256 PUSH19 0x65636C61696D20416E61746F6C69612C206865 KECCAK256 PUSH2 0x736B PUSH6 0x6420706F7065 KECCAK256 PUSH10 0x6E20526F6D6520666F72 KECCAK256 PUSH14 0x657263656E61726965732E20496E PUSH20 0x746561642C2074686520706F7065206F7267616E PUSH10 0x73656420637275736164 PUSH6 0x732E526F6D61 PUSH15 0x207265667573616C20746F20706179 KECCAK256 PUSH20 0x756273696469657320746F2053617373616E6964 PUSH20 0x2E526176656E6E61207761732073656174206F66 KECCAK256 PUSH21 0x6865207765737465726E20456D7065726F72207369 PUSH15 0x6365206974207265706C6163656420 0x4D PUSH10 0x6C616E20696E20343031 KECCAK256 NUMBER 0x2E GASLIMIT 0x2E 0x2C KECCAK256 PUSH22 0x6E74696C6C204F646F6163657272206465706F736564 KECCAK256 PUSH6 0x6D7065726F72 KECCAK256 MSTORE PUSH16 0x6D756C757320417567757374756C7573 0x2E JUMPI PUSH9 0x6963682067656E6572 PUSH2 0x6C20 PUSH4 0x6F6D6D61 PUSH15 0x64656420526F6D616E20666F726365 PUSH20 0x20696E20626174746C65206F6620416420446563 PUSH10 0x6D756D3F576869636820 PUSH6 0x6D7065726F72 KECCAK256 PUSH24 0x6173206E69636B6E616D656420275468652050616C652044 PUSH6 0x617468206F66 KECCAK256 MSTORE8 PUSH2 0x7261 PUSH4 0x656E7327 EXTCODEHASH MSTORE8 PUSH2 0x7373 PUSH2 0x6E69 PUSH5 0x2073686168 KECCAK256 0x4B PUSH9 0x6F73726F7720494920 PUSH24 0x616E74656420746F206176656E6765206D7572646572206F PUSH7 0x20656D7065726F PUSH19 0x204D61757269636520647572696E672050686F PUSH12 0x6173207265766F6C742C2077 PUSH9 0x6F6D206865206F7765 PUSH5 0x2068697320 PUSH21 0x68726F6E6520616E6420636F6E7369646572656420 PUSH17 0x6572736F6E616C20667269656E642E2049 PUSH21 0x206973207175697465206C696B656C792068652069 PUSH15 0x74656E64656420746F20636F6E7175 PUSH6 0x722045677970 PUSH21 0x20616E642053797269612C20627574207468617420 PUSH24 0x61736E277420757365642061732063617375732062656C69 0x2E TIMESTAMP PUSH16 0x72646572206672696374696F6E206E65 PUSH2 0x7220 PUSH21 0x686520666F727472657373206F6620446172612E42 PUSH2 0x7474 PUSH13 0x65206F66204964697374617669 PUSH20 0x6F20746F6F6B20706C61636520696E2031362043 0x2E GASLIMIT 0x2E KECCAK256 MSTORE PUSH16 0x6D616E2061726D79206C656420627920 SELFBALANCE PUSH6 0x726D616E6963 PUSH22 0x73206465666561746564206765726D616E696320636F PUSH15 0x66656465726174696F6E206F662041 PUSH19 0x6D696E6975732C2061726368696576696E6720 MSTORE PUSH16 0x6D616E20676F616C206F66206176656E PUSH8 0x696E672064656665 PUSH2 0x7420 PUSH10 0x6E20546575746F626F72 PUSH8 0x20466F726573742E JUMPI PUSH9 0x696368206F66207468 PUSH6 0x736520526F6D PUSH2 0x6E20 PUSH5 0x6566656174 PUSH20 0x206361757365642063727573616465733F456D70 PUSH6 0x726F72204865 PUSH19 0x61636C69757320706C616E6E656420746F206D PUSH16 0x7665206361706974616C206177617920 PUSH7 0x726F6D20436F6E PUSH20 0x74616E74696E6F706F6C652E20546F2077686963 PUSH9 0x20636974793F576861 PUSH21 0x2077617320746865206F6666696369616C20636175 PUSH20 0x65206F66206C61737420526F6D616E2D53617373 PUSH2 0x6E69 PUSH5 0x207761723F JUMPI PUSH9 0x656E2053617373616E PUSH10 0x642061726D6965732062 PUSH6 0x736567656420 NUMBER PUSH16 0x6E7374616E74696E6F706F6C652C2048 PUSH6 0x7261636C6975 PUSH20 0x20706C616E6E656420746F206D6F766520636170 PUSH10 0x74616C20746F20436172 PUSH21 0x686167652C20617761792066726F6D205065727369 PUSH2 0x6E2C KECCAK256 MSTORE8 PUSH13 0x617620616E6420417661722074 PUSH9 0x726561742E42617474 PUSH13 0x65206F6620436174616C756E79 PUSH2 0x6E20 POP PUSH13 0x61696E7320746F6F6B20706C61 PUSH4 0x6520696E KECCAK256 CALLVALUE CALLDATALOAD BALANCE KECCAK256 NUMBER 0x2E GASLIMIT KECCAK256 PUSH3 0x657477 PUSH6 0x656E2048756E PUSH20 0x206C656420627920417474696C6120616E642052 PUSH16 0x6D616E6F2D4765726D616E20636F616C PUSH13 0x6974696F6E206C656420627920 CHAINID PUSH13 0x61766975732041657469757320 PUSH2 0x6E64 KECCAK256 PUSH12 0x696E67205468656F646F7269 PUSH4 0x20492E57 PUSH9 0x696368206369747920 PUSH24 0x617320746865206361706974616C206F6620776573746572 PUSH15 0x2070617274206F6620526F6D616E20 GASLIMIT PUSH14 0x7069726520696E20796561727320 CALLVALUE ORIGIN ADDRESS 0x2D CALLVALUE CALLDATACOPY CALLDATASIZE KECCAK256 NUMBER 0x2E GASLIMIT 0x2E EXTCODEHASH "
		},
		"gasEstimates": {
			"creation": {
				"codeDepositCost": "2861200",
				"executionCost": "infinite",
				"totalCost": "infinite"
			},
			"external": {
				"answers(string,uint256,uint256)": "infinite",
				"createQuiz(string,(string,uint256,string)[],string[])": "infinite",
				"ereQuiz()": "infinite",
				"getQuizAnswers(string)": "infinite",
				"getQuizQuestions(string)": "infinite",
				"quizMap(string,uint256)": "infinite",
				"quizSizeMap(string)": "infinite",
				"romanQuiz()": "infinite"
			}
		},
		"methodIdentifiers": {
			"answers(string,uint256,uint256)": "e6c1e335",
			"createQuiz(string,(string,uint256,string)[],string[])": "077a3735",
			"ereQuiz()": "04f268ed",
			"getQuizAnswers(string)": "a9729b25",
			"getQuizQuestions(string)": "b6c56385",
			"quizMap(string,uint256)": "7ede6fdf",
			"quizSizeMap(string)": "0afb2de9",
			"romanQuiz()": "961c37cc"
		}
	},
	"abi": [
		{
			"inputs": [],
			"stateMutability": "nonpayable",
			"type": "constructor"
		},
		{
			"inputs": [
				{
					"internalType": "string",
					"name": "",
					"type": "string"
				},
				{
					"internalType": "uint256",
					"name": "",
					"type": "uint256"
				},
				{
					"internalType": "uint256",
					"name": "",
					"type": "uint256"
				}
			],
			"name": "answers",
			"outputs": [
				{
					"internalType": "string",
					"name": "",
					"type": "string"
				}
			],
			"stateMutability": "view",
			"type": "function"
		},
		{
			"inputs": [
				{
					"internalType": "string",
					"name": "quizName",
					"type": "string"
				},
				{
					"components": [
						{
							"internalType": "string",
							"name": "question",
							"type": "string"
						},
						{
							"internalType": "uint256",
							"name": "correctAnswer",
							"type": "uint256"
						},
						{
							"internalType": "string",
							"name": "description",
							"type": "string"
						}
					],
					"internalType": "struct QuizContract.Question[]",
					"name": "questions",
					"type": "tuple[]"
				},
				{
					"internalType": "string[]",
					"name": "answers",
					"type": "string[]"
				}
			],
			"name": "createQuiz",
			"outputs": [],
			"stateMutability": "nonpayable",
			"type": "function"
		},
		{
			"inputs": [],
			"name": "ereQuiz",
			"outputs": [],
			"stateMutability": "nonpayable",
			"type": "function"
		},
		{
			"inputs": [
				{
					"internalType": "string",
					"name": "quizName",
					"type": "string"
				}
			],
			"name": "getQuizAnswers",
			"outputs": [
				{
					"internalType": "uint256[][]",
					"name": "",
					"type": "uint256[][]"
				}
			],
			"stateMutability": "nonpayable",
			"type": "function"
		},
		{
			"inputs": [
				{
					"internalType": "string",
					"name": "quizName",
					"type": "string"
				}
			],
			"name": "getQuizQuestions",
			"outputs": [
				{
					"components": [
						{
							"internalType": "string",
							"name": "question",
							"type": "string"
						},
						{
							"internalType": "uint256",
							"name": "correctAnswer",
							"type": "uint256"
						},
						{
							"internalType": "string",
							"name": "description",
							"type": "string"
						}
					],
					"internalType": "struct QuizContract.Question[]",
					"name": "",
					"type": "tuple[]"
				}
			],
			"stateMutability": "view",
			"type": "function"
		},
		{
			"inputs": [
				{
					"internalType": "string",
					"name": "",
					"type": "string"
				},
				{
					"internalType": "uint256",
					"name": "",
					"type": "uint256"
				}
			],
			"name": "quizMap",
			"outputs": [
				{
					"internalType": "string",
					"name": "question",
					"type": "string"
				},
				{
					"internalType": "uint256",
					"name": "correctAnswer",
					"type": "uint256"
				},
				{
					"internalType": "string",
					"name": "description",
					"type": "string"
				}
			],
			"stateMutability": "view",
			"type": "function"
		},
		{
			"inputs": [
				{
					"internalType": "string",
					"name": "",
					"type": "string"
				}
			],
			"name": "quizSizeMap",
			"outputs": [
				{
					"internalType": "uint256",
					"name": "",
					"type": "uint256"
				}
			],
			"stateMutability": "view",
			"type": "function"
		},
		{
			"inputs": [],
			"name": "romanQuiz",
			"outputs": [],
			"stateMutability": "nonpayable",
			"type": "function"
		}
	]
}