{
	"data": {
		"bytecode": {
			"linkReferences": {},
			"object": "60806040523480156200001157600080fd5b50620000226200003860201b60201c565b6200003262000c4d60201b60201c565b62001d6b565b6040518060400160405280600881526020017f417572656c69616e00000000000000000000000000000000000000000000000081525060006040516200007e9062001c52565b9081526020016040518091039020600080815260200190815260200160002060008081526020019081526020016000209080519060200190620000c392919062001b16565b506040518060400160405280600881526020017f417567757374757300000000000000000000000000000000000000000000000081525060006040516200010a9062001c52565b9081526020016040518091039020600080815260200190815260200160002060006001815260200190815260200160002090805190602001906200015092919062001b16565b506040518060400160405280600681526020017f4a756c69616e00000000000000000000000000000000000000000000000000008152506000604051620001979062001c52565b908152602001604051809103902060008081526020019081526020016000206000600281526020019081526020016000209080519060200190620001dd92919062001b16565b506040518060400160405280600681526020017f56616c656e7300000000000000000000000000000000000000000000000000008152506000604051620002249062001c52565b9081526020016040518091039020600080815260200190815260200160002060006003815260200190815260200160002090805190602001906200026a92919062001b16565b506040518060400160405280600881526020017f5374696c6963686f0000000000000000000000000000000000000000000000008152506000604051620002b19062001c3b565b908152602001604051809103902060006002815260200190815260200160002060008081526020019081526020016000209080519060200190620002f792919062001b16565b506040518060400160405280600681526020017f416574697573000000000000000000000000000000000000000000000000000081525060006040516200033e9062001c3b565b908152602001604051809103902060006002815260200190815260200160002060006001815260200190815260200160002090805190602001906200038592919062001b16565b506040518060400160405280600881526020017f4d616a6f7269616e0000000000000000000000000000000000000000000000008152506000604051620003cc9062001c3b565b908152602001604051809103902060006002815260200190815260200160002060006002815260200190815260200160002090805190602001906200041392919062001b16565b506040518060400160405280600f81526020017f56616c656e74696e69616e20494949000000000000000000000000000000000081525060006040516200045a9062001c3b565b90815260200160405180910390206000600281526020019081526020016000206000600381526020019081526020016000209080519060200190620004a192919062001b16565b506040518060400160405280600481526020017f526f6d65000000000000000000000000000000000000000000000000000000008152506000604051620004e89062001c3b565b9081526020016040518091039020600060038152602001908152602001600020600080815260200190815260200160002090805190602001906200052e92919062001b16565b506040518060400160405280600581526020017f4d696c616e0000000000000000000000000000000000000000000000000000008152506000604051620005759062001c3b565b90815260200160405180910390206000600381526020019081526020016000206000600181526020019081526020016000209080519060200190620005bc92919062001b16565b506040518060400160405280600781526020017f526176656e6e61000000000000000000000000000000000000000000000000008152506000604051620006039062001c3b565b908152602001604051809103902060006003815260200190815260200160002060006002815260200190815260200160002090805190602001906200064a92919062001b16565b506040518060400160405280600681526020017f4e61706c657300000000000000000000000000000000000000000000000000008152506000604051620006919062001c3b565b90815260200160405180910390206000600381526020019081526020016000206000600381526020019081526020016000209080519060200190620006d892919062001b16565b506040518060400160405280600b81526020017f41647269616e6f706f6c6500000000000000000000000000000000000000000081525060006040516200071f9062001c3b565b9081526020016040518091039020600060048152602001908152602001600020600080815260200190815260200160002090805190602001906200076592919062001b16565b506040518060400160405280600e81526020017f4c616b652054726173696d656e650000000000000000000000000000000000008152506000604051620007ac9062001c3b565b90815260200160405180910390206000600481526020019081526020016000206000600181526020019081526020016000209080519060200190620007f392919062001b16565b506040518060400160405280600781526020017f436172726861650000000000000000000000000000000000000000000000000081525060006040516200083a9062001c3b565b908152602001604051809103902060006004815260200190815260200160002060006002815260200190815260200160002090805190602001906200088192919062001b16565b506040518060400160405280600a81526020017f4964697374617669736f000000000000000000000000000000000000000000008152506000604051620008c89062001c3b565b908152602001604051809103902060006004815260200190815260200160002060006003815260200190815260200160002090805190602001906200090f92919062001b16565b50600060405180606001604052806040518060600160405280603f81526020016200548d603f91398152602001600081526020016040518060c0016040528060858152602001620052f0608591398152509050600060405180606001604052806040518060800160405280605d815260200162005375605d91398152602001600181526020016040518060c001604052806095815260200162005a9b6095913981525090506000604051806060016040528060405180608001604052806051815260200162005b30605191398152602001600281526020016040518060a00160405280608081526020016200569d608091398152509050600060405180606001604052806040518060600160405280603281526020016200545b603291398152602001600381526020016040518060e0016040528060b28152602001620058ad60b29139815250905083600160405162000a699062001c3b565b90815260200160405180910390206000808152602001908152602001600020600082015181600001908051906020019062000aa692919062001b16565b5060208201518160010155604082015181600201908051906020019062000acf92919062001b16565b5090505082600160405162000ae49062001c3b565b9081526020016040518091039020600060018152602001908152602001600020600082015181600001908051906020019062000b2292919062001b16565b5060208201518160010155604082015181600201908051906020019062000b4b92919062001b16565b5090505081600160405162000b609062001c3b565b9081526020016040518091039020600060028152602001908152602001600020600082015181600001908051906020019062000b9e92919062001b16565b5060208201518160010155604082015181600201908051906020019062000bc792919062001b16565b5090505080600160405162000bdc9062001c3b565b9081526020016040518091039020600060038152602001908152602001600020600082015181600001908051906020019062000c1a92919062001b16565b5060208201518160010155604082015181600201908051906020019062000c4392919062001b16565b5090505050505050565b6040518060400160405280600681526020017f4d756e6475730000000000000000000000000000000000000000000000000000815250600060405162000c939062001c69565b908152602001604051809103902060008081526020019081526020016000206000808152602001908152602001600020908051906020019062000cd892919062001b16565b506040518060400160405280600681526020017f4265737361730000000000000000000000000000000000000000000000000000815250600060405162000d1f9062001c69565b90815260200160405180910390206000808152602001908152602001600020600060018152602001908152602001600020908051906020019062000d6592919062001b16565b506040518060400160405280600a81526020017f42656c6973617269757300000000000000000000000000000000000000000000815250600060405162000dac9062001c69565b90815260200160405180910390206000808152602001908152602001600020600060028152602001908152602001600020908051906020019062000df292919062001b16565b506040518060400160405280600681526020017f5369747461730000000000000000000000000000000000000000000000000000815250600060405162000e399062001c69565b90815260200160405180910390206000808152602001908152602001600020600060038152602001908152602001600020908051906020019062000e7f92919062001b16565b50604051806060016040528060398152602001620054cc60399139600060405162000eaa9062001c69565b90815260200160405180910390206000600281526020019081526020016000206000808152602001908152602001600020908051906020019062000ef092919062001b16565b506040518060600160405280602a815260200162005883602a9139600060405162000f1b9062001c69565b9081526020016040518091039020600060028152602001908152602001600020600060018152602001908152602001600020908051906020019062000f6292919062001b16565b506040518060600160405280602c815260200162005671602c9139600060405162000f8d9062001c69565b9081526020016040518091039020600060028152602001908152602001600020600060028152602001908152602001600020908051906020019062000fd492919062001b16565b506040518060400160405280602081526020017f5065727369616e2064657369726520746f20636f6e717565722045677970742e81525060006040516200101b9062001c69565b908152602001604051809103902060006002815260200190815260200160002060006003815260200190815260200160002090805190602001906200106292919062001b16565b506040518060400160405280600781526020017f426173696c2049000000000000000000000000000000000000000000000000008152506000604051620010a99062001c69565b908152602001604051809103902060006003815260200190815260200160002060008081526020019081526020016000209080519060200190620010ef92919062001b16565b506040518060400160405280601481526020017f4e696b6570686f726f732049492050686f6b61730000000000000000000000008152506000604051620011369062001c69565b908152602001604051809103902060006003815260200190815260200160002060006001815260200190815260200160002090805190602001906200117d92919062001b16565b506040518060400160405280601081526020017f4a6f686e204920547a696d69736b6573000000000000000000000000000000008152506000604051620011c49062001c69565b908152602001604051809103902060006003815260200190815260200160002060006002815260200190815260200160002090805190602001906200120b92919062001b16565b506040518060400160405280600a81526020017f526f6d616e6f73204949000000000000000000000000000000000000000000008152506000604051620012529062001c69565b908152602001604051809103902060006003815260200190815260200160002060006003815260200190815260200160002090805190602001906200129992919062001b16565b506040518060400160405280600781526020017f5961726d6f756b000000000000000000000000000000000000000000000000008152506000604051620012e09062001c69565b9081526020016040518091039020600060048152602001908152602001600020600080815260200190815260200160002090805190602001906200132692919062001b16565b506040518060400160405280600681526020017f506c69736b61000000000000000000000000000000000000000000000000000081525060006040516200136d9062001c69565b90815260200160405180910390206000600481526020019081526020016000206000600181526020019081526020016000209080519060200190620013b492919062001b16565b506040518060400160405280600981526020017f43616c696e6963756d00000000000000000000000000000000000000000000008152506000604051620013fb9062001c69565b908152602001604051809103902060006004815260200190815260200160002060006002815260200190815260200160002090805190602001906200144292919062001b16565b506040518060400160405280600981526020017f4d616e7a696b65727400000000000000000000000000000000000000000000008152506000604051620014899062001c69565b90815260200160405180910390206000600481526020019081526020016000206000600381526020019081526020016000209080519060200190620014d092919062001b16565b506040518060400160405280600881526020017f43617274686167650000000000000000000000000000000000000000000000008152506000604051620015179062001c69565b9081526020016040518091039020600060058152602001908152602001600020600080815260200190815260200160002090805190602001906200155d92919062001b16565b506040518060400160405280600781526020017f416e74696f6368000000000000000000000000000000000000000000000000008152506000604051620015a49062001c69565b90815260200160405180910390206000600581526020019081526020016000206000600181526020019081526020016000209080519060200190620015eb92919062001b16565b506040518060400160405280600b81526020017f41647269616e6f706f6c650000000000000000000000000000000000000000008152506000604051620016329062001c69565b908152602001604051809103902060006005815260200190815260200160002060006002815260200190815260200160002090805190602001906200167992919062001b16565b506040518060400160405280600c81526020017f54686573616c6c6f6e696b6900000000000000000000000000000000000000008152506000604051620016c09062001c69565b908152602001604051809103902060006005815260200190815260200160002060006003815260200190815260200160002090805190602001906200170792919062001b16565b50600060405180606001604052806040518060600160405280603d81526020016200571d603d91398152602001600281526020016040518060c00160405280608381526020016200550560839139815250905060006040518060600160405280604051806060016040528060378152602001620059df6037913981526020016000815260200160405180610120016040528060f081526020016200579360f091398152509050600060405180606001604052806040518060600160405280603981526020016200575a603991398152602001600181526020016040518060c0016040528060898152602001620053d2608991398152509050600060405180606001604052806040518060600160405280602d81526020016200595f602d913981526020016003815260200160405180610120016040528060e981526020016200558860e991398152509050600060405180606001604052806040518060800160405280605381526020016200598c605391398152602001600081526020016040518060c001604052806085815260200162005a16608591398152509050846001604051620018b59062001c69565b908152602001604051809103902060008081526020019081526020016000206000820151816000019080519060200190620018f292919062001b16565b506020820151816001015560408201518160020190805190602001906200191b92919062001b16565b50905050836001604051620019309062001c69565b908152602001604051809103902060006001815260200190815260200160002060008201518160000190805190602001906200196e92919062001b16565b506020820151816001015560408201518160020190805190602001906200199792919062001b16565b50905050826001604051620019ac9062001c69565b90815260200160405180910390206000600281526020019081526020016000206000820151816000019080519060200190620019ea92919062001b16565b5060208201518160010155604082015181600201908051906020019062001a1392919062001b16565b5090505081600160405162001a289062001c69565b9081526020016040518091039020600060038152602001908152602001600020600082015181600001908051906020019062001a6692919062001b16565b5060208201518160010155604082015181600201908051906020019062001a8f92919062001b16565b5090505080600160405162001aa49062001c69565b9081526020016040518091039020600060048152602001908152602001600020600082015181600001908051906020019062001ae292919062001b16565b5060208201518160010155604082015181600201908051906020019062001b0b92919062001b16565b509050505050505050565b82805462001b249062001c8b565b90600052602060002090601f01602090048101928262001b48576000855562001b94565b82601f1062001b6357805160ff191683800117855562001b94565b8280016001018555821562001b94579182015b8281111562001b9357825182559160200191906001019062001b76565b5b50905062001ba3919062001ba7565b5090565b5b8082111562001bc257600081600090555060010162001ba8565b5090565b600062001bd560148362001c80565b915062001be28262001cf0565b601482019050919050565b600062001bfc60138362001c80565b915062001c098262001d19565b601382019050919050565b600062001c2360158362001c80565b915062001c308262001d42565b601582019050919050565b600062001c488262001bc6565b9150819050919050565b600062001c5f8262001bed565b9150819050919050565b600062001c768262001c14565b9150819050919050565b600081905092915050565b6000600282049050600182168062001ca457607f821691505b6020821081141562001cbb5762001cba62001cc1565b5b50919050565b7f4e487b7100000000000000000000000000000000000000000000000000000000600052602260045260246000fd5b7f416e6369656e7420526f6d616e20456d70697265000000000000000000000000600082015250565b7f416e6369656e7420526f6d616e20456d70696500000000000000000000000000600082015250565b7f4d6564696576616c20526f6d616e20456d706972650000000000000000000000600082015250565b6135758062001d7b6000396000f3fe608060405234801561001057600080fd5b50600436106100625760003560e01c806304f268ed14610067578063077a3735146100715780637ede6fdf1461008d578063961c37cc146100bf578063b6c56385146100c9578063e6c1e335146100f9575b600080fd5b61006f610129565b005b61008b600480360381019061008691906124ba565b610f77565b005b6100a760048036038101906100a29190612561565b61102d565b6040516100b6939291906128d0565b60405180910390f35b6100c761118a565b005b6100e360048036038101906100de9190612471565b611d3f565b6040516100f0919061288c565b60405180910390f35b610113600480360381019061010e91906125bd565b612065565b60405161012091906128ae565b60405180910390f35b6040518060400160405280600681526020017f4d756e6475730000000000000000000000000000000000000000000000000000815250600060405161016d90612877565b90815260200160405180910390206000808152602001908152602001600020600080815260200190815260200160002090805190602001906101b0929190612135565b506040518060400160405280600681526020017f426573736173000000000000000000000000000000000000000000000000000081525060006040516101f590612877565b908152602001604051809103902060008081526020019081526020016000206000600181526020019081526020016000209080519060200190610239929190612135565b506040518060400160405280600a81526020017f42656c6973617269757300000000000000000000000000000000000000000000815250600060405161027e90612877565b9081526020016040518091039020600080815260200190815260200160002060006002815260200190815260200160002090805190602001906102c2929190612135565b506040518060400160405280600681526020017f5369747461730000000000000000000000000000000000000000000000000000815250600060405161030790612877565b90815260200160405180910390206000808152602001908152602001600020600060038152602001908152602001600020908051906020019061034b929190612135565b50604051806060016040528060398152602001612e8b60399139600060405161037390612877565b9081526020016040518091039020600060028152602001908152602001600020600080815260200190815260200160002090805190602001906103b7929190612135565b506040518060600160405280602a8152602001613242602a913960006040516103df90612877565b90815260200160405180910390206000600281526020019081526020016000206000600181526020019081526020016000209080519060200190610424929190612135565b506040518060600160405280602c8152602001613030602c9139600060405161044c90612877565b90815260200160405180910390206000600281526020019081526020016000206000600281526020019081526020016000209080519060200190610491929190612135565b506040518060400160405280602081526020017f5065727369616e2064657369726520746f20636f6e717565722045677970742e81525060006040516104d690612877565b9081526020016040518091039020600060028152602001908152602001600020600060038152602001908152602001600020908051906020019061051b929190612135565b506040518060400160405280600781526020017f426173696c204900000000000000000000000000000000000000000000000000815250600060405161056090612877565b9081526020016040518091039020600060038152602001908152602001600020600080815260200190815260200160002090805190602001906105a4929190612135565b506040518060400160405280601481526020017f4e696b6570686f726f732049492050686f6b617300000000000000000000000081525060006040516105e990612877565b9081526020016040518091039020600060038152602001908152602001600020600060018152602001908152602001600020908051906020019061062e929190612135565b506040518060400160405280601081526020017f4a6f686e204920547a696d69736b657300000000000000000000000000000000815250600060405161067390612877565b908152602001604051809103902060006003815260200190815260200160002060006002815260200190815260200160002090805190602001906106b8929190612135565b506040518060400160405280600a81526020017f526f6d616e6f732049490000000000000000000000000000000000000000000081525060006040516106fd90612877565b90815260200160405180910390206000600381526020019081526020016000206000600381526020019081526020016000209080519060200190610742929190612135565b506040518060400160405280600781526020017f5961726d6f756b00000000000000000000000000000000000000000000000000815250600060405161078790612877565b9081526020016040518091039020600060048152602001908152602001600020600080815260200190815260200160002090805190602001906107cb929190612135565b506040518060400160405280600681526020017f506c69736b610000000000000000000000000000000000000000000000000000815250600060405161081090612877565b90815260200160405180910390206000600481526020019081526020016000206000600181526020019081526020016000209080519060200190610855929190612135565b506040518060400160405280600981526020017f43616c696e6963756d0000000000000000000000000000000000000000000000815250600060405161089a90612877565b908152602001604051809103902060006004815260200190815260200160002060006002815260200190815260200160002090805190602001906108df929190612135565b506040518060400160405280600981526020017f4d616e7a696b6572740000000000000000000000000000000000000000000000815250600060405161092490612877565b90815260200160405180910390206000600481526020019081526020016000206000600381526020019081526020016000209080519060200190610969929190612135565b506040518060400160405280600881526020017f436172746861676500000000000000000000000000000000000000000000000081525060006040516109ae90612877565b9081526020016040518091039020600060058152602001908152602001600020600080815260200190815260200160002090805190602001906109f2929190612135565b506040518060400160405280600781526020017f416e74696f6368000000000000000000000000000000000000000000000000008152506000604051610a3790612877565b90815260200160405180910390206000600581526020019081526020016000206000600181526020019081526020016000209080519060200190610a7c929190612135565b506040518060400160405280600b81526020017f41647269616e6f706f6c650000000000000000000000000000000000000000008152506000604051610ac190612877565b90815260200160405180910390206000600581526020019081526020016000206000600281526020019081526020016000209080519060200190610b06929190612135565b506040518060400160405280600c81526020017f54686573616c6c6f6e696b6900000000000000000000000000000000000000008152506000604051610b4b90612877565b90815260200160405180910390206000600581526020019081526020016000206000600381526020019081526020016000209080519060200190610b90929190612135565b50600060405180606001604052806040518060600160405280603d81526020016130dc603d91398152602001600281526020016040518060c0016040528060838152602001612ec46083913981525090506000604051806060016040528060405180606001604052806037815260200161339e6037913981526020016000815260200160405180610120016040528060f0815260200161315260f09139815250905060006040518060600160405280604051806060016040528060398152602001613119603991398152602001600181526020016040518060c0016040528060898152602001612d91608991398152509050600060405180606001604052806040518060600160405280602d815260200161331e602d913981526020016003815260200160405180610120016040528060e98152602001612f4760e9913981525090506000604051806060016040528060405180608001604052806053815260200161334b605391398152602001600081526020016040518060c00160405280608581526020016133d5608591398152509050846001604051610d3290612877565b908152602001604051809103902060008081526020019081526020016000206000820151816000019080519060200190610d6d929190612135565b50602082015181600101556040820151816002019080519060200190610d94929190612135565b50905050836001604051610da790612877565b90815260200160405180910390206000600181526020019081526020016000206000820151816000019080519060200190610de3929190612135565b50602082015181600101556040820151816002019080519060200190610e0a929190612135565b50905050826001604051610e1d90612877565b90815260200160405180910390206000600281526020019081526020016000206000820151816000019080519060200190610e59929190612135565b50602082015181600101556040820151816002019080519060200190610e80929190612135565b50905050816001604051610e9390612877565b90815260200160405180910390206000600381526020019081526020016000206000820151816000019080519060200190610ecf929190612135565b50602082015181600101556040820151816002019080519060200190610ef6929190612135565b50905050806001604051610f0990612877565b90815260200160405180910390206000600481526020019081526020016000206000820151816000019080519060200190610f45929190612135565b50602082015181600101556040820151816002019080519060200190610f6c929190612135565b509050505050505050565b60005b825181101561102757828181518110610f9657610f95612b8a565b5b6020026020010151600185604051610fae9190612836565b908152602001604051809103902060008381526020019081526020016000206000820151816000019080519060200190610fe9929190612135565b50602082015181600101556040820151816002019080519060200190611010929190612135565b50905050808061101f90612ae3565b915050610f7a565b50505050565b6001828051602081018201805184825260208301602085012081835280955050505050506020528060005260406000206000915091505080600001805461107390612a80565b80601f016020809104026020016040519081016040528092919081815260200182805461109f90612a80565b80156110ec5780601f106110c1576101008083540402835291602001916110ec565b820191906000526020600020905b8154815290600101906020018083116110cf57829003601f168201915b50505050509080600101549080600201805461110790612a80565b80601f016020809104026020016040519081016040528092919081815260200182805461113390612a80565b80156111805780601f1061115557610100808354040283529160200191611180565b820191906000526020600020905b81548152906001019060200180831161116357829003601f168201915b5050505050905083565b6040518060400160405280600881526020017f417572656c69616e00000000000000000000000000000000000000000000000081525060006040516111ce90612862565b9081526020016040518091039020600080815260200190815260200160002060008081526020019081526020016000209080519060200190611211929190612135565b506040518060400160405280600881526020017f4175677573747573000000000000000000000000000000000000000000000000815250600060405161125690612862565b90815260200160405180910390206000808152602001908152602001600020600060018152602001908152602001600020908051906020019061129a929190612135565b506040518060400160405280600681526020017f4a756c69616e000000000000000000000000000000000000000000000000000081525060006040516112df90612862565b908152602001604051809103902060008081526020019081526020016000206000600281526020019081526020016000209080519060200190611323929190612135565b506040518060400160405280600681526020017f56616c656e730000000000000000000000000000000000000000000000000000815250600060405161136890612862565b9081526020016040518091039020600080815260200190815260200160002060006003815260200190815260200160002090805190602001906113ac929190612135565b506040518060400160405280600881526020017f5374696c6963686f00000000000000000000000000000000000000000000000081525060006040516113f19061284d565b908152602001604051809103902060006002815260200190815260200160002060008081526020019081526020016000209080519060200190611435929190612135565b506040518060400160405280600681526020017f4165746975730000000000000000000000000000000000000000000000000000815250600060405161147a9061284d565b908152602001604051809103902060006002815260200190815260200160002060006001815260200190815260200160002090805190602001906114bf929190612135565b506040518060400160405280600881526020017f4d616a6f7269616e00000000000000000000000000000000000000000000000081525060006040516115049061284d565b90815260200160405180910390206000600281526020019081526020016000206000600281526020019081526020016000209080519060200190611549929190612135565b506040518060400160405280600f81526020017f56616c656e74696e69616e204949490000000000000000000000000000000000815250600060405161158e9061284d565b908152602001604051809103902060006002815260200190815260200160002060006003815260200190815260200160002090805190602001906115d3929190612135565b506040518060400160405280600481526020017f526f6d650000000000000000000000000000000000000000000000000000000081525060006040516116189061284d565b90815260200160405180910390206000600381526020019081526020016000206000808152602001908152602001600020908051906020019061165c929190612135565b506040518060400160405280600581526020017f4d696c616e00000000000000000000000000000000000000000000000000000081525060006040516116a19061284d565b908152602001604051809103902060006003815260200190815260200160002060006001815260200190815260200160002090805190602001906116e6929190612135565b506040518060400160405280600781526020017f526176656e6e6100000000000000000000000000000000000000000000000000815250600060405161172b9061284d565b90815260200160405180910390206000600381526020019081526020016000206000600281526020019081526020016000209080519060200190611770929190612135565b506040518060400160405280600681526020017f4e61706c6573000000000000000000000000000000000000000000000000000081525060006040516117b59061284d565b908152602001604051809103902060006003815260200190815260200160002060006003815260200190815260200160002090805190602001906117fa929190612135565b506040518060400160405280600b81526020017f41647269616e6f706f6c65000000000000000000000000000000000000000000815250600060405161183f9061284d565b908152602001604051809103902060006004815260200190815260200160002060008081526020019081526020016000209080519060200190611883929190612135565b506040518060400160405280600e81526020017f4c616b652054726173696d656e6500000000000000000000000000000000000081525060006040516118c89061284d565b9081526020016040518091039020600060048152602001908152602001600020600060018152602001908152602001600020908051906020019061190d929190612135565b506040518060400160405280600781526020017f436172726861650000000000000000000000000000000000000000000000000081525060006040516119529061284d565b90815260200160405180910390206000600481526020019081526020016000206000600281526020019081526020016000209080519060200190611997929190612135565b506040518060400160405280600a81526020017f4964697374617669736f0000000000000000000000000000000000000000000081525060006040516119dc9061284d565b90815260200160405180910390206000600481526020019081526020016000206000600381526020019081526020016000209080519060200190611a21929190612135565b50600060405180606001604052806040518060600160405280603f8152602001612e4c603f91398152602001600081526020016040518060c0016040528060858152602001612caf608591398152509050600060405180606001604052806040518060800160405280605d8152602001612d34605d91398152602001600181526020016040518060c001604052806095815260200161345a609591398152509050600060405180606001604052806040518060800160405280605181526020016134ef605191398152602001600281526020016040518060a001604052806080815260200161305c60809139815250905060006040518060600160405280604051806060016040528060328152602001612e1a603291398152602001600381526020016040518060e0016040528060b2815260200161326c60b291398152509050836001604051611b719061284d565b908152602001604051809103902060008081526020019081526020016000206000820151816000019080519060200190611bac929190612135565b50602082015181600101556040820151816002019080519060200190611bd3929190612135565b50905050826001604051611be69061284d565b90815260200160405180910390206000600181526020019081526020016000206000820151816000019080519060200190611c22929190612135565b50602082015181600101556040820151816002019080519060200190611c49929190612135565b50905050816001604051611c5c9061284d565b90815260200160405180910390206000600281526020019081526020016000206000820151816000019080519060200190611c98929190612135565b50602082015181600101556040820151816002019080519060200190611cbf929190612135565b50905050806001604051611cd29061284d565b90815260200160405180910390206000600381526020019081526020016000206000820151816000019080519060200190611d0e929190612135565b50602082015181600101556040820151816002019080519060200190611d35929190612135565b5090505050505050565b60606000600183604051611d539190612836565b90815260200160405180910390206000808152602001908152602001600020604051806060016040529081600082018054611d8d90612a80565b80601f0160208091040260200160405190810160405280929190818152602001828054611db990612a80565b8015611e065780601f10611ddb57610100808354040283529160200191611e06565b820191906000526020600020905b815481529060010190602001808311611de957829003601f168201915b5050505050815260200160018201548152602001600282018054611e2990612a80565b80601f0160208091040260200160405190810160405280929190818152602001828054611e5590612a80565b8015611ea25780601f10611e7757610100808354040283529160200191611ea2565b820191906000526020600020905b815481529060010190602001808311611e8557829003601f168201915b50505050508152505090506000600184604051611ebf9190612836565b90815260200160405180910390209050606060005b600581101561205957826000828152602001908152602001600020604051806060016040529081600082018054611f0a90612a80565b80601f0160208091040260200160405190810160405280929190818152602001828054611f3690612a80565b8015611f835780601f10611f5857610100808354040283529160200191611f83565b820191906000526020600020905b815481529060010190602001808311611f6657829003601f168201915b5050505050815260200160018201548152602001600282018054611fa690612a80565b80601f0160208091040260200160405190810160405280929190818152602001828054611fd290612a80565b801561201f5780601f10611ff45761010080835404028352916020019161201f565b820191906000526020600020905b81548152906001019060200180831161200257829003601f168201915b50505050508152505082828151811061203b5761203a612b8a565b5b6020026020010181905250808061205190612ae3565b915050611ed4565b50809350505050919050565b600083805160208101820180518482526020830160208501208183528095505050505050602052816000526040600020602052806000526040600020600092509250505080546120b490612a80565b80601f01602080910402602001604051908101604052809291908181526020018280546120e090612a80565b801561212d5780601f106121025761010080835404028352916020019161212d565b820191906000526020600020905b81548152906001019060200180831161211057829003601f168201915b505050505081565b82805461214190612a80565b90600052602060002090601f01602090048101928261216357600085556121aa565b82601f1061217c57805160ff19168380011785556121aa565b828001600101855582156121aa579182015b828111156121a957825182559160200191906001019061218e565b5b5090506121b791906121bb565b5090565b5b808211156121d45760008160009055506001016121bc565b5090565b60006121eb6121e68461293a565b612915565b9050808382526020820190508285602086028201111561220e5761220d612bf7565b5b60005b8581101561225c57813567ffffffffffffffff81111561223457612233612be8565b5b8086016122418982612392565b85526020850194506020840193505050600181019050612211565b5050509392505050565b600061227961227484612966565b612915565b9050808382526020820190508285602086028201111561229c5761229b612bf7565b5b60005b858110156122ea57813567ffffffffffffffff8111156122c2576122c1612be8565b5b8086016122cf89826123c0565b8552602085019450602084019350505060018101905061229f565b5050509392505050565b600061230761230284612992565b612915565b90508281526020810184848401111561232357612322612bfc565b5b61232e848285612a3e565b509392505050565b600082601f83011261234b5761234a612be8565b5b813561235b8482602086016121d8565b91505092915050565b600082601f83011261237957612378612be8565b5b8135612389848260208601612266565b91505092915050565b600082601f8301126123a7576123a6612be8565b5b81356123b78482602086016122f4565b91505092915050565b6000606082840312156123d6576123d5612bed565b5b6123e06060612915565b9050600082013567ffffffffffffffff811115612400576123ff612bf2565b5b61240c84828501612392565b60008301525060206124208482850161245c565b602083015250604082013567ffffffffffffffff81111561244457612443612bf2565b5b61245084828501612392565b60408301525092915050565b60008135905061246b81612c97565b92915050565b60006020828403121561248757612486612c06565b5b600082013567ffffffffffffffff8111156124a5576124a4612c01565b5b6124b184828501612392565b91505092915050565b6000806000606084860312156124d3576124d2612c06565b5b600084013567ffffffffffffffff8111156124f1576124f0612c01565b5b6124fd86828701612392565b935050602084013567ffffffffffffffff81111561251e5761251d612c01565b5b61252a86828701612364565b925050604084013567ffffffffffffffff81111561254b5761254a612c01565b5b61255786828701612336565b9150509250925092565b6000806040838503121561257857612577612c06565b5b600083013567ffffffffffffffff81111561259657612595612c01565b5b6125a285828601612392565b92505060206125b38582860161245c565b9150509250929050565b6000806000606084860312156125d6576125d5612c06565b5b600084013567ffffffffffffffff8111156125f4576125f3612c01565b5b61260086828701612392565b93505060206126118682870161245c565b92505060406126228682870161245c565b9150509250925092565b600061263883836127c1565b905092915050565b600061264b826129d3565b61265581856129f6565b935083602082028501612667856129c3565b8060005b858110156126a35784840389528151612684858261262c565b945061268f836129e9565b925060208a0199505060018101905061266b565b50829750879550505050505092915050565b60006126c0826129de565b6126ca8185612a07565b93506126da818560208601612a4d565b6126e381612c0b565b840191505092915050565b60006126f9826129de565b6127038185612a18565b9350612713818560208601612a4d565b61271c81612c0b565b840191505092915050565b6000612732826129de565b61273c8185612a29565b935061274c818560208601612a4d565b80840191505092915050565b6000612765601483612a29565b915061277082612c1c565b601482019050919050565b6000612788601383612a29565b915061279382612c45565b601382019050919050565b60006127ab601583612a29565b91506127b682612c6e565b601582019050919050565b600060608301600083015184820360008601526127de82826126b5565b91505060208301516127f36020860182612818565b506040830151848203604086015261280b82826126b5565b9150508091505092915050565b61282181612a34565b82525050565b61283081612a34565b82525050565b60006128428284612727565b915081905092915050565b600061285882612758565b9150819050919050565b600061286d8261277b565b9150819050919050565b60006128828261279e565b9150819050919050565b600060208201905081810360008301526128a68184612640565b905092915050565b600060208201905081810360008301526128c881846126ee565b905092915050565b600060608201905081810360008301526128ea81866126ee565b90506128f96020830185612827565b818103604083015261290b81846126ee565b9050949350505050565b600061291f612930565b905061292b8282612ab2565b919050565b6000604051905090565b600067ffffffffffffffff82111561295557612954612bb9565b5b602082029050602081019050919050565b600067ffffffffffffffff82111561298157612980612bb9565b5b602082029050602081019050919050565b600067ffffffffffffffff8211156129ad576129ac612bb9565b5b6129b682612c0b565b9050602081019050919050565b6000819050602082019050919050565b600081519050919050565b600081519050919050565b6000602082019050919050565b600082825260208201905092915050565b600082825260208201905092915050565b600082825260208201905092915050565b600081905092915050565b6000819050919050565b82818337600083830152505050565b60005b83811015612a6b578082015181840152602081019050612a50565b83811115612a7a576000848401525b50505050565b60006002820490506001821680612a9857607f821691505b60208210811415612aac57612aab612b5b565b5b50919050565b612abb82612c0b565b810181811067ffffffffffffffff82111715612ada57612ad9612bb9565b5b80604052505050565b6000612aee82612a34565b91507fffffffffffffffffffffffffffffffffffffffffffffffffffffffffffffffff821415612b2157612b20612b2c565b5b600182019050919050565b7f4e487b7100000000000000000000000000000000000000000000000000000000600052601160045260246000fd5b7f4e487b7100000000000000000000000000000000000000000000000000000000600052602260045260246000fd5b7f4e487b7100000000000000000000000000000000000000000000000000000000600052603260045260246000fd5b7f4e487b7100000000000000000000000000000000000000000000000000000000600052604160045260246000fd5b600080fd5b600080fd5b600080fd5b600080fd5b600080fd5b600080fd5b600080fd5b6000601f19601f8301169050919050565b7f416e6369656e7420526f6d616e20456d70697265000000000000000000000000600082015250565b7f416e6369656e7420526f6d616e20456d70696500000000000000000000000000600082015250565b7f4d6564696576616c20526f6d616e20456d706972650000000000000000000000600082015250565b612ca081612a34565b8114612cab57600080fd5b5056fe54686973207469746c652077617320676976656e20746f20417572656c69616e206166746572206865207265696e7465677261746564207365706172617469737420737461746573206f662050616c6d6572696e6520616e642047616c6c696320456d706972657320696e2032373320616e642032373420726573706563746976656c792e426174746c65206f6620436174616c756e79616e20506c61696e73206973207365656e20617320526f6d652773206c61737420677265617420766963746f72792e2057686f20636f6d6d616e64656420526f6d616e20666f726365733f4974207761732061206e69636b6e616d65206f66204e696b6570686f726f732049492050686f6b61732c206561726e656420627920686973206d616e7920766963746f7269657320616761696e73742041726162696320666f726365732c20696e636c7564696e67207265636f6e7175657374206f6620437265746520616e642043696c696369612e5768696368206f6620746865736520626174746c65732064696420656e64207769746820526f6d616e20766963746f72793f5768696368206f6620746865736520526f6d616e20656d7065726f727320776173207469746c656420526573746f726572206f662074686520576f726c643f446573697265206f66205065727369616e207368616820746f206176656e6765206d7572646572206f6620526f6d616e20656d7065726f722e42656c69736172697573206c656420526f6d616e20666f7263657320616761696e73742056616e64616c69632061726d7920756e6465722047656c696d657220616e64206869732062726f7468657220416d6d617461732e20526f6d616e20766963746f7279206c656420746f207265636f6e7175657374206f66204166726963612e446566656174206f6620526f6d616e6f73204956206174204d616e7a696b65727420696e203130373120636175736564206d617373697665206368616f7320696e20526f6d616e20656d706972652e205768656e20656d7065726f7220416c6578696f73204b6f6d6e656e6f7320747269656420746f20756e646f207468652064616d61676520616e64207265636c61696d20416e61746f6c69612c2068652061736b656420706f706520696e20526f6d6520666f72206d657263656e61726965732e20496e73746561642c2074686520706f7065206f7267616e697365642063727573616465732e526f6d616e207265667573616c20746f207061792073756273696469657320746f2053617373616e6964732e526176656e6e61207761732073656174206f6620746865207765737465726e20456d7065726f722073696e6365206974207265706c61636564204d696c616e20696e2034303120432e452e2c20756e74696c6c204f646f6163657272206465706f73656420656d7065726f7220526f6d756c757320417567757374756c75732e57686963682067656e6572616c20636f6d6d616e64656420526f6d616e20666f7263657320696e20626174746c65206f6620416420446563696d756d3f576869636820656d7065726f7220776173206e69636b6e616d656420275468652050616c65204465617468206f66205361726163656e73273f53617373616e69642073686168204b686f73726f772049492077616e74656420746f206176656e6765206d7572646572206f6620656d7065726f72204d61757269636520647572696e672050686f6b6173207265766f6c742c2077686f6d206865206f77656420686973207468726f6e6520616e6420636f6e7369646572656420706572736f6e616c20667269656e642e204974206973207175697465206c696b656c7920686520696e74656e64656420746f20636f6e7175657220456779707420616e642053797269612c206275742074686174207761736e277420757365642061732063617375732062656c692e426f72646572206672696374696f6e206e6561722074686520666f727472657373206f6620446172612e426174746c65206f66204964697374617669736f20746f6f6b20706c61636520696e20313620432e452e20526f6d616e2061726d79206c6564206279204765726d616e69637573206465666561746564206765726d616e696320636f6e66656465726174696f6e206f662041726d696e6975732c2061726368696576696e6720526f6d616e20676f616c206f66206176656e67696e672064656665617420696e20546575746f626f726720466f726573742e5768696368206f6620746865736520526f6d616e2064656665617473206361757365642063727573616465733f456d7065726f722048657261636c69757320706c616e6e656420746f206d6f7665206361706974616c20617761792066726f6d20436f6e7374616e74696e6f706f6c652e20546f20776869636820636974793f576861742077617320746865206f6666696369616c206361757365206f66206c61737420526f6d616e2d53617373616e6964207761723f5768656e2053617373616e69642061726d696573206265736567656420436f6e7374616e74696e6f706f6c652c2048657261636c69757320706c616e6e656420746f206d6f7665206361706974616c20746f2043617274686167652c20617761792066726f6d205065727369616e2c20536c617620616e642041766172207468726561742e426174746c65206f6620436174616c756e79616e20506c61696e7320746f6f6b20706c61636520696e2034353120432e45206265747765656e2048756e73206c656420627920417474696c6120616e6420526f6d616e6f2d4765726d616e20636f616c6c6974696f6e206c656420627920466c61766975732041657469757320616e64206b696e67205468656f646f72696320492e576869636820636974792077617320746865206361706974616c206f66207765737465726e2070617274206f6620526f6d616e20456d7069726520696e207965617273203432302d34373620432e452e3fa2646970667358221220ffe7ec97faa6f580a4882cc9116841c34afc628756c5564a2c48e2c25ee3cdcc64736f6c6343000806003354686973207469746c652077617320676976656e20746f20417572656c69616e206166746572206865207265696e7465677261746564207365706172617469737420737461746573206f662050616c6d6572696e6520616e642047616c6c696320456d706972657320696e2032373320616e642032373420726573706563746976656c792e426174746c65206f6620436174616c756e79616e20506c61696e73206973207365656e20617320526f6d652773206c61737420677265617420766963746f72792e2057686f20636f6d6d616e64656420526f6d616e20666f726365733f4974207761732061206e69636b6e616d65206f66204e696b6570686f726f732049492050686f6b61732c206561726e656420627920686973206d616e7920766963746f7269657320616761696e73742041726162696320666f726365732c20696e636c7564696e67207265636f6e7175657374206f6620437265746520616e642043696c696369612e5768696368206f6620746865736520626174746c65732064696420656e64207769746820526f6d616e20766963746f72793f5768696368206f6620746865736520526f6d616e20656d7065726f727320776173207469746c656420526573746f726572206f662074686520576f726c643f446573697265206f66205065727369616e207368616820746f206176656e6765206d7572646572206f6620526f6d616e20656d7065726f722e42656c69736172697573206c656420526f6d616e20666f7263657320616761696e73742056616e64616c69632061726d7920756e6465722047656c696d657220616e64206869732062726f7468657220416d6d617461732e20526f6d616e20766963746f7279206c656420746f207265636f6e7175657374206f66204166726963612e446566656174206f6620526f6d616e6f73204956206174204d616e7a696b65727420696e203130373120636175736564206d617373697665206368616f7320696e20526f6d616e20656d706972652e205768656e20656d7065726f7220416c6578696f73204b6f6d6e656e6f7320747269656420746f20756e646f207468652064616d61676520616e64207265636c61696d20416e61746f6c69612c2068652061736b656420706f706520696e20526f6d6520666f72206d657263656e61726965732e20496e73746561642c2074686520706f7065206f7267616e697365642063727573616465732e526f6d616e207265667573616c20746f207061792073756273696469657320746f2053617373616e6964732e526176656e6e61207761732073656174206f6620746865207765737465726e20456d7065726f722073696e6365206974207265706c61636564204d696c616e20696e2034303120432e452e2c20756e74696c6c204f646f6163657272206465706f73656420656d7065726f7220526f6d756c757320417567757374756c75732e57686963682067656e6572616c20636f6d6d616e64656420526f6d616e20666f7263657320696e20626174746c65206f6620416420446563696d756d3f576869636820656d7065726f7220776173206e69636b6e616d656420275468652050616c65204465617468206f66205361726163656e73273f53617373616e69642073686168204b686f73726f772049492077616e74656420746f206176656e6765206d7572646572206f6620656d7065726f72204d61757269636520647572696e672050686f6b6173207265766f6c742c2077686f6d206865206f77656420686973207468726f6e6520616e6420636f6e7369646572656420706572736f6e616c20667269656e642e204974206973207175697465206c696b656c7920686520696e74656e64656420746f20636f6e7175657220456779707420616e642053797269612c206275742074686174207761736e277420757365642061732063617375732062656c692e426f72646572206672696374696f6e206e6561722074686520666f727472657373206f6620446172612e426174746c65206f66204964697374617669736f20746f6f6b20706c61636520696e20313620432e452e20526f6d616e2061726d79206c6564206279204765726d616e69637573206465666561746564206765726d616e696320636f6e66656465726174696f6e206f662041726d696e6975732c2061726368696576696e6720526f6d616e20676f616c206f66206176656e67696e672064656665617420696e20546575746f626f726720466f726573742e5768696368206f6620746865736520526f6d616e2064656665617473206361757365642063727573616465733f456d7065726f722048657261636c69757320706c616e6e656420746f206d6f7665206361706974616c20617761792066726f6d20436f6e7374616e74696e6f706f6c652e20546f20776869636820636974793f576861742077617320746865206f6666696369616c206361757365206f66206c61737420526f6d616e2d53617373616e6964207761723f5768656e2053617373616e69642061726d696573206265736567656420436f6e7374616e74696e6f706f6c652c2048657261636c69757320706c616e6e656420746f206d6f7665206361706974616c20746f2043617274686167652c20617761792066726f6d205065727369616e2c20536c617620616e642041766172207468726561742e426174746c65206f6620436174616c756e79616e20506c61696e7320746f6f6b20706c61636520696e2034353120432e45206265747765656e2048756e73206c656420627920417474696c6120616e6420526f6d616e6f2d4765726d616e20636f616c6c6974696f6e206c656420627920466c61766975732041657469757320616e64206b696e67205468656f646f72696320492e576869636820636974792077617320746865206361706974616c206f66207765737465726e2070617274206f6620526f6d616e20456d7069726520696e207965617273203432302d34373620432e452e3f",
			"opcodes": "PUSH1 0x80 PUSH1 0x40 MSTORE CALLVALUE DUP1 ISZERO PUSH3 0x11 JUMPI PUSH1 0x0 DUP1 REVERT JUMPDEST POP PUSH3 0x22 PUSH3 0x38 PUSH1 0x20 SHL PUSH1 0x20 SHR JUMP JUMPDEST PUSH3 0x32 PUSH3 0xC4D PUSH1 0x20 SHL PUSH1 0x20 SHR JUMP JUMPDEST PUSH3 0x1D6B JUMP JUMPDEST PUSH1 0x40 MLOAD DUP1 PUSH1 0x40 ADD PUSH1 0x40 MSTORE DUP1 PUSH1 0x8 DUP2 MSTORE PUSH1 0x20 ADD PUSH32 0x417572656C69616E000000000000000000000000000000000000000000000000 DUP2 MSTORE POP PUSH1 0x0 PUSH1 0x40 MLOAD PUSH3 0x7E SWAP1 PUSH3 0x1C52 JUMP JUMPDEST SWAP1 DUP2 MSTORE PUSH1 0x20 ADD PUSH1 0x40 MLOAD DUP1 SWAP2 SUB SWAP1 KECCAK256 PUSH1 0x0 DUP1 DUP2 MSTORE PUSH1 0x20 ADD SWAP1 DUP2 MSTORE PUSH1 0x20 ADD PUSH1 0x0 KECCAK256 PUSH1 0x0 DUP1 DUP2 MSTORE PUSH1 0x20 ADD SWAP1 DUP2 MSTORE PUSH1 0x20 ADD PUSH1 0x0 KECCAK256 SWAP1 DUP1 MLOAD SWAP1 PUSH1 0x20 ADD SWAP1 PUSH3 0xC3 SWAP3 SWAP2 SWAP1 PUSH3 0x1B16 JUMP JUMPDEST POP PUSH1 0x40 MLOAD DUP1 PUSH1 0x40 ADD PUSH1 0x40 MSTORE DUP1 PUSH1 0x8 DUP2 MSTORE PUSH1 0x20 ADD PUSH32 0x4175677573747573000000000000000000000000000000000000000000000000 DUP2 MSTORE POP PUSH1 0x0 PUSH1 0x40 MLOAD PUSH3 0x10A SWAP1 PUSH3 0x1C52 JUMP JUMPDEST SWAP1 DUP2 MSTORE PUSH1 0x20 ADD PUSH1 0x40 MLOAD DUP1 SWAP2 SUB SWAP1 KECCAK256 PUSH1 0x0 DUP1 DUP2 MSTORE PUSH1 0x20 ADD SWAP1 DUP2 MSTORE PUSH1 0x20 ADD PUSH1 0x0 KECCAK256 PUSH1 0x0 PUSH1 0x1 DUP2 MSTORE PUSH1 0x20 ADD SWAP1 DUP2 MSTORE PUSH1 0x20 ADD PUSH1 0x0 KECCAK256 SWAP1 DUP1 MLOAD SWAP1 PUSH1 0x20 ADD SWAP1 PUSH3 0x150 SWAP3 SWAP2 SWAP1 PUSH3 0x1B16 JUMP JUMPDEST POP PUSH1 0x40 MLOAD DUP1 PUSH1 0x40 ADD PUSH1 0x40 MSTORE DUP1 PUSH1 0x6 DUP2 MSTORE PUSH1 0x20 ADD PUSH32 0x4A756C69616E0000000000000000000000000000000000000000000000000000 DUP2 MSTORE POP PUSH1 0x0 PUSH1 0x40 MLOAD PUSH3 0x197 SWAP1 PUSH3 0x1C52 JUMP JUMPDEST SWAP1 DUP2 MSTORE PUSH1 0x20 ADD PUSH1 0x40 MLOAD DUP1 SWAP2 SUB SWAP1 KECCAK256 PUSH1 0x0 DUP1 DUP2 MSTORE PUSH1 0x20 ADD SWAP1 DUP2 MSTORE PUSH1 0x20 ADD PUSH1 0x0 KECCAK256 PUSH1 0x0 PUSH1 0x2 DUP2 MSTORE PUSH1 0x20 ADD SWAP1 DUP2 MSTORE PUSH1 0x20 ADD PUSH1 0x0 KECCAK256 SWAP1 DUP1 MLOAD SWAP1 PUSH1 0x20 ADD SWAP1 PUSH3 0x1DD SWAP3 SWAP2 SWAP1 PUSH3 0x1B16 JUMP JUMPDEST POP PUSH1 0x40 MLOAD DUP1 PUSH1 0x40 ADD PUSH1 0x40 MSTORE DUP1 PUSH1 0x6 DUP2 MSTORE PUSH1 0x20 ADD PUSH32 0x56616C656E730000000000000000000000000000000000000000000000000000 DUP2 MSTORE POP PUSH1 0x0 PUSH1 0x40 MLOAD PUSH3 0x224 SWAP1 PUSH3 0x1C52 JUMP JUMPDEST SWAP1 DUP2 MSTORE PUSH1 0x20 ADD PUSH1 0x40 MLOAD DUP1 SWAP2 SUB SWAP1 KECCAK256 PUSH1 0x0 DUP1 DUP2 MSTORE PUSH1 0x20 ADD SWAP1 DUP2 MSTORE PUSH1 0x20 ADD PUSH1 0x0 KECCAK256 PUSH1 0x0 PUSH1 0x3 DUP2 MSTORE PUSH1 0x20 ADD SWAP1 DUP2 MSTORE PUSH1 0x20 ADD PUSH1 0x0 KECCAK256 SWAP1 DUP1 MLOAD SWAP1 PUSH1 0x20 ADD SWAP1 PUSH3 0x26A SWAP3 SWAP2 SWAP1 PUSH3 0x1B16 JUMP JUMPDEST POP PUSH1 0x40 MLOAD DUP1 PUSH1 0x40 ADD PUSH1 0x40 MSTORE DUP1 PUSH1 0x8 DUP2 MSTORE PUSH1 0x20 ADD PUSH32 0x5374696C6963686F000000000000000000000000000000000000000000000000 DUP2 MSTORE POP PUSH1 0x0 PUSH1 0x40 MLOAD PUSH3 0x2B1 SWAP1 PUSH3 0x1C3B JUMP JUMPDEST SWAP1 DUP2 MSTORE PUSH1 0x20 ADD PUSH1 0x40 MLOAD DUP1 SWAP2 SUB SWAP1 KECCAK256 PUSH1 0x0 PUSH1 0x2 DUP2 MSTORE PUSH1 0x20 ADD SWAP1 DUP2 MSTORE PUSH1 0x20 ADD PUSH1 0x0 KECCAK256 PUSH1 0x0 DUP1 DUP2 MSTORE PUSH1 0x20 ADD SWAP1 DUP2 MSTORE PUSH1 0x20 ADD PUSH1 0x0 KECCAK256 SWAP1 DUP1 MLOAD SWAP1 PUSH1 0x20 ADD SWAP1 PUSH3 0x2F7 SWAP3 SWAP2 SWAP1 PUSH3 0x1B16 JUMP JUMPDEST POP PUSH1 0x40 MLOAD DUP1 PUSH1 0x40 ADD PUSH1 0x40 MSTORE DUP1 PUSH1 0x6 DUP2 MSTORE PUSH1 0x20 ADD PUSH32 0x4165746975730000000000000000000000000000000000000000000000000000 DUP2 MSTORE POP PUSH1 0x0 PUSH1 0x40 MLOAD PUSH3 0x33E SWAP1 PUSH3 0x1C3B JUMP JUMPDEST SWAP1 DUP2 MSTORE PUSH1 0x20 ADD PUSH1 0x40 MLOAD DUP1 SWAP2 SUB SWAP1 KECCAK256 PUSH1 0x0 PUSH1 0x2 DUP2 MSTORE PUSH1 0x20 ADD SWAP1 DUP2 MSTORE PUSH1 0x20 ADD PUSH1 0x0 KECCAK256 PUSH1 0x0 PUSH1 0x1 DUP2 MSTORE PUSH1 0x20 ADD SWAP1 DUP2 MSTORE PUSH1 0x20 ADD PUSH1 0x0 KECCAK256 SWAP1 DUP1 MLOAD SWAP1 PUSH1 0x20 ADD SWAP1 PUSH3 0x385 SWAP3 SWAP2 SWAP1 PUSH3 0x1B16 JUMP JUMPDEST POP PUSH1 0x40 MLOAD DUP1 PUSH1 0x40 ADD PUSH1 0x40 MSTORE DUP1 PUSH1 0x8 DUP2 MSTORE PUSH1 0x20 ADD PUSH32 0x4D616A6F7269616E000000000000000000000000000000000000000000000000 DUP2 MSTORE POP PUSH1 0x0 PUSH1 0x40 MLOAD PUSH3 0x3CC SWAP1 PUSH3 0x1C3B JUMP JUMPDEST SWAP1 DUP2 MSTORE PUSH1 0x20 ADD PUSH1 0x40 MLOAD DUP1 SWAP2 SUB SWAP1 KECCAK256 PUSH1 0x0 PUSH1 0x2 DUP2 MSTORE PUSH1 0x20 ADD SWAP1 DUP2 MSTORE PUSH1 0x20 ADD PUSH1 0x0 KECCAK256 PUSH1 0x0 PUSH1 0x2 DUP2 MSTORE PUSH1 0x20 ADD SWAP1 DUP2 MSTORE PUSH1 0x20 ADD PUSH1 0x0 KECCAK256 SWAP1 DUP1 MLOAD SWAP1 PUSH1 0x20 ADD SWAP1 PUSH3 0x413 SWAP3 SWAP2 SWAP1 PUSH3 0x1B16 JUMP JUMPDEST POP PUSH1 0x40 MLOAD DUP1 PUSH1 0x40 ADD PUSH1 0x40 MSTORE DUP1 PUSH1 0xF DUP2 MSTORE PUSH1 0x20 ADD PUSH32 0x56616C656E74696E69616E204949490000000000000000000000000000000000 DUP2 MSTORE POP PUSH1 0x0 PUSH1 0x40 MLOAD PUSH3 0x45A SWAP1 PUSH3 0x1C3B JUMP JUMPDEST SWAP1 DUP2 MSTORE PUSH1 0x20 ADD PUSH1 0x40 MLOAD DUP1 SWAP2 SUB SWAP1 KECCAK256 PUSH1 0x0 PUSH1 0x2 DUP2 MSTORE PUSH1 0x20 ADD SWAP1 DUP2 MSTORE PUSH1 0x20 ADD PUSH1 0x0 KECCAK256 PUSH1 0x0 PUSH1 0x3 DUP2 MSTORE PUSH1 0x20 ADD SWAP1 DUP2 MSTORE PUSH1 0x20 ADD PUSH1 0x0 KECCAK256 SWAP1 DUP1 MLOAD SWAP1 PUSH1 0x20 ADD SWAP1 PUSH3 0x4A1 SWAP3 SWAP2 SWAP1 PUSH3 0x1B16 JUMP JUMPDEST POP PUSH1 0x40 MLOAD DUP1 PUSH1 0x40 ADD PUSH1 0x40 MSTORE DUP1 PUSH1 0x4 DUP2 MSTORE PUSH1 0x20 ADD PUSH32 0x526F6D6500000000000000000000000000000000000000000000000000000000 DUP2 MSTORE POP PUSH1 0x0 PUSH1 0x40 MLOAD PUSH3 0x4E8 SWAP1 PUSH3 0x1C3B JUMP JUMPDEST SWAP1 DUP2 MSTORE PUSH1 0x20 ADD PUSH1 0x40 MLOAD DUP1 SWAP2 SUB SWAP1 KECCAK256 PUSH1 0x0 PUSH1 0x3 DUP2 MSTORE PUSH1 0x20 ADD SWAP1 DUP2 MSTORE PUSH1 0x20 ADD PUSH1 0x0 KECCAK256 PUSH1 0x0 DUP1 DUP2 MSTORE PUSH1 0x20 ADD SWAP1 DUP2 MSTORE PUSH1 0x20 ADD PUSH1 0x0 KECCAK256 SWAP1 DUP1 MLOAD SWAP1 PUSH1 0x20 ADD SWAP1 PUSH3 0x52E SWAP3 SWAP2 SWAP1 PUSH3 0x1B16 JUMP JUMPDEST POP PUSH1 0x40 MLOAD DUP1 PUSH1 0x40 ADD PUSH1 0x40 MSTORE DUP1 PUSH1 0x5 DUP2 MSTORE PUSH1 0x20 ADD PUSH32 0x4D696C616E000000000000000000000000000000000000000000000000000000 DUP2 MSTORE POP PUSH1 0x0 PUSH1 0x40 MLOAD PUSH3 0x575 SWAP1 PUSH3 0x1C3B JUMP JUMPDEST SWAP1 DUP2 MSTORE PUSH1 0x20 ADD PUSH1 0x40 MLOAD DUP1 SWAP2 SUB SWAP1 KECCAK256 PUSH1 0x0 PUSH1 0x3 DUP2 MSTORE PUSH1 0x20 ADD SWAP1 DUP2 MSTORE PUSH1 0x20 ADD PUSH1 0x0 KECCAK256 PUSH1 0x0 PUSH1 0x1 DUP2 MSTORE PUSH1 0x20 ADD SWAP1 DUP2 MSTORE PUSH1 0x20 ADD PUSH1 0x0 KECCAK256 SWAP1 DUP1 MLOAD SWAP1 PUSH1 0x20 ADD SWAP1 PUSH3 0x5BC SWAP3 SWAP2 SWAP1 PUSH3 0x1B16 JUMP JUMPDEST POP PUSH1 0x40 MLOAD DUP1 PUSH1 0x40 ADD PUSH1 0x40 MSTORE DUP1 PUSH1 0x7 DUP2 MSTORE PUSH1 0x20 ADD PUSH32 0x526176656E6E6100000000000000000000000000000000000000000000000000 DUP2 MSTORE POP PUSH1 0x0 PUSH1 0x40 MLOAD PUSH3 0x603 SWAP1 PUSH3 0x1C3B JUMP JUMPDEST SWAP1 DUP2 MSTORE PUSH1 0x20 ADD PUSH1 0x40 MLOAD DUP1 SWAP2 SUB SWAP1 KECCAK256 PUSH1 0x0 PUSH1 0x3 DUP2 MSTORE PUSH1 0x20 ADD SWAP1 DUP2 MSTORE PUSH1 0x20 ADD PUSH1 0x0 KECCAK256 PUSH1 0x0 PUSH1 0x2 DUP2 MSTORE PUSH1 0x20 ADD SWAP1 DUP2 MSTORE PUSH1 0x20 ADD PUSH1 0x0 KECCAK256 SWAP1 DUP1 MLOAD SWAP1 PUSH1 0x20 ADD SWAP1 PUSH3 0x64A SWAP3 SWAP2 SWAP1 PUSH3 0x1B16 JUMP JUMPDEST POP PUSH1 0x40 MLOAD DUP1 PUSH1 0x40 ADD PUSH1 0x40 MSTORE DUP1 PUSH1 0x6 DUP2 MSTORE PUSH1 0x20 ADD PUSH32 0x4E61706C65730000000000000000000000000000000000000000000000000000 DUP2 MSTORE POP PUSH1 0x0 PUSH1 0x40 MLOAD PUSH3 0x691 SWAP1 PUSH3 0x1C3B JUMP JUMPDEST SWAP1 DUP2 MSTORE PUSH1 0x20 ADD PUSH1 0x40 MLOAD DUP1 SWAP2 SUB SWAP1 KECCAK256 PUSH1 0x0 PUSH1 0x3 DUP2 MSTORE PUSH1 0x20 ADD SWAP1 DUP2 MSTORE PUSH1 0x20 ADD PUSH1 0x0 KECCAK256 PUSH1 0x0 PUSH1 0x3 DUP2 MSTORE PUSH1 0x20 ADD SWAP1 DUP2 MSTORE PUSH1 0x20 ADD PUSH1 0x0 KECCAK256 SWAP1 DUP1 MLOAD SWAP1 PUSH1 0x20 ADD SWAP1 PUSH3 0x6D8 SWAP3 SWAP2 SWAP1 PUSH3 0x1B16 JUMP JUMPDEST POP PUSH1 0x40 MLOAD DUP1 PUSH1 0x40 ADD PUSH1 0x40 MSTORE DUP1 PUSH1 0xB DUP2 MSTORE PUSH1 0x20 ADD PUSH32 0x41647269616E6F706F6C65000000000000000000000000000000000000000000 DUP2 MSTORE POP PUSH1 0x0 PUSH1 0x40 MLOAD PUSH3 0x71F SWAP1 PUSH3 0x1C3B JUMP JUMPDEST SWAP1 DUP2 MSTORE PUSH1 0x20 ADD PUSH1 0x40 MLOAD DUP1 SWAP2 SUB SWAP1 KECCAK256 PUSH1 0x0 PUSH1 0x4 DUP2 MSTORE PUSH1 0x20 ADD SWAP1 DUP2 MSTORE PUSH1 0x20 ADD PUSH1 0x0 KECCAK256 PUSH1 0x0 DUP1 DUP2 MSTORE PUSH1 0x20 ADD SWAP1 DUP2 MSTORE PUSH1 0x20 ADD PUSH1 0x0 KECCAK256 SWAP1 DUP1 MLOAD SWAP1 PUSH1 0x20 ADD SWAP1 PUSH3 0x765 SWAP3 SWAP2 SWAP1 PUSH3 0x1B16 JUMP JUMPDEST POP PUSH1 0x40 MLOAD DUP1 PUSH1 0x40 ADD PUSH1 0x40 MSTORE DUP1 PUSH1 0xE DUP2 MSTORE PUSH1 0x20 ADD PUSH32 0x4C616B652054726173696D656E65000000000000000000000000000000000000 DUP2 MSTORE POP PUSH1 0x0 PUSH1 0x40 MLOAD PUSH3 0x7AC SWAP1 PUSH3 0x1C3B JUMP JUMPDEST SWAP1 DUP2 MSTORE PUSH1 0x20 ADD PUSH1 0x40 MLOAD DUP1 SWAP2 SUB SWAP1 KECCAK256 PUSH1 0x0 PUSH1 0x4 DUP2 MSTORE PUSH1 0x20 ADD SWAP1 DUP2 MSTORE PUSH1 0x20 ADD PUSH1 0x0 KECCAK256 PUSH1 0x0 PUSH1 0x1 DUP2 MSTORE PUSH1 0x20 ADD SWAP1 DUP2 MSTORE PUSH1 0x20 ADD PUSH1 0x0 KECCAK256 SWAP1 DUP1 MLOAD SWAP1 PUSH1 0x20 ADD SWAP1 PUSH3 0x7F3 SWAP3 SWAP2 SWAP1 PUSH3 0x1B16 JUMP JUMPDEST POP PUSH1 0x40 MLOAD DUP1 PUSH1 0x40 ADD PUSH1 0x40 MSTORE DUP1 PUSH1 0x7 DUP2 MSTORE PUSH1 0x20 ADD PUSH32 0x4361727268616500000000000000000000000000000000000000000000000000 DUP2 MSTORE POP PUSH1 0x0 PUSH1 0x40 MLOAD PUSH3 0x83A SWAP1 PUSH3 0x1C3B JUMP JUMPDEST SWAP1 DUP2 MSTORE PUSH1 0x20 ADD PUSH1 0x40 MLOAD DUP1 SWAP2 SUB SWAP1 KECCAK256 PUSH1 0x0 PUSH1 0x4 DUP2 MSTORE PUSH1 0x20 ADD SWAP1 DUP2 MSTORE PUSH1 0x20 ADD PUSH1 0x0 KECCAK256 PUSH1 0x0 PUSH1 0x2 DUP2 MSTORE PUSH1 0x20 ADD SWAP1 DUP2 MSTORE PUSH1 0x20 ADD PUSH1 0x0 KECCAK256 SWAP1 DUP1 MLOAD SWAP1 PUSH1 0x20 ADD SWAP1 PUSH3 0x881 SWAP3 SWAP2 SWAP1 PUSH3 0x1B16 JUMP JUMPDEST POP PUSH1 0x40 MLOAD DUP1 PUSH1 0x40 ADD PUSH1 0x40 MSTORE DUP1 PUSH1 0xA DUP2 MSTORE PUSH1 0x20 ADD PUSH32 0x4964697374617669736F00000000000000000000000000000000000000000000 DUP2 MSTORE POP PUSH1 0x0 PUSH1 0x40 MLOAD PUSH3 0x8C8 SWAP1 PUSH3 0x1C3B JUMP JUMPDEST SWAP1 DUP2 MSTORE PUSH1 0x20 ADD PUSH1 0x40 MLOAD DUP1 SWAP2 SUB SWAP1 KECCAK256 PUSH1 0x0 PUSH1 0x4 DUP2 MSTORE PUSH1 0x20 ADD SWAP1 DUP2 MSTORE PUSH1 0x20 ADD PUSH1 0x0 KECCAK256 PUSH1 0x0 PUSH1 0x3 DUP2 MSTORE PUSH1 0x20 ADD SWAP1 DUP2 MSTORE PUSH1 0x20 ADD PUSH1 0x0 KECCAK256 SWAP1 DUP1 MLOAD SWAP1 PUSH1 0x20 ADD SWAP1 PUSH3 0x90F SWAP3 SWAP2 SWAP1 PUSH3 0x1B16 JUMP JUMPDEST POP PUSH1 0x0 PUSH1 0x40 MLOAD DUP1 PUSH1 0x60 ADD PUSH1 0x40 MSTORE DUP1 PUSH1 0x40 MLOAD DUP1 PUSH1 0x60 ADD PUSH1 0x40 MSTORE DUP1 PUSH1 0x3F DUP2 MSTORE PUSH1 0x20 ADD PUSH3 0x548D PUSH1 0x3F SWAP2 CODECOPY DUP2 MSTORE PUSH1 0x20 ADD PUSH1 0x0 DUP2 MSTORE PUSH1 0x20 ADD PUSH1 0x40 MLOAD DUP1 PUSH1 0xC0 ADD PUSH1 0x40 MSTORE DUP1 PUSH1 0x85 DUP2 MSTORE PUSH1 0x20 ADD PUSH3 0x52F0 PUSH1 0x85 SWAP2 CODECOPY DUP2 MSTORE POP SWAP1 POP PUSH1 0x0 PUSH1 0x40 MLOAD DUP1 PUSH1 0x60 ADD PUSH1 0x40 MSTORE DUP1 PUSH1 0x40 MLOAD DUP1 PUSH1 0x80 ADD PUSH1 0x40 MSTORE DUP1 PUSH1 0x5D DUP2 MSTORE PUSH1 0x20 ADD PUSH3 0x5375 PUSH1 0x5D SWAP2 CODECOPY DUP2 MSTORE PUSH1 0x20 ADD PUSH1 0x1 DUP2 MSTORE PUSH1 0x20 ADD PUSH1 0x40 MLOAD DUP1 PUSH1 0xC0 ADD PUSH1 0x40 MSTORE DUP1 PUSH1 0x95 DUP2 MSTORE PUSH1 0x20 ADD PUSH3 0x5A9B PUSH1 0x95 SWAP2 CODECOPY DUP2 MSTORE POP SWAP1 POP PUSH1 0x0 PUSH1 0x40 MLOAD DUP1 PUSH1 0x60 ADD PUSH1 0x40 MSTORE DUP1 PUSH1 0x40 MLOAD DUP1 PUSH1 0x80 ADD PUSH1 0x40 MSTORE DUP1 PUSH1 0x51 DUP2 MSTORE PUSH1 0x20 ADD PUSH3 0x5B30 PUSH1 0x51 SWAP2 CODECOPY DUP2 MSTORE PUSH1 0x20 ADD PUSH1 0x2 DUP2 MSTORE PUSH1 0x20 ADD PUSH1 0x40 MLOAD DUP1 PUSH1 0xA0 ADD PUSH1 0x40 MSTORE DUP1 PUSH1 0x80 DUP2 MSTORE PUSH1 0x20 ADD PUSH3 0x569D PUSH1 0x80 SWAP2 CODECOPY DUP2 MSTORE POP SWAP1 POP PUSH1 0x0 PUSH1 0x40 MLOAD DUP1 PUSH1 0x60 ADD PUSH1 0x40 MSTORE DUP1 PUSH1 0x40 MLOAD DUP1 PUSH1 0x60 ADD PUSH1 0x40 MSTORE DUP1 PUSH1 0x32 DUP2 MSTORE PUSH1 0x20 ADD PUSH3 0x545B PUSH1 0x32 SWAP2 CODECOPY DUP2 MSTORE PUSH1 0x20 ADD PUSH1 0x3 DUP2 MSTORE PUSH1 0x20 ADD PUSH1 0x40 MLOAD DUP1 PUSH1 0xE0 ADD PUSH1 0x40 MSTORE DUP1 PUSH1 0xB2 DUP2 MSTORE PUSH1 0x20 ADD PUSH3 0x58AD PUSH1 0xB2 SWAP2 CODECOPY DUP2 MSTORE POP SWAP1 POP DUP4 PUSH1 0x1 PUSH1 0x40 MLOAD PUSH3 0xA69 SWAP1 PUSH3 0x1C3B JUMP JUMPDEST SWAP1 DUP2 MSTORE PUSH1 0x20 ADD PUSH1 0x40 MLOAD DUP1 SWAP2 SUB SWAP1 KECCAK256 PUSH1 0x0 DUP1 DUP2 MSTORE PUSH1 0x20 ADD SWAP1 DUP2 MSTORE PUSH1 0x20 ADD PUSH1 0x0 KECCAK256 PUSH1 0x0 DUP3 ADD MLOAD DUP2 PUSH1 0x0 ADD SWAP1 DUP1 MLOAD SWAP1 PUSH1 0x20 ADD SWAP1 PUSH3 0xAA6 SWAP3 SWAP2 SWAP1 PUSH3 0x1B16 JUMP JUMPDEST POP PUSH1 0x20 DUP3 ADD MLOAD DUP2 PUSH1 0x1 ADD SSTORE PUSH1 0x40 DUP3 ADD MLOAD DUP2 PUSH1 0x2 ADD SWAP1 DUP1 MLOAD SWAP1 PUSH1 0x20 ADD SWAP1 PUSH3 0xACF SWAP3 SWAP2 SWAP1 PUSH3 0x1B16 JUMP JUMPDEST POP SWAP1 POP POP DUP3 PUSH1 0x1 PUSH1 0x40 MLOAD PUSH3 0xAE4 SWAP1 PUSH3 0x1C3B JUMP JUMPDEST SWAP1 DUP2 MSTORE PUSH1 0x20 ADD PUSH1 0x40 MLOAD DUP1 SWAP2 SUB SWAP1 KECCAK256 PUSH1 0x0 PUSH1 0x1 DUP2 MSTORE PUSH1 0x20 ADD SWAP1 DUP2 MSTORE PUSH1 0x20 ADD PUSH1 0x0 KECCAK256 PUSH1 0x0 DUP3 ADD MLOAD DUP2 PUSH1 0x0 ADD SWAP1 DUP1 MLOAD SWAP1 PUSH1 0x20 ADD SWAP1 PUSH3 0xB22 SWAP3 SWAP2 SWAP1 PUSH3 0x1B16 JUMP JUMPDEST POP PUSH1 0x20 DUP3 ADD MLOAD DUP2 PUSH1 0x1 ADD SSTORE PUSH1 0x40 DUP3 ADD MLOAD DUP2 PUSH1 0x2 ADD SWAP1 DUP1 MLOAD SWAP1 PUSH1 0x20 ADD SWAP1 PUSH3 0xB4B SWAP3 SWAP2 SWAP1 PUSH3 0x1B16 JUMP JUMPDEST POP SWAP1 POP POP DUP2 PUSH1 0x1 PUSH1 0x40 MLOAD PUSH3 0xB60 SWAP1 PUSH3 0x1C3B JUMP JUMPDEST SWAP1 DUP2 MSTORE PUSH1 0x20 ADD PUSH1 0x40 MLOAD DUP1 SWAP2 SUB SWAP1 KECCAK256 PUSH1 0x0 PUSH1 0x2 DUP2 MSTORE PUSH1 0x20 ADD SWAP1 DUP2 MSTORE PUSH1 0x20 ADD PUSH1 0x0 KECCAK256 PUSH1 0x0 DUP3 ADD MLOAD DUP2 PUSH1 0x0 ADD SWAP1 DUP1 MLOAD SWAP1 PUSH1 0x20 ADD SWAP1 PUSH3 0xB9E SWAP3 SWAP2 SWAP1 PUSH3 0x1B16 JUMP JUMPDEST POP PUSH1 0x20 DUP3 ADD MLOAD DUP2 PUSH1 0x1 ADD SSTORE PUSH1 0x40 DUP3 ADD MLOAD DUP2 PUSH1 0x2 ADD SWAP1 DUP1 MLOAD SWAP1 PUSH1 0x20 ADD SWAP1 PUSH3 0xBC7 SWAP3 SWAP2 SWAP1 PUSH3 0x1B16 JUMP JUMPDEST POP SWAP1 POP POP DUP1 PUSH1 0x1 PUSH1 0x40 MLOAD PUSH3 0xBDC SWAP1 PUSH3 0x1C3B JUMP JUMPDEST SWAP1 DUP2 MSTORE PUSH1 0x20 ADD PUSH1 0x40 MLOAD DUP1 SWAP2 SUB SWAP1 KECCAK256 PUSH1 0x0 PUSH1 0x3 DUP2 MSTORE PUSH1 0x20 ADD SWAP1 DUP2 MSTORE PUSH1 0x20 ADD PUSH1 0x0 KECCAK256 PUSH1 0x0 DUP3 ADD MLOAD DUP2 PUSH1 0x0 ADD SWAP1 DUP1 MLOAD SWAP1 PUSH1 0x20 ADD SWAP1 PUSH3 0xC1A SWAP3 SWAP2 SWAP1 PUSH3 0x1B16 JUMP JUMPDEST POP PUSH1 0x20 DUP3 ADD MLOAD DUP2 PUSH1 0x1 ADD SSTORE PUSH1 0x40 DUP3 ADD MLOAD DUP2 PUSH1 0x2 ADD SWAP1 DUP1 MLOAD SWAP1 PUSH1 0x20 ADD SWAP1 PUSH3 0xC43 SWAP3 SWAP2 SWAP1 PUSH3 0x1B16 JUMP JUMPDEST POP SWAP1 POP POP POP POP POP POP JUMP JUMPDEST PUSH1 0x40 MLOAD DUP1 PUSH1 0x40 ADD PUSH1 0x40 MSTORE DUP1 PUSH1 0x6 DUP2 MSTORE PUSH1 0x20 ADD PUSH32 0x4D756E6475730000000000000000000000000000000000000000000000000000 DUP2 MSTORE POP PUSH1 0x0 PUSH1 0x40 MLOAD PUSH3 0xC93 SWAP1 PUSH3 0x1C69 JUMP JUMPDEST SWAP1 DUP2 MSTORE PUSH1 0x20 ADD PUSH1 0x40 MLOAD DUP1 SWAP2 SUB SWAP1 KECCAK256 PUSH1 0x0 DUP1 DUP2 MSTORE PUSH1 0x20 ADD SWAP1 DUP2 MSTORE PUSH1 0x20 ADD PUSH1 0x0 KECCAK256 PUSH1 0x0 DUP1 DUP2 MSTORE PUSH1 0x20 ADD SWAP1 DUP2 MSTORE PUSH1 0x20 ADD PUSH1 0x0 KECCAK256 SWAP1 DUP1 MLOAD SWAP1 PUSH1 0x20 ADD SWAP1 PUSH3 0xCD8 SWAP3 SWAP2 SWAP1 PUSH3 0x1B16 JUMP JUMPDEST POP PUSH1 0x40 MLOAD DUP1 PUSH1 0x40 ADD PUSH1 0x40 MSTORE DUP1 PUSH1 0x6 DUP2 MSTORE PUSH1 0x20 ADD PUSH32 0x4265737361730000000000000000000000000000000000000000000000000000 DUP2 MSTORE POP PUSH1 0x0 PUSH1 0x40 MLOAD PUSH3 0xD1F SWAP1 PUSH3 0x1C69 JUMP JUMPDEST SWAP1 DUP2 MSTORE PUSH1 0x20 ADD PUSH1 0x40 MLOAD DUP1 SWAP2 SUB SWAP1 KECCAK256 PUSH1 0x0 DUP1 DUP2 MSTORE PUSH1 0x20 ADD SWAP1 DUP2 MSTORE PUSH1 0x20 ADD PUSH1 0x0 KECCAK256 PUSH1 0x0 PUSH1 0x1 DUP2 MSTORE PUSH1 0x20 ADD SWAP1 DUP2 MSTORE PUSH1 0x20 ADD PUSH1 0x0 KECCAK256 SWAP1 DUP1 MLOAD SWAP1 PUSH1 0x20 ADD SWAP1 PUSH3 0xD65 SWAP3 SWAP2 SWAP1 PUSH3 0x1B16 JUMP JUMPDEST POP PUSH1 0x40 MLOAD DUP1 PUSH1 0x40 ADD PUSH1 0x40 MSTORE DUP1 PUSH1 0xA DUP2 MSTORE PUSH1 0x20 ADD PUSH32 0x42656C6973617269757300000000000000000000000000000000000000000000 DUP2 MSTORE POP PUSH1 0x0 PUSH1 0x40 MLOAD PUSH3 0xDAC SWAP1 PUSH3 0x1C69 JUMP JUMPDEST SWAP1 DUP2 MSTORE PUSH1 0x20 ADD PUSH1 0x40 MLOAD DUP1 SWAP2 SUB SWAP1 KECCAK256 PUSH1 0x0 DUP1 DUP2 MSTORE PUSH1 0x20 ADD SWAP1 DUP2 MSTORE PUSH1 0x20 ADD PUSH1 0x0 KECCAK256 PUSH1 0x0 PUSH1 0x2 DUP2 MSTORE PUSH1 0x20 ADD SWAP1 DUP2 MSTORE PUSH1 0x20 ADD PUSH1 0x0 KECCAK256 SWAP1 DUP1 MLOAD SWAP1 PUSH1 0x20 ADD SWAP1 PUSH3 0xDF2 SWAP3 SWAP2 SWAP1 PUSH3 0x1B16 JUMP JUMPDEST POP PUSH1 0x40 MLOAD DUP1 PUSH1 0x40 ADD PUSH1 0x40 MSTORE DUP1 PUSH1 0x6 DUP2 MSTORE PUSH1 0x20 ADD PUSH32 0x5369747461730000000000000000000000000000000000000000000000000000 DUP2 MSTORE POP PUSH1 0x0 PUSH1 0x40 MLOAD PUSH3 0xE39 SWAP1 PUSH3 0x1C69 JUMP JUMPDEST SWAP1 DUP2 MSTORE PUSH1 0x20 ADD PUSH1 0x40 MLOAD DUP1 SWAP2 SUB SWAP1 KECCAK256 PUSH1 0x0 DUP1 DUP2 MSTORE PUSH1 0x20 ADD SWAP1 DUP2 MSTORE PUSH1 0x20 ADD PUSH1 0x0 KECCAK256 PUSH1 0x0 PUSH1 0x3 DUP2 MSTORE PUSH1 0x20 ADD SWAP1 DUP2 MSTORE PUSH1 0x20 ADD PUSH1 0x0 KECCAK256 SWAP1 DUP1 MLOAD SWAP1 PUSH1 0x20 ADD SWAP1 PUSH3 0xE7F SWAP3 SWAP2 SWAP1 PUSH3 0x1B16 JUMP JUMPDEST POP PUSH1 0x40 MLOAD DUP1 PUSH1 0x60 ADD PUSH1 0x40 MSTORE DUP1 PUSH1 0x39 DUP2 MSTORE PUSH1 0x20 ADD PUSH3 0x54CC PUSH1 0x39 SWAP2 CODECOPY PUSH1 0x0 PUSH1 0x40 MLOAD PUSH3 0xEAA SWAP1 PUSH3 0x1C69 JUMP JUMPDEST SWAP1 DUP2 MSTORE PUSH1 0x20 ADD PUSH1 0x40 MLOAD DUP1 SWAP2 SUB SWAP1 KECCAK256 PUSH1 0x0 PUSH1 0x2 DUP2 MSTORE PUSH1 0x20 ADD SWAP1 DUP2 MSTORE PUSH1 0x20 ADD PUSH1 0x0 KECCAK256 PUSH1 0x0 DUP1 DUP2 MSTORE PUSH1 0x20 ADD SWAP1 DUP2 MSTORE PUSH1 0x20 ADD PUSH1 0x0 KECCAK256 SWAP1 DUP1 MLOAD SWAP1 PUSH1 0x20 ADD SWAP1 PUSH3 0xEF0 SWAP3 SWAP2 SWAP1 PUSH3 0x1B16 JUMP JUMPDEST POP PUSH1 0x40 MLOAD DUP1 PUSH1 0x60 ADD PUSH1 0x40 MSTORE DUP1 PUSH1 0x2A DUP2 MSTORE PUSH1 0x20 ADD PUSH3 0x5883 PUSH1 0x2A SWAP2 CODECOPY PUSH1 0x0 PUSH1 0x40 MLOAD PUSH3 0xF1B SWAP1 PUSH3 0x1C69 JUMP JUMPDEST SWAP1 DUP2 MSTORE PUSH1 0x20 ADD PUSH1 0x40 MLOAD DUP1 SWAP2 SUB SWAP1 KECCAK256 PUSH1 0x0 PUSH1 0x2 DUP2 MSTORE PUSH1 0x20 ADD SWAP1 DUP2 MSTORE PUSH1 0x20 ADD PUSH1 0x0 KECCAK256 PUSH1 0x0 PUSH1 0x1 DUP2 MSTORE PUSH1 0x20 ADD SWAP1 DUP2 MSTORE PUSH1 0x20 ADD PUSH1 0x0 KECCAK256 SWAP1 DUP1 MLOAD SWAP1 PUSH1 0x20 ADD SWAP1 PUSH3 0xF62 SWAP3 SWAP2 SWAP1 PUSH3 0x1B16 JUMP JUMPDEST POP PUSH1 0x40 MLOAD DUP1 PUSH1 0x60 ADD PUSH1 0x40 MSTORE DUP1 PUSH1 0x2C DUP2 MSTORE PUSH1 0x20 ADD PUSH3 0x5671 PUSH1 0x2C SWAP2 CODECOPY PUSH1 0x0 PUSH1 0x40 MLOAD PUSH3 0xF8D SWAP1 PUSH3 0x1C69 JUMP JUMPDEST SWAP1 DUP2 MSTORE PUSH1 0x20 ADD PUSH1 0x40 MLOAD DUP1 SWAP2 SUB SWAP1 KECCAK256 PUSH1 0x0 PUSH1 0x2 DUP2 MSTORE PUSH1 0x20 ADD SWAP1 DUP2 MSTORE PUSH1 0x20 ADD PUSH1 0x0 KECCAK256 PUSH1 0x0 PUSH1 0x2 DUP2 MSTORE PUSH1 0x20 ADD SWAP1 DUP2 MSTORE PUSH1 0x20 ADD PUSH1 0x0 KECCAK256 SWAP1 DUP1 MLOAD SWAP1 PUSH1 0x20 ADD SWAP1 PUSH3 0xFD4 SWAP3 SWAP2 SWAP1 PUSH3 0x1B16 JUMP JUMPDEST POP PUSH1 0x40 MLOAD DUP1 PUSH1 0x40 ADD PUSH1 0x40 MSTORE DUP1 PUSH1 0x20 DUP2 MSTORE PUSH1 0x20 ADD PUSH32 0x5065727369616E2064657369726520746F20636F6E717565722045677970742E DUP2 MSTORE POP PUSH1 0x0 PUSH1 0x40 MLOAD PUSH3 0x101B SWAP1 PUSH3 0x1C69 JUMP JUMPDEST SWAP1 DUP2 MSTORE PUSH1 0x20 ADD PUSH1 0x40 MLOAD DUP1 SWAP2 SUB SWAP1 KECCAK256 PUSH1 0x0 PUSH1 0x2 DUP2 MSTORE PUSH1 0x20 ADD SWAP1 DUP2 MSTORE PUSH1 0x20 ADD PUSH1 0x0 KECCAK256 PUSH1 0x0 PUSH1 0x3 DUP2 MSTORE PUSH1 0x20 ADD SWAP1 DUP2 MSTORE PUSH1 0x20 ADD PUSH1 0x0 KECCAK256 SWAP1 DUP1 MLOAD SWAP1 PUSH1 0x20 ADD SWAP1 PUSH3 0x1062 SWAP3 SWAP2 SWAP1 PUSH3 0x1B16 JUMP JUMPDEST POP PUSH1 0x40 MLOAD DUP1 PUSH1 0x40 ADD PUSH1 0x40 MSTORE DUP1 PUSH1 0x7 DUP2 MSTORE PUSH1 0x20 ADD PUSH32 0x426173696C204900000000000000000000000000000000000000000000000000 DUP2 MSTORE POP PUSH1 0x0 PUSH1 0x40 MLOAD PUSH3 0x10A9 SWAP1 PUSH3 0x1C69 JUMP JUMPDEST SWAP1 DUP2 MSTORE PUSH1 0x20 ADD PUSH1 0x40 MLOAD DUP1 SWAP2 SUB SWAP1 KECCAK256 PUSH1 0x0 PUSH1 0x3 DUP2 MSTORE PUSH1 0x20 ADD SWAP1 DUP2 MSTORE PUSH1 0x20 ADD PUSH1 0x0 KECCAK256 PUSH1 0x0 DUP1 DUP2 MSTORE PUSH1 0x20 ADD SWAP1 DUP2 MSTORE PUSH1 0x20 ADD PUSH1 0x0 KECCAK256 SWAP1 DUP1 MLOAD SWAP1 PUSH1 0x20 ADD SWAP1 PUSH3 0x10EF SWAP3 SWAP2 SWAP1 PUSH3 0x1B16 JUMP JUMPDEST POP PUSH1 0x40 MLOAD DUP1 PUSH1 0x40 ADD PUSH1 0x40 MSTORE DUP1 PUSH1 0x14 DUP2 MSTORE PUSH1 0x20 ADD PUSH32 0x4E696B6570686F726F732049492050686F6B6173000000000000000000000000 DUP2 MSTORE POP PUSH1 0x0 PUSH1 0x40 MLOAD PUSH3 0x1136 SWAP1 PUSH3 0x1C69 JUMP JUMPDEST SWAP1 DUP2 MSTORE PUSH1 0x20 ADD PUSH1 0x40 MLOAD DUP1 SWAP2 SUB SWAP1 KECCAK256 PUSH1 0x0 PUSH1 0x3 DUP2 MSTORE PUSH1 0x20 ADD SWAP1 DUP2 MSTORE PUSH1 0x20 ADD PUSH1 0x0 KECCAK256 PUSH1 0x0 PUSH1 0x1 DUP2 MSTORE PUSH1 0x20 ADD SWAP1 DUP2 MSTORE PUSH1 0x20 ADD PUSH1 0x0 KECCAK256 SWAP1 DUP1 MLOAD SWAP1 PUSH1 0x20 ADD SWAP1 PUSH3 0x117D SWAP3 SWAP2 SWAP1 PUSH3 0x1B16 JUMP JUMPDEST POP PUSH1 0x40 MLOAD DUP1 PUSH1 0x40 ADD PUSH1 0x40 MSTORE DUP1 PUSH1 0x10 DUP2 MSTORE PUSH1 0x20 ADD PUSH32 0x4A6F686E204920547A696D69736B657300000000000000000000000000000000 DUP2 MSTORE POP PUSH1 0x0 PUSH1 0x40 MLOAD PUSH3 0x11C4 SWAP1 PUSH3 0x1C69 JUMP JUMPDEST SWAP1 DUP2 MSTORE PUSH1 0x20 ADD PUSH1 0x40 MLOAD DUP1 SWAP2 SUB SWAP1 KECCAK256 PUSH1 0x0 PUSH1 0x3 DUP2 MSTORE PUSH1 0x20 ADD SWAP1 DUP2 MSTORE PUSH1 0x20 ADD PUSH1 0x0 KECCAK256 PUSH1 0x0 PUSH1 0x2 DUP2 MSTORE PUSH1 0x20 ADD SWAP1 DUP2 MSTORE PUSH1 0x20 ADD PUSH1 0x0 KECCAK256 SWAP1 DUP1 MLOAD SWAP1 PUSH1 0x20 ADD SWAP1 PUSH3 0x120B SWAP3 SWAP2 SWAP1 PUSH3 0x1B16 JUMP JUMPDEST POP PUSH1 0x40 MLOAD DUP1 PUSH1 0x40 ADD PUSH1 0x40 MSTORE DUP1 PUSH1 0xA DUP2 MSTORE PUSH1 0x20 ADD PUSH32 0x526F6D616E6F7320494900000000000000000000000000000000000000000000 DUP2 MSTORE POP PUSH1 0x0 PUSH1 0x40 MLOAD PUSH3 0x1252 SWAP1 PUSH3 0x1C69 JUMP JUMPDEST SWAP1 DUP2 MSTORE PUSH1 0x20 ADD PUSH1 0x40 MLOAD DUP1 SWAP2 SUB SWAP1 KECCAK256 PUSH1 0x0 PUSH1 0x3 DUP2 MSTORE PUSH1 0x20 ADD SWAP1 DUP2 MSTORE PUSH1 0x20 ADD PUSH1 0x0 KECCAK256 PUSH1 0x0 PUSH1 0x3 DUP2 MSTORE PUSH1 0x20 ADD SWAP1 DUP2 MSTORE PUSH1 0x20 ADD PUSH1 0x0 KECCAK256 SWAP1 DUP1 MLOAD SWAP1 PUSH1 0x20 ADD SWAP1 PUSH3 0x1299 SWAP3 SWAP2 SWAP1 PUSH3 0x1B16 JUMP JUMPDEST POP PUSH1 0x40 MLOAD DUP1 PUSH1 0x40 ADD PUSH1 0x40 MSTORE DUP1 PUSH1 0x7 DUP2 MSTORE PUSH1 0x20 ADD PUSH32 0x5961726D6F756B00000000000000000000000000000000000000000000000000 DUP2 MSTORE POP PUSH1 0x0 PUSH1 0x40 MLOAD PUSH3 0x12E0 SWAP1 PUSH3 0x1C69 JUMP JUMPDEST SWAP1 DUP2 MSTORE PUSH1 0x20 ADD PUSH1 0x40 MLOAD DUP1 SWAP2 SUB SWAP1 KECCAK256 PUSH1 0x0 PUSH1 0x4 DUP2 MSTORE PUSH1 0x20 ADD SWAP1 DUP2 MSTORE PUSH1 0x20 ADD PUSH1 0x0 KECCAK256 PUSH1 0x0 DUP1 DUP2 MSTORE PUSH1 0x20 ADD SWAP1 DUP2 MSTORE PUSH1 0x20 ADD PUSH1 0x0 KECCAK256 SWAP1 DUP1 MLOAD SWAP1 PUSH1 0x20 ADD SWAP1 PUSH3 0x1326 SWAP3 SWAP2 SWAP1 PUSH3 0x1B16 JUMP JUMPDEST POP PUSH1 0x40 MLOAD DUP1 PUSH1 0x40 ADD PUSH1 0x40 MSTORE DUP1 PUSH1 0x6 DUP2 MSTORE PUSH1 0x20 ADD PUSH32 0x506C69736B610000000000000000000000000000000000000000000000000000 DUP2 MSTORE POP PUSH1 0x0 PUSH1 0x40 MLOAD PUSH3 0x136D SWAP1 PUSH3 0x1C69 JUMP JUMPDEST SWAP1 DUP2 MSTORE PUSH1 0x20 ADD PUSH1 0x40 MLOAD DUP1 SWAP2 SUB SWAP1 KECCAK256 PUSH1 0x0 PUSH1 0x4 DUP2 MSTORE PUSH1 0x20 ADD SWAP1 DUP2 MSTORE PUSH1 0x20 ADD PUSH1 0x0 KECCAK256 PUSH1 0x0 PUSH1 0x1 DUP2 MSTORE PUSH1 0x20 ADD SWAP1 DUP2 MSTORE PUSH1 0x20 ADD PUSH1 0x0 KECCAK256 SWAP1 DUP1 MLOAD SWAP1 PUSH1 0x20 ADD SWAP1 PUSH3 0x13B4 SWAP3 SWAP2 SWAP1 PUSH3 0x1B16 JUMP JUMPDEST POP PUSH1 0x40 MLOAD DUP1 PUSH1 0x40 ADD PUSH1 0x40 MSTORE DUP1 PUSH1 0x9 DUP2 MSTORE PUSH1 0x20 ADD PUSH32 0x43616C696E6963756D0000000000000000000000000000000000000000000000 DUP2 MSTORE POP PUSH1 0x0 PUSH1 0x40 MLOAD PUSH3 0x13FB SWAP1 PUSH3 0x1C69 JUMP JUMPDEST SWAP1 DUP2 MSTORE PUSH1 0x20 ADD PUSH1 0x40 MLOAD DUP1 SWAP2 SUB SWAP1 KECCAK256 PUSH1 0x0 PUSH1 0x4 DUP2 MSTORE PUSH1 0x20 ADD SWAP1 DUP2 MSTORE PUSH1 0x20 ADD PUSH1 0x0 KECCAK256 PUSH1 0x0 PUSH1 0x2 DUP2 MSTORE PUSH1 0x20 ADD SWAP1 DUP2 MSTORE PUSH1 0x20 ADD PUSH1 0x0 KECCAK256 SWAP1 DUP1 MLOAD SWAP1 PUSH1 0x20 ADD SWAP1 PUSH3 0x1442 SWAP3 SWAP2 SWAP1 PUSH3 0x1B16 JUMP JUMPDEST POP PUSH1 0x40 MLOAD DUP1 PUSH1 0x40 ADD PUSH1 0x40 MSTORE DUP1 PUSH1 0x9 DUP2 MSTORE PUSH1 0x20 ADD PUSH32 0x4D616E7A696B6572740000000000000000000000000000000000000000000000 DUP2 MSTORE POP PUSH1 0x0 PUSH1 0x40 MLOAD PUSH3 0x1489 SWAP1 PUSH3 0x1C69 JUMP JUMPDEST SWAP1 DUP2 MSTORE PUSH1 0x20 ADD PUSH1 0x40 MLOAD DUP1 SWAP2 SUB SWAP1 KECCAK256 PUSH1 0x0 PUSH1 0x4 DUP2 MSTORE PUSH1 0x20 ADD SWAP1 DUP2 MSTORE PUSH1 0x20 ADD PUSH1 0x0 KECCAK256 PUSH1 0x0 PUSH1 0x3 DUP2 MSTORE PUSH1 0x20 ADD SWAP1 DUP2 MSTORE PUSH1 0x20 ADD PUSH1 0x0 KECCAK256 SWAP1 DUP1 MLOAD SWAP1 PUSH1 0x20 ADD SWAP1 PUSH3 0x14D0 SWAP3 SWAP2 SWAP1 PUSH3 0x1B16 JUMP JUMPDEST POP PUSH1 0x40 MLOAD DUP1 PUSH1 0x40 ADD PUSH1 0x40 MSTORE DUP1 PUSH1 0x8 DUP2 MSTORE PUSH1 0x20 ADD PUSH32 0x4361727468616765000000000000000000000000000000000000000000000000 DUP2 MSTORE POP PUSH1 0x0 PUSH1 0x40 MLOAD PUSH3 0x1517 SWAP1 PUSH3 0x1C69 JUMP JUMPDEST SWAP1 DUP2 MSTORE PUSH1 0x20 ADD PUSH1 0x40 MLOAD DUP1 SWAP2 SUB SWAP1 KECCAK256 PUSH1 0x0 PUSH1 0x5 DUP2 MSTORE PUSH1 0x20 ADD SWAP1 DUP2 MSTORE PUSH1 0x20 ADD PUSH1 0x0 KECCAK256 PUSH1 0x0 DUP1 DUP2 MSTORE PUSH1 0x20 ADD SWAP1 DUP2 MSTORE PUSH1 0x20 ADD PUSH1 0x0 KECCAK256 SWAP1 DUP1 MLOAD SWAP1 PUSH1 0x20 ADD SWAP1 PUSH3 0x155D SWAP3 SWAP2 SWAP1 PUSH3 0x1B16 JUMP JUMPDEST POP PUSH1 0x40 MLOAD DUP1 PUSH1 0x40 ADD PUSH1 0x40 MSTORE DUP1 PUSH1 0x7 DUP2 MSTORE PUSH1 0x20 ADD PUSH32 0x416E74696F636800000000000000000000000000000000000000000000000000 DUP2 MSTORE POP PUSH1 0x0 PUSH1 0x40 MLOAD PUSH3 0x15A4 SWAP1 PUSH3 0x1C69 JUMP JUMPDEST SWAP1 DUP2 MSTORE PUSH1 0x20 ADD PUSH1 0x40 MLOAD DUP1 SWAP2 SUB SWAP1 KECCAK256 PUSH1 0x0 PUSH1 0x5 DUP2 MSTORE PUSH1 0x20 ADD SWAP1 DUP2 MSTORE PUSH1 0x20 ADD PUSH1 0x0 KECCAK256 PUSH1 0x0 PUSH1 0x1 DUP2 MSTORE PUSH1 0x20 ADD SWAP1 DUP2 MSTORE PUSH1 0x20 ADD PUSH1 0x0 KECCAK256 SWAP1 DUP1 MLOAD SWAP1 PUSH1 0x20 ADD SWAP1 PUSH3 0x15EB SWAP3 SWAP2 SWAP1 PUSH3 0x1B16 JUMP JUMPDEST POP PUSH1 0x40 MLOAD DUP1 PUSH1 0x40 ADD PUSH1 0x40 MSTORE DUP1 PUSH1 0xB DUP2 MSTORE PUSH1 0x20 ADD PUSH32 0x41647269616E6F706F6C65000000000000000000000000000000000000000000 DUP2 MSTORE POP PUSH1 0x0 PUSH1 0x40 MLOAD PUSH3 0x1632 SWAP1 PUSH3 0x1C69 JUMP JUMPDEST SWAP1 DUP2 MSTORE PUSH1 0x20 ADD PUSH1 0x40 MLOAD DUP1 SWAP2 SUB SWAP1 KECCAK256 PUSH1 0x0 PUSH1 0x5 DUP2 MSTORE PUSH1 0x20 ADD SWAP1 DUP2 MSTORE PUSH1 0x20 ADD PUSH1 0x0 KECCAK256 PUSH1 0x0 PUSH1 0x2 DUP2 MSTORE PUSH1 0x20 ADD SWAP1 DUP2 MSTORE PUSH1 0x20 ADD PUSH1 0x0 KECCAK256 SWAP1 DUP1 MLOAD SWAP1 PUSH1 0x20 ADD SWAP1 PUSH3 0x1679 SWAP3 SWAP2 SWAP1 PUSH3 0x1B16 JUMP JUMPDEST POP PUSH1 0x40 MLOAD DUP1 PUSH1 0x40 ADD PUSH1 0x40 MSTORE DUP1 PUSH1 0xC DUP2 MSTORE PUSH1 0x20 ADD PUSH32 0x54686573616C6C6F6E696B690000000000000000000000000000000000000000 DUP2 MSTORE POP PUSH1 0x0 PUSH1 0x40 MLOAD PUSH3 0x16C0 SWAP1 PUSH3 0x1C69 JUMP JUMPDEST SWAP1 DUP2 MSTORE PUSH1 0x20 ADD PUSH1 0x40 MLOAD DUP1 SWAP2 SUB SWAP1 KECCAK256 PUSH1 0x0 PUSH1 0x5 DUP2 MSTORE PUSH1 0x20 ADD SWAP1 DUP2 MSTORE PUSH1 0x20 ADD PUSH1 0x0 KECCAK256 PUSH1 0x0 PUSH1 0x3 DUP2 MSTORE PUSH1 0x20 ADD SWAP1 DUP2 MSTORE PUSH1 0x20 ADD PUSH1 0x0 KECCAK256 SWAP1 DUP1 MLOAD SWAP1 PUSH1 0x20 ADD SWAP1 PUSH3 0x1707 SWAP3 SWAP2 SWAP1 PUSH3 0x1B16 JUMP JUMPDEST POP PUSH1 0x0 PUSH1 0x40 MLOAD DUP1 PUSH1 0x60 ADD PUSH1 0x40 MSTORE DUP1 PUSH1 0x40 MLOAD DUP1 PUSH1 0x60 ADD PUSH1 0x40 MSTORE DUP1 PUSH1 0x3D DUP2 MSTORE PUSH1 0x20 ADD PUSH3 0x571D PUSH1 0x3D SWAP2 CODECOPY DUP2 MSTORE PUSH1 0x20 ADD PUSH1 0x2 DUP2 MSTORE PUSH1 0x20 ADD PUSH1 0x40 MLOAD DUP1 PUSH1 0xC0 ADD PUSH1 0x40 MSTORE DUP1 PUSH1 0x83 DUP2 MSTORE PUSH1 0x20 ADD PUSH3 0x5505 PUSH1 0x83 SWAP2 CODECOPY DUP2 MSTORE POP SWAP1 POP PUSH1 0x0 PUSH1 0x40 MLOAD DUP1 PUSH1 0x60 ADD PUSH1 0x40 MSTORE DUP1 PUSH1 0x40 MLOAD DUP1 PUSH1 0x60 ADD PUSH1 0x40 MSTORE DUP1 PUSH1 0x37 DUP2 MSTORE PUSH1 0x20 ADD PUSH3 0x59DF PUSH1 0x37 SWAP2 CODECOPY DUP2 MSTORE PUSH1 0x20 ADD PUSH1 0x0 DUP2 MSTORE PUSH1 0x20 ADD PUSH1 0x40 MLOAD DUP1 PUSH2 0x120 ADD PUSH1 0x40 MSTORE DUP1 PUSH1 0xF0 DUP2 MSTORE PUSH1 0x20 ADD PUSH3 0x5793 PUSH1 0xF0 SWAP2 CODECOPY DUP2 MSTORE POP SWAP1 POP PUSH1 0x0 PUSH1 0x40 MLOAD DUP1 PUSH1 0x60 ADD PUSH1 0x40 MSTORE DUP1 PUSH1 0x40 MLOAD DUP1 PUSH1 0x60 ADD PUSH1 0x40 MSTORE DUP1 PUSH1 0x39 DUP2 MSTORE PUSH1 0x20 ADD PUSH3 0x575A PUSH1 0x39 SWAP2 CODECOPY DUP2 MSTORE PUSH1 0x20 ADD PUSH1 0x1 DUP2 MSTORE PUSH1 0x20 ADD PUSH1 0x40 MLOAD DUP1 PUSH1 0xC0 ADD PUSH1 0x40 MSTORE DUP1 PUSH1 0x89 DUP2 MSTORE PUSH1 0x20 ADD PUSH3 0x53D2 PUSH1 0x89 SWAP2 CODECOPY DUP2 MSTORE POP SWAP1 POP PUSH1 0x0 PUSH1 0x40 MLOAD DUP1 PUSH1 0x60 ADD PUSH1 0x40 MSTORE DUP1 PUSH1 0x40 MLOAD DUP1 PUSH1 0x60 ADD PUSH1 0x40 MSTORE DUP1 PUSH1 0x2D DUP2 MSTORE PUSH1 0x20 ADD PUSH3 0x595F PUSH1 0x2D SWAP2 CODECOPY DUP2 MSTORE PUSH1 0x20 ADD PUSH1 0x3 DUP2 MSTORE PUSH1 0x20 ADD PUSH1 0x40 MLOAD DUP1 PUSH2 0x120 ADD PUSH1 0x40 MSTORE DUP1 PUSH1 0xE9 DUP2 MSTORE PUSH1 0x20 ADD PUSH3 0x5588 PUSH1 0xE9 SWAP2 CODECOPY DUP2 MSTORE POP SWAP1 POP PUSH1 0x0 PUSH1 0x40 MLOAD DUP1 PUSH1 0x60 ADD PUSH1 0x40 MSTORE DUP1 PUSH1 0x40 MLOAD DUP1 PUSH1 0x80 ADD PUSH1 0x40 MSTORE DUP1 PUSH1 0x53 DUP2 MSTORE PUSH1 0x20 ADD PUSH3 0x598C PUSH1 0x53 SWAP2 CODECOPY DUP2 MSTORE PUSH1 0x20 ADD PUSH1 0x0 DUP2 MSTORE PUSH1 0x20 ADD PUSH1 0x40 MLOAD DUP1 PUSH1 0xC0 ADD PUSH1 0x40 MSTORE DUP1 PUSH1 0x85 DUP2 MSTORE PUSH1 0x20 ADD PUSH3 0x5A16 PUSH1 0x85 SWAP2 CODECOPY DUP2 MSTORE POP SWAP1 POP DUP5 PUSH1 0x1 PUSH1 0x40 MLOAD PUSH3 0x18B5 SWAP1 PUSH3 0x1C69 JUMP JUMPDEST SWAP1 DUP2 MSTORE PUSH1 0x20 ADD PUSH1 0x40 MLOAD DUP1 SWAP2 SUB SWAP1 KECCAK256 PUSH1 0x0 DUP1 DUP2 MSTORE PUSH1 0x20 ADD SWAP1 DUP2 MSTORE PUSH1 0x20 ADD PUSH1 0x0 KECCAK256 PUSH1 0x0 DUP3 ADD MLOAD DUP2 PUSH1 0x0 ADD SWAP1 DUP1 MLOAD SWAP1 PUSH1 0x20 ADD SWAP1 PUSH3 0x18F2 SWAP3 SWAP2 SWAP1 PUSH3 0x1B16 JUMP JUMPDEST POP PUSH1 0x20 DUP3 ADD MLOAD DUP2 PUSH1 0x1 ADD SSTORE PUSH1 0x40 DUP3 ADD MLOAD DUP2 PUSH1 0x2 ADD SWAP1 DUP1 MLOAD SWAP1 PUSH1 0x20 ADD SWAP1 PUSH3 0x191B SWAP3 SWAP2 SWAP1 PUSH3 0x1B16 JUMP JUMPDEST POP SWAP1 POP POP DUP4 PUSH1 0x1 PUSH1 0x40 MLOAD PUSH3 0x1930 SWAP1 PUSH3 0x1C69 JUMP JUMPDEST SWAP1 DUP2 MSTORE PUSH1 0x20 ADD PUSH1 0x40 MLOAD DUP1 SWAP2 SUB SWAP1 KECCAK256 PUSH1 0x0 PUSH1 0x1 DUP2 MSTORE PUSH1 0x20 ADD SWAP1 DUP2 MSTORE PUSH1 0x20 ADD PUSH1 0x0 KECCAK256 PUSH1 0x0 DUP3 ADD MLOAD DUP2 PUSH1 0x0 ADD SWAP1 DUP1 MLOAD SWAP1 PUSH1 0x20 ADD SWAP1 PUSH3 0x196E SWAP3 SWAP2 SWAP1 PUSH3 0x1B16 JUMP JUMPDEST POP PUSH1 0x20 DUP3 ADD MLOAD DUP2 PUSH1 0x1 ADD SSTORE PUSH1 0x40 DUP3 ADD MLOAD DUP2 PUSH1 0x2 ADD SWAP1 DUP1 MLOAD SWAP1 PUSH1 0x20 ADD SWAP1 PUSH3 0x1997 SWAP3 SWAP2 SWAP1 PUSH3 0x1B16 JUMP JUMPDEST POP SWAP1 POP POP DUP3 PUSH1 0x1 PUSH1 0x40 MLOAD PUSH3 0x19AC SWAP1 PUSH3 0x1C69 JUMP JUMPDEST SWAP1 DUP2 MSTORE PUSH1 0x20 ADD PUSH1 0x40 MLOAD DUP1 SWAP2 SUB SWAP1 KECCAK256 PUSH1 0x0 PUSH1 0x2 DUP2 MSTORE PUSH1 0x20 ADD SWAP1 DUP2 MSTORE PUSH1 0x20 ADD PUSH1 0x0 KECCAK256 PUSH1 0x0 DUP3 ADD MLOAD DUP2 PUSH1 0x0 ADD SWAP1 DUP1 MLOAD SWAP1 PUSH1 0x20 ADD SWAP1 PUSH3 0x19EA SWAP3 SWAP2 SWAP1 PUSH3 0x1B16 JUMP JUMPDEST POP PUSH1 0x20 DUP3 ADD MLOAD DUP2 PUSH1 0x1 ADD SSTORE PUSH1 0x40 DUP3 ADD MLOAD DUP2 PUSH1 0x2 ADD SWAP1 DUP1 MLOAD SWAP1 PUSH1 0x20 ADD SWAP1 PUSH3 0x1A13 SWAP3 SWAP2 SWAP1 PUSH3 0x1B16 JUMP JUMPDEST POP SWAP1 POP POP DUP2 PUSH1 0x1 PUSH1 0x40 MLOAD PUSH3 0x1A28 SWAP1 PUSH3 0x1C69 JUMP JUMPDEST SWAP1 DUP2 MSTORE PUSH1 0x20 ADD PUSH1 0x40 MLOAD DUP1 SWAP2 SUB SWAP1 KECCAK256 PUSH1 0x0 PUSH1 0x3 DUP2 MSTORE PUSH1 0x20 ADD SWAP1 DUP2 MSTORE PUSH1 0x20 ADD PUSH1 0x0 KECCAK256 PUSH1 0x0 DUP3 ADD MLOAD DUP2 PUSH1 0x0 ADD SWAP1 DUP1 MLOAD SWAP1 PUSH1 0x20 ADD SWAP1 PUSH3 0x1A66 SWAP3 SWAP2 SWAP1 PUSH3 0x1B16 JUMP JUMPDEST POP PUSH1 0x20 DUP3 ADD MLOAD DUP2 PUSH1 0x1 ADD SSTORE PUSH1 0x40 DUP3 ADD MLOAD DUP2 PUSH1 0x2 ADD SWAP1 DUP1 MLOAD SWAP1 PUSH1 0x20 ADD SWAP1 PUSH3 0x1A8F SWAP3 SWAP2 SWAP1 PUSH3 0x1B16 JUMP JUMPDEST POP SWAP1 POP POP DUP1 PUSH1 0x1 PUSH1 0x40 MLOAD PUSH3 0x1AA4 SWAP1 PUSH3 0x1C69 JUMP JUMPDEST SWAP1 DUP2 MSTORE PUSH1 0x20 ADD PUSH1 0x40 MLOAD DUP1 SWAP2 SUB SWAP1 KECCAK256 PUSH1 0x0 PUSH1 0x4 DUP2 MSTORE PUSH1 0x20 ADD SWAP1 DUP2 MSTORE PUSH1 0x20 ADD PUSH1 0x0 KECCAK256 PUSH1 0x0 DUP3 ADD MLOAD DUP2 PUSH1 0x0 ADD SWAP1 DUP1 MLOAD SWAP1 PUSH1 0x20 ADD SWAP1 PUSH3 0x1AE2 SWAP3 SWAP2 SWAP1 PUSH3 0x1B16 JUMP JUMPDEST POP PUSH1 0x20 DUP3 ADD MLOAD DUP2 PUSH1 0x1 ADD SSTORE PUSH1 0x40 DUP3 ADD MLOAD DUP2 PUSH1 0x2 ADD SWAP1 DUP1 MLOAD SWAP1 PUSH1 0x20 ADD SWAP1 PUSH3 0x1B0B SWAP3 SWAP2 SWAP1 PUSH3 0x1B16 JUMP JUMPDEST POP SWAP1 POP POP POP POP POP POP POP JUMP JUMPDEST DUP3 DUP1 SLOAD PUSH3 0x1B24 SWAP1 PUSH3 0x1C8B JUMP JUMPDEST SWAP1 PUSH1 0x0 MSTORE PUSH1 0x20 PUSH1 0x0 KECCAK256 SWAP1 PUSH1 0x1F ADD PUSH1 0x20 SWAP1 DIV DUP2 ADD SWAP3 DUP3 PUSH3 0x1B48 JUMPI PUSH1 0x0 DUP6 SSTORE PUSH3 0x1B94 JUMP JUMPDEST DUP3 PUSH1 0x1F LT PUSH3 0x1B63 JUMPI DUP1 MLOAD PUSH1 0xFF NOT AND DUP4 DUP1 ADD OR DUP6 SSTORE PUSH3 0x1B94 JUMP JUMPDEST DUP3 DUP1 ADD PUSH1 0x1 ADD DUP6 SSTORE DUP3 ISZERO PUSH3 0x1B94 JUMPI SWAP2 DUP3 ADD JUMPDEST DUP3 DUP2 GT ISZERO PUSH3 0x1B93 JUMPI DUP3 MLOAD DUP3 SSTORE SWAP2 PUSH1 0x20 ADD SWAP2 SWAP1 PUSH1 0x1 ADD SWAP1 PUSH3 0x1B76 JUMP JUMPDEST JUMPDEST POP SWAP1 POP PUSH3 0x1BA3 SWAP2 SWAP1 PUSH3 0x1BA7 JUMP JUMPDEST POP SWAP1 JUMP JUMPDEST JUMPDEST DUP1 DUP3 GT ISZERO PUSH3 0x1BC2 JUMPI PUSH1 0x0 DUP2 PUSH1 0x0 SWAP1 SSTORE POP PUSH1 0x1 ADD PUSH3 0x1BA8 JUMP JUMPDEST POP SWAP1 JUMP JUMPDEST PUSH1 0x0 PUSH3 0x1BD5 PUSH1 0x14 DUP4 PUSH3 0x1C80 JUMP JUMPDEST SWAP2 POP PUSH3 0x1BE2 DUP3 PUSH3 0x1CF0 JUMP JUMPDEST PUSH1 0x14 DUP3 ADD SWAP1 POP SWAP2 SWAP1 POP JUMP JUMPDEST PUSH1 0x0 PUSH3 0x1BFC PUSH1 0x13 DUP4 PUSH3 0x1C80 JUMP JUMPDEST SWAP2 POP PUSH3 0x1C09 DUP3 PUSH3 0x1D19 JUMP JUMPDEST PUSH1 0x13 DUP3 ADD SWAP1 POP SWAP2 SWAP1 POP JUMP JUMPDEST PUSH1 0x0 PUSH3 0x1C23 PUSH1 0x15 DUP4 PUSH3 0x1C80 JUMP JUMPDEST SWAP2 POP PUSH3 0x1C30 DUP3 PUSH3 0x1D42 JUMP JUMPDEST PUSH1 0x15 DUP3 ADD SWAP1 POP SWAP2 SWAP1 POP JUMP JUMPDEST PUSH1 0x0 PUSH3 0x1C48 DUP3 PUSH3 0x1BC6 JUMP JUMPDEST SWAP2 POP DUP2 SWAP1 POP SWAP2 SWAP1 POP JUMP JUMPDEST PUSH1 0x0 PUSH3 0x1C5F DUP3 PUSH3 0x1BED JUMP JUMPDEST SWAP2 POP DUP2 SWAP1 POP SWAP2 SWAP1 POP JUMP JUMPDEST PUSH1 0x0 PUSH3 0x1C76 DUP3 PUSH3 0x1C14 JUMP JUMPDEST SWAP2 POP DUP2 SWAP1 POP SWAP2 SWAP1 POP JUMP JUMPDEST PUSH1 0x0 DUP2 SWAP1 POP SWAP3 SWAP2 POP POP JUMP JUMPDEST PUSH1 0x0 PUSH1 0x2 DUP3 DIV SWAP1 POP PUSH1 0x1 DUP3 AND DUP1 PUSH3 0x1CA4 JUMPI PUSH1 0x7F DUP3 AND SWAP2 POP JUMPDEST PUSH1 0x20 DUP3 LT DUP2 EQ ISZERO PUSH3 0x1CBB JUMPI PUSH3 0x1CBA PUSH3 0x1CC1 JUMP JUMPDEST JUMPDEST POP SWAP2 SWAP1 POP JUMP JUMPDEST PUSH32 0x4E487B7100000000000000000000000000000000000000000000000000000000 PUSH1 0x0 MSTORE PUSH1 0x22 PUSH1 0x4 MSTORE PUSH1 0x24 PUSH1 0x0 REVERT JUMPDEST PUSH32 0x416E6369656E7420526F6D616E20456D70697265000000000000000000000000 PUSH1 0x0 DUP3 ADD MSTORE POP JUMP JUMPDEST PUSH32 0x416E6369656E7420526F6D616E20456D70696500000000000000000000000000 PUSH1 0x0 DUP3 ADD MSTORE POP JUMP JUMPDEST PUSH32 0x4D6564696576616C20526F6D616E20456D706972650000000000000000000000 PUSH1 0x0 DUP3 ADD MSTORE POP JUMP JUMPDEST PUSH2 0x3575 DUP1 PUSH3 0x1D7B PUSH1 0x0 CODECOPY PUSH1 0x0 RETURN INVALID PUSH1 0x80 PUSH1 0x40 MSTORE CALLVALUE DUP1 ISZERO PUSH2 0x10 JUMPI PUSH1 0x0 DUP1 REVERT JUMPDEST POP PUSH1 0x4 CALLDATASIZE LT PUSH2 0x62 JUMPI PUSH1 0x0 CALLDATALOAD PUSH1 0xE0 SHR DUP1 PUSH4 0x4F268ED EQ PUSH2 0x67 JUMPI DUP1 PUSH4 0x77A3735 EQ PUSH2 0x71 JUMPI DUP1 PUSH4 0x7EDE6FDF EQ PUSH2 0x8D JUMPI DUP1 PUSH4 0x961C37CC EQ PUSH2 0xBF JUMPI DUP1 PUSH4 0xB6C56385 EQ PUSH2 0xC9 JUMPI DUP1 PUSH4 0xE6C1E335 EQ PUSH2 0xF9 JUMPI JUMPDEST PUSH1 0x0 DUP1 REVERT JUMPDEST PUSH2 0x6F PUSH2 0x129 JUMP JUMPDEST STOP JUMPDEST PUSH2 0x8B PUSH1 0x4 DUP1 CALLDATASIZE SUB DUP2 ADD SWAP1 PUSH2 0x86 SWAP2 SWAP1 PUSH2 0x24BA JUMP JUMPDEST PUSH2 0xF77 JUMP JUMPDEST STOP JUMPDEST PUSH2 0xA7 PUSH1 0x4 DUP1 CALLDATASIZE SUB DUP2 ADD SWAP1 PUSH2 0xA2 SWAP2 SWAP1 PUSH2 0x2561 JUMP JUMPDEST PUSH2 0x102D JUMP JUMPDEST PUSH1 0x40 MLOAD PUSH2 0xB6 SWAP4 SWAP3 SWAP2 SWAP1 PUSH2 0x28D0 JUMP JUMPDEST PUSH1 0x40 MLOAD DUP1 SWAP2 SUB SWAP1 RETURN JUMPDEST PUSH2 0xC7 PUSH2 0x118A JUMP JUMPDEST STOP JUMPDEST PUSH2 0xE3 PUSH1 0x4 DUP1 CALLDATASIZE SUB DUP2 ADD SWAP1 PUSH2 0xDE SWAP2 SWAP1 PUSH2 0x2471 JUMP JUMPDEST PUSH2 0x1D3F JUMP JUMPDEST PUSH1 0x40 MLOAD PUSH2 0xF0 SWAP2 SWAP1 PUSH2 0x288C JUMP JUMPDEST PUSH1 0x40 MLOAD DUP1 SWAP2 SUB SWAP1 RETURN JUMPDEST PUSH2 0x113 PUSH1 0x4 DUP1 CALLDATASIZE SUB DUP2 ADD SWAP1 PUSH2 0x10E SWAP2 SWAP1 PUSH2 0x25BD JUMP JUMPDEST PUSH2 0x2065 JUMP JUMPDEST PUSH1 0x40 MLOAD PUSH2 0x120 SWAP2 SWAP1 PUSH2 0x28AE JUMP JUMPDEST PUSH1 0x40 MLOAD DUP1 SWAP2 SUB SWAP1 RETURN JUMPDEST PUSH1 0x40 MLOAD DUP1 PUSH1 0x40 ADD PUSH1 0x40 MSTORE DUP1 PUSH1 0x6 DUP2 MSTORE PUSH1 0x20 ADD PUSH32 0x4D756E6475730000000000000000000000000000000000000000000000000000 DUP2 MSTORE POP PUSH1 0x0 PUSH1 0x40 MLOAD PUSH2 0x16D SWAP1 PUSH2 0x2877 JUMP JUMPDEST SWAP1 DUP2 MSTORE PUSH1 0x20 ADD PUSH1 0x40 MLOAD DUP1 SWAP2 SUB SWAP1 KECCAK256 PUSH1 0x0 DUP1 DUP2 MSTORE PUSH1 0x20 ADD SWAP1 DUP2 MSTORE PUSH1 0x20 ADD PUSH1 0x0 KECCAK256 PUSH1 0x0 DUP1 DUP2 MSTORE PUSH1 0x20 ADD SWAP1 DUP2 MSTORE PUSH1 0x20 ADD PUSH1 0x0 KECCAK256 SWAP1 DUP1 MLOAD SWAP1 PUSH1 0x20 ADD SWAP1 PUSH2 0x1B0 SWAP3 SWAP2 SWAP1 PUSH2 0x2135 JUMP JUMPDEST POP PUSH1 0x40 MLOAD DUP1 PUSH1 0x40 ADD PUSH1 0x40 MSTORE DUP1 PUSH1 0x6 DUP2 MSTORE PUSH1 0x20 ADD PUSH32 0x4265737361730000000000000000000000000000000000000000000000000000 DUP2 MSTORE POP PUSH1 0x0 PUSH1 0x40 MLOAD PUSH2 0x1F5 SWAP1 PUSH2 0x2877 JUMP JUMPDEST SWAP1 DUP2 MSTORE PUSH1 0x20 ADD PUSH1 0x40 MLOAD DUP1 SWAP2 SUB SWAP1 KECCAK256 PUSH1 0x0 DUP1 DUP2 MSTORE PUSH1 0x20 ADD SWAP1 DUP2 MSTORE PUSH1 0x20 ADD PUSH1 0x0 KECCAK256 PUSH1 0x0 PUSH1 0x1 DUP2 MSTORE PUSH1 0x20 ADD SWAP1 DUP2 MSTORE PUSH1 0x20 ADD PUSH1 0x0 KECCAK256 SWAP1 DUP1 MLOAD SWAP1 PUSH1 0x20 ADD SWAP1 PUSH2 0x239 SWAP3 SWAP2 SWAP1 PUSH2 0x2135 JUMP JUMPDEST POP PUSH1 0x40 MLOAD DUP1 PUSH1 0x40 ADD PUSH1 0x40 MSTORE DUP1 PUSH1 0xA DUP2 MSTORE PUSH1 0x20 ADD PUSH32 0x42656C6973617269757300000000000000000000000000000000000000000000 DUP2 MSTORE POP PUSH1 0x0 PUSH1 0x40 MLOAD PUSH2 0x27E SWAP1 PUSH2 0x2877 JUMP JUMPDEST SWAP1 DUP2 MSTORE PUSH1 0x20 ADD PUSH1 0x40 MLOAD DUP1 SWAP2 SUB SWAP1 KECCAK256 PUSH1 0x0 DUP1 DUP2 MSTORE PUSH1 0x20 ADD SWAP1 DUP2 MSTORE PUSH1 0x20 ADD PUSH1 0x0 KECCAK256 PUSH1 0x0 PUSH1 0x2 DUP2 MSTORE PUSH1 0x20 ADD SWAP1 DUP2 MSTORE PUSH1 0x20 ADD PUSH1 0x0 KECCAK256 SWAP1 DUP1 MLOAD SWAP1 PUSH1 0x20 ADD SWAP1 PUSH2 0x2C2 SWAP3 SWAP2 SWAP1 PUSH2 0x2135 JUMP JUMPDEST POP PUSH1 0x40 MLOAD DUP1 PUSH1 0x40 ADD PUSH1 0x40 MSTORE DUP1 PUSH1 0x6 DUP2 MSTORE PUSH1 0x20 ADD PUSH32 0x5369747461730000000000000000000000000000000000000000000000000000 DUP2 MSTORE POP PUSH1 0x0 PUSH1 0x40 MLOAD PUSH2 0x307 SWAP1 PUSH2 0x2877 JUMP JUMPDEST SWAP1 DUP2 MSTORE PUSH1 0x20 ADD PUSH1 0x40 MLOAD DUP1 SWAP2 SUB SWAP1 KECCAK256 PUSH1 0x0 DUP1 DUP2 MSTORE PUSH1 0x20 ADD SWAP1 DUP2 MSTORE PUSH1 0x20 ADD PUSH1 0x0 KECCAK256 PUSH1 0x0 PUSH1 0x3 DUP2 MSTORE PUSH1 0x20 ADD SWAP1 DUP2 MSTORE PUSH1 0x20 ADD PUSH1 0x0 KECCAK256 SWAP1 DUP1 MLOAD SWAP1 PUSH1 0x20 ADD SWAP1 PUSH2 0x34B SWAP3 SWAP2 SWAP1 PUSH2 0x2135 JUMP JUMPDEST POP PUSH1 0x40 MLOAD DUP1 PUSH1 0x60 ADD PUSH1 0x40 MSTORE DUP1 PUSH1 0x39 DUP2 MSTORE PUSH1 0x20 ADD PUSH2 0x2E8B PUSH1 0x39 SWAP2 CODECOPY PUSH1 0x0 PUSH1 0x40 MLOAD PUSH2 0x373 SWAP1 PUSH2 0x2877 JUMP JUMPDEST SWAP1 DUP2 MSTORE PUSH1 0x20 ADD PUSH1 0x40 MLOAD DUP1 SWAP2 SUB SWAP1 KECCAK256 PUSH1 0x0 PUSH1 0x2 DUP2 MSTORE PUSH1 0x20 ADD SWAP1 DUP2 MSTORE PUSH1 0x20 ADD PUSH1 0x0 KECCAK256 PUSH1 0x0 DUP1 DUP2 MSTORE PUSH1 0x20 ADD SWAP1 DUP2 MSTORE PUSH1 0x20 ADD PUSH1 0x0 KECCAK256 SWAP1 DUP1 MLOAD SWAP1 PUSH1 0x20 ADD SWAP1 PUSH2 0x3B7 SWAP3 SWAP2 SWAP1 PUSH2 0x2135 JUMP JUMPDEST POP PUSH1 0x40 MLOAD DUP1 PUSH1 0x60 ADD PUSH1 0x40 MSTORE DUP1 PUSH1 0x2A DUP2 MSTORE PUSH1 0x20 ADD PUSH2 0x3242 PUSH1 0x2A SWAP2 CODECOPY PUSH1 0x0 PUSH1 0x40 MLOAD PUSH2 0x3DF SWAP1 PUSH2 0x2877 JUMP JUMPDEST SWAP1 DUP2 MSTORE PUSH1 0x20 ADD PUSH1 0x40 MLOAD DUP1 SWAP2 SUB SWAP1 KECCAK256 PUSH1 0x0 PUSH1 0x2 DUP2 MSTORE PUSH1 0x20 ADD SWAP1 DUP2 MSTORE PUSH1 0x20 ADD PUSH1 0x0 KECCAK256 PUSH1 0x0 PUSH1 0x1 DUP2 MSTORE PUSH1 0x20 ADD SWAP1 DUP2 MSTORE PUSH1 0x20 ADD PUSH1 0x0 KECCAK256 SWAP1 DUP1 MLOAD SWAP1 PUSH1 0x20 ADD SWAP1 PUSH2 0x424 SWAP3 SWAP2 SWAP1 PUSH2 0x2135 JUMP JUMPDEST POP PUSH1 0x40 MLOAD DUP1 PUSH1 0x60 ADD PUSH1 0x40 MSTORE DUP1 PUSH1 0x2C DUP2 MSTORE PUSH1 0x20 ADD PUSH2 0x3030 PUSH1 0x2C SWAP2 CODECOPY PUSH1 0x0 PUSH1 0x40 MLOAD PUSH2 0x44C SWAP1 PUSH2 0x2877 JUMP JUMPDEST SWAP1 DUP2 MSTORE PUSH1 0x20 ADD PUSH1 0x40 MLOAD DUP1 SWAP2 SUB SWAP1 KECCAK256 PUSH1 0x0 PUSH1 0x2 DUP2 MSTORE PUSH1 0x20 ADD SWAP1 DUP2 MSTORE PUSH1 0x20 ADD PUSH1 0x0 KECCAK256 PUSH1 0x0 PUSH1 0x2 DUP2 MSTORE PUSH1 0x20 ADD SWAP1 DUP2 MSTORE PUSH1 0x20 ADD PUSH1 0x0 KECCAK256 SWAP1 DUP1 MLOAD SWAP1 PUSH1 0x20 ADD SWAP1 PUSH2 0x491 SWAP3 SWAP2 SWAP1 PUSH2 0x2135 JUMP JUMPDEST POP PUSH1 0x40 MLOAD DUP1 PUSH1 0x40 ADD PUSH1 0x40 MSTORE DUP1 PUSH1 0x20 DUP2 MSTORE PUSH1 0x20 ADD PUSH32 0x5065727369616E2064657369726520746F20636F6E717565722045677970742E DUP2 MSTORE POP PUSH1 0x0 PUSH1 0x40 MLOAD PUSH2 0x4D6 SWAP1 PUSH2 0x2877 JUMP JUMPDEST SWAP1 DUP2 MSTORE PUSH1 0x20 ADD PUSH1 0x40 MLOAD DUP1 SWAP2 SUB SWAP1 KECCAK256 PUSH1 0x0 PUSH1 0x2 DUP2 MSTORE PUSH1 0x20 ADD SWAP1 DUP2 MSTORE PUSH1 0x20 ADD PUSH1 0x0 KECCAK256 PUSH1 0x0 PUSH1 0x3 DUP2 MSTORE PUSH1 0x20 ADD SWAP1 DUP2 MSTORE PUSH1 0x20 ADD PUSH1 0x0 KECCAK256 SWAP1 DUP1 MLOAD SWAP1 PUSH1 0x20 ADD SWAP1 PUSH2 0x51B SWAP3 SWAP2 SWAP1 PUSH2 0x2135 JUMP JUMPDEST POP PUSH1 0x40 MLOAD DUP1 PUSH1 0x40 ADD PUSH1 0x40 MSTORE DUP1 PUSH1 0x7 DUP2 MSTORE PUSH1 0x20 ADD PUSH32 0x426173696C204900000000000000000000000000000000000000000000000000 DUP2 MSTORE POP PUSH1 0x0 PUSH1 0x40 MLOAD PUSH2 0x560 SWAP1 PUSH2 0x2877 JUMP JUMPDEST SWAP1 DUP2 MSTORE PUSH1 0x20 ADD PUSH1 0x40 MLOAD DUP1 SWAP2 SUB SWAP1 KECCAK256 PUSH1 0x0 PUSH1 0x3 DUP2 MSTORE PUSH1 0x20 ADD SWAP1 DUP2 MSTORE PUSH1 0x20 ADD PUSH1 0x0 KECCAK256 PUSH1 0x0 DUP1 DUP2 MSTORE PUSH1 0x20 ADD SWAP1 DUP2 MSTORE PUSH1 0x20 ADD PUSH1 0x0 KECCAK256 SWAP1 DUP1 MLOAD SWAP1 PUSH1 0x20 ADD SWAP1 PUSH2 0x5A4 SWAP3 SWAP2 SWAP1 PUSH2 0x2135 JUMP JUMPDEST POP PUSH1 0x40 MLOAD DUP1 PUSH1 0x40 ADD PUSH1 0x40 MSTORE DUP1 PUSH1 0x14 DUP2 MSTORE PUSH1 0x20 ADD PUSH32 0x4E696B6570686F726F732049492050686F6B6173000000000000000000000000 DUP2 MSTORE POP PUSH1 0x0 PUSH1 0x40 MLOAD PUSH2 0x5E9 SWAP1 PUSH2 0x2877 JUMP JUMPDEST SWAP1 DUP2 MSTORE PUSH1 0x20 ADD PUSH1 0x40 MLOAD DUP1 SWAP2 SUB SWAP1 KECCAK256 PUSH1 0x0 PUSH1 0x3 DUP2 MSTORE PUSH1 0x20 ADD SWAP1 DUP2 MSTORE PUSH1 0x20 ADD PUSH1 0x0 KECCAK256 PUSH1 0x0 PUSH1 0x1 DUP2 MSTORE PUSH1 0x20 ADD SWAP1 DUP2 MSTORE PUSH1 0x20 ADD PUSH1 0x0 KECCAK256 SWAP1 DUP1 MLOAD SWAP1 PUSH1 0x20 ADD SWAP1 PUSH2 0x62E SWAP3 SWAP2 SWAP1 PUSH2 0x2135 JUMP JUMPDEST POP PUSH1 0x40 MLOAD DUP1 PUSH1 0x40 ADD PUSH1 0x40 MSTORE DUP1 PUSH1 0x10 DUP2 MSTORE PUSH1 0x20 ADD PUSH32 0x4A6F686E204920547A696D69736B657300000000000000000000000000000000 DUP2 MSTORE POP PUSH1 0x0 PUSH1 0x40 MLOAD PUSH2 0x673 SWAP1 PUSH2 0x2877 JUMP JUMPDEST SWAP1 DUP2 MSTORE PUSH1 0x20 ADD PUSH1 0x40 MLOAD DUP1 SWAP2 SUB SWAP1 KECCAK256 PUSH1 0x0 PUSH1 0x3 DUP2 MSTORE PUSH1 0x20 ADD SWAP1 DUP2 MSTORE PUSH1 0x20 ADD PUSH1 0x0 KECCAK256 PUSH1 0x0 PUSH1 0x2 DUP2 MSTORE PUSH1 0x20 ADD SWAP1 DUP2 MSTORE PUSH1 0x20 ADD PUSH1 0x0 KECCAK256 SWAP1 DUP1 MLOAD SWAP1 PUSH1 0x20 ADD SWAP1 PUSH2 0x6B8 SWAP3 SWAP2 SWAP1 PUSH2 0x2135 JUMP JUMPDEST POP PUSH1 0x40 MLOAD DUP1 PUSH1 0x40 ADD PUSH1 0x40 MSTORE DUP1 PUSH1 0xA DUP2 MSTORE PUSH1 0x20 ADD PUSH32 0x526F6D616E6F7320494900000000000000000000000000000000000000000000 DUP2 MSTORE POP PUSH1 0x0 PUSH1 0x40 MLOAD PUSH2 0x6FD SWAP1 PUSH2 0x2877 JUMP JUMPDEST SWAP1 DUP2 MSTORE PUSH1 0x20 ADD PUSH1 0x40 MLOAD DUP1 SWAP2 SUB SWAP1 KECCAK256 PUSH1 0x0 PUSH1 0x3 DUP2 MSTORE PUSH1 0x20 ADD SWAP1 DUP2 MSTORE PUSH1 0x20 ADD PUSH1 0x0 KECCAK256 PUSH1 0x0 PUSH1 0x3 DUP2 MSTORE PUSH1 0x20 ADD SWAP1 DUP2 MSTORE PUSH1 0x20 ADD PUSH1 0x0 KECCAK256 SWAP1 DUP1 MLOAD SWAP1 PUSH1 0x20 ADD SWAP1 PUSH2 0x742 SWAP3 SWAP2 SWAP1 PUSH2 0x2135 JUMP JUMPDEST POP PUSH1 0x40 MLOAD DUP1 PUSH1 0x40 ADD PUSH1 0x40 MSTORE DUP1 PUSH1 0x7 DUP2 MSTORE PUSH1 0x20 ADD PUSH32 0x5961726D6F756B00000000000000000000000000000000000000000000000000 DUP2 MSTORE POP PUSH1 0x0 PUSH1 0x40 MLOAD PUSH2 0x787 SWAP1 PUSH2 0x2877 JUMP JUMPDEST SWAP1 DUP2 MSTORE PUSH1 0x20 ADD PUSH1 0x40 MLOAD DUP1 SWAP2 SUB SWAP1 KECCAK256 PUSH1 0x0 PUSH1 0x4 DUP2 MSTORE PUSH1 0x20 ADD SWAP1 DUP2 MSTORE PUSH1 0x20 ADD PUSH1 0x0 KECCAK256 PUSH1 0x0 DUP1 DUP2 MSTORE PUSH1 0x20 ADD SWAP1 DUP2 MSTORE PUSH1 0x20 ADD PUSH1 0x0 KECCAK256 SWAP1 DUP1 MLOAD SWAP1 PUSH1 0x20 ADD SWAP1 PUSH2 0x7CB SWAP3 SWAP2 SWAP1 PUSH2 0x2135 JUMP JUMPDEST POP PUSH1 0x40 MLOAD DUP1 PUSH1 0x40 ADD PUSH1 0x40 MSTORE DUP1 PUSH1 0x6 DUP2 MSTORE PUSH1 0x20 ADD PUSH32 0x506C69736B610000000000000000000000000000000000000000000000000000 DUP2 MSTORE POP PUSH1 0x0 PUSH1 0x40 MLOAD PUSH2 0x810 SWAP1 PUSH2 0x2877 JUMP JUMPDEST SWAP1 DUP2 MSTORE PUSH1 0x20 ADD PUSH1 0x40 MLOAD DUP1 SWAP2 SUB SWAP1 KECCAK256 PUSH1 0x0 PUSH1 0x4 DUP2 MSTORE PUSH1 0x20 ADD SWAP1 DUP2 MSTORE PUSH1 0x20 ADD PUSH1 0x0 KECCAK256 PUSH1 0x0 PUSH1 0x1 DUP2 MSTORE PUSH1 0x20 ADD SWAP1 DUP2 MSTORE PUSH1 0x20 ADD PUSH1 0x0 KECCAK256 SWAP1 DUP1 MLOAD SWAP1 PUSH1 0x20 ADD SWAP1 PUSH2 0x855 SWAP3 SWAP2 SWAP1 PUSH2 0x2135 JUMP JUMPDEST POP PUSH1 0x40 MLOAD DUP1 PUSH1 0x40 ADD PUSH1 0x40 MSTORE DUP1 PUSH1 0x9 DUP2 MSTORE PUSH1 0x20 ADD PUSH32 0x43616C696E6963756D0000000000000000000000000000000000000000000000 DUP2 MSTORE POP PUSH1 0x0 PUSH1 0x40 MLOAD PUSH2 0x89A SWAP1 PUSH2 0x2877 JUMP JUMPDEST SWAP1 DUP2 MSTORE PUSH1 0x20 ADD PUSH1 0x40 MLOAD DUP1 SWAP2 SUB SWAP1 KECCAK256 PUSH1 0x0 PUSH1 0x4 DUP2 MSTORE PUSH1 0x20 ADD SWAP1 DUP2 MSTORE PUSH1 0x20 ADD PUSH1 0x0 KECCAK256 PUSH1 0x0 PUSH1 0x2 DUP2 MSTORE PUSH1 0x20 ADD SWAP1 DUP2 MSTORE PUSH1 0x20 ADD PUSH1 0x0 KECCAK256 SWAP1 DUP1 MLOAD SWAP1 PUSH1 0x20 ADD SWAP1 PUSH2 0x8DF SWAP3 SWAP2 SWAP1 PUSH2 0x2135 JUMP JUMPDEST POP PUSH1 0x40 MLOAD DUP1 PUSH1 0x40 ADD PUSH1 0x40 MSTORE DUP1 PUSH1 0x9 DUP2 MSTORE PUSH1 0x20 ADD PUSH32 0x4D616E7A696B6572740000000000000000000000000000000000000000000000 DUP2 MSTORE POP PUSH1 0x0 PUSH1 0x40 MLOAD PUSH2 0x924 SWAP1 PUSH2 0x2877 JUMP JUMPDEST SWAP1 DUP2 MSTORE PUSH1 0x20 ADD PUSH1 0x40 MLOAD DUP1 SWAP2 SUB SWAP1 KECCAK256 PUSH1 0x0 PUSH1 0x4 DUP2 MSTORE PUSH1 0x20 ADD SWAP1 DUP2 MSTORE PUSH1 0x20 ADD PUSH1 0x0 KECCAK256 PUSH1 0x0 PUSH1 0x3 DUP2 MSTORE PUSH1 0x20 ADD SWAP1 DUP2 MSTORE PUSH1 0x20 ADD PUSH1 0x0 KECCAK256 SWAP1 DUP1 MLOAD SWAP1 PUSH1 0x20 ADD SWAP1 PUSH2 0x969 SWAP3 SWAP2 SWAP1 PUSH2 0x2135 JUMP JUMPDEST POP PUSH1 0x40 MLOAD DUP1 PUSH1 0x40 ADD PUSH1 0x40 MSTORE DUP1 PUSH1 0x8 DUP2 MSTORE PUSH1 0x20 ADD PUSH32 0x4361727468616765000000000000000000000000000000000000000000000000 DUP2 MSTORE POP PUSH1 0x0 PUSH1 0x40 MLOAD PUSH2 0x9AE SWAP1 PUSH2 0x2877 JUMP JUMPDEST SWAP1 DUP2 MSTORE PUSH1 0x20 ADD PUSH1 0x40 MLOAD DUP1 SWAP2 SUB SWAP1 KECCAK256 PUSH1 0x0 PUSH1 0x5 DUP2 MSTORE PUSH1 0x20 ADD SWAP1 DUP2 MSTORE PUSH1 0x20 ADD PUSH1 0x0 KECCAK256 PUSH1 0x0 DUP1 DUP2 MSTORE PUSH1 0x20 ADD SWAP1 DUP2 MSTORE PUSH1 0x20 ADD PUSH1 0x0 KECCAK256 SWAP1 DUP1 MLOAD SWAP1 PUSH1 0x20 ADD SWAP1 PUSH2 0x9F2 SWAP3 SWAP2 SWAP1 PUSH2 0x2135 JUMP JUMPDEST POP PUSH1 0x40 MLOAD DUP1 PUSH1 0x40 ADD PUSH1 0x40 MSTORE DUP1 PUSH1 0x7 DUP2 MSTORE PUSH1 0x20 ADD PUSH32 0x416E74696F636800000000000000000000000000000000000000000000000000 DUP2 MSTORE POP PUSH1 0x0 PUSH1 0x40 MLOAD PUSH2 0xA37 SWAP1 PUSH2 0x2877 JUMP JUMPDEST SWAP1 DUP2 MSTORE PUSH1 0x20 ADD PUSH1 0x40 MLOAD DUP1 SWAP2 SUB SWAP1 KECCAK256 PUSH1 0x0 PUSH1 0x5 DUP2 MSTORE PUSH1 0x20 ADD SWAP1 DUP2 MSTORE PUSH1 0x20 ADD PUSH1 0x0 KECCAK256 PUSH1 0x0 PUSH1 0x1 DUP2 MSTORE PUSH1 0x20 ADD SWAP1 DUP2 MSTORE PUSH1 0x20 ADD PUSH1 0x0 KECCAK256 SWAP1 DUP1 MLOAD SWAP1 PUSH1 0x20 ADD SWAP1 PUSH2 0xA7C SWAP3 SWAP2 SWAP1 PUSH2 0x2135 JUMP JUMPDEST POP PUSH1 0x40 MLOAD DUP1 PUSH1 0x40 ADD PUSH1 0x40 MSTORE DUP1 PUSH1 0xB DUP2 MSTORE PUSH1 0x20 ADD PUSH32 0x41647269616E6F706F6C65000000000000000000000000000000000000000000 DUP2 MSTORE POP PUSH1 0x0 PUSH1 0x40 MLOAD PUSH2 0xAC1 SWAP1 PUSH2 0x2877 JUMP JUMPDEST SWAP1 DUP2 MSTORE PUSH1 0x20 ADD PUSH1 0x40 MLOAD DUP1 SWAP2 SUB SWAP1 KECCAK256 PUSH1 0x0 PUSH1 0x5 DUP2 MSTORE PUSH1 0x20 ADD SWAP1 DUP2 MSTORE PUSH1 0x20 ADD PUSH1 0x0 KECCAK256 PUSH1 0x0 PUSH1 0x2 DUP2 MSTORE PUSH1 0x20 ADD SWAP1 DUP2 MSTORE PUSH1 0x20 ADD PUSH1 0x0 KECCAK256 SWAP1 DUP1 MLOAD SWAP1 PUSH1 0x20 ADD SWAP1 PUSH2 0xB06 SWAP3 SWAP2 SWAP1 PUSH2 0x2135 JUMP JUMPDEST POP PUSH1 0x40 MLOAD DUP1 PUSH1 0x40 ADD PUSH1 0x40 MSTORE DUP1 PUSH1 0xC DUP2 MSTORE PUSH1 0x20 ADD PUSH32 0x54686573616C6C6F6E696B690000000000000000000000000000000000000000 DUP2 MSTORE POP PUSH1 0x0 PUSH1 0x40 MLOAD PUSH2 0xB4B SWAP1 PUSH2 0x2877 JUMP JUMPDEST SWAP1 DUP2 MSTORE PUSH1 0x20 ADD PUSH1 0x40 MLOAD DUP1 SWAP2 SUB SWAP1 KECCAK256 PUSH1 0x0 PUSH1 0x5 DUP2 MSTORE PUSH1 0x20 ADD SWAP1 DUP2 MSTORE PUSH1 0x20 ADD PUSH1 0x0 KECCAK256 PUSH1 0x0 PUSH1 0x3 DUP2 MSTORE PUSH1 0x20 ADD SWAP1 DUP2 MSTORE PUSH1 0x20 ADD PUSH1 0x0 KECCAK256 SWAP1 DUP1 MLOAD SWAP1 PUSH1 0x20 ADD SWAP1 PUSH2 0xB90 SWAP3 SWAP2 SWAP1 PUSH2 0x2135 JUMP JUMPDEST POP PUSH1 0x0 PUSH1 0x40 MLOAD DUP1 PUSH1 0x60 ADD PUSH1 0x40 MSTORE DUP1 PUSH1 0x40 MLOAD DUP1 PUSH1 0x60 ADD PUSH1 0x40 MSTORE DUP1 PUSH1 0x3D DUP2 MSTORE PUSH1 0x20 ADD PUSH2 0x30DC PUSH1 0x3D SWAP2 CODECOPY DUP2 MSTORE PUSH1 0x20 ADD PUSH1 0x2 DUP2 MSTORE PUSH1 0x20 ADD PUSH1 0x40 MLOAD DUP1 PUSH1 0xC0 ADD PUSH1 0x40 MSTORE DUP1 PUSH1 0x83 DUP2 MSTORE PUSH1 0x20 ADD PUSH2 0x2EC4 PUSH1 0x83 SWAP2 CODECOPY DUP2 MSTORE POP SWAP1 POP PUSH1 0x0 PUSH1 0x40 MLOAD DUP1 PUSH1 0x60 ADD PUSH1 0x40 MSTORE DUP1 PUSH1 0x40 MLOAD DUP1 PUSH1 0x60 ADD PUSH1 0x40 MSTORE DUP1 PUSH1 0x37 DUP2 MSTORE PUSH1 0x20 ADD PUSH2 0x339E PUSH1 0x37 SWAP2 CODECOPY DUP2 MSTORE PUSH1 0x20 ADD PUSH1 0x0 DUP2 MSTORE PUSH1 0x20 ADD PUSH1 0x40 MLOAD DUP1 PUSH2 0x120 ADD PUSH1 0x40 MSTORE DUP1 PUSH1 0xF0 DUP2 MSTORE PUSH1 0x20 ADD PUSH2 0x3152 PUSH1 0xF0 SWAP2 CODECOPY DUP2 MSTORE POP SWAP1 POP PUSH1 0x0 PUSH1 0x40 MLOAD DUP1 PUSH1 0x60 ADD PUSH1 0x40 MSTORE DUP1 PUSH1 0x40 MLOAD DUP1 PUSH1 0x60 ADD PUSH1 0x40 MSTORE DUP1 PUSH1 0x39 DUP2 MSTORE PUSH1 0x20 ADD PUSH2 0x3119 PUSH1 0x39 SWAP2 CODECOPY DUP2 MSTORE PUSH1 0x20 ADD PUSH1 0x1 DUP2 MSTORE PUSH1 0x20 ADD PUSH1 0x40 MLOAD DUP1 PUSH1 0xC0 ADD PUSH1 0x40 MSTORE DUP1 PUSH1 0x89 DUP2 MSTORE PUSH1 0x20 ADD PUSH2 0x2D91 PUSH1 0x89 SWAP2 CODECOPY DUP2 MSTORE POP SWAP1 POP PUSH1 0x0 PUSH1 0x40 MLOAD DUP1 PUSH1 0x60 ADD PUSH1 0x40 MSTORE DUP1 PUSH1 0x40 MLOAD DUP1 PUSH1 0x60 ADD PUSH1 0x40 MSTORE DUP1 PUSH1 0x2D DUP2 MSTORE PUSH1 0x20 ADD PUSH2 0x331E PUSH1 0x2D SWAP2 CODECOPY DUP2 MSTORE PUSH1 0x20 ADD PUSH1 0x3 DUP2 MSTORE PUSH1 0x20 ADD PUSH1 0x40 MLOAD DUP1 PUSH2 0x120 ADD PUSH1 0x40 MSTORE DUP1 PUSH1 0xE9 DUP2 MSTORE PUSH1 0x20 ADD PUSH2 0x2F47 PUSH1 0xE9 SWAP2 CODECOPY DUP2 MSTORE POP SWAP1 POP PUSH1 0x0 PUSH1 0x40 MLOAD DUP1 PUSH1 0x60 ADD PUSH1 0x40 MSTORE DUP1 PUSH1 0x40 MLOAD DUP1 PUSH1 0x80 ADD PUSH1 0x40 MSTORE DUP1 PUSH1 0x53 DUP2 MSTORE PUSH1 0x20 ADD PUSH2 0x334B PUSH1 0x53 SWAP2 CODECOPY DUP2 MSTORE PUSH1 0x20 ADD PUSH1 0x0 DUP2 MSTORE PUSH1 0x20 ADD PUSH1 0x40 MLOAD DUP1 PUSH1 0xC0 ADD PUSH1 0x40 MSTORE DUP1 PUSH1 0x85 DUP2 MSTORE PUSH1 0x20 ADD PUSH2 0x33D5 PUSH1 0x85 SWAP2 CODECOPY DUP2 MSTORE POP SWAP1 POP DUP5 PUSH1 0x1 PUSH1 0x40 MLOAD PUSH2 0xD32 SWAP1 PUSH2 0x2877 JUMP JUMPDEST SWAP1 DUP2 MSTORE PUSH1 0x20 ADD PUSH1 0x40 MLOAD DUP1 SWAP2 SUB SWAP1 KECCAK256 PUSH1 0x0 DUP1 DUP2 MSTORE PUSH1 0x20 ADD SWAP1 DUP2 MSTORE PUSH1 0x20 ADD PUSH1 0x0 KECCAK256 PUSH1 0x0 DUP3 ADD MLOAD DUP2 PUSH1 0x0 ADD SWAP1 DUP1 MLOAD SWAP1 PUSH1 0x20 ADD SWAP1 PUSH2 0xD6D SWAP3 SWAP2 SWAP1 PUSH2 0x2135 JUMP JUMPDEST POP PUSH1 0x20 DUP3 ADD MLOAD DUP2 PUSH1 0x1 ADD SSTORE PUSH1 0x40 DUP3 ADD MLOAD DUP2 PUSH1 0x2 ADD SWAP1 DUP1 MLOAD SWAP1 PUSH1 0x20 ADD SWAP1 PUSH2 0xD94 SWAP3 SWAP2 SWAP1 PUSH2 0x2135 JUMP JUMPDEST POP SWAP1 POP POP DUP4 PUSH1 0x1 PUSH1 0x40 MLOAD PUSH2 0xDA7 SWAP1 PUSH2 0x2877 JUMP JUMPDEST SWAP1 DUP2 MSTORE PUSH1 0x20 ADD PUSH1 0x40 MLOAD DUP1 SWAP2 SUB SWAP1 KECCAK256 PUSH1 0x0 PUSH1 0x1 DUP2 MSTORE PUSH1 0x20 ADD SWAP1 DUP2 MSTORE PUSH1 0x20 ADD PUSH1 0x0 KECCAK256 PUSH1 0x0 DUP3 ADD MLOAD DUP2 PUSH1 0x0 ADD SWAP1 DUP1 MLOAD SWAP1 PUSH1 0x20 ADD SWAP1 PUSH2 0xDE3 SWAP3 SWAP2 SWAP1 PUSH2 0x2135 JUMP JUMPDEST POP PUSH1 0x20 DUP3 ADD MLOAD DUP2 PUSH1 0x1 ADD SSTORE PUSH1 0x40 DUP3 ADD MLOAD DUP2 PUSH1 0x2 ADD SWAP1 DUP1 MLOAD SWAP1 PUSH1 0x20 ADD SWAP1 PUSH2 0xE0A SWAP3 SWAP2 SWAP1 PUSH2 0x2135 JUMP JUMPDEST POP SWAP1 POP POP DUP3 PUSH1 0x1 PUSH1 0x40 MLOAD PUSH2 0xE1D SWAP1 PUSH2 0x2877 JUMP JUMPDEST SWAP1 DUP2 MSTORE PUSH1 0x20 ADD PUSH1 0x40 MLOAD DUP1 SWAP2 SUB SWAP1 KECCAK256 PUSH1 0x0 PUSH1 0x2 DUP2 MSTORE PUSH1 0x20 ADD SWAP1 DUP2 MSTORE PUSH1 0x20 ADD PUSH1 0x0 KECCAK256 PUSH1 0x0 DUP3 ADD MLOAD DUP2 PUSH1 0x0 ADD SWAP1 DUP1 MLOAD SWAP1 PUSH1 0x20 ADD SWAP1 PUSH2 0xE59 SWAP3 SWAP2 SWAP1 PUSH2 0x2135 JUMP JUMPDEST POP PUSH1 0x20 DUP3 ADD MLOAD DUP2 PUSH1 0x1 ADD SSTORE PUSH1 0x40 DUP3 ADD MLOAD DUP2 PUSH1 0x2 ADD SWAP1 DUP1 MLOAD SWAP1 PUSH1 0x20 ADD SWAP1 PUSH2 0xE80 SWAP3 SWAP2 SWAP1 PUSH2 0x2135 JUMP JUMPDEST POP SWAP1 POP POP DUP2 PUSH1 0x1 PUSH1 0x40 MLOAD PUSH2 0xE93 SWAP1 PUSH2 0x2877 JUMP JUMPDEST SWAP1 DUP2 MSTORE PUSH1 0x20 ADD PUSH1 0x40 MLOAD DUP1 SWAP2 SUB SWAP1 KECCAK256 PUSH1 0x0 PUSH1 0x3 DUP2 MSTORE PUSH1 0x20 ADD SWAP1 DUP2 MSTORE PUSH1 0x20 ADD PUSH1 0x0 KECCAK256 PUSH1 0x0 DUP3 ADD MLOAD DUP2 PUSH1 0x0 ADD SWAP1 DUP1 MLOAD SWAP1 PUSH1 0x20 ADD SWAP1 PUSH2 0xECF SWAP3 SWAP2 SWAP1 PUSH2 0x2135 JUMP JUMPDEST POP PUSH1 0x20 DUP3 ADD MLOAD DUP2 PUSH1 0x1 ADD SSTORE PUSH1 0x40 DUP3 ADD MLOAD DUP2 PUSH1 0x2 ADD SWAP1 DUP1 MLOAD SWAP1 PUSH1 0x20 ADD SWAP1 PUSH2 0xEF6 SWAP3 SWAP2 SWAP1 PUSH2 0x2135 JUMP JUMPDEST POP SWAP1 POP POP DUP1 PUSH1 0x1 PUSH1 0x40 MLOAD PUSH2 0xF09 SWAP1 PUSH2 0x2877 JUMP JUMPDEST SWAP1 DUP2 MSTORE PUSH1 0x20 ADD PUSH1 0x40 MLOAD DUP1 SWAP2 SUB SWAP1 KECCAK256 PUSH1 0x0 PUSH1 0x4 DUP2 MSTORE PUSH1 0x20 ADD SWAP1 DUP2 MSTORE PUSH1 0x20 ADD PUSH1 0x0 KECCAK256 PUSH1 0x0 DUP3 ADD MLOAD DUP2 PUSH1 0x0 ADD SWAP1 DUP1 MLOAD SWAP1 PUSH1 0x20 ADD SWAP1 PUSH2 0xF45 SWAP3 SWAP2 SWAP1 PUSH2 0x2135 JUMP JUMPDEST POP PUSH1 0x20 DUP3 ADD MLOAD DUP2 PUSH1 0x1 ADD SSTORE PUSH1 0x40 DUP3 ADD MLOAD DUP2 PUSH1 0x2 ADD SWAP1 DUP1 MLOAD SWAP1 PUSH1 0x20 ADD SWAP1 PUSH2 0xF6C SWAP3 SWAP2 SWAP1 PUSH2 0x2135 JUMP JUMPDEST POP SWAP1 POP POP POP POP POP POP POP JUMP JUMPDEST PUSH1 0x0 JUMPDEST DUP3 MLOAD DUP2 LT ISZERO PUSH2 0x1027 JUMPI DUP3 DUP2 DUP2 MLOAD DUP2 LT PUSH2 0xF96 JUMPI PUSH2 0xF95 PUSH2 0x2B8A JUMP JUMPDEST JUMPDEST PUSH1 0x20 MUL PUSH1 0x20 ADD ADD MLOAD PUSH1 0x1 DUP6 PUSH1 0x40 MLOAD PUSH2 0xFAE SWAP2 SWAP1 PUSH2 0x2836 JUMP JUMPDEST SWAP1 DUP2 MSTORE PUSH1 0x20 ADD PUSH1 0x40 MLOAD DUP1 SWAP2 SUB SWAP1 KECCAK256 PUSH1 0x0 DUP4 DUP2 MSTORE PUSH1 0x20 ADD SWAP1 DUP2 MSTORE PUSH1 0x20 ADD PUSH1 0x0 KECCAK256 PUSH1 0x0 DUP3 ADD MLOAD DUP2 PUSH1 0x0 ADD SWAP1 DUP1 MLOAD SWAP1 PUSH1 0x20 ADD SWAP1 PUSH2 0xFE9 SWAP3 SWAP2 SWAP1 PUSH2 0x2135 JUMP JUMPDEST POP PUSH1 0x20 DUP3 ADD MLOAD DUP2 PUSH1 0x1 ADD SSTORE PUSH1 0x40 DUP3 ADD MLOAD DUP2 PUSH1 0x2 ADD SWAP1 DUP1 MLOAD SWAP1 PUSH1 0x20 ADD SWAP1 PUSH2 0x1010 SWAP3 SWAP2 SWAP1 PUSH2 0x2135 JUMP JUMPDEST POP SWAP1 POP POP DUP1 DUP1 PUSH2 0x101F SWAP1 PUSH2 0x2AE3 JUMP JUMPDEST SWAP2 POP POP PUSH2 0xF7A JUMP JUMPDEST POP POP POP POP JUMP JUMPDEST PUSH1 0x1 DUP3 DUP1 MLOAD PUSH1 0x20 DUP2 ADD DUP3 ADD DUP1 MLOAD DUP5 DUP3 MSTORE PUSH1 0x20 DUP4 ADD PUSH1 0x20 DUP6 ADD KECCAK256 DUP2 DUP4 MSTORE DUP1 SWAP6 POP POP POP POP POP POP PUSH1 0x20 MSTORE DUP1 PUSH1 0x0 MSTORE PUSH1 0x40 PUSH1 0x0 KECCAK256 PUSH1 0x0 SWAP2 POP SWAP2 POP POP DUP1 PUSH1 0x0 ADD DUP1 SLOAD PUSH2 0x1073 SWAP1 PUSH2 0x2A80 JUMP JUMPDEST DUP1 PUSH1 0x1F ADD PUSH1 0x20 DUP1 SWAP2 DIV MUL PUSH1 0x20 ADD PUSH1 0x40 MLOAD SWAP1 DUP2 ADD PUSH1 0x40 MSTORE DUP1 SWAP3 SWAP2 SWAP1 DUP2 DUP2 MSTORE PUSH1 0x20 ADD DUP3 DUP1 SLOAD PUSH2 0x109F SWAP1 PUSH2 0x2A80 JUMP JUMPDEST DUP1 ISZERO PUSH2 0x10EC JUMPI DUP1 PUSH1 0x1F LT PUSH2 0x10C1 JUMPI PUSH2 0x100 DUP1 DUP4 SLOAD DIV MUL DUP4 MSTORE SWAP2 PUSH1 0x20 ADD SWAP2 PUSH2 0x10EC JUMP JUMPDEST DUP3 ADD SWAP2 SWAP1 PUSH1 0x0 MSTORE PUSH1 0x20 PUSH1 0x0 KECCAK256 SWAP1 JUMPDEST DUP2 SLOAD DUP2 MSTORE SWAP1 PUSH1 0x1 ADD SWAP1 PUSH1 0x20 ADD DUP1 DUP4 GT PUSH2 0x10CF JUMPI DUP3 SWAP1 SUB PUSH1 0x1F AND DUP3 ADD SWAP2 JUMPDEST POP POP POP POP POP SWAP1 DUP1 PUSH1 0x1 ADD SLOAD SWAP1 DUP1 PUSH1 0x2 ADD DUP1 SLOAD PUSH2 0x1107 SWAP1 PUSH2 0x2A80 JUMP JUMPDEST DUP1 PUSH1 0x1F ADD PUSH1 0x20 DUP1 SWAP2 DIV MUL PUSH1 0x20 ADD PUSH1 0x40 MLOAD SWAP1 DUP2 ADD PUSH1 0x40 MSTORE DUP1 SWAP3 SWAP2 SWAP1 DUP2 DUP2 MSTORE PUSH1 0x20 ADD DUP3 DUP1 SLOAD PUSH2 0x1133 SWAP1 PUSH2 0x2A80 JUMP JUMPDEST DUP1 ISZERO PUSH2 0x1180 JUMPI DUP1 PUSH1 0x1F LT PUSH2 0x1155 JUMPI PUSH2 0x100 DUP1 DUP4 SLOAD DIV MUL DUP4 MSTORE SWAP2 PUSH1 0x20 ADD SWAP2 PUSH2 0x1180 JUMP JUMPDEST DUP3 ADD SWAP2 SWAP1 PUSH1 0x0 MSTORE PUSH1 0x20 PUSH1 0x0 KECCAK256 SWAP1 JUMPDEST DUP2 SLOAD DUP2 MSTORE SWAP1 PUSH1 0x1 ADD SWAP1 PUSH1 0x20 ADD DUP1 DUP4 GT PUSH2 0x1163 JUMPI DUP3 SWAP1 SUB PUSH1 0x1F AND DUP3 ADD SWAP2 JUMPDEST POP POP POP POP POP SWAP1 POP DUP4 JUMP JUMPDEST PUSH1 0x40 MLOAD DUP1 PUSH1 0x40 ADD PUSH1 0x40 MSTORE DUP1 PUSH1 0x8 DUP2 MSTORE PUSH1 0x20 ADD PUSH32 0x417572656C69616E000000000000000000000000000000000000000000000000 DUP2 MSTORE POP PUSH1 0x0 PUSH1 0x40 MLOAD PUSH2 0x11CE SWAP1 PUSH2 0x2862 JUMP JUMPDEST SWAP1 DUP2 MSTORE PUSH1 0x20 ADD PUSH1 0x40 MLOAD DUP1 SWAP2 SUB SWAP1 KECCAK256 PUSH1 0x0 DUP1 DUP2 MSTORE PUSH1 0x20 ADD SWAP1 DUP2 MSTORE PUSH1 0x20 ADD PUSH1 0x0 KECCAK256 PUSH1 0x0 DUP1 DUP2 MSTORE PUSH1 0x20 ADD SWAP1 DUP2 MSTORE PUSH1 0x20 ADD PUSH1 0x0 KECCAK256 SWAP1 DUP1 MLOAD SWAP1 PUSH1 0x20 ADD SWAP1 PUSH2 0x1211 SWAP3 SWAP2 SWAP1 PUSH2 0x2135 JUMP JUMPDEST POP PUSH1 0x40 MLOAD DUP1 PUSH1 0x40 ADD PUSH1 0x40 MSTORE DUP1 PUSH1 0x8 DUP2 MSTORE PUSH1 0x20 ADD PUSH32 0x4175677573747573000000000000000000000000000000000000000000000000 DUP2 MSTORE POP PUSH1 0x0 PUSH1 0x40 MLOAD PUSH2 0x1256 SWAP1 PUSH2 0x2862 JUMP JUMPDEST SWAP1 DUP2 MSTORE PUSH1 0x20 ADD PUSH1 0x40 MLOAD DUP1 SWAP2 SUB SWAP1 KECCAK256 PUSH1 0x0 DUP1 DUP2 MSTORE PUSH1 0x20 ADD SWAP1 DUP2 MSTORE PUSH1 0x20 ADD PUSH1 0x0 KECCAK256 PUSH1 0x0 PUSH1 0x1 DUP2 MSTORE PUSH1 0x20 ADD SWAP1 DUP2 MSTORE PUSH1 0x20 ADD PUSH1 0x0 KECCAK256 SWAP1 DUP1 MLOAD SWAP1 PUSH1 0x20 ADD SWAP1 PUSH2 0x129A SWAP3 SWAP2 SWAP1 PUSH2 0x2135 JUMP JUMPDEST POP PUSH1 0x40 MLOAD DUP1 PUSH1 0x40 ADD PUSH1 0x40 MSTORE DUP1 PUSH1 0x6 DUP2 MSTORE PUSH1 0x20 ADD PUSH32 0x4A756C69616E0000000000000000000000000000000000000000000000000000 DUP2 MSTORE POP PUSH1 0x0 PUSH1 0x40 MLOAD PUSH2 0x12DF SWAP1 PUSH2 0x2862 JUMP JUMPDEST SWAP1 DUP2 MSTORE PUSH1 0x20 ADD PUSH1 0x40 MLOAD DUP1 SWAP2 SUB SWAP1 KECCAK256 PUSH1 0x0 DUP1 DUP2 MSTORE PUSH1 0x20 ADD SWAP1 DUP2 MSTORE PUSH1 0x20 ADD PUSH1 0x0 KECCAK256 PUSH1 0x0 PUSH1 0x2 DUP2 MSTORE PUSH1 0x20 ADD SWAP1 DUP2 MSTORE PUSH1 0x20 ADD PUSH1 0x0 KECCAK256 SWAP1 DUP1 MLOAD SWAP1 PUSH1 0x20 ADD SWAP1 PUSH2 0x1323 SWAP3 SWAP2 SWAP1 PUSH2 0x2135 JUMP JUMPDEST POP PUSH1 0x40 MLOAD DUP1 PUSH1 0x40 ADD PUSH1 0x40 MSTORE DUP1 PUSH1 0x6 DUP2 MSTORE PUSH1 0x20 ADD PUSH32 0x56616C656E730000000000000000000000000000000000000000000000000000 DUP2 MSTORE POP PUSH1 0x0 PUSH1 0x40 MLOAD PUSH2 0x1368 SWAP1 PUSH2 0x2862 JUMP JUMPDEST SWAP1 DUP2 MSTORE PUSH1 0x20 ADD PUSH1 0x40 MLOAD DUP1 SWAP2 SUB SWAP1 KECCAK256 PUSH1 0x0 DUP1 DUP2 MSTORE PUSH1 0x20 ADD SWAP1 DUP2 MSTORE PUSH1 0x20 ADD PUSH1 0x0 KECCAK256 PUSH1 0x0 PUSH1 0x3 DUP2 MSTORE PUSH1 0x20 ADD SWAP1 DUP2 MSTORE PUSH1 0x20 ADD PUSH1 0x0 KECCAK256 SWAP1 DUP1 MLOAD SWAP1 PUSH1 0x20 ADD SWAP1 PUSH2 0x13AC SWAP3 SWAP2 SWAP1 PUSH2 0x2135 JUMP JUMPDEST POP PUSH1 0x40 MLOAD DUP1 PUSH1 0x40 ADD PUSH1 0x40 MSTORE DUP1 PUSH1 0x8 DUP2 MSTORE PUSH1 0x20 ADD PUSH32 0x5374696C6963686F000000000000000000000000000000000000000000000000 DUP2 MSTORE POP PUSH1 0x0 PUSH1 0x40 MLOAD PUSH2 0x13F1 SWAP1 PUSH2 0x284D JUMP JUMPDEST SWAP1 DUP2 MSTORE PUSH1 0x20 ADD PUSH1 0x40 MLOAD DUP1 SWAP2 SUB SWAP1 KECCAK256 PUSH1 0x0 PUSH1 0x2 DUP2 MSTORE PUSH1 0x20 ADD SWAP1 DUP2 MSTORE PUSH1 0x20 ADD PUSH1 0x0 KECCAK256 PUSH1 0x0 DUP1 DUP2 MSTORE PUSH1 0x20 ADD SWAP1 DUP2 MSTORE PUSH1 0x20 ADD PUSH1 0x0 KECCAK256 SWAP1 DUP1 MLOAD SWAP1 PUSH1 0x20 ADD SWAP1 PUSH2 0x1435 SWAP3 SWAP2 SWAP1 PUSH2 0x2135 JUMP JUMPDEST POP PUSH1 0x40 MLOAD DUP1 PUSH1 0x40 ADD PUSH1 0x40 MSTORE DUP1 PUSH1 0x6 DUP2 MSTORE PUSH1 0x20 ADD PUSH32 0x4165746975730000000000000000000000000000000000000000000000000000 DUP2 MSTORE POP PUSH1 0x0 PUSH1 0x40 MLOAD PUSH2 0x147A SWAP1 PUSH2 0x284D JUMP JUMPDEST SWAP1 DUP2 MSTORE PUSH1 0x20 ADD PUSH1 0x40 MLOAD DUP1 SWAP2 SUB SWAP1 KECCAK256 PUSH1 0x0 PUSH1 0x2 DUP2 MSTORE PUSH1 0x20 ADD SWAP1 DUP2 MSTORE PUSH1 0x20 ADD PUSH1 0x0 KECCAK256 PUSH1 0x0 PUSH1 0x1 DUP2 MSTORE PUSH1 0x20 ADD SWAP1 DUP2 MSTORE PUSH1 0x20 ADD PUSH1 0x0 KECCAK256 SWAP1 DUP1 MLOAD SWAP1 PUSH1 0x20 ADD SWAP1 PUSH2 0x14BF SWAP3 SWAP2 SWAP1 PUSH2 0x2135 JUMP JUMPDEST POP PUSH1 0x40 MLOAD DUP1 PUSH1 0x40 ADD PUSH1 0x40 MSTORE DUP1 PUSH1 0x8 DUP2 MSTORE PUSH1 0x20 ADD PUSH32 0x4D616A6F7269616E000000000000000000000000000000000000000000000000 DUP2 MSTORE POP PUSH1 0x0 PUSH1 0x40 MLOAD PUSH2 0x1504 SWAP1 PUSH2 0x284D JUMP JUMPDEST SWAP1 DUP2 MSTORE PUSH1 0x20 ADD PUSH1 0x40 MLOAD DUP1 SWAP2 SUB SWAP1 KECCAK256 PUSH1 0x0 PUSH1 0x2 DUP2 MSTORE PUSH1 0x20 ADD SWAP1 DUP2 MSTORE PUSH1 0x20 ADD PUSH1 0x0 KECCAK256 PUSH1 0x0 PUSH1 0x2 DUP2 MSTORE PUSH1 0x20 ADD SWAP1 DUP2 MSTORE PUSH1 0x20 ADD PUSH1 0x0 KECCAK256 SWAP1 DUP1 MLOAD SWAP1 PUSH1 0x20 ADD SWAP1 PUSH2 0x1549 SWAP3 SWAP2 SWAP1 PUSH2 0x2135 JUMP JUMPDEST POP PUSH1 0x40 MLOAD DUP1 PUSH1 0x40 ADD PUSH1 0x40 MSTORE DUP1 PUSH1 0xF DUP2 MSTORE PUSH1 0x20 ADD PUSH32 0x56616C656E74696E69616E204949490000000000000000000000000000000000 DUP2 MSTORE POP PUSH1 0x0 PUSH1 0x40 MLOAD PUSH2 0x158E SWAP1 PUSH2 0x284D JUMP JUMPDEST SWAP1 DUP2 MSTORE PUSH1 0x20 ADD PUSH1 0x40 MLOAD DUP1 SWAP2 SUB SWAP1 KECCAK256 PUSH1 0x0 PUSH1 0x2 DUP2 MSTORE PUSH1 0x20 ADD SWAP1 DUP2 MSTORE PUSH1 0x20 ADD PUSH1 0x0 KECCAK256 PUSH1 0x0 PUSH1 0x3 DUP2 MSTORE PUSH1 0x20 ADD SWAP1 DUP2 MSTORE PUSH1 0x20 ADD PUSH1 0x0 KECCAK256 SWAP1 DUP1 MLOAD SWAP1 PUSH1 0x20 ADD SWAP1 PUSH2 0x15D3 SWAP3 SWAP2 SWAP1 PUSH2 0x2135 JUMP JUMPDEST POP PUSH1 0x40 MLOAD DUP1 PUSH1 0x40 ADD PUSH1 0x40 MSTORE DUP1 PUSH1 0x4 DUP2 MSTORE PUSH1 0x20 ADD PUSH32 0x526F6D6500000000000000000000000000000000000000000000000000000000 DUP2 MSTORE POP PUSH1 0x0 PUSH1 0x40 MLOAD PUSH2 0x1618 SWAP1 PUSH2 0x284D JUMP JUMPDEST SWAP1 DUP2 MSTORE PUSH1 0x20 ADD PUSH1 0x40 MLOAD DUP1 SWAP2 SUB SWAP1 KECCAK256 PUSH1 0x0 PUSH1 0x3 DUP2 MSTORE PUSH1 0x20 ADD SWAP1 DUP2 MSTORE PUSH1 0x20 ADD PUSH1 0x0 KECCAK256 PUSH1 0x0 DUP1 DUP2 MSTORE PUSH1 0x20 ADD SWAP1 DUP2 MSTORE PUSH1 0x20 ADD PUSH1 0x0 KECCAK256 SWAP1 DUP1 MLOAD SWAP1 PUSH1 0x20 ADD SWAP1 PUSH2 0x165C SWAP3 SWAP2 SWAP1 PUSH2 0x2135 JUMP JUMPDEST POP PUSH1 0x40 MLOAD DUP1 PUSH1 0x40 ADD PUSH1 0x40 MSTORE DUP1 PUSH1 0x5 DUP2 MSTORE PUSH1 0x20 ADD PUSH32 0x4D696C616E000000000000000000000000000000000000000000000000000000 DUP2 MSTORE POP PUSH1 0x0 PUSH1 0x40 MLOAD PUSH2 0x16A1 SWAP1 PUSH2 0x284D JUMP JUMPDEST SWAP1 DUP2 MSTORE PUSH1 0x20 ADD PUSH1 0x40 MLOAD DUP1 SWAP2 SUB SWAP1 KECCAK256 PUSH1 0x0 PUSH1 0x3 DUP2 MSTORE PUSH1 0x20 ADD SWAP1 DUP2 MSTORE PUSH1 0x20 ADD PUSH1 0x0 KECCAK256 PUSH1 0x0 PUSH1 0x1 DUP2 MSTORE PUSH1 0x20 ADD SWAP1 DUP2 MSTORE PUSH1 0x20 ADD PUSH1 0x0 KECCAK256 SWAP1 DUP1 MLOAD SWAP1 PUSH1 0x20 ADD SWAP1 PUSH2 0x16E6 SWAP3 SWAP2 SWAP1 PUSH2 0x2135 JUMP JUMPDEST POP PUSH1 0x40 MLOAD DUP1 PUSH1 0x40 ADD PUSH1 0x40 MSTORE DUP1 PUSH1 0x7 DUP2 MSTORE PUSH1 0x20 ADD PUSH32 0x526176656E6E6100000000000000000000000000000000000000000000000000 DUP2 MSTORE POP PUSH1 0x0 PUSH1 0x40 MLOAD PUSH2 0x172B SWAP1 PUSH2 0x284D JUMP JUMPDEST SWAP1 DUP2 MSTORE PUSH1 0x20 ADD PUSH1 0x40 MLOAD DUP1 SWAP2 SUB SWAP1 KECCAK256 PUSH1 0x0 PUSH1 0x3 DUP2 MSTORE PUSH1 0x20 ADD SWAP1 DUP2 MSTORE PUSH1 0x20 ADD PUSH1 0x0 KECCAK256 PUSH1 0x0 PUSH1 0x2 DUP2 MSTORE PUSH1 0x20 ADD SWAP1 DUP2 MSTORE PUSH1 0x20 ADD PUSH1 0x0 KECCAK256 SWAP1 DUP1 MLOAD SWAP1 PUSH1 0x20 ADD SWAP1 PUSH2 0x1770 SWAP3 SWAP2 SWAP1 PUSH2 0x2135 JUMP JUMPDEST POP PUSH1 0x40 MLOAD DUP1 PUSH1 0x40 ADD PUSH1 0x40 MSTORE DUP1 PUSH1 0x6 DUP2 MSTORE PUSH1 0x20 ADD PUSH32 0x4E61706C65730000000000000000000000000000000000000000000000000000 DUP2 MSTORE POP PUSH1 0x0 PUSH1 0x40 MLOAD PUSH2 0x17B5 SWAP1 PUSH2 0x284D JUMP JUMPDEST SWAP1 DUP2 MSTORE PUSH1 0x20 ADD PUSH1 0x40 MLOAD DUP1 SWAP2 SUB SWAP1 KECCAK256 PUSH1 0x0 PUSH1 0x3 DUP2 MSTORE PUSH1 0x20 ADD SWAP1 DUP2 MSTORE PUSH1 0x20 ADD PUSH1 0x0 KECCAK256 PUSH1 0x0 PUSH1 0x3 DUP2 MSTORE PUSH1 0x20 ADD SWAP1 DUP2 MSTORE PUSH1 0x20 ADD PUSH1 0x0 KECCAK256 SWAP1 DUP1 MLOAD SWAP1 PUSH1 0x20 ADD SWAP1 PUSH2 0x17FA SWAP3 SWAP2 SWAP1 PUSH2 0x2135 JUMP JUMPDEST POP PUSH1 0x40 MLOAD DUP1 PUSH1 0x40 ADD PUSH1 0x40 MSTORE DUP1 PUSH1 0xB DUP2 MSTORE PUSH1 0x20 ADD PUSH32 0x41647269616E6F706F6C65000000000000000000000000000000000000000000 DUP2 MSTORE POP PUSH1 0x0 PUSH1 0x40 MLOAD PUSH2 0x183F SWAP1 PUSH2 0x284D JUMP JUMPDEST SWAP1 DUP2 MSTORE PUSH1 0x20 ADD PUSH1 0x40 MLOAD DUP1 SWAP2 SUB SWAP1 KECCAK256 PUSH1 0x0 PUSH1 0x4 DUP2 MSTORE PUSH1 0x20 ADD SWAP1 DUP2 MSTORE PUSH1 0x20 ADD PUSH1 0x0 KECCAK256 PUSH1 0x0 DUP1 DUP2 MSTORE PUSH1 0x20 ADD SWAP1 DUP2 MSTORE PUSH1 0x20 ADD PUSH1 0x0 KECCAK256 SWAP1 DUP1 MLOAD SWAP1 PUSH1 0x20 ADD SWAP1 PUSH2 0x1883 SWAP3 SWAP2 SWAP1 PUSH2 0x2135 JUMP JUMPDEST POP PUSH1 0x40 MLOAD DUP1 PUSH1 0x40 ADD PUSH1 0x40 MSTORE DUP1 PUSH1 0xE DUP2 MSTORE PUSH1 0x20 ADD PUSH32 0x4C616B652054726173696D656E65000000000000000000000000000000000000 DUP2 MSTORE POP PUSH1 0x0 PUSH1 0x40 MLOAD PUSH2 0x18C8 SWAP1 PUSH2 0x284D JUMP JUMPDEST SWAP1 DUP2 MSTORE PUSH1 0x20 ADD PUSH1 0x40 MLOAD DUP1 SWAP2 SUB SWAP1 KECCAK256 PUSH1 0x0 PUSH1 0x4 DUP2 MSTORE PUSH1 0x20 ADD SWAP1 DUP2 MSTORE PUSH1 0x20 ADD PUSH1 0x0 KECCAK256 PUSH1 0x0 PUSH1 0x1 DUP2 MSTORE PUSH1 0x20 ADD SWAP1 DUP2 MSTORE PUSH1 0x20 ADD PUSH1 0x0 KECCAK256 SWAP1 DUP1 MLOAD SWAP1 PUSH1 0x20 ADD SWAP1 PUSH2 0x190D SWAP3 SWAP2 SWAP1 PUSH2 0x2135 JUMP JUMPDEST POP PUSH1 0x40 MLOAD DUP1 PUSH1 0x40 ADD PUSH1 0x40 MSTORE DUP1 PUSH1 0x7 DUP2 MSTORE PUSH1 0x20 ADD PUSH32 0x4361727268616500000000000000000000000000000000000000000000000000 DUP2 MSTORE POP PUSH1 0x0 PUSH1 0x40 MLOAD PUSH2 0x1952 SWAP1 PUSH2 0x284D JUMP JUMPDEST SWAP1 DUP2 MSTORE PUSH1 0x20 ADD PUSH1 0x40 MLOAD DUP1 SWAP2 SUB SWAP1 KECCAK256 PUSH1 0x0 PUSH1 0x4 DUP2 MSTORE PUSH1 0x20 ADD SWAP1 DUP2 MSTORE PUSH1 0x20 ADD PUSH1 0x0 KECCAK256 PUSH1 0x0 PUSH1 0x2 DUP2 MSTORE PUSH1 0x20 ADD SWAP1 DUP2 MSTORE PUSH1 0x20 ADD PUSH1 0x0 KECCAK256 SWAP1 DUP1 MLOAD SWAP1 PUSH1 0x20 ADD SWAP1 PUSH2 0x1997 SWAP3 SWAP2 SWAP1 PUSH2 0x2135 JUMP JUMPDEST POP PUSH1 0x40 MLOAD DUP1 PUSH1 0x40 ADD PUSH1 0x40 MSTORE DUP1 PUSH1 0xA DUP2 MSTORE PUSH1 0x20 ADD PUSH32 0x4964697374617669736F00000000000000000000000000000000000000000000 DUP2 MSTORE POP PUSH1 0x0 PUSH1 0x40 MLOAD PUSH2 0x19DC SWAP1 PUSH2 0x284D JUMP JUMPDEST SWAP1 DUP2 MSTORE PUSH1 0x20 ADD PUSH1 0x40 MLOAD DUP1 SWAP2 SUB SWAP1 KECCAK256 PUSH1 0x0 PUSH1 0x4 DUP2 MSTORE PUSH1 0x20 ADD SWAP1 DUP2 MSTORE PUSH1 0x20 ADD PUSH1 0x0 KECCAK256 PUSH1 0x0 PUSH1 0x3 DUP2 MSTORE PUSH1 0x20 ADD SWAP1 DUP2 MSTORE PUSH1 0x20 ADD PUSH1 0x0 KECCAK256 SWAP1 DUP1 MLOAD SWAP1 PUSH1 0x20 ADD SWAP1 PUSH2 0x1A21 SWAP3 SWAP2 SWAP1 PUSH2 0x2135 JUMP JUMPDEST POP PUSH1 0x0 PUSH1 0x40 MLOAD DUP1 PUSH1 0x60 ADD PUSH1 0x40 MSTORE DUP1 PUSH1 0x40 MLOAD DUP1 PUSH1 0x60 ADD PUSH1 0x40 MSTORE DUP1 PUSH1 0x3F DUP2 MSTORE PUSH1 0x20 ADD PUSH2 0x2E4C PUSH1 0x3F SWAP2 CODECOPY DUP2 MSTORE PUSH1 0x20 ADD PUSH1 0x0 DUP2 MSTORE PUSH1 0x20 ADD PUSH1 0x40 MLOAD DUP1 PUSH1 0xC0 ADD PUSH1 0x40 MSTORE DUP1 PUSH1 0x85 DUP2 MSTORE PUSH1 0x20 ADD PUSH2 0x2CAF PUSH1 0x85 SWAP2 CODECOPY DUP2 MSTORE POP SWAP1 POP PUSH1 0x0 PUSH1 0x40 MLOAD DUP1 PUSH1 0x60 ADD PUSH1 0x40 MSTORE DUP1 PUSH1 0x40 MLOAD DUP1 PUSH1 0x80 ADD PUSH1 0x40 MSTORE DUP1 PUSH1 0x5D DUP2 MSTORE PUSH1 0x20 ADD PUSH2 0x2D34 PUSH1 0x5D SWAP2 CODECOPY DUP2 MSTORE PUSH1 0x20 ADD PUSH1 0x1 DUP2 MSTORE PUSH1 0x20 ADD PUSH1 0x40 MLOAD DUP1 PUSH1 0xC0 ADD PUSH1 0x40 MSTORE DUP1 PUSH1 0x95 DUP2 MSTORE PUSH1 0x20 ADD PUSH2 0x345A PUSH1 0x95 SWAP2 CODECOPY DUP2 MSTORE POP SWAP1 POP PUSH1 0x0 PUSH1 0x40 MLOAD DUP1 PUSH1 0x60 ADD PUSH1 0x40 MSTORE DUP1 PUSH1 0x40 MLOAD DUP1 PUSH1 0x80 ADD PUSH1 0x40 MSTORE DUP1 PUSH1 0x51 DUP2 MSTORE PUSH1 0x20 ADD PUSH2 0x34EF PUSH1 0x51 SWAP2 CODECOPY DUP2 MSTORE PUSH1 0x20 ADD PUSH1 0x2 DUP2 MSTORE PUSH1 0x20 ADD PUSH1 0x40 MLOAD DUP1 PUSH1 0xA0 ADD PUSH1 0x40 MSTORE DUP1 PUSH1 0x80 DUP2 MSTORE PUSH1 0x20 ADD PUSH2 0x305C PUSH1 0x80 SWAP2 CODECOPY DUP2 MSTORE POP SWAP1 POP PUSH1 0x0 PUSH1 0x40 MLOAD DUP1 PUSH1 0x60 ADD PUSH1 0x40 MSTORE DUP1 PUSH1 0x40 MLOAD DUP1 PUSH1 0x60 ADD PUSH1 0x40 MSTORE DUP1 PUSH1 0x32 DUP2 MSTORE PUSH1 0x20 ADD PUSH2 0x2E1A PUSH1 0x32 SWAP2 CODECOPY DUP2 MSTORE PUSH1 0x20 ADD PUSH1 0x3 DUP2 MSTORE PUSH1 0x20 ADD PUSH1 0x40 MLOAD DUP1 PUSH1 0xE0 ADD PUSH1 0x40 MSTORE DUP1 PUSH1 0xB2 DUP2 MSTORE PUSH1 0x20 ADD PUSH2 0x326C PUSH1 0xB2 SWAP2 CODECOPY DUP2 MSTORE POP SWAP1 POP DUP4 PUSH1 0x1 PUSH1 0x40 MLOAD PUSH2 0x1B71 SWAP1 PUSH2 0x284D JUMP JUMPDEST SWAP1 DUP2 MSTORE PUSH1 0x20 ADD PUSH1 0x40 MLOAD DUP1 SWAP2 SUB SWAP1 KECCAK256 PUSH1 0x0 DUP1 DUP2 MSTORE PUSH1 0x20 ADD SWAP1 DUP2 MSTORE PUSH1 0x20 ADD PUSH1 0x0 KECCAK256 PUSH1 0x0 DUP3 ADD MLOAD DUP2 PUSH1 0x0 ADD SWAP1 DUP1 MLOAD SWAP1 PUSH1 0x20 ADD SWAP1 PUSH2 0x1BAC SWAP3 SWAP2 SWAP1 PUSH2 0x2135 JUMP JUMPDEST POP PUSH1 0x20 DUP3 ADD MLOAD DUP2 PUSH1 0x1 ADD SSTORE PUSH1 0x40 DUP3 ADD MLOAD DUP2 PUSH1 0x2 ADD SWAP1 DUP1 MLOAD SWAP1 PUSH1 0x20 ADD SWAP1 PUSH2 0x1BD3 SWAP3 SWAP2 SWAP1 PUSH2 0x2135 JUMP JUMPDEST POP SWAP1 POP POP DUP3 PUSH1 0x1 PUSH1 0x40 MLOAD PUSH2 0x1BE6 SWAP1 PUSH2 0x284D JUMP JUMPDEST SWAP1 DUP2 MSTORE PUSH1 0x20 ADD PUSH1 0x40 MLOAD DUP1 SWAP2 SUB SWAP1 KECCAK256 PUSH1 0x0 PUSH1 0x1 DUP2 MSTORE PUSH1 0x20 ADD SWAP1 DUP2 MSTORE PUSH1 0x20 ADD PUSH1 0x0 KECCAK256 PUSH1 0x0 DUP3 ADD MLOAD DUP2 PUSH1 0x0 ADD SWAP1 DUP1 MLOAD SWAP1 PUSH1 0x20 ADD SWAP1 PUSH2 0x1C22 SWAP3 SWAP2 SWAP1 PUSH2 0x2135 JUMP JUMPDEST POP PUSH1 0x20 DUP3 ADD MLOAD DUP2 PUSH1 0x1 ADD SSTORE PUSH1 0x40 DUP3 ADD MLOAD DUP2 PUSH1 0x2 ADD SWAP1 DUP1 MLOAD SWAP1 PUSH1 0x20 ADD SWAP1 PUSH2 0x1C49 SWAP3 SWAP2 SWAP1 PUSH2 0x2135 JUMP JUMPDEST POP SWAP1 POP POP DUP2 PUSH1 0x1 PUSH1 0x40 MLOAD PUSH2 0x1C5C SWAP1 PUSH2 0x284D JUMP JUMPDEST SWAP1 DUP2 MSTORE PUSH1 0x20 ADD PUSH1 0x40 MLOAD DUP1 SWAP2 SUB SWAP1 KECCAK256 PUSH1 0x0 PUSH1 0x2 DUP2 MSTORE PUSH1 0x20 ADD SWAP1 DUP2 MSTORE PUSH1 0x20 ADD PUSH1 0x0 KECCAK256 PUSH1 0x0 DUP3 ADD MLOAD DUP2 PUSH1 0x0 ADD SWAP1 DUP1 MLOAD SWAP1 PUSH1 0x20 ADD SWAP1 PUSH2 0x1C98 SWAP3 SWAP2 SWAP1 PUSH2 0x2135 JUMP JUMPDEST POP PUSH1 0x20 DUP3 ADD MLOAD DUP2 PUSH1 0x1 ADD SSTORE PUSH1 0x40 DUP3 ADD MLOAD DUP2 PUSH1 0x2 ADD SWAP1 DUP1 MLOAD SWAP1 PUSH1 0x20 ADD SWAP1 PUSH2 0x1CBF SWAP3 SWAP2 SWAP1 PUSH2 0x2135 JUMP JUMPDEST POP SWAP1 POP POP DUP1 PUSH1 0x1 PUSH1 0x40 MLOAD PUSH2 0x1CD2 SWAP1 PUSH2 0x284D JUMP JUMPDEST SWAP1 DUP2 MSTORE PUSH1 0x20 ADD PUSH1 0x40 MLOAD DUP1 SWAP2 SUB SWAP1 KECCAK256 PUSH1 0x0 PUSH1 0x3 DUP2 MSTORE PUSH1 0x20 ADD SWAP1 DUP2 MSTORE PUSH1 0x20 ADD PUSH1 0x0 KECCAK256 PUSH1 0x0 DUP3 ADD MLOAD DUP2 PUSH1 0x0 ADD SWAP1 DUP1 MLOAD SWAP1 PUSH1 0x20 ADD SWAP1 PUSH2 0x1D0E SWAP3 SWAP2 SWAP1 PUSH2 0x2135 JUMP JUMPDEST POP PUSH1 0x20 DUP3 ADD MLOAD DUP2 PUSH1 0x1 ADD SSTORE PUSH1 0x40 DUP3 ADD MLOAD DUP2 PUSH1 0x2 ADD SWAP1 DUP1 MLOAD SWAP1 PUSH1 0x20 ADD SWAP1 PUSH2 0x1D35 SWAP3 SWAP2 SWAP1 PUSH2 0x2135 JUMP JUMPDEST POP SWAP1 POP POP POP POP POP POP JUMP JUMPDEST PUSH1 0x60 PUSH1 0x0 PUSH1 0x1 DUP4 PUSH1 0x40 MLOAD PUSH2 0x1D53 SWAP2 SWAP1 PUSH2 0x2836 JUMP JUMPDEST SWAP1 DUP2 MSTORE PUSH1 0x20 ADD PUSH1 0x40 MLOAD DUP1 SWAP2 SUB SWAP1 KECCAK256 PUSH1 0x0 DUP1 DUP2 MSTORE PUSH1 0x20 ADD SWAP1 DUP2 MSTORE PUSH1 0x20 ADD PUSH1 0x0 KECCAK256 PUSH1 0x40 MLOAD DUP1 PUSH1 0x60 ADD PUSH1 0x40 MSTORE SWAP1 DUP2 PUSH1 0x0 DUP3 ADD DUP1 SLOAD PUSH2 0x1D8D SWAP1 PUSH2 0x2A80 JUMP JUMPDEST DUP1 PUSH1 0x1F ADD PUSH1 0x20 DUP1 SWAP2 DIV MUL PUSH1 0x20 ADD PUSH1 0x40 MLOAD SWAP1 DUP2 ADD PUSH1 0x40 MSTORE DUP1 SWAP3 SWAP2 SWAP1 DUP2 DUP2 MSTORE PUSH1 0x20 ADD DUP3 DUP1 SLOAD PUSH2 0x1DB9 SWAP1 PUSH2 0x2A80 JUMP JUMPDEST DUP1 ISZERO PUSH2 0x1E06 JUMPI DUP1 PUSH1 0x1F LT PUSH2 0x1DDB JUMPI PUSH2 0x100 DUP1 DUP4 SLOAD DIV MUL DUP4 MSTORE SWAP2 PUSH1 0x20 ADD SWAP2 PUSH2 0x1E06 JUMP JUMPDEST DUP3 ADD SWAP2 SWAP1 PUSH1 0x0 MSTORE PUSH1 0x20 PUSH1 0x0 KECCAK256 SWAP1 JUMPDEST DUP2 SLOAD DUP2 MSTORE SWAP1 PUSH1 0x1 ADD SWAP1 PUSH1 0x20 ADD DUP1 DUP4 GT PUSH2 0x1DE9 JUMPI DUP3 SWAP1 SUB PUSH1 0x1F AND DUP3 ADD SWAP2 JUMPDEST POP POP POP POP POP DUP2 MSTORE PUSH1 0x20 ADD PUSH1 0x1 DUP3 ADD SLOAD DUP2 MSTORE PUSH1 0x20 ADD PUSH1 0x2 DUP3 ADD DUP1 SLOAD PUSH2 0x1E29 SWAP1 PUSH2 0x2A80 JUMP JUMPDEST DUP1 PUSH1 0x1F ADD PUSH1 0x20 DUP1 SWAP2 DIV MUL PUSH1 0x20 ADD PUSH1 0x40 MLOAD SWAP1 DUP2 ADD PUSH1 0x40 MSTORE DUP1 SWAP3 SWAP2 SWAP1 DUP2 DUP2 MSTORE PUSH1 0x20 ADD DUP3 DUP1 SLOAD PUSH2 0x1E55 SWAP1 PUSH2 0x2A80 JUMP JUMPDEST DUP1 ISZERO PUSH2 0x1EA2 JUMPI DUP1 PUSH1 0x1F LT PUSH2 0x1E77 JUMPI PUSH2 0x100 DUP1 DUP4 SLOAD DIV MUL DUP4 MSTORE SWAP2 PUSH1 0x20 ADD SWAP2 PUSH2 0x1EA2 JUMP JUMPDEST DUP3 ADD SWAP2 SWAP1 PUSH1 0x0 MSTORE PUSH1 0x20 PUSH1 0x0 KECCAK256 SWAP1 JUMPDEST DUP2 SLOAD DUP2 MSTORE SWAP1 PUSH1 0x1 ADD SWAP1 PUSH1 0x20 ADD DUP1 DUP4 GT PUSH2 0x1E85 JUMPI DUP3 SWAP1 SUB PUSH1 0x1F AND DUP3 ADD SWAP2 JUMPDEST POP POP POP POP POP DUP2 MSTORE POP POP SWAP1 POP PUSH1 0x0 PUSH1 0x1 DUP5 PUSH1 0x40 MLOAD PUSH2 0x1EBF SWAP2 SWAP1 PUSH2 0x2836 JUMP JUMPDEST SWAP1 DUP2 MSTORE PUSH1 0x20 ADD PUSH1 0x40 MLOAD DUP1 SWAP2 SUB SWAP1 KECCAK256 SWAP1 POP PUSH1 0x60 PUSH1 0x0 JUMPDEST PUSH1 0x5 DUP2 LT ISZERO PUSH2 0x2059 JUMPI DUP3 PUSH1 0x0 DUP3 DUP2 MSTORE PUSH1 0x20 ADD SWAP1 DUP2 MSTORE PUSH1 0x20 ADD PUSH1 0x0 KECCAK256 PUSH1 0x40 MLOAD DUP1 PUSH1 0x60 ADD PUSH1 0x40 MSTORE SWAP1 DUP2 PUSH1 0x0 DUP3 ADD DUP1 SLOAD PUSH2 0x1F0A SWAP1 PUSH2 0x2A80 JUMP JUMPDEST DUP1 PUSH1 0x1F ADD PUSH1 0x20 DUP1 SWAP2 DIV MUL PUSH1 0x20 ADD PUSH1 0x40 MLOAD SWAP1 DUP2 ADD PUSH1 0x40 MSTORE DUP1 SWAP3 SWAP2 SWAP1 DUP2 DUP2 MSTORE PUSH1 0x20 ADD DUP3 DUP1 SLOAD PUSH2 0x1F36 SWAP1 PUSH2 0x2A80 JUMP JUMPDEST DUP1 ISZERO PUSH2 0x1F83 JUMPI DUP1 PUSH1 0x1F LT PUSH2 0x1F58 JUMPI PUSH2 0x100 DUP1 DUP4 SLOAD DIV MUL DUP4 MSTORE SWAP2 PUSH1 0x20 ADD SWAP2 PUSH2 0x1F83 JUMP JUMPDEST DUP3 ADD SWAP2 SWAP1 PUSH1 0x0 MSTORE PUSH1 0x20 PUSH1 0x0 KECCAK256 SWAP1 JUMPDEST DUP2 SLOAD DUP2 MSTORE SWAP1 PUSH1 0x1 ADD SWAP1 PUSH1 0x20 ADD DUP1 DUP4 GT PUSH2 0x1F66 JUMPI DUP3 SWAP1 SUB PUSH1 0x1F AND DUP3 ADD SWAP2 JUMPDEST POP POP POP POP POP DUP2 MSTORE PUSH1 0x20 ADD PUSH1 0x1 DUP3 ADD SLOAD DUP2 MSTORE PUSH1 0x20 ADD PUSH1 0x2 DUP3 ADD DUP1 SLOAD PUSH2 0x1FA6 SWAP1 PUSH2 0x2A80 JUMP JUMPDEST DUP1 PUSH1 0x1F ADD PUSH1 0x20 DUP1 SWAP2 DIV MUL PUSH1 0x20 ADD PUSH1 0x40 MLOAD SWAP1 DUP2 ADD PUSH1 0x40 MSTORE DUP1 SWAP3 SWAP2 SWAP1 DUP2 DUP2 MSTORE PUSH1 0x20 ADD DUP3 DUP1 SLOAD PUSH2 0x1FD2 SWAP1 PUSH2 0x2A80 JUMP JUMPDEST DUP1 ISZERO PUSH2 0x201F JUMPI DUP1 PUSH1 0x1F LT PUSH2 0x1FF4 JUMPI PUSH2 0x100 DUP1 DUP4 SLOAD DIV MUL DUP4 MSTORE SWAP2 PUSH1 0x20 ADD SWAP2 PUSH2 0x201F JUMP JUMPDEST DUP3 ADD SWAP2 SWAP1 PUSH1 0x0 MSTORE PUSH1 0x20 PUSH1 0x0 KECCAK256 SWAP1 JUMPDEST DUP2 SLOAD DUP2 MSTORE SWAP1 PUSH1 0x1 ADD SWAP1 PUSH1 0x20 ADD DUP1 DUP4 GT PUSH2 0x2002 JUMPI DUP3 SWAP1 SUB PUSH1 0x1F AND DUP3 ADD SWAP2 JUMPDEST POP POP POP POP POP DUP2 MSTORE POP POP DUP3 DUP3 DUP2 MLOAD DUP2 LT PUSH2 0x203B JUMPI PUSH2 0x203A PUSH2 0x2B8A JUMP JUMPDEST JUMPDEST PUSH1 0x20 MUL PUSH1 0x20 ADD ADD DUP2 SWAP1 MSTORE POP DUP1 DUP1 PUSH2 0x2051 SWAP1 PUSH2 0x2AE3 JUMP JUMPDEST SWAP2 POP POP PUSH2 0x1ED4 JUMP JUMPDEST POP DUP1 SWAP4 POP POP POP POP SWAP2 SWAP1 POP JUMP JUMPDEST PUSH1 0x0 DUP4 DUP1 MLOAD PUSH1 0x20 DUP2 ADD DUP3 ADD DUP1 MLOAD DUP5 DUP3 MSTORE PUSH1 0x20 DUP4 ADD PUSH1 0x20 DUP6 ADD KECCAK256 DUP2 DUP4 MSTORE DUP1 SWAP6 POP POP POP POP POP POP PUSH1 0x20 MSTORE DUP2 PUSH1 0x0 MSTORE PUSH1 0x40 PUSH1 0x0 KECCAK256 PUSH1 0x20 MSTORE DUP1 PUSH1 0x0 MSTORE PUSH1 0x40 PUSH1 0x0 KECCAK256 PUSH1 0x0 SWAP3 POP SWAP3 POP POP POP DUP1 SLOAD PUSH2 0x20B4 SWAP1 PUSH2 0x2A80 JUMP JUMPDEST DUP1 PUSH1 0x1F ADD PUSH1 0x20 DUP1 SWAP2 DIV MUL PUSH1 0x20 ADD PUSH1 0x40 MLOAD SWAP1 DUP2 ADD PUSH1 0x40 MSTORE DUP1 SWAP3 SWAP2 SWAP1 DUP2 DUP2 MSTORE PUSH1 0x20 ADD DUP3 DUP1 SLOAD PUSH2 0x20E0 SWAP1 PUSH2 0x2A80 JUMP JUMPDEST DUP1 ISZERO PUSH2 0x212D JUMPI DUP1 PUSH1 0x1F LT PUSH2 0x2102 JUMPI PUSH2 0x100 DUP1 DUP4 SLOAD DIV MUL DUP4 MSTORE SWAP2 PUSH1 0x20 ADD SWAP2 PUSH2 0x212D JUMP JUMPDEST DUP3 ADD SWAP2 SWAP1 PUSH1 0x0 MSTORE PUSH1 0x20 PUSH1 0x0 KECCAK256 SWAP1 JUMPDEST DUP2 SLOAD DUP2 MSTORE SWAP1 PUSH1 0x1 ADD SWAP1 PUSH1 0x20 ADD DUP1 DUP4 GT PUSH2 0x2110 JUMPI DUP3 SWAP1 SUB PUSH1 0x1F AND DUP3 ADD SWAP2 JUMPDEST POP POP POP POP POP DUP2 JUMP JUMPDEST DUP3 DUP1 SLOAD PUSH2 0x2141 SWAP1 PUSH2 0x2A80 JUMP JUMPDEST SWAP1 PUSH1 0x0 MSTORE PUSH1 0x20 PUSH1 0x0 KECCAK256 SWAP1 PUSH1 0x1F ADD PUSH1 0x20 SWAP1 DIV DUP2 ADD SWAP3 DUP3 PUSH2 0x2163 JUMPI PUSH1 0x0 DUP6 SSTORE PUSH2 0x21AA JUMP JUMPDEST DUP3 PUSH1 0x1F LT PUSH2 0x217C JUMPI DUP1 MLOAD PUSH1 0xFF NOT AND DUP4 DUP1 ADD OR DUP6 SSTORE PUSH2 0x21AA JUMP JUMPDEST DUP3 DUP1 ADD PUSH1 0x1 ADD DUP6 SSTORE DUP3 ISZERO PUSH2 0x21AA JUMPI SWAP2 DUP3 ADD JUMPDEST DUP3 DUP2 GT ISZERO PUSH2 0x21A9 JUMPI DUP3 MLOAD DUP3 SSTORE SWAP2 PUSH1 0x20 ADD SWAP2 SWAP1 PUSH1 0x1 ADD SWAP1 PUSH2 0x218E JUMP JUMPDEST JUMPDEST POP SWAP1 POP PUSH2 0x21B7 SWAP2 SWAP1 PUSH2 0x21BB JUMP JUMPDEST POP SWAP1 JUMP JUMPDEST JUMPDEST DUP1 DUP3 GT ISZERO PUSH2 0x21D4 JUMPI PUSH1 0x0 DUP2 PUSH1 0x0 SWAP1 SSTORE POP PUSH1 0x1 ADD PUSH2 0x21BC JUMP JUMPDEST POP SWAP1 JUMP JUMPDEST PUSH1 0x0 PUSH2 0x21EB PUSH2 0x21E6 DUP5 PUSH2 0x293A JUMP JUMPDEST PUSH2 0x2915 JUMP JUMPDEST SWAP1 POP DUP1 DUP4 DUP3 MSTORE PUSH1 0x20 DUP3 ADD SWAP1 POP DUP3 DUP6 PUSH1 0x20 DUP7 MUL DUP3 ADD GT ISZERO PUSH2 0x220E JUMPI PUSH2 0x220D PUSH2 0x2BF7 JUMP JUMPDEST JUMPDEST PUSH1 0x0 JUMPDEST DUP6 DUP2 LT ISZERO PUSH2 0x225C JUMPI DUP2 CALLDATALOAD PUSH8 0xFFFFFFFFFFFFFFFF DUP2 GT ISZERO PUSH2 0x2234 JUMPI PUSH2 0x2233 PUSH2 0x2BE8 JUMP JUMPDEST JUMPDEST DUP1 DUP7 ADD PUSH2 0x2241 DUP10 DUP3 PUSH2 0x2392 JUMP JUMPDEST DUP6 MSTORE PUSH1 0x20 DUP6 ADD SWAP5 POP PUSH1 0x20 DUP5 ADD SWAP4 POP POP POP PUSH1 0x1 DUP2 ADD SWAP1 POP PUSH2 0x2211 JUMP JUMPDEST POP POP POP SWAP4 SWAP3 POP POP POP JUMP JUMPDEST PUSH1 0x0 PUSH2 0x2279 PUSH2 0x2274 DUP5 PUSH2 0x2966 JUMP JUMPDEST PUSH2 0x2915 JUMP JUMPDEST SWAP1 POP DUP1 DUP4 DUP3 MSTORE PUSH1 0x20 DUP3 ADD SWAP1 POP DUP3 DUP6 PUSH1 0x20 DUP7 MUL DUP3 ADD GT ISZERO PUSH2 0x229C JUMPI PUSH2 0x229B PUSH2 0x2BF7 JUMP JUMPDEST JUMPDEST PUSH1 0x0 JUMPDEST DUP6 DUP2 LT ISZERO PUSH2 0x22EA JUMPI DUP2 CALLDATALOAD PUSH8 0xFFFFFFFFFFFFFFFF DUP2 GT ISZERO PUSH2 0x22C2 JUMPI PUSH2 0x22C1 PUSH2 0x2BE8 JUMP JUMPDEST JUMPDEST DUP1 DUP7 ADD PUSH2 0x22CF DUP10 DUP3 PUSH2 0x23C0 JUMP JUMPDEST DUP6 MSTORE PUSH1 0x20 DUP6 ADD SWAP5 POP PUSH1 0x20 DUP5 ADD SWAP4 POP POP POP PUSH1 0x1 DUP2 ADD SWAP1 POP PUSH2 0x229F JUMP JUMPDEST POP POP POP SWAP4 SWAP3 POP POP POP JUMP JUMPDEST PUSH1 0x0 PUSH2 0x2307 PUSH2 0x2302 DUP5 PUSH2 0x2992 JUMP JUMPDEST PUSH2 0x2915 JUMP JUMPDEST SWAP1 POP DUP3 DUP2 MSTORE PUSH1 0x20 DUP2 ADD DUP5 DUP5 DUP5 ADD GT ISZERO PUSH2 0x2323 JUMPI PUSH2 0x2322 PUSH2 0x2BFC JUMP JUMPDEST JUMPDEST PUSH2 0x232E DUP5 DUP3 DUP6 PUSH2 0x2A3E JUMP JUMPDEST POP SWAP4 SWAP3 POP POP POP JUMP JUMPDEST PUSH1 0x0 DUP3 PUSH1 0x1F DUP4 ADD SLT PUSH2 0x234B JUMPI PUSH2 0x234A PUSH2 0x2BE8 JUMP JUMPDEST JUMPDEST DUP2 CALLDATALOAD PUSH2 0x235B DUP5 DUP3 PUSH1 0x20 DUP7 ADD PUSH2 0x21D8 JUMP JUMPDEST SWAP2 POP POP SWAP3 SWAP2 POP POP JUMP JUMPDEST PUSH1 0x0 DUP3 PUSH1 0x1F DUP4 ADD SLT PUSH2 0x2379 JUMPI PUSH2 0x2378 PUSH2 0x2BE8 JUMP JUMPDEST JUMPDEST DUP2 CALLDATALOAD PUSH2 0x2389 DUP5 DUP3 PUSH1 0x20 DUP7 ADD PUSH2 0x2266 JUMP JUMPDEST SWAP2 POP POP SWAP3 SWAP2 POP POP JUMP JUMPDEST PUSH1 0x0 DUP3 PUSH1 0x1F DUP4 ADD SLT PUSH2 0x23A7 JUMPI PUSH2 0x23A6 PUSH2 0x2BE8 JUMP JUMPDEST JUMPDEST DUP2 CALLDATALOAD PUSH2 0x23B7 DUP5 DUP3 PUSH1 0x20 DUP7 ADD PUSH2 0x22F4 JUMP JUMPDEST SWAP2 POP POP SWAP3 SWAP2 POP POP JUMP JUMPDEST PUSH1 0x0 PUSH1 0x60 DUP3 DUP5 SUB SLT ISZERO PUSH2 0x23D6 JUMPI PUSH2 0x23D5 PUSH2 0x2BED JUMP JUMPDEST JUMPDEST PUSH2 0x23E0 PUSH1 0x60 PUSH2 0x2915 JUMP JUMPDEST SWAP1 POP PUSH1 0x0 DUP3 ADD CALLDATALOAD PUSH8 0xFFFFFFFFFFFFFFFF DUP2 GT ISZERO PUSH2 0x2400 JUMPI PUSH2 0x23FF PUSH2 0x2BF2 JUMP JUMPDEST JUMPDEST PUSH2 0x240C DUP5 DUP3 DUP6 ADD PUSH2 0x2392 JUMP JUMPDEST PUSH1 0x0 DUP4 ADD MSTORE POP PUSH1 0x20 PUSH2 0x2420 DUP5 DUP3 DUP6 ADD PUSH2 0x245C JUMP JUMPDEST PUSH1 0x20 DUP4 ADD MSTORE POP PUSH1 0x40 DUP3 ADD CALLDATALOAD PUSH8 0xFFFFFFFFFFFFFFFF DUP2 GT ISZERO PUSH2 0x2444 JUMPI PUSH2 0x2443 PUSH2 0x2BF2 JUMP JUMPDEST JUMPDEST PUSH2 0x2450 DUP5 DUP3 DUP6 ADD PUSH2 0x2392 JUMP JUMPDEST PUSH1 0x40 DUP4 ADD MSTORE POP SWAP3 SWAP2 POP POP JUMP JUMPDEST PUSH1 0x0 DUP2 CALLDATALOAD SWAP1 POP PUSH2 0x246B DUP2 PUSH2 0x2C97 JUMP JUMPDEST SWAP3 SWAP2 POP POP JUMP JUMPDEST PUSH1 0x0 PUSH1 0x20 DUP3 DUP5 SUB SLT ISZERO PUSH2 0x2487 JUMPI PUSH2 0x2486 PUSH2 0x2C06 JUMP JUMPDEST JUMPDEST PUSH1 0x0 DUP3 ADD CALLDATALOAD PUSH8 0xFFFFFFFFFFFFFFFF DUP2 GT ISZERO PUSH2 0x24A5 JUMPI PUSH2 0x24A4 PUSH2 0x2C01 JUMP JUMPDEST JUMPDEST PUSH2 0x24B1 DUP5 DUP3 DUP6 ADD PUSH2 0x2392 JUMP JUMPDEST SWAP2 POP POP SWAP3 SWAP2 POP POP JUMP JUMPDEST PUSH1 0x0 DUP1 PUSH1 0x0 PUSH1 0x60 DUP5 DUP7 SUB SLT ISZERO PUSH2 0x24D3 JUMPI PUSH2 0x24D2 PUSH2 0x2C06 JUMP JUMPDEST JUMPDEST PUSH1 0x0 DUP5 ADD CALLDATALOAD PUSH8 0xFFFFFFFFFFFFFFFF DUP2 GT ISZERO PUSH2 0x24F1 JUMPI PUSH2 0x24F0 PUSH2 0x2C01 JUMP JUMPDEST JUMPDEST PUSH2 0x24FD DUP7 DUP3 DUP8 ADD PUSH2 0x2392 JUMP JUMPDEST SWAP4 POP POP PUSH1 0x20 DUP5 ADD CALLDATALOAD PUSH8 0xFFFFFFFFFFFFFFFF DUP2 GT ISZERO PUSH2 0x251E JUMPI PUSH2 0x251D PUSH2 0x2C01 JUMP JUMPDEST JUMPDEST PUSH2 0x252A DUP7 DUP3 DUP8 ADD PUSH2 0x2364 JUMP JUMPDEST SWAP3 POP POP PUSH1 0x40 DUP5 ADD CALLDATALOAD PUSH8 0xFFFFFFFFFFFFFFFF DUP2 GT ISZERO PUSH2 0x254B JUMPI PUSH2 0x254A PUSH2 0x2C01 JUMP JUMPDEST JUMPDEST PUSH2 0x2557 DUP7 DUP3 DUP8 ADD PUSH2 0x2336 JUMP JUMPDEST SWAP2 POP POP SWAP3 POP SWAP3 POP SWAP3 JUMP JUMPDEST PUSH1 0x0 DUP1 PUSH1 0x40 DUP4 DUP6 SUB SLT ISZERO PUSH2 0x2578 JUMPI PUSH2 0x2577 PUSH2 0x2C06 JUMP JUMPDEST JUMPDEST PUSH1 0x0 DUP4 ADD CALLDATALOAD PUSH8 0xFFFFFFFFFFFFFFFF DUP2 GT ISZERO PUSH2 0x2596 JUMPI PUSH2 0x2595 PUSH2 0x2C01 JUMP JUMPDEST JUMPDEST PUSH2 0x25A2 DUP6 DUP3 DUP7 ADD PUSH2 0x2392 JUMP JUMPDEST SWAP3 POP POP PUSH1 0x20 PUSH2 0x25B3 DUP6 DUP3 DUP7 ADD PUSH2 0x245C JUMP JUMPDEST SWAP2 POP POP SWAP3 POP SWAP3 SWAP1 POP JUMP JUMPDEST PUSH1 0x0 DUP1 PUSH1 0x0 PUSH1 0x60 DUP5 DUP7 SUB SLT ISZERO PUSH2 0x25D6 JUMPI PUSH2 0x25D5 PUSH2 0x2C06 JUMP JUMPDEST JUMPDEST PUSH1 0x0 DUP5 ADD CALLDATALOAD PUSH8 0xFFFFFFFFFFFFFFFF DUP2 GT ISZERO PUSH2 0x25F4 JUMPI PUSH2 0x25F3 PUSH2 0x2C01 JUMP JUMPDEST JUMPDEST PUSH2 0x2600 DUP7 DUP3 DUP8 ADD PUSH2 0x2392 JUMP JUMPDEST SWAP4 POP POP PUSH1 0x20 PUSH2 0x2611 DUP7 DUP3 DUP8 ADD PUSH2 0x245C JUMP JUMPDEST SWAP3 POP POP PUSH1 0x40 PUSH2 0x2622 DUP7 DUP3 DUP8 ADD PUSH2 0x245C JUMP JUMPDEST SWAP2 POP POP SWAP3 POP SWAP3 POP SWAP3 JUMP JUMPDEST PUSH1 0x0 PUSH2 0x2638 DUP4 DUP4 PUSH2 0x27C1 JUMP JUMPDEST SWAP1 POP SWAP3 SWAP2 POP POP JUMP JUMPDEST PUSH1 0x0 PUSH2 0x264B DUP3 PUSH2 0x29D3 JUMP JUMPDEST PUSH2 0x2655 DUP2 DUP6 PUSH2 0x29F6 JUMP JUMPDEST SWAP4 POP DUP4 PUSH1 0x20 DUP3 MUL DUP6 ADD PUSH2 0x2667 DUP6 PUSH2 0x29C3 JUMP JUMPDEST DUP1 PUSH1 0x0 JUMPDEST DUP6 DUP2 LT ISZERO PUSH2 0x26A3 JUMPI DUP5 DUP5 SUB DUP10 MSTORE DUP2 MLOAD PUSH2 0x2684 DUP6 DUP3 PUSH2 0x262C JUMP JUMPDEST SWAP5 POP PUSH2 0x268F DUP4 PUSH2 0x29E9 JUMP JUMPDEST SWAP3 POP PUSH1 0x20 DUP11 ADD SWAP10 POP POP PUSH1 0x1 DUP2 ADD SWAP1 POP PUSH2 0x266B JUMP JUMPDEST POP DUP3 SWAP8 POP DUP8 SWAP6 POP POP POP POP POP POP SWAP3 SWAP2 POP POP JUMP JUMPDEST PUSH1 0x0 PUSH2 0x26C0 DUP3 PUSH2 0x29DE JUMP JUMPDEST PUSH2 0x26CA DUP2 DUP6 PUSH2 0x2A07 JUMP JUMPDEST SWAP4 POP PUSH2 0x26DA DUP2 DUP6 PUSH1 0x20 DUP7 ADD PUSH2 0x2A4D JUMP JUMPDEST PUSH2 0x26E3 DUP2 PUSH2 0x2C0B JUMP JUMPDEST DUP5 ADD SWAP2 POP POP SWAP3 SWAP2 POP POP JUMP JUMPDEST PUSH1 0x0 PUSH2 0x26F9 DUP3 PUSH2 0x29DE JUMP JUMPDEST PUSH2 0x2703 DUP2 DUP6 PUSH2 0x2A18 JUMP JUMPDEST SWAP4 POP PUSH2 0x2713 DUP2 DUP6 PUSH1 0x20 DUP7 ADD PUSH2 0x2A4D JUMP JUMPDEST PUSH2 0x271C DUP2 PUSH2 0x2C0B JUMP JUMPDEST DUP5 ADD SWAP2 POP POP SWAP3 SWAP2 POP POP JUMP JUMPDEST PUSH1 0x0 PUSH2 0x2732 DUP3 PUSH2 0x29DE JUMP JUMPDEST PUSH2 0x273C DUP2 DUP6 PUSH2 0x2A29 JUMP JUMPDEST SWAP4 POP PUSH2 0x274C DUP2 DUP6 PUSH1 0x20 DUP7 ADD PUSH2 0x2A4D JUMP JUMPDEST DUP1 DUP5 ADD SWAP2 POP POP SWAP3 SWAP2 POP POP JUMP JUMPDEST PUSH1 0x0 PUSH2 0x2765 PUSH1 0x14 DUP4 PUSH2 0x2A29 JUMP JUMPDEST SWAP2 POP PUSH2 0x2770 DUP3 PUSH2 0x2C1C JUMP JUMPDEST PUSH1 0x14 DUP3 ADD SWAP1 POP SWAP2 SWAP1 POP JUMP JUMPDEST PUSH1 0x0 PUSH2 0x2788 PUSH1 0x13 DUP4 PUSH2 0x2A29 JUMP JUMPDEST SWAP2 POP PUSH2 0x2793 DUP3 PUSH2 0x2C45 JUMP JUMPDEST PUSH1 0x13 DUP3 ADD SWAP1 POP SWAP2 SWAP1 POP JUMP JUMPDEST PUSH1 0x0 PUSH2 0x27AB PUSH1 0x15 DUP4 PUSH2 0x2A29 JUMP JUMPDEST SWAP2 POP PUSH2 0x27B6 DUP3 PUSH2 0x2C6E JUMP JUMPDEST PUSH1 0x15 DUP3 ADD SWAP1 POP SWAP2 SWAP1 POP JUMP JUMPDEST PUSH1 0x0 PUSH1 0x60 DUP4 ADD PUSH1 0x0 DUP4 ADD MLOAD DUP5 DUP3 SUB PUSH1 0x0 DUP7 ADD MSTORE PUSH2 0x27DE DUP3 DUP3 PUSH2 0x26B5 JUMP JUMPDEST SWAP2 POP POP PUSH1 0x20 DUP4 ADD MLOAD PUSH2 0x27F3 PUSH1 0x20 DUP7 ADD DUP3 PUSH2 0x2818 JUMP JUMPDEST POP PUSH1 0x40 DUP4 ADD MLOAD DUP5 DUP3 SUB PUSH1 0x40 DUP7 ADD MSTORE PUSH2 0x280B DUP3 DUP3 PUSH2 0x26B5 JUMP JUMPDEST SWAP2 POP POP DUP1 SWAP2 POP POP SWAP3 SWAP2 POP POP JUMP JUMPDEST PUSH2 0x2821 DUP2 PUSH2 0x2A34 JUMP JUMPDEST DUP3 MSTORE POP POP JUMP JUMPDEST PUSH2 0x2830 DUP2 PUSH2 0x2A34 JUMP JUMPDEST DUP3 MSTORE POP POP JUMP JUMPDEST PUSH1 0x0 PUSH2 0x2842 DUP3 DUP5 PUSH2 0x2727 JUMP JUMPDEST SWAP2 POP DUP2 SWAP1 POP SWAP3 SWAP2 POP POP JUMP JUMPDEST PUSH1 0x0 PUSH2 0x2858 DUP3 PUSH2 0x2758 JUMP JUMPDEST SWAP2 POP DUP2 SWAP1 POP SWAP2 SWAP1 POP JUMP JUMPDEST PUSH1 0x0 PUSH2 0x286D DUP3 PUSH2 0x277B JUMP JUMPDEST SWAP2 POP DUP2 SWAP1 POP SWAP2 SWAP1 POP JUMP JUMPDEST PUSH1 0x0 PUSH2 0x2882 DUP3 PUSH2 0x279E JUMP JUMPDEST SWAP2 POP DUP2 SWAP1 POP SWAP2 SWAP1 POP JUMP JUMPDEST PUSH1 0x0 PUSH1 0x20 DUP3 ADD SWAP1 POP DUP2 DUP2 SUB PUSH1 0x0 DUP4 ADD MSTORE PUSH2 0x28A6 DUP2 DUP5 PUSH2 0x2640 JUMP JUMPDEST SWAP1 POP SWAP3 SWAP2 POP POP JUMP JUMPDEST PUSH1 0x0 PUSH1 0x20 DUP3 ADD SWAP1 POP DUP2 DUP2 SUB PUSH1 0x0 DUP4 ADD MSTORE PUSH2 0x28C8 DUP2 DUP5 PUSH2 0x26EE JUMP JUMPDEST SWAP1 POP SWAP3 SWAP2 POP POP JUMP JUMPDEST PUSH1 0x0 PUSH1 0x60 DUP3 ADD SWAP1 POP DUP2 DUP2 SUB PUSH1 0x0 DUP4 ADD MSTORE PUSH2 0x28EA DUP2 DUP7 PUSH2 0x26EE JUMP JUMPDEST SWAP1 POP PUSH2 0x28F9 PUSH1 0x20 DUP4 ADD DUP6 PUSH2 0x2827 JUMP JUMPDEST DUP2 DUP2 SUB PUSH1 0x40 DUP4 ADD MSTORE PUSH2 0x290B DUP2 DUP5 PUSH2 0x26EE JUMP JUMPDEST SWAP1 POP SWAP5 SWAP4 POP POP POP POP JUMP JUMPDEST PUSH1 0x0 PUSH2 0x291F PUSH2 0x2930 JUMP JUMPDEST SWAP1 POP PUSH2 0x292B DUP3 DUP3 PUSH2 0x2AB2 JUMP JUMPDEST SWAP2 SWAP1 POP JUMP JUMPDEST PUSH1 0x0 PUSH1 0x40 MLOAD SWAP1 POP SWAP1 JUMP JUMPDEST PUSH1 0x0 PUSH8 0xFFFFFFFFFFFFFFFF DUP3 GT ISZERO PUSH2 0x2955 JUMPI PUSH2 0x2954 PUSH2 0x2BB9 JUMP JUMPDEST JUMPDEST PUSH1 0x20 DUP3 MUL SWAP1 POP PUSH1 0x20 DUP2 ADD SWAP1 POP SWAP2 SWAP1 POP JUMP JUMPDEST PUSH1 0x0 PUSH8 0xFFFFFFFFFFFFFFFF DUP3 GT ISZERO PUSH2 0x2981 JUMPI PUSH2 0x2980 PUSH2 0x2BB9 JUMP JUMPDEST JUMPDEST PUSH1 0x20 DUP3 MUL SWAP1 POP PUSH1 0x20 DUP2 ADD SWAP1 POP SWAP2 SWAP1 POP JUMP JUMPDEST PUSH1 0x0 PUSH8 0xFFFFFFFFFFFFFFFF DUP3 GT ISZERO PUSH2 0x29AD JUMPI PUSH2 0x29AC PUSH2 0x2BB9 JUMP JUMPDEST JUMPDEST PUSH2 0x29B6 DUP3 PUSH2 0x2C0B JUMP JUMPDEST SWAP1 POP PUSH1 0x20 DUP2 ADD SWAP1 POP SWAP2 SWAP1 POP JUMP JUMPDEST PUSH1 0x0 DUP2 SWAP1 POP PUSH1 0x20 DUP3 ADD SWAP1 POP SWAP2 SWAP1 POP JUMP JUMPDEST PUSH1 0x0 DUP2 MLOAD SWAP1 POP SWAP2 SWAP1 POP JUMP JUMPDEST PUSH1 0x0 DUP2 MLOAD SWAP1 POP SWAP2 SWAP1 POP JUMP JUMPDEST PUSH1 0x0 PUSH1 0x20 DUP3 ADD SWAP1 POP SWAP2 SWAP1 POP JUMP JUMPDEST PUSH1 0x0 DUP3 DUP3 MSTORE PUSH1 0x20 DUP3 ADD SWAP1 POP SWAP3 SWAP2 POP POP JUMP JUMPDEST PUSH1 0x0 DUP3 DUP3 MSTORE PUSH1 0x20 DUP3 ADD SWAP1 POP SWAP3 SWAP2 POP POP JUMP JUMPDEST PUSH1 0x0 DUP3 DUP3 MSTORE PUSH1 0x20 DUP3 ADD SWAP1 POP SWAP3 SWAP2 POP POP JUMP JUMPDEST PUSH1 0x0 DUP2 SWAP1 POP SWAP3 SWAP2 POP POP JUMP JUMPDEST PUSH1 0x0 DUP2 SWAP1 POP SWAP2 SWAP1 POP JUMP JUMPDEST DUP3 DUP2 DUP4 CALLDATACOPY PUSH1 0x0 DUP4 DUP4 ADD MSTORE POP POP POP JUMP JUMPDEST PUSH1 0x0 JUMPDEST DUP4 DUP2 LT ISZERO PUSH2 0x2A6B JUMPI DUP1 DUP3 ADD MLOAD DUP2 DUP5 ADD MSTORE PUSH1 0x20 DUP2 ADD SWAP1 POP PUSH2 0x2A50 JUMP JUMPDEST DUP4 DUP2 GT ISZERO PUSH2 0x2A7A JUMPI PUSH1 0x0 DUP5 DUP5 ADD MSTORE JUMPDEST POP POP POP POP JUMP JUMPDEST PUSH1 0x0 PUSH1 0x2 DUP3 DIV SWAP1 POP PUSH1 0x1 DUP3 AND DUP1 PUSH2 0x2A98 JUMPI PUSH1 0x7F DUP3 AND SWAP2 POP JUMPDEST PUSH1 0x20 DUP3 LT DUP2 EQ ISZERO PUSH2 0x2AAC JUMPI PUSH2 0x2AAB PUSH2 0x2B5B JUMP JUMPDEST JUMPDEST POP SWAP2 SWAP1 POP JUMP JUMPDEST PUSH2 0x2ABB DUP3 PUSH2 0x2C0B JUMP JUMPDEST DUP2 ADD DUP2 DUP2 LT PUSH8 0xFFFFFFFFFFFFFFFF DUP3 GT OR ISZERO PUSH2 0x2ADA JUMPI PUSH2 0x2AD9 PUSH2 0x2BB9 JUMP JUMPDEST JUMPDEST DUP1 PUSH1 0x40 MSTORE POP POP POP JUMP JUMPDEST PUSH1 0x0 PUSH2 0x2AEE DUP3 PUSH2 0x2A34 JUMP JUMPDEST SWAP2 POP PUSH32 0xFFFFFFFFFFFFFFFFFFFFFFFFFFFFFFFFFFFFFFFFFFFFFFFFFFFFFFFFFFFFFFFF DUP3 EQ ISZERO PUSH2 0x2B21 JUMPI PUSH2 0x2B20 PUSH2 0x2B2C JUMP JUMPDEST JUMPDEST PUSH1 0x1 DUP3 ADD SWAP1 POP SWAP2 SWAP1 POP JUMP JUMPDEST PUSH32 0x4E487B7100000000000000000000000000000000000000000000000000000000 PUSH1 0x0 MSTORE PUSH1 0x11 PUSH1 0x4 MSTORE PUSH1 0x24 PUSH1 0x0 REVERT JUMPDEST PUSH32 0x4E487B7100000000000000000000000000000000000000000000000000000000 PUSH1 0x0 MSTORE PUSH1 0x22 PUSH1 0x4 MSTORE PUSH1 0x24 PUSH1 0x0 REVERT JUMPDEST PUSH32 0x4E487B7100000000000000000000000000000000000000000000000000000000 PUSH1 0x0 MSTORE PUSH1 0x32 PUSH1 0x4 MSTORE PUSH1 0x24 PUSH1 0x0 REVERT JUMPDEST PUSH32 0x4E487B7100000000000000000000000000000000000000000000000000000000 PUSH1 0x0 MSTORE PUSH1 0x41 PUSH1 0x4 MSTORE PUSH1 0x24 PUSH1 0x0 REVERT JUMPDEST PUSH1 0x0 DUP1 REVERT JUMPDEST PUSH1 0x0 DUP1 REVERT JUMPDEST PUSH1 0x0 DUP1 REVERT JUMPDEST PUSH1 0x0 DUP1 REVERT JUMPDEST PUSH1 0x0 DUP1 REVERT JUMPDEST PUSH1 0x0 DUP1 REVERT JUMPDEST PUSH1 0x0 DUP1 REVERT JUMPDEST PUSH1 0x0 PUSH1 0x1F NOT PUSH1 0x1F DUP4 ADD AND SWAP1 POP SWAP2 SWAP1 POP JUMP JUMPDEST PUSH32 0x416E6369656E7420526F6D616E20456D70697265000000000000000000000000 PUSH1 0x0 DUP3 ADD MSTORE POP JUMP JUMPDEST PUSH32 0x416E6369656E7420526F6D616E20456D70696500000000000000000000000000 PUSH1 0x0 DUP3 ADD MSTORE POP JUMP JUMPDEST PUSH32 0x4D6564696576616C20526F6D616E20456D706972650000000000000000000000 PUSH1 0x0 DUP3 ADD MSTORE POP JUMP JUMPDEST PUSH2 0x2CA0 DUP2 PUSH2 0x2A34 JUMP JUMPDEST DUP2 EQ PUSH2 0x2CAB JUMPI PUSH1 0x0 DUP1 REVERT JUMPDEST POP JUMP INVALID SLOAD PUSH9 0x6973207469746C6520 PUSH24 0x617320676976656E20746F20417572656C69616E20616674 PUSH6 0x722068652072 PUSH6 0x696E74656772 PUSH2 0x7465 PUSH5 0x2073657061 PUSH19 0x617469737420737461746573206F662050616C PUSH14 0x6572696E6520616E642047616C6C PUSH10 0x6320456D706972657320 PUSH10 0x6E2032373320616E6420 ORIGIN CALLDATACOPY CALLVALUE KECCAK256 PUSH19 0x6573706563746976656C792E426174746C6520 PUSH16 0x6620436174616C756E79616E20506C61 PUSH10 0x6E73206973207365656E KECCAK256 PUSH2 0x7320 MSTORE PUSH16 0x6D652773206C61737420677265617420 PUSH23 0x6963746F72792E2057686F20636F6D6D616E6465642052 PUSH16 0x6D616E20666F726365733F4974207761 PUSH20 0x2061206E69636B6E616D65206F66204E696B6570 PUSH9 0x6F726F732049492050 PUSH9 0x6F6B61732C20656172 PUSH15 0x656420627920686973206D616E7920 PUSH23 0x6963746F7269657320616761696E737420417261626963 KECCAK256 PUSH7 0x6F726365732C20 PUSH10 0x6E636C7564696E672072 PUSH6 0x636F6E717565 PUSH20 0x74206F6620437265746520616E642043696C6963 PUSH10 0x612E5768696368206F66 KECCAK256 PUSH21 0x6865736520626174746C65732064696420656E6420 PUSH24 0x69746820526F6D616E20766963746F72793F576869636820 PUSH16 0x6620746865736520526F6D616E20656D PUSH17 0x65726F727320776173207469746C656420 MSTORE PUSH6 0x73746F726572 KECCAK256 PUSH16 0x662074686520576F726C643F44657369 PUSH19 0x65206F66205065727369616E20736861682074 PUSH16 0x206176656E6765206D7572646572206F PUSH7 0x20526F6D616E20 PUSH6 0x6D7065726F72 0x2E TIMESTAMP PUSH6 0x6C6973617269 PUSH22 0x73206C656420526F6D616E20666F7263657320616761 PUSH10 0x6E73742056616E64616C PUSH10 0x632061726D7920756E64 PUSH6 0x722047656C69 PUSH14 0x657220616E64206869732062726F PUSH21 0x68657220416D6D617461732E20526F6D616E207669 PUSH4 0x746F7279 KECCAK256 PUSH13 0x656420746F207265636F6E7175 PUSH6 0x7374206F6620 COINBASE PUSH7 0x726963612E4465 PUSH7 0x656174206F6620 MSTORE PUSH16 0x6D616E6F73204956206174204D616E7A PUSH10 0x6B65727420696E203130 CALLDATACOPY BALANCE KECCAK256 PUSH4 0x61757365 PUSH5 0x206D617373 PUSH10 0x7665206368616F732069 PUSH15 0x20526F6D616E20656D706972652E20 JUMPI PUSH9 0x656E20656D7065726F PUSH19 0x20416C6578696F73204B6F6D6E656E6F732074 PUSH19 0x69656420746F20756E646F207468652064616D PUSH2 0x6765 KECCAK256 PUSH2 0x6E64 KECCAK256 PUSH19 0x65636C61696D20416E61746F6C69612C206865 KECCAK256 PUSH2 0x736B PUSH6 0x6420706F7065 KECCAK256 PUSH10 0x6E20526F6D6520666F72 KECCAK256 PUSH14 0x657263656E61726965732E20496E PUSH20 0x746561642C2074686520706F7065206F7267616E PUSH10 0x73656420637275736164 PUSH6 0x732E526F6D61 PUSH15 0x207265667573616C20746F20706179 KECCAK256 PUSH20 0x756273696469657320746F2053617373616E6964 PUSH20 0x2E526176656E6E61207761732073656174206F66 KECCAK256 PUSH21 0x6865207765737465726E20456D7065726F72207369 PUSH15 0x6365206974207265706C6163656420 0x4D PUSH10 0x6C616E20696E20343031 KECCAK256 NUMBER 0x2E GASLIMIT 0x2E 0x2C KECCAK256 PUSH22 0x6E74696C6C204F646F6163657272206465706F736564 KECCAK256 PUSH6 0x6D7065726F72 KECCAK256 MSTORE PUSH16 0x6D756C757320417567757374756C7573 0x2E JUMPI PUSH9 0x6963682067656E6572 PUSH2 0x6C20 PUSH4 0x6F6D6D61 PUSH15 0x64656420526F6D616E20666F726365 PUSH20 0x20696E20626174746C65206F6620416420446563 PUSH10 0x6D756D3F576869636820 PUSH6 0x6D7065726F72 KECCAK256 PUSH24 0x6173206E69636B6E616D656420275468652050616C652044 PUSH6 0x617468206F66 KECCAK256 MSTORE8 PUSH2 0x7261 PUSH4 0x656E7327 EXTCODEHASH MSTORE8 PUSH2 0x7373 PUSH2 0x6E69 PUSH5 0x2073686168 KECCAK256 0x4B PUSH9 0x6F73726F7720494920 PUSH24 0x616E74656420746F206176656E6765206D7572646572206F PUSH7 0x20656D7065726F PUSH19 0x204D61757269636520647572696E672050686F PUSH12 0x6173207265766F6C742C2077 PUSH9 0x6F6D206865206F7765 PUSH5 0x2068697320 PUSH21 0x68726F6E6520616E6420636F6E7369646572656420 PUSH17 0x6572736F6E616C20667269656E642E2049 PUSH21 0x206973207175697465206C696B656C792068652069 PUSH15 0x74656E64656420746F20636F6E7175 PUSH6 0x722045677970 PUSH21 0x20616E642053797269612C20627574207468617420 PUSH24 0x61736E277420757365642061732063617375732062656C69 0x2E TIMESTAMP PUSH16 0x72646572206672696374696F6E206E65 PUSH2 0x7220 PUSH21 0x686520666F727472657373206F6620446172612E42 PUSH2 0x7474 PUSH13 0x65206F66204964697374617669 PUSH20 0x6F20746F6F6B20706C61636520696E2031362043 0x2E GASLIMIT 0x2E KECCAK256 MSTORE PUSH16 0x6D616E2061726D79206C656420627920 SELFBALANCE PUSH6 0x726D616E6963 PUSH22 0x73206465666561746564206765726D616E696320636F PUSH15 0x66656465726174696F6E206F662041 PUSH19 0x6D696E6975732C2061726368696576696E6720 MSTORE PUSH16 0x6D616E20676F616C206F66206176656E PUSH8 0x696E672064656665 PUSH2 0x7420 PUSH10 0x6E20546575746F626F72 PUSH8 0x20466F726573742E JUMPI PUSH9 0x696368206F66207468 PUSH6 0x736520526F6D PUSH2 0x6E20 PUSH5 0x6566656174 PUSH20 0x206361757365642063727573616465733F456D70 PUSH6 0x726F72204865 PUSH19 0x61636C69757320706C616E6E656420746F206D PUSH16 0x7665206361706974616C206177617920 PUSH7 0x726F6D20436F6E PUSH20 0x74616E74696E6F706F6C652E20546F2077686963 PUSH9 0x20636974793F576861 PUSH21 0x2077617320746865206F6666696369616C20636175 PUSH20 0x65206F66206C61737420526F6D616E2D53617373 PUSH2 0x6E69 PUSH5 0x207761723F JUMPI PUSH9 0x656E2053617373616E PUSH10 0x642061726D6965732062 PUSH6 0x736567656420 NUMBER PUSH16 0x6E7374616E74696E6F706F6C652C2048 PUSH6 0x7261636C6975 PUSH20 0x20706C616E6E656420746F206D6F766520636170 PUSH10 0x74616C20746F20436172 PUSH21 0x686167652C20617761792066726F6D205065727369 PUSH2 0x6E2C KECCAK256 MSTORE8 PUSH13 0x617620616E6420417661722074 PUSH9 0x726561742E42617474 PUSH13 0x65206F6620436174616C756E79 PUSH2 0x6E20 POP PUSH13 0x61696E7320746F6F6B20706C61 PUSH4 0x6520696E KECCAK256 CALLVALUE CALLDATALOAD BALANCE KECCAK256 NUMBER 0x2E GASLIMIT KECCAK256 PUSH3 0x657477 PUSH6 0x656E2048756E PUSH20 0x206C656420627920417474696C6120616E642052 PUSH16 0x6D616E6F2D4765726D616E20636F616C PUSH13 0x6974696F6E206C656420627920 CHAINID PUSH13 0x61766975732041657469757320 PUSH2 0x6E64 KECCAK256 PUSH12 0x696E67205468656F646F7269 PUSH4 0x20492E57 PUSH9 0x696368206369747920 PUSH24 0x617320746865206361706974616C206F6620776573746572 PUSH15 0x2070617274206F6620526F6D616E20 GASLIMIT PUSH14 0x7069726520696E20796561727320 CALLVALUE ORIGIN ADDRESS 0x2D CALLVALUE CALLDATACOPY CALLDATASIZE KECCAK256 NUMBER 0x2E GASLIMIT 0x2E EXTCODEHASH LOG2 PUSH5 0x6970667358 0x22 SLT KECCAK256 SELFDESTRUCT 0xE7 0xEC SWAP8 STATICCALL 0xA6 CREATE2 DUP1 LOG4 DUP9 0x2C 0xC9 GT PUSH9 0x41C34AFC628756C556 0x4A 0x2C 0x48 0xE2 0xC2 0x5E 0xE3 0xCD 0xCC PUSH5 0x736F6C6343 STOP ADDMOD MOD STOP CALLER SLOAD PUSH9 0x6973207469746C6520 PUSH24 0x617320676976656E20746F20417572656C69616E20616674 PUSH6 0x722068652072 PUSH6 0x696E74656772 PUSH2 0x7465 PUSH5 0x2073657061 PUSH19 0x617469737420737461746573206F662050616C PUSH14 0x6572696E6520616E642047616C6C PUSH10 0x6320456D706972657320 PUSH10 0x6E2032373320616E6420 ORIGIN CALLDATACOPY CALLVALUE KECCAK256 PUSH19 0x6573706563746976656C792E426174746C6520 PUSH16 0x6620436174616C756E79616E20506C61 PUSH10 0x6E73206973207365656E KECCAK256 PUSH2 0x7320 MSTORE PUSH16 0x6D652773206C61737420677265617420 PUSH23 0x6963746F72792E2057686F20636F6D6D616E6465642052 PUSH16 0x6D616E20666F726365733F4974207761 PUSH20 0x2061206E69636B6E616D65206F66204E696B6570 PUSH9 0x6F726F732049492050 PUSH9 0x6F6B61732C20656172 PUSH15 0x656420627920686973206D616E7920 PUSH23 0x6963746F7269657320616761696E737420417261626963 KECCAK256 PUSH7 0x6F726365732C20 PUSH10 0x6E636C7564696E672072 PUSH6 0x636F6E717565 PUSH20 0x74206F6620437265746520616E642043696C6963 PUSH10 0x612E5768696368206F66 KECCAK256 PUSH21 0x6865736520626174746C65732064696420656E6420 PUSH24 0x69746820526F6D616E20766963746F72793F576869636820 PUSH16 0x6620746865736520526F6D616E20656D PUSH17 0x65726F727320776173207469746C656420 MSTORE PUSH6 0x73746F726572 KECCAK256 PUSH16 0x662074686520576F726C643F44657369 PUSH19 0x65206F66205065727369616E20736861682074 PUSH16 0x206176656E6765206D7572646572206F PUSH7 0x20526F6D616E20 PUSH6 0x6D7065726F72 0x2E TIMESTAMP PUSH6 0x6C6973617269 PUSH22 0x73206C656420526F6D616E20666F7263657320616761 PUSH10 0x6E73742056616E64616C PUSH10 0x632061726D7920756E64 PUSH6 0x722047656C69 PUSH14 0x657220616E64206869732062726F PUSH21 0x68657220416D6D617461732E20526F6D616E207669 PUSH4 0x746F7279 KECCAK256 PUSH13 0x656420746F207265636F6E7175 PUSH6 0x7374206F6620 COINBASE PUSH7 0x726963612E4465 PUSH7 0x656174206F6620 MSTORE PUSH16 0x6D616E6F73204956206174204D616E7A PUSH10 0x6B65727420696E203130 CALLDATACOPY BALANCE KECCAK256 PUSH4 0x61757365 PUSH5 0x206D617373 PUSH10 0x7665206368616F732069 PUSH15 0x20526F6D616E20656D706972652E20 JUMPI PUSH9 0x656E20656D7065726F PUSH19 0x20416C6578696F73204B6F6D6E656E6F732074 PUSH19 0x69656420746F20756E646F207468652064616D PUSH2 0x6765 KECCAK256 PUSH2 0x6E64 KECCAK256 PUSH19 0x65636C61696D20416E61746F6C69612C206865 KECCAK256 PUSH2 0x736B PUSH6 0x6420706F7065 KECCAK256 PUSH10 0x6E20526F6D6520666F72 KECCAK256 PUSH14 0x657263656E61726965732E20496E PUSH20 0x746561642C2074686520706F7065206F7267616E PUSH10 0x73656420637275736164 PUSH6 0x732E526F6D61 PUSH15 0x207265667573616C20746F20706179 KECCAK256 PUSH20 0x756273696469657320746F2053617373616E6964 PUSH20 0x2E526176656E6E61207761732073656174206F66 KECCAK256 PUSH21 0x6865207765737465726E20456D7065726F72207369 PUSH15 0x6365206974207265706C6163656420 0x4D PUSH10 0x6C616E20696E20343031 KECCAK256 NUMBER 0x2E GASLIMIT 0x2E 0x2C KECCAK256 PUSH22 0x6E74696C6C204F646F6163657272206465706F736564 KECCAK256 PUSH6 0x6D7065726F72 KECCAK256 MSTORE PUSH16 0x6D756C757320417567757374756C7573 0x2E JUMPI PUSH9 0x6963682067656E6572 PUSH2 0x6C20 PUSH4 0x6F6D6D61 PUSH15 0x64656420526F6D616E20666F726365 PUSH20 0x20696E20626174746C65206F6620416420446563 PUSH10 0x6D756D3F576869636820 PUSH6 0x6D7065726F72 KECCAK256 PUSH24 0x6173206E69636B6E616D656420275468652050616C652044 PUSH6 0x617468206F66 KECCAK256 MSTORE8 PUSH2 0x7261 PUSH4 0x656E7327 EXTCODEHASH MSTORE8 PUSH2 0x7373 PUSH2 0x6E69 PUSH5 0x2073686168 KECCAK256 0x4B PUSH9 0x6F73726F7720494920 PUSH24 0x616E74656420746F206176656E6765206D7572646572206F PUSH7 0x20656D7065726F PUSH19 0x204D61757269636520647572696E672050686F PUSH12 0x6173207265766F6C742C2077 PUSH9 0x6F6D206865206F7765 PUSH5 0x2068697320 PUSH21 0x68726F6E6520616E6420636F6E7369646572656420 PUSH17 0x6572736F6E616C20667269656E642E2049 PUSH21 0x206973207175697465206C696B656C792068652069 PUSH15 0x74656E64656420746F20636F6E7175 PUSH6 0x722045677970 PUSH21 0x20616E642053797269612C20627574207468617420 PUSH24 0x61736E277420757365642061732063617375732062656C69 0x2E TIMESTAMP PUSH16 0x72646572206672696374696F6E206E65 PUSH2 0x7220 PUSH21 0x686520666F727472657373206F6620446172612E42 PUSH2 0x7474 PUSH13 0x65206F66204964697374617669 PUSH20 0x6F20746F6F6B20706C61636520696E2031362043 0x2E GASLIMIT 0x2E KECCAK256 MSTORE PUSH16 0x6D616E2061726D79206C656420627920 SELFBALANCE PUSH6 0x726D616E6963 PUSH22 0x73206465666561746564206765726D616E696320636F PUSH15 0x66656465726174696F6E206F662041 PUSH19 0x6D696E6975732C2061726368696576696E6720 MSTORE PUSH16 0x6D616E20676F616C206F66206176656E PUSH8 0x696E672064656665 PUSH2 0x7420 PUSH10 0x6E20546575746F626F72 PUSH8 0x20466F726573742E JUMPI PUSH9 0x696368206F66207468 PUSH6 0x736520526F6D PUSH2 0x6E20 PUSH5 0x6566656174 PUSH20 0x206361757365642063727573616465733F456D70 PUSH6 0x726F72204865 PUSH19 0x61636C69757320706C616E6E656420746F206D PUSH16 0x7665206361706974616C206177617920 PUSH7 0x726F6D20436F6E PUSH20 0x74616E74696E6F706F6C652E20546F2077686963 PUSH9 0x20636974793F576861 PUSH21 0x2077617320746865206F6666696369616C20636175 PUSH20 0x65206F66206C61737420526F6D616E2D53617373 PUSH2 0x6E69 PUSH5 0x207761723F JUMPI PUSH9 0x656E2053617373616E PUSH10 0x642061726D6965732062 PUSH6 0x736567656420 NUMBER PUSH16 0x6E7374616E74696E6F706F6C652C2048 PUSH6 0x7261636C6975 PUSH20 0x20706C616E6E656420746F206D6F766520636170 PUSH10 0x74616C20746F20436172 PUSH21 0x686167652C20617761792066726F6D205065727369 PUSH2 0x6E2C KECCAK256 MSTORE8 PUSH13 0x617620616E6420417661722074 PUSH9 0x726561742E42617474 PUSH13 0x65206F6620436174616C756E79 PUSH2 0x6E20 POP PUSH13 0x61696E7320746F6F6B20706C61 PUSH4 0x6520696E KECCAK256 CALLVALUE CALLDATALOAD BALANCE KECCAK256 NUMBER 0x2E GASLIMIT KECCAK256 PUSH3 0x657477 PUSH6 0x656E2048756E PUSH20 0x206C656420627920417474696C6120616E642052 PUSH16 0x6D616E6F2D4765726D616E20636F616C PUSH13 0x6974696F6E206C656420627920 CHAINID PUSH13 0x61766975732041657469757320 PUSH2 0x6E64 KECCAK256 PUSH12 0x696E67205468656F646F7269 PUSH4 0x20492E57 PUSH9 0x696368206369747920 PUSH24 0x617320746865206361706974616C206F6620776573746572 PUSH15 0x2070617274206F6620526F6D616E20 GASLIMIT PUSH14 0x7069726520696E20796561727320 CALLVALUE ORIGIN ADDRESS 0x2D CALLVALUE CALLDATACOPY CALLDATASIZE KECCAK256 NUMBER 0x2E GASLIMIT 0x2E EXTCODEHASH "
		},
		"gasEstimates": {
			"creation": {
				"codeDepositCost": "2737000",
				"executionCost": "infinite",
				"totalCost": "infinite"
			},
			"external": {
				"answers(string,uint256,uint256)": "infinite",
				"createQuiz(string,(string,uint256,string)[],string[])": "infinite",
				"ereQuiz()": "infinite",
				"getQuizQuestions(string)": "infinite",
				"quizMap(string,uint256)": "infinite",
				"romanQuiz()": "infinite"
			}
		},
		"methodIdentifiers": {
			"answers(string,uint256,uint256)": "e6c1e335",
			"createQuiz(string,(string,uint256,string)[],string[])": "077a3735",
			"ereQuiz()": "04f268ed",
			"getQuizQuestions(string)": "b6c56385",
			"quizMap(string,uint256)": "7ede6fdf",
			"romanQuiz()": "961c37cc"
		}
	},
	"abi": [
		{
			"inputs": [],
			"stateMutability": "nonpayable",
			"type": "constructor"
		},
		{
			"inputs": [
				{
					"internalType": "string",
					"name": "",
					"type": "string"
				},
				{
					"internalType": "uint256",
					"name": "",
					"type": "uint256"
				},
				{
					"internalType": "uint256",
					"name": "",
					"type": "uint256"
				}
			],
			"name": "answers",
			"outputs": [
				{
					"internalType": "string",
					"name": "",
					"type": "string"
				}
			],
			"stateMutability": "view",
			"type": "function"
		},
		{
			"inputs": [
				{
					"internalType": "string",
					"name": "quizName",
					"type": "string"
				},
				{
					"components": [
						{
							"internalType": "string",
							"name": "question",
							"type": "string"
						},
						{
							"internalType": "uint256",
							"name": "correctAnswer",
							"type": "uint256"
						},
						{
							"internalType": "string",
							"name": "description",
							"type": "string"
						}
					],
					"internalType": "struct QuizContract.Question[]",
					"name": "questions",
					"type": "tuple[]"
				},
				{
					"internalType": "string[]",
					"name": "answers",
					"type": "string[]"
				}
			],
			"name": "createQuiz",
			"outputs": [],
			"stateMutability": "nonpayable",
			"type": "function"
		},
		{
			"inputs": [],
			"name": "ereQuiz",
			"outputs": [],
			"stateMutability": "nonpayable",
			"type": "function"
		},
		{
			"inputs": [
				{
					"internalType": "string",
					"name": "quizName",
					"type": "string"
				}
			],
			"name": "getQuizQuestions",
			"outputs": [
				{
					"components": [
						{
							"internalType": "string",
							"name": "question",
							"type": "string"
						},
						{
							"internalType": "uint256",
							"name": "correctAnswer",
							"type": "uint256"
						},
						{
							"internalType": "string",
							"name": "description",
							"type": "string"
						}
					],
					"internalType": "struct QuizContract.Question[]",
					"name": "",
					"type": "tuple[]"
				}
			],
			"stateMutability": "view",
			"type": "function"
		},
		{
			"inputs": [
				{
					"internalType": "string",
					"name": "",
					"type": "string"
				},
				{
					"internalType": "uint256",
					"name": "",
					"type": "uint256"
				}
			],
			"name": "quizMap",
			"outputs": [
				{
					"internalType": "string",
					"name": "question",
					"type": "string"
				},
				{
					"internalType": "uint256",
					"name": "correctAnswer",
					"type": "uint256"
				},
				{
					"internalType": "string",
					"name": "description",
					"type": "string"
				}
			],
			"stateMutability": "view",
			"type": "function"
		},
		{
			"inputs": [],
			"name": "romanQuiz",
			"outputs": [],
			"stateMutability": "nonpayable",
			"type": "function"
		}
	]
}